{
  "contractName": "FathomyachtClub",
  "abi": [
    {
      "inputs": [],
      "stateMutability": "nonpayable",
      "type": "constructor"
    },
    {
      "anonymous": false,
      "inputs": [
        {
          "indexed": true,
          "internalType": "address",
          "name": "owner",
          "type": "address"
        },
        {
          "indexed": true,
          "internalType": "address",
          "name": "approved",
          "type": "address"
        },
        {
          "indexed": true,
          "internalType": "uint256",
          "name": "tokenId",
          "type": "uint256"
        }
      ],
      "name": "Approval",
      "type": "event"
    },
    {
      "anonymous": false,
      "inputs": [
        {
          "indexed": true,
          "internalType": "address",
          "name": "owner",
          "type": "address"
        },
        {
          "indexed": true,
          "internalType": "address",
          "name": "operator",
          "type": "address"
        },
        {
          "indexed": false,
          "internalType": "bool",
          "name": "approved",
          "type": "bool"
        }
      ],
      "name": "ApprovalForAll",
      "type": "event"
    },
    {
      "anonymous": false,
      "inputs": [
        {
          "indexed": true,
          "internalType": "address",
          "name": "previousOwner",
          "type": "address"
        },
        {
          "indexed": true,
          "internalType": "address",
          "name": "newOwner",
          "type": "address"
        }
      ],
      "name": "OwnershipTransferred",
      "type": "event"
    },
    {
      "anonymous": false,
      "inputs": [
        {
          "indexed": true,
          "internalType": "address",
          "name": "from",
          "type": "address"
        },
        {
          "indexed": true,
          "internalType": "address",
          "name": "to",
          "type": "address"
        },
        {
          "indexed": true,
          "internalType": "uint256",
          "name": "tokenId",
          "type": "uint256"
        }
      ],
      "name": "Transfer",
      "type": "event"
    },
    {
      "inputs": [
        {
          "internalType": "address",
          "name": "to",
          "type": "address"
        },
        {
          "internalType": "uint256",
          "name": "tokenId",
          "type": "uint256"
        }
      ],
      "name": "approve",
      "outputs": [],
      "stateMutability": "nonpayable",
      "type": "function"
    },
    {
      "inputs": [
        {
          "internalType": "address",
          "name": "owner",
          "type": "address"
        }
      ],
      "name": "balanceOf",
      "outputs": [
        {
          "internalType": "uint256",
          "name": "",
          "type": "uint256"
        }
      ],
      "stateMutability": "view",
      "type": "function"
    },
    {
      "inputs": [
        {
          "internalType": "uint256",
          "name": "tokenId",
          "type": "uint256"
        }
      ],
      "name": "getApproved",
      "outputs": [
        {
          "internalType": "address",
          "name": "",
          "type": "address"
        }
      ],
      "stateMutability": "view",
      "type": "function"
    },
    {
      "inputs": [
        {
          "internalType": "address",
          "name": "owner",
          "type": "address"
        },
        {
          "internalType": "address",
          "name": "operator",
          "type": "address"
        }
      ],
      "name": "isApprovedForAll",
      "outputs": [
        {
          "internalType": "bool",
          "name": "",
          "type": "bool"
        }
      ],
      "stateMutability": "view",
      "type": "function"
    },
    {
      "inputs": [],
      "name": "name",
      "outputs": [
        {
          "internalType": "string",
          "name": "",
          "type": "string"
        }
      ],
      "stateMutability": "view",
      "type": "function"
    },
    {
      "inputs": [],
      "name": "owner",
      "outputs": [
        {
          "internalType": "address",
          "name": "",
          "type": "address"
        }
      ],
      "stateMutability": "view",
      "type": "function"
    },
    {
      "inputs": [
        {
          "internalType": "uint256",
          "name": "tokenId",
          "type": "uint256"
        }
      ],
      "name": "ownerOf",
      "outputs": [
        {
          "internalType": "address",
          "name": "",
          "type": "address"
        }
      ],
      "stateMutability": "view",
      "type": "function"
    },
    {
      "inputs": [],
      "name": "renounceOwnership",
      "outputs": [],
      "stateMutability": "nonpayable",
      "type": "function"
    },
    {
      "inputs": [
        {
          "internalType": "uint256",
          "name": "_tokenId",
          "type": "uint256"
        },
        {
          "internalType": "uint256",
          "name": "_salePrice",
          "type": "uint256"
        }
      ],
      "name": "royaltyInfo",
      "outputs": [
        {
          "internalType": "address",
          "name": "",
          "type": "address"
        },
        {
          "internalType": "uint256",
          "name": "",
          "type": "uint256"
        }
      ],
      "stateMutability": "view",
      "type": "function"
    },
    {
      "inputs": [
        {
          "internalType": "address",
          "name": "from",
          "type": "address"
        },
        {
          "internalType": "address",
          "name": "to",
          "type": "address"
        },
        {
          "internalType": "uint256",
          "name": "tokenId",
          "type": "uint256"
        }
      ],
      "name": "safeTransferFrom",
      "outputs": [],
      "stateMutability": "nonpayable",
      "type": "function"
    },
    {
      "inputs": [
        {
          "internalType": "address",
          "name": "from",
          "type": "address"
        },
        {
          "internalType": "address",
          "name": "to",
          "type": "address"
        },
        {
          "internalType": "uint256",
          "name": "tokenId",
          "type": "uint256"
        },
        {
          "internalType": "bytes",
          "name": "_data",
          "type": "bytes"
        }
      ],
      "name": "safeTransferFrom",
      "outputs": [],
      "stateMutability": "nonpayable",
      "type": "function"
    },
    {
      "inputs": [
        {
          "internalType": "address",
          "name": "operator",
          "type": "address"
        },
        {
          "internalType": "bool",
          "name": "approved",
          "type": "bool"
        }
      ],
      "name": "setApprovalForAll",
      "outputs": [],
      "stateMutability": "nonpayable",
      "type": "function"
    },
    {
      "inputs": [],
      "name": "symbol",
      "outputs": [
        {
          "internalType": "string",
          "name": "",
          "type": "string"
        }
      ],
      "stateMutability": "view",
      "type": "function"
    },
    {
      "inputs": [
        {
          "internalType": "uint256",
          "name": "tokenId",
          "type": "uint256"
        }
      ],
      "name": "tokenURI",
      "outputs": [
        {
          "internalType": "string",
          "name": "",
          "type": "string"
        }
      ],
      "stateMutability": "view",
      "type": "function"
    },
    {
      "inputs": [
        {
          "internalType": "address",
          "name": "from",
          "type": "address"
        },
        {
          "internalType": "address",
          "name": "to",
          "type": "address"
        },
        {
          "internalType": "uint256",
          "name": "tokenId",
          "type": "uint256"
        }
      ],
      "name": "transferFrom",
      "outputs": [],
      "stateMutability": "nonpayable",
      "type": "function"
    },
    {
      "inputs": [
        {
          "internalType": "address",
          "name": "newOwner",
          "type": "address"
        }
      ],
      "name": "transferOwnership",
      "outputs": [],
      "stateMutability": "nonpayable",
      "type": "function"
    },
    {
      "inputs": [
        {
          "internalType": "address[]",
          "name": "lsts",
          "type": "address[]"
        }
      ],
      "name": "addWhiteList",
      "outputs": [],
      "stateMutability": "nonpayable",
      "type": "function"
    },
    {
      "inputs": [
        {
          "internalType": "address[]",
          "name": "lsts",
          "type": "address[]"
        }
      ],
      "name": "removeWhiteList",
      "outputs": [],
      "stateMutability": "nonpayable",
      "type": "function"
    },
    {
      "inputs": [
        {
          "internalType": "uint256",
          "name": "_tokenId",
          "type": "uint256"
        }
      ],
      "name": "getTierNumberOf",
      "outputs": [
        {
          "internalType": "uint8",
          "name": "",
          "type": "uint8"
        }
      ],
      "stateMutability": "view",
      "type": "function"
    },
    {
      "inputs": [
        {
          "internalType": "uint8",
          "name": "tierNumber",
          "type": "uint8"
        }
      ],
      "name": "getTierPrice",
      "outputs": [
        {
          "internalType": "uint256",
          "name": "",
          "type": "uint256"
        }
      ],
      "stateMutability": "view",
      "type": "function"
    },
    {
      "inputs": [
        {
          "internalType": "uint256",
          "name": "price",
          "type": "uint256"
        },
        {
          "internalType": "uint8",
          "name": "tierNumber",
          "type": "uint8"
        }
      ],
      "name": "setTierPrice",
      "outputs": [],
      "stateMutability": "nonpayable",
      "type": "function"
    },
    {
      "inputs": [],
      "name": "getMaxLimit",
      "outputs": [
        {
          "internalType": "uint256",
          "name": "",
          "type": "uint256"
        }
      ],
      "stateMutability": "view",
      "type": "function"
    },
    {
      "inputs": [
        {
          "internalType": "uint256",
          "name": "limit",
          "type": "uint256"
        }
      ],
      "name": "setMaxLimit",
      "outputs": [],
      "stateMutability": "nonpayable",
      "type": "function"
    },
    {
      "inputs": [],
      "name": "getMaxMintableLimit",
      "outputs": [
        {
          "internalType": "uint256",
          "name": "",
          "type": "uint256"
        }
      ],
      "stateMutability": "view",
      "type": "function"
    },
    {
      "inputs": [
        {
          "internalType": "uint256",
          "name": "limit",
          "type": "uint256"
        }
      ],
      "name": "setMaxMintableLimit",
      "outputs": [],
      "stateMutability": "nonpayable",
      "type": "function"
    },
    {
      "inputs": [
        {
          "internalType": "uint8",
          "name": "tierNumber",
          "type": "uint8"
        }
      ],
      "name": "getTierLimit",
      "outputs": [
        {
          "internalType": "uint256",
          "name": "",
          "type": "uint256"
        }
      ],
      "stateMutability": "view",
      "type": "function"
    },
    {
      "inputs": [
        {
          "internalType": "uint256",
          "name": "limit",
          "type": "uint256"
        },
        {
          "internalType": "uint8",
          "name": "tierNumber",
          "type": "uint8"
        }
      ],
      "name": "setTierMintLimit",
      "outputs": [],
      "stateMutability": "nonpayable",
      "type": "function"
    },
    {
      "inputs": [],
      "name": "withDraw",
      "outputs": [],
      "stateMutability": "nonpayable",
      "type": "function"
    },
    {
      "inputs": [
        {
          "internalType": "uint256",
          "name": "_tokenId",
          "type": "uint256"
        }
      ],
      "name": "getTokenURI",
      "outputs": [
        {
          "internalType": "string",
          "name": "",
          "type": "string"
        }
      ],
      "stateMutability": "view",
      "type": "function"
    },
    {
      "inputs": [
        {
          "internalType": "string",
          "name": "_batchTokenURI",
          "type": "string"
        }
      ],
      "name": "setTokenBatchURI",
      "outputs": [],
      "stateMutability": "nonpayable",
      "type": "function"
    },
    {
      "inputs": [
        {
          "internalType": "uint256",
          "name": "number",
          "type": "uint256"
        },
        {
          "internalType": "string",
          "name": "tokenURI",
          "type": "string"
        }
      ],
      "name": "setTokenURI",
      "outputs": [],
      "stateMutability": "nonpayable",
      "type": "function"
    },
    {
      "inputs": [
        {
          "internalType": "uint256",
          "name": "number",
          "type": "uint256"
        },
        {
          "internalType": "uint8",
          "name": "tierNumber",
          "type": "uint8"
        }
      ],
      "name": "mintBatch",
      "outputs": [
        {
          "internalType": "uint256",
          "name": "",
          "type": "uint256"
        }
      ],
      "stateMutability": "payable",
      "type": "function"
    },
    {
      "inputs": [],
      "name": "totalSupply",
      "outputs": [
        {
          "internalType": "uint256",
          "name": "",
          "type": "uint256"
        }
      ],
      "stateMutability": "view",
      "type": "function"
    },
    {
      "inputs": [
        {
          "internalType": "bytes4",
          "name": "interfaceId",
          "type": "bytes4"
        }
      ],
      "name": "supportsInterface",
      "outputs": [
        {
          "internalType": "bool",
          "name": "",
          "type": "bool"
        }
      ],
      "stateMutability": "view",
      "type": "function"
    },
    {
      "inputs": [
        {
          "internalType": "address",
          "name": "receiver",
          "type": "address"
        },
        {
          "internalType": "uint96",
          "name": "feeNumerator",
          "type": "uint96"
        }
      ],
      "name": "setRoality",
      "outputs": [],
      "stateMutability": "nonpayable",
      "type": "function"
    },
    {
      "inputs": [],
      "name": "getLatestPrice",
      "outputs": [
        {
          "internalType": "int256",
          "name": "",
          "type": "int256"
        }
      ],
      "stateMutability": "view",
      "type": "function"
    },
    {
      "inputs": [],
      "name": "getLocalPrice",
      "outputs": [
        {
          "internalType": "int256",
          "name": "",
          "type": "int256"
        }
      ],
      "stateMutability": "pure",
      "type": "function"
    }
  ],
  "bytecode": "0x6080604052612710600b556103e8600c556040518060a00160405280603260ff168152602001606460ff168152602001609660ff168152602001600060ff168152602001600060ff16815250600e9060056200005d9291906200057c565b506040518060a00160405280606460ff168152602001606460ff168152602001603260ff168152602001600060ff168152602001600060ff16815250600f906005620000ab9291906200057c565b506040518060a0016040528061038461ffff16815260200161038461ffff1681526020016103b661ffff168152602001600061ffff168152602001600061ffff16815250601090600562000101929190620005d3565b506040518060a00160405280611f4061ffff168152602001600061ffff1681526020016107d061ffff168152602001610fa061ffff16815260200161177061ffff16815250601190600562000158929190620005d3565b50604051806080016040528060508152602001620064d860509139601290805190602001906200018a9291906200062b565b506040518060400160405280629ca14862ffffff168152602001629f436162ffffff168152506013906002620001c2929190620006bc565b50348015620001d057600080fd5b506040518060400160405280601181526020017f466174686f6d20596163687420436c75620000000000000000000000000000008152506040518060400160405280600381526020017f46594300000000000000000000000000000000000000000000000000000000008152508160009080519060200190620002559291906200062b565b5080600190805190602001906200026e9291906200062b565b50505062000291620002856200030060201b60201c565b6200030860201b60201c565b620002a5336103e8620003ce60201b60201c565b738a753747a1fa494ec906ce90e9f37563a8af630e601760006101000a81548173ffffffffffffffffffffffffffffffffffffffff021916908373ffffffffffffffffffffffffffffffffffffffff160217905550620008b4565b600033905090565b6000600960009054906101000a900473ffffffffffffffffffffffffffffffffffffffff16905081600960006101000a81548173ffffffffffffffffffffffffffffffffffffffff021916908373ffffffffffffffffffffffffffffffffffffffff1602179055508173ffffffffffffffffffffffffffffffffffffffff168173ffffffffffffffffffffffffffffffffffffffff167f8be0079c531659141344cd1fd0a4f28419497f9722a3daafe3b4186f6b6457e060405160405180910390a35050565b620003de6200057260201b60201c565b6bffffffffffffffffffffffff16816bffffffffffffffffffffffff1611156200043f576040517f08c379a00000000000000000000000000000000000000000000000000000000081526004016200043690620007bb565b60405180910390fd5b600073ffffffffffffffffffffffffffffffffffffffff168273ffffffffffffffffffffffffffffffffffffffff161415620004b2576040517f08c379a0000000000000000000000000000000000000000000000000000000008152600401620004a9906200082d565b60405180910390fd5b60405180604001604052808373ffffffffffffffffffffffffffffffffffffffff168152602001826bffffffffffffffffffffffff16815250600760008201518160000160006101000a81548173ffffffffffffffffffffffffffffffffffffffff021916908373ffffffffffffffffffffffffffffffffffffffff16021790555060208201518160000160146101000a8154816bffffffffffffffffffffffff02191690836bffffffffffffffffffffffff1602179055509050505050565b6000612710905090565b828054828255906000526020600020908101928215620005c0579160200282015b82811115620005bf578251829060ff169055916020019190600101906200059d565b5b509050620005cf919062000715565b5090565b82805482825590600052602060002090810192821562000618579160200282015b8281111562000617578251829061ffff16905591602001919060010190620005f4565b5b50905062000627919062000715565b5090565b82805462000639906200087e565b90600052602060002090601f0160209004810192826200065d5760008555620006a9565b82601f106200067857805160ff1916838001178555620006a9565b82800160010185558215620006a9579182015b82811115620006a85782518255916020019190600101906200068b565b5b509050620006b8919062000715565b5090565b82805482825590600052602060002090810192821562000702579160200282015b8281111562000701578251829062ffffff16905591602001919060010190620006dd565b5b50905062000711919062000715565b5090565b5b808211156200073057600081600090555060010162000716565b5090565b600082825260208201905092915050565b7f455243323938313a20726f79616c7479206665652077696c6c2065786365656460008201527f2073616c65507269636500000000000000000000000000000000000000000000602082015250565b6000620007a3602a8362000734565b9150620007b08262000745565b604082019050919050565b60006020820190508181036000830152620007d68162000794565b9050919050565b7f455243323938313a20696e76616c696420726563656976657200000000000000600082015250565b60006200081560198362000734565b91506200082282620007dd565b602082019050919050565b60006020820190508181036000830152620008488162000806565b9050919050565b7f4e487b7100000000000000000000000000000000000000000000000000000000600052602260045260246000fd5b600060028204905060018216806200089757607f821691505b60208210811415620008ae57620008ad6200084f565b5b50919050565b615c1480620008c46000396000f3fe60806040526004361061021a5760003560e01c80636352211e11610123578063a22cb465116100ab578063dc3c233a1161006f578063dc3c233a146107f7578063ddce569f14610822578063df6d48431461084b578063e985e9c514610876578063f2fde38b146108b35761021a565b8063a22cb4651461070f578063b88d4fde14610738578063bf8bcee414610761578063c1a071f11461078a578063c87b56dd146107ba5761021a565b8063856e679c116100f2578063856e679c146106285780638da5cb5b146106655780638e15f47314610690578063956c9c6d146106bb57806395d89b41146106e45761021a565b80636352211e1461055a578063669aa2a31461059757806370a08231146105d4578063715018a6146106115761021a565b80632a55205a116101a657806342842e0e1161017557806342842e0e146104795780634815df1d146104a25780635586402d146104cb5780635e1045ec1461050857806361214582146105315761021a565b80632a55205a146103ac57806331192493146103ea57806339745791146104135780633bb3a24d1461043c5761021a565b8063095ea7b3116101ed578063095ea7b3146102ef5780630fdb1c1014610318578063162094c41461032f57806318160ddd1461035857806323b872dd146103835761021a565b8063016e6fe11461021f57806301ffc9a71461024a57806306fdde0314610287578063081812fc146102b2575b600080fd5b34801561022b57600080fd5b506102346108dc565b6040516102419190613c6c565b60405180910390f35b34801561025657600080fd5b50610271600480360381019061026c9190613cf3565b6108e6565b60405161027e9190613d3b565b60405180910390f35b34801561029357600080fd5b5061029c6108f8565b6040516102a99190613def565b60405180910390f35b3480156102be57600080fd5b506102d960048036038101906102d49190613e3d565b61098a565b6040516102e69190613eab565b60405180910390f35b3480156102fb57600080fd5b5061031660048036038101906103119190613ef2565b610a0f565b005b34801561032457600080fd5b5061032d610b27565b005b34801561033b57600080fd5b5061035660048036038101906103519190614067565b610c5f565b005b34801561036457600080fd5b5061036d610ce9565b60405161037a9190613c6c565b60405180910390f35b34801561038f57600080fd5b506103aa60048036038101906103a591906140c3565b610d65565b005b3480156103b857600080fd5b506103d360048036038101906103ce9190614116565b610dc5565b6040516103e1929190614156565b60405180910390f35b3480156103f657600080fd5b50610411600480360381019061040c9190613e3d565b610fb0565b005b34801561041f57600080fd5b5061043a60048036038101906104359190614247565b611036565b005b34801561044857600080fd5b50610463600480360381019061045e9190613e3d565b61114e565b6040516104709190613def565b60405180910390f35b34801561048557600080fd5b506104a0600480360381019061049b91906140c3565b611367565b005b3480156104ae57600080fd5b506104c960048036038101906104c491906142d4565b611387565b005b3480156104d757600080fd5b506104f260048036038101906104ed919061434d565b611411565b6040516104ff9190613c6c565b60405180910390f35b34801561051457600080fd5b5061052f600480360381019061052a9190614247565b611492565b005b34801561053d57600080fd5b506105586004803603810190610553919061437a565b6115aa565b005b34801561056657600080fd5b50610581600480360381019061057c9190613e3d565b611640565b60405161058e9190613eab565b60405180910390f35b3480156105a357600080fd5b506105be60048036038101906105b99190613e3d565b6116f2565b6040516105cb91906143d2565b60405180910390f35b3480156105e057600080fd5b506105fb60048036038101906105f691906143ed565b61171c565b6040516106089190613c6c565b60405180910390f35b34801561061d57600080fd5b506106266117d4565b005b34801561063457600080fd5b5061064f600480360381019061064a919061434d565b61185c565b60405161065c9190613c6c565b60405180910390f35b34801561067157600080fd5b5061067a611964565b6040516106879190613eab565b60405180910390f35b34801561069c57600080fd5b506106a561198e565b6040516106b29190614433565b60405180910390f35b3480156106c757600080fd5b506106e260048036038101906106dd919061444e565b611a2f565b005b3480156106f057600080fd5b506106f9611b2c565b6040516107069190613def565b60405180910390f35b34801561071b57600080fd5b50610736600480360381019061073191906144ba565b611bbe565b005b34801561074457600080fd5b5061075f600480360381019061075a919061459b565b611bd4565b005b34801561076d57600080fd5b5061078860048036038101906107839190613e3d565b611c36565b005b6107a4600480360381019061079f919061444e565b611cbc565b6040516107b19190613c6c565b60405180910390f35b3480156107c657600080fd5b506107e160048036038101906107dc9190613e3d565b6122ae565b6040516107ee9190613def565b60405180910390f35b34801561080357600080fd5b5061080c612400565b6040516108199190614433565b60405180910390f35b34801561082e57600080fd5b506108496004803603810190610844919061444e565b612412565b005b34801561085757600080fd5b50610860612589565b60405161086d9190613c6c565b60405180910390f35b34801561088257600080fd5b5061089d6004803603810190610898919061461e565b612593565b6040516108aa9190613d3b565b60405180910390f35b3480156108bf57600080fd5b506108da60048036038101906108d591906143ed565b612627565b005b6000600c54905090565b60006108f18261271f565b9050919050565b6060600080546109079061468d565b80601f01602080910402602001604051908101604052809291908181526020018280546109339061468d565b80156109805780601f1061095557610100808354040283529160200191610980565b820191906000526020600020905b81548152906001019060200180831161096357829003601f168201915b5050505050905090565b600061099582612799565b6109d4576040517f08c379a00000000000000000000000000000000000000000000000000000000081526004016109cb90614731565b60405180910390fd5b6004600083815260200190815260200160002060009054906101000a900473ffffffffffffffffffffffffffffffffffffffff169050919050565b6000610a1a82611640565b90508073ffffffffffffffffffffffffffffffffffffffff168373ffffffffffffffffffffffffffffffffffffffff161415610a8b576040517f08c379a0000000000000000000000000000000000000000000000000000000008152600401610a82906147c3565b60405180910390fd5b8073ffffffffffffffffffffffffffffffffffffffff16610aaa612805565b73ffffffffffffffffffffffffffffffffffffffff161480610ad95750610ad881610ad3612805565b612593565b5b610b18576040517f08c379a0000000000000000000000000000000000000000000000000000000008152600401610b0f90614855565b60405180910390fd5b610b22838361280d565b505050565b610b2f612805565b73ffffffffffffffffffffffffffffffffffffffff16610b4d611964565b73ffffffffffffffffffffffffffffffffffffffff1614610ba3576040517f08c379a0000000000000000000000000000000000000000000000000000000008152600401610b9a906148c1565b60405180910390fd5b6000610bad611964565b905060008173ffffffffffffffffffffffffffffffffffffffff1647604051610bd590614912565b60006040518083038185875af1925050503d8060008114610c12576040519150601f19603f3d011682016040523d82523d6000602084013e610c17565b606091505b5050905080610c5b576040517f08c379a0000000000000000000000000000000000000000000000000000000008152600401610c5290614973565b60405180910390fd5b5050565b610c67612805565b73ffffffffffffffffffffffffffffffffffffffff16610c85611964565b73ffffffffffffffffffffffffffffffffffffffff1614610cdb576040517f08c379a0000000000000000000000000000000000000000000000000000000008152600401610cd2906148c1565b60405180910390fd5b610ce582826128c6565b5050565b6000806000905060005b60058160ff161015610d5d57601560008260ff1660ff16815260200190815260200160002054601460008360ff1660ff16815260200190815260200160002054610d3d91906149c2565b82610d4891906149c2565b91508080610d5590614a18565b915050610cf3565b508091505090565b610d76610d70612805565b8261293a565b610db5576040517f08c379a0000000000000000000000000000000000000000000000000000000008152600401610dac90614ab4565b60405180910390fd5b610dc0838383612a18565b505050565b6000806000600860008681526020019081526020016000206040518060400160405290816000820160009054906101000a900473ffffffffffffffffffffffffffffffffffffffff1673ffffffffffffffffffffffffffffffffffffffff1673ffffffffffffffffffffffffffffffffffffffff1681526020016000820160149054906101000a90046bffffffffffffffffffffffff166bffffffffffffffffffffffff166bffffffffffffffffffffffff16815250509050600073ffffffffffffffffffffffffffffffffffffffff16816000015173ffffffffffffffffffffffffffffffffffffffff161415610f5b5760076040518060400160405290816000820160009054906101000a900473ffffffffffffffffffffffffffffffffffffffff1673ffffffffffffffffffffffffffffffffffffffff1673ffffffffffffffffffffffffffffffffffffffff1681526020016000820160149054906101000a90046bffffffffffffffffffffffff166bffffffffffffffffffffffff166bffffffffffffffffffffffff168152505090505b6000610f65612c7f565b6bffffffffffffffffffffffff1682602001516bffffffffffffffffffffffff1686610f919190614ad4565b610f9b9190614b5d565b90508160000151819350935050509250929050565b610fb8612805565b73ffffffffffffffffffffffffffffffffffffffff16610fd6611964565b73ffffffffffffffffffffffffffffffffffffffff161461102c576040517f08c379a0000000000000000000000000000000000000000000000000000000008152600401611023906148c1565b60405180910390fd5b80600c8190555050565b61103e612805565b73ffffffffffffffffffffffffffffffffffffffff1661105c611964565b73ffffffffffffffffffffffffffffffffffffffff16146110b2576040517f08c379a00000000000000000000000000000000000000000000000000000000081526004016110a9906148c1565b60405180910390fd5b60008151905060005b81811015611149576000601660008584815181106110dc576110db614b8e565b5b602002602001015173ffffffffffffffffffffffffffffffffffffffff1673ffffffffffffffffffffffffffffffffffffffff16815260200190815260200160002060006101000a81548160ff021916908360ff160217905550808061114190614bbd565b9150506110bb565b505050565b606060006040518060400160405280600d81526020017f4e6f742073706563696669656400000000000000000000000000000000000000815250905060008311801561119c57506107d08311155b156111de576040518060400160405280600781526020017f2f59616368742f000000000000000000000000000000000000000000000000008152509050611332565b6107d0831180156111f15750610fa08311155b15611233576040518060400160405280600a81526020017f2f50726573746967652f000000000000000000000000000000000000000000008152509050611331565b610fa08311801561124657506117708311155b15611288576040518060400160405280600781526020017f2f556c7472612f000000000000000000000000000000000000000000000000008152509050611330565b6117708311801561129b5750611f408311155b156112dd576040518060400160405280600981526020017f2f526573657276652f0000000000000000000000000000000000000000000000815250905061132f565b611f40831180156112f057506127108311155b1561132e576040518060400160405280600781526020017f2f506f7765722f0000000000000000000000000000000000000000000000000081525090505b5b5b5b5b60128161133e85612c89565b60405160200161135093929190614cd6565b604051602081830303815290604052915050919050565b61138283838360405180602001604052806000815250611bd4565b505050565b61138f612805565b73ffffffffffffffffffffffffffffffffffffffff166113ad611964565b73ffffffffffffffffffffffffffffffffffffffff1614611403576040517f08c379a00000000000000000000000000000000000000000000000000000000081526004016113fa906148c1565b60405180910390fd5b61140d8282612f96565b5050565b6000808260ff161015801561142a575060028260ff1611155b611469576040517f08c379a000000000000000000000000000000000000000000000000000000000815260040161146090614d53565b60405180910390fd5b600e8260ff16815481106114805761147f614b8e565b5b90600052602060002001549050919050565b61149a612805565b73ffffffffffffffffffffffffffffffffffffffff166114b8611964565b73ffffffffffffffffffffffffffffffffffffffff161461150e576040517f08c379a0000000000000000000000000000000000000000000000000000000008152600401611505906148c1565b60405180910390fd5b60008151905060005b818110156115a55760016016600085848151811061153857611537614b8e565b5b602002602001015173ffffffffffffffffffffffffffffffffffffffff1673ffffffffffffffffffffffffffffffffffffffff16815260200190815260200160002060006101000a81548160ff021916908360ff160217905550808061159d90614bbd565b915050611517565b505050565b6115b2612805565b73ffffffffffffffffffffffffffffffffffffffff166115d0611964565b73ffffffffffffffffffffffffffffffffffffffff1614611626576040517f08c379a000000000000000000000000000000000000000000000000000000000815260040161161d906148c1565b60405180910390fd5b806012908051906020019061163c929190613bb0565b5050565b6000806002600084815260200190815260200160002060009054906101000a900473ffffffffffffffffffffffffffffffffffffffff169050600073ffffffffffffffffffffffffffffffffffffffff168173ffffffffffffffffffffffffffffffffffffffff1614156116e9576040517f08c379a00000000000000000000000000000000000000000000000000000000081526004016116e090614de5565b60405180910390fd5b80915050919050565b6000600d600083815260200190815260200160002060009054906101000a900460ff169050919050565b60008073ffffffffffffffffffffffffffffffffffffffff168273ffffffffffffffffffffffffffffffffffffffff16141561178d576040517f08c379a000000000000000000000000000000000000000000000000000000000815260040161178490614e77565b60405180910390fd5b600360008373ffffffffffffffffffffffffffffffffffffffff1673ffffffffffffffffffffffffffffffffffffffff168152602001908152602001600020549050919050565b6117dc612805565b73ffffffffffffffffffffffffffffffffffffffff166117fa611964565b73ffffffffffffffffffffffffffffffffffffffff1614611850576040517f08c379a0000000000000000000000000000000000000000000000000000000008152600401611847906148c1565b60405180910390fd5b61185a600061312c565b565b6000808260ff1610158015611875575060028260ff1611155b6118b4576040517f08c379a00000000000000000000000000000000000000000000000000000000081526004016118ab90614ee3565b60405180910390fd5b600043905060136001815481106118ce576118cd614b8e565b5b906000526020600020015481106119095760108360ff16815481106118f6576118f5614b8e565b5b906000526020600020015491505061195f565b601360008154811061191e5761191d614b8e565b5b9060005260206000200154811061195957600f8360ff168154811061194657611945614b8e565b5b906000526020600020015491505061195f565b60009150505b919050565b6000600960009054906101000a900473ffffffffffffffffffffffffffffffffffffffff16905090565b600080601760009054906101000a900473ffffffffffffffffffffffffffffffffffffffff1673ffffffffffffffffffffffffffffffffffffffff1663feaf968c6040518163ffffffff1660e01b815260040160a060405180830381865afa1580156119fe573d6000803e3d6000fd5b505050506040513d601f19601f82011682018060405250810190611a229190614f86565b5050509150508091505090565b611a37612805565b73ffffffffffffffffffffffffffffffffffffffff16611a55611964565b73ffffffffffffffffffffffffffffffffffffffff1614611aab576040517f08c379a0000000000000000000000000000000000000000000000000000000008152600401611aa2906148c1565b60405180910390fd5b60008160ff1610158015611ac3575060028160ff1611155b611b02576040517f08c379a0000000000000000000000000000000000000000000000000000000008152600401611af990614ee3565b60405180910390fd5b81600e8260ff1681548110611b1a57611b19614b8e565b5b90600052602060002001819055505050565b606060018054611b3b9061468d565b80601f0160208091040260200160405190810160405280929190818152602001828054611b679061468d565b8015611bb45780601f10611b8957610100808354040283529160200191611bb4565b820191906000526020600020905b815481529060010190602001808311611b9757829003601f168201915b5050505050905090565b611bd0611bc9612805565b83836131f2565b5050565b611be5611bdf612805565b8361293a565b611c24576040517f08c379a0000000000000000000000000000000000000000000000000000000008152600401611c1b90614ab4565b60405180910390fd5b611c308484848461335f565b50505050565b611c3e612805565b73ffffffffffffffffffffffffffffffffffffffff16611c5c611964565b73ffffffffffffffffffffffffffffffffffffffff1614611cb2576040517f08c379a0000000000000000000000000000000000000000000000000000000008152600401611ca9906148c1565b60405180910390fd5b80600b8190555050565b600082826000600e8260ff1681548110611cd957611cd8614b8e565b5b90600052602060002001541415611d25576040517f08c379a0000000000000000000000000000000000000000000000000000000008152600401611d1c9061504d565b60405180910390fd5b6002821115611d69576040517f08c379a0000000000000000000000000000000000000000000000000000000008152600401611d60906150df565b60405180910390fd5b60008160ff1610158015611d81575060028160ff1611155b611dc0576040517f08c379a0000000000000000000000000000000000000000000000000000000008152600401611db790614ee3565b60405180910390fd5b6001611dca610ce9565b83611dd591906149c2565b611ddf91906149c2565b600b5411611e22576040517f08c379a0000000000000000000000000000000000000000000000000000000008152600401611e199061514b565b60405180910390fd5b6000611e2d336133bb565b905060008160ff1611611e75576040517f08c379a0000000000000000000000000000000000000000000000000000000008152600401611e6c906151b7565b60405180910390fd5b611e7d61198e565b6a52b7d2dcc80cd2e400000087600e8860ff1681548110611ea157611ea0614b8e565b5b9060005260206000200154611eb69190614ad4565b611ec09190614ad4565b611eca9190614b5d565b341015611f2a611ed8612400565b6a52b7d2dcc80cd2e400000089600e8a60ff1681548110611efc57611efb614b8e565b5b9060005260206000200154611f119190614ad4565b611f1b9190614ad4565b611f259190614b5d565b612c89565b604051602001611f3a9190615249565b60405160208183030381529060405290611f8a576040517f08c379a0000000000000000000000000000000000000000000000000000000008152600401611f819190613def565b60405180910390fd5b50600033905060008173ffffffffffffffffffffffffffffffffffffffff16611fb161198e565b6a52b7d2dcc80cd2e40000008a600e8b60ff1681548110611fd557611fd4614b8e565b5b9060005260206000200154611fea9190614ad4565b611ff49190614ad4565b611ffe9190614b5d565b34612009919061526b565b60405161201590614912565b60006040518083038185875af1925050503d8060008114612052576040519150601f19603f3d011682016040523d82523d6000602084013e612057565b606091505b505090508061209b576040517f08c379a0000000000000000000000000000000000000000000000000000000008152600401612092906152eb565b60405180910390fd5b6000600f9050600060149050600043905060136001815481106120c1576120c0614b8e565b5b906000526020600020015481106120db5760109250601591505b828a60ff16815481106120f1576120f0614b8e565b5b90600052602060002001548b8360008d60ff1660ff1681526020019081526020016000205461212091906149c2565b10612160576040517f08c379a00000000000000000000000000000000000000000000000000000000081526004016121579061537d565b60405180910390fd5b60006121df601560008d60ff1660ff16815260200190815260200160002054601460008e60ff1660ff1681526020019081526020016000205460118e60ff16815481106121b0576121af614b8e565b5b90600052602060002001546121c591906149c2565b6121cf91906149c2565b600a61348590919063ffffffff16565b60005b8c81101561229b576121f4600a613492565b6121fe600a6134a8565b915061220a33836134b6565b8b600d600084815260200190815260200160002060006101000a81548160ff021916908360ff160217905550612248826122438461114e565b610c5f565b8c8460008e60ff1660ff1681526020019081526020016000205461226c91906149c2565b8460008e60ff1660ff16815260200190815260200160002081905550808061229390614bbd565b9150506121e2565b5080995050505050505050505092915050565b60606122b982612799565b6122f8576040517f08c379a00000000000000000000000000000000000000000000000000000000081526004016122ef9061540f565b60405180910390fd5b60006006600084815260200190815260200160002080546123189061468d565b80601f01602080910402602001604051908101604052809291908181526020018280546123449061468d565b80156123915780601f1061236657610100808354040283529160200191612391565b820191906000526020600020905b81548152906001019060200180831161237457829003601f168201915b5050505050905060006123a2613690565b90506000815114156123b85781925050506123fb565b6000825111156123ed5780826040516020016123d592919061542f565b604051602081830303815290604052925050506123fb565b6123f6846136a7565b925050505b919050565b600080643bf4b57c8990508091505090565b61241a612805565b73ffffffffffffffffffffffffffffffffffffffff16612438611964565b73ffffffffffffffffffffffffffffffffffffffff161461248e576040517f08c379a0000000000000000000000000000000000000000000000000000000008152600401612485906148c1565b60405180910390fd5b60008160ff16101580156124a6575060028160ff1611155b6124e5576040517f08c379a00000000000000000000000000000000000000000000000000000000081526004016124dc90614ee3565b60405180910390fd5b600043905060136001815481106124ff576124fe614b8e565b5b90600052602060002001548110612537578260108360ff168154811061252857612527614b8e565b5b90600052602060002001819055505b601360008154811061254c5761254b614b8e565b5b906000526020600020015481106125845782600f8360ff168154811061257557612574614b8e565b5b90600052602060002001819055505b505050565b6000600b54905090565b6000600560008473ffffffffffffffffffffffffffffffffffffffff1673ffffffffffffffffffffffffffffffffffffffff16815260200190815260200160002060008373ffffffffffffffffffffffffffffffffffffffff1673ffffffffffffffffffffffffffffffffffffffff16815260200190815260200160002060009054906101000a900460ff16905092915050565b61262f612805565b73ffffffffffffffffffffffffffffffffffffffff1661264d611964565b73ffffffffffffffffffffffffffffffffffffffff16146126a3576040517f08c379a000000000000000000000000000000000000000000000000000000000815260040161269a906148c1565b60405180910390fd5b600073ffffffffffffffffffffffffffffffffffffffff168173ffffffffffffffffffffffffffffffffffffffff161415612713576040517f08c379a000000000000000000000000000000000000000000000000000000000815260040161270a906154c5565b60405180910390fd5b61271c8161312c565b50565b60007f2a55205a000000000000000000000000000000000000000000000000000000007bffffffffffffffffffffffffffffffffffffffffffffffffffffffff1916827bffffffffffffffffffffffffffffffffffffffffffffffffffffffff1916148061279257506127918261374e565b5b9050919050565b60008073ffffffffffffffffffffffffffffffffffffffff166002600084815260200190815260200160002060009054906101000a900473ffffffffffffffffffffffffffffffffffffffff1673ffffffffffffffffffffffffffffffffffffffff1614159050919050565b600033905090565b816004600083815260200190815260200160002060006101000a81548173ffffffffffffffffffffffffffffffffffffffff021916908373ffffffffffffffffffffffffffffffffffffffff160217905550808273ffffffffffffffffffffffffffffffffffffffff1661288083611640565b73ffffffffffffffffffffffffffffffffffffffff167f8c5be1e5ebec7d5bd14f71427d1e84f3dd0314c0f7b2291e5b200ac8c7c3b92560405160405180910390a45050565b6128cf82612799565b61290e576040517f08c379a000000000000000000000000000000000000000000000000000000000815260040161290590615557565b60405180910390fd5b80600660008481526020019081526020016000209080519060200190612935929190613bb0565b505050565b600061294582612799565b612984576040517f08c379a000000000000000000000000000000000000000000000000000000000815260040161297b906155e9565b60405180910390fd5b600061298f83611640565b90508073ffffffffffffffffffffffffffffffffffffffff168473ffffffffffffffffffffffffffffffffffffffff1614806129fe57508373ffffffffffffffffffffffffffffffffffffffff166129e68461098a565b73ffffffffffffffffffffffffffffffffffffffff16145b80612a0f5750612a0e8185612593565b5b91505092915050565b8273ffffffffffffffffffffffffffffffffffffffff16612a3882611640565b73ffffffffffffffffffffffffffffffffffffffff1614612a8e576040517f08c379a0000000000000000000000000000000000000000000000000000000008152600401612a859061567b565b60405180910390fd5b600073ffffffffffffffffffffffffffffffffffffffff168273ffffffffffffffffffffffffffffffffffffffff161415612afe576040517f08c379a0000000000000000000000000000000000000000000000000000000008152600401612af59061570d565b60405180910390fd5b612b09838383613830565b612b1460008261280d565b6001600360008573ffffffffffffffffffffffffffffffffffffffff1673ffffffffffffffffffffffffffffffffffffffff1681526020019081526020016000206000828254612b64919061526b565b925050819055506001600360008473ffffffffffffffffffffffffffffffffffffffff1673ffffffffffffffffffffffffffffffffffffffff1681526020019081526020016000206000828254612bbb91906149c2565b92505081905550816002600083815260200190815260200160002060006101000a81548173ffffffffffffffffffffffffffffffffffffffff021916908373ffffffffffffffffffffffffffffffffffffffff160217905550808273ffffffffffffffffffffffffffffffffffffffff168473ffffffffffffffffffffffffffffffffffffffff167fddf252ad1be2c89b69c2b068fc378daa952ba7f163c4a11628f55a4df523b3ef60405160405180910390a4612c7a838383613835565b505050565b6000612710905090565b606060006040518060200160405280600081525090506000831415612ce6576040518060400160405280600181526020017f3000000000000000000000000000000000000000000000000000000000000000815250915050612f91565b600083118015612cf65750600a83105b15612d38576040518060400160405280600481526020017f30303030000000000000000000000000000000000000000000000000000000008152509050612e33565b600a8310158015612d495750606483105b15612d8b576040518060400160405280600381526020017f30303000000000000000000000000000000000000000000000000000000000008152509050612e32565b60648310158015612d9d57506103e883105b15612ddf576040518060400160405280600281526020017f30300000000000000000000000000000000000000000000000000000000000008152509050612e31565b6103e88310158015612df2575061271083105b15612e30576040518060400160405280600181526020017f300000000000000000000000000000000000000000000000000000000000000081525090505b5b5b5b600083905060005b60008214612e65578080612e4e90614bbd565b915050600a82612e5e9190614b5d565b9150612e3b565b60008167ffffffffffffffff811115612e8157612e80613f3c565b5b6040519080825280601f01601f191660200182016040528015612eb35781602001600182028036833780820191505090505b50905060008290505b60008714612f6757600181612ed1919061526b565b90506000600a8089612ee39190614b5d565b612eed9190614ad4565b88612ef8919061526b565b6030612f04919061572d565b905060008160f81b905080848481518110612f2257612f21614b8e565b5b60200101907effffffffffffffffffffffffffffffffffffffffffffffffffffffffffffff1916908160001a905350600a89612f5e9190614b5d565b98505050612ebc565b8482604051602001612f7a92919061542f565b604051602081830303815290604052955050505050505b919050565b612f9e612c7f565b6bffffffffffffffffffffffff16816bffffffffffffffffffffffff161115612ffc576040517f08c379a0000000000000000000000000000000000000000000000000000000008152600401612ff3906157d6565b60405180910390fd5b600073ffffffffffffffffffffffffffffffffffffffff168273ffffffffffffffffffffffffffffffffffffffff16141561306c576040517f08c379a000000000000000000000000000000000000000000000000000000000815260040161306390615842565b60405180910390fd5b60405180604001604052808373ffffffffffffffffffffffffffffffffffffffff168152602001826bffffffffffffffffffffffff16815250600760008201518160000160006101000a81548173ffffffffffffffffffffffffffffffffffffffff021916908373ffffffffffffffffffffffffffffffffffffffff16021790555060208201518160000160146101000a8154816bffffffffffffffffffffffff02191690836bffffffffffffffffffffffff1602179055509050505050565b6000600960009054906101000a900473ffffffffffffffffffffffffffffffffffffffff16905081600960006101000a81548173ffffffffffffffffffffffffffffffffffffffff021916908373ffffffffffffffffffffffffffffffffffffffff1602179055508173ffffffffffffffffffffffffffffffffffffffff168173ffffffffffffffffffffffffffffffffffffffff167f8be0079c531659141344cd1fd0a4f28419497f9722a3daafe3b4186f6b6457e060405160405180910390a35050565b8173ffffffffffffffffffffffffffffffffffffffff168373ffffffffffffffffffffffffffffffffffffffff161415613261576040517f08c379a0000000000000000000000000000000000000000000000000000000008152600401613258906158ae565b60405180910390fd5b80600560008573ffffffffffffffffffffffffffffffffffffffff1673ffffffffffffffffffffffffffffffffffffffff16815260200190815260200160002060008473ffffffffffffffffffffffffffffffffffffffff1673ffffffffffffffffffffffffffffffffffffffff16815260200190815260200160002060006101000a81548160ff0219169083151502179055508173ffffffffffffffffffffffffffffffffffffffff168373ffffffffffffffffffffffffffffffffffffffff167f17307eab39ab6107e8899845ad3d59bd9653f200f220920489ca2b5937696c31836040516133529190613d3b565b60405180910390a3505050565b61336a848484612a18565b6133768484848461383a565b6133b5576040517f08c379a00000000000000000000000000000000000000000000000000000000081526004016133ac90615940565b60405180910390fd5b50505050565b60008043905060136001815481106133d6576133d5614b8e565b5b906000526020600020015481106133f1576002915050613480565b601360008154811061340657613405614b8e565b5b9060005260206000200154811061347a576001601660008573ffffffffffffffffffffffffffffffffffffffff1673ffffffffffffffffffffffffffffffffffffffff16815260200190815260200160002060009054906101000a900460ff1660ff161415613479576001915050613480565b5b60009150505b919050565b8082600001819055505050565b6001816000016000828254019250508190555050565b600081600001549050919050565b600073ffffffffffffffffffffffffffffffffffffffff168273ffffffffffffffffffffffffffffffffffffffff161415613526576040517f08c379a000000000000000000000000000000000000000000000000000000000815260040161351d906159ac565b60405180910390fd5b61352f81612799565b1561356f576040517f08c379a000000000000000000000000000000000000000000000000000000000815260040161356690615a18565b60405180910390fd5b61357b60008383613830565b6001600360008473ffffffffffffffffffffffffffffffffffffffff1673ffffffffffffffffffffffffffffffffffffffff16815260200190815260200160002060008282546135cb91906149c2565b92505081905550816002600083815260200190815260200160002060006101000a81548173ffffffffffffffffffffffffffffffffffffffff021916908373ffffffffffffffffffffffffffffffffffffffff160217905550808273ffffffffffffffffffffffffffffffffffffffff16600073ffffffffffffffffffffffffffffffffffffffff167fddf252ad1be2c89b69c2b068fc378daa952ba7f163c4a11628f55a4df523b3ef60405160405180910390a461368c60008383613835565b5050565b606060405180602001604052806000815250905090565b60606136b282612799565b6136f1576040517f08c379a00000000000000000000000000000000000000000000000000000000081526004016136e890615aaa565b60405180910390fd5b60006136fb613690565b9050600081511161371b5760405180602001604052806000815250613746565b80613725846139c2565b60405160200161373692919061542f565b6040516020818303038152906040525b915050919050565b60007f80ac58cd000000000000000000000000000000000000000000000000000000007bffffffffffffffffffffffffffffffffffffffffffffffffffffffff1916827bffffffffffffffffffffffffffffffffffffffffffffffffffffffff1916148061381957507f5b5e139f000000000000000000000000000000000000000000000000000000007bffffffffffffffffffffffffffffffffffffffffffffffffffffffff1916827bffffffffffffffffffffffffffffffffffffffffffffffffffffffff1916145b80613829575061382882613b23565b5b9050919050565b505050565b505050565b600061385b8473ffffffffffffffffffffffffffffffffffffffff16613b8d565b156139b5578373ffffffffffffffffffffffffffffffffffffffff1663150b7a02613884612805565b8786866040518563ffffffff1660e01b81526004016138a69493929190615b1f565b6020604051808303816000875af19250505080156138e257506040513d601f19601f820116820180604052508101906138df9190615b80565b60015b613965573d8060008114613912576040519150601f19603f3d011682016040523d82523d6000602084013e613917565b606091505b5060008151141561395d576040517f08c379a000000000000000000000000000000000000000000000000000000000815260040161395490615940565b60405180910390fd5b805181602001fd5b63150b7a0260e01b7bffffffffffffffffffffffffffffffffffffffffffffffffffffffff1916817bffffffffffffffffffffffffffffffffffffffffffffffffffffffff1916149150506139ba565b600190505b949350505050565b60606000821415613a0a576040518060400160405280600181526020017f30000000000000000000000000000000000000000000000000000000000000008152509050613b1e565b600082905060005b60008214613a3c578080613a2590614bbd565b915050600a82613a359190614b5d565b9150613a12565b60008167ffffffffffffffff811115613a5857613a57613f3c565b5b6040519080825280601f01601f191660200182016040528015613a8a5781602001600182028036833780820191505090505b5090505b60008514613b1757600182613aa3919061526b565b9150600a85613ab29190615bad565b6030613abe91906149c2565b60f81b818381518110613ad457613ad3614b8e565b5b60200101907effffffffffffffffffffffffffffffffffffffffffffffffffffffffffffff1916908160001a905350600a85613b109190614b5d565b9450613a8e565b8093505050505b919050565b60007f01ffc9a7000000000000000000000000000000000000000000000000000000007bffffffffffffffffffffffffffffffffffffffffffffffffffffffff1916827bffffffffffffffffffffffffffffffffffffffffffffffffffffffff1916149050919050565b6000808273ffffffffffffffffffffffffffffffffffffffff163b119050919050565b828054613bbc9061468d565b90600052602060002090601f016020900481019282613bde5760008555613c25565b82601f10613bf757805160ff1916838001178555613c25565b82800160010185558215613c25579182015b82811115613c24578251825591602001919060010190613c09565b5b509050613c329190613c36565b5090565b5b80821115613c4f576000816000905550600101613c37565b5090565b6000819050919050565b613c6681613c53565b82525050565b6000602082019050613c816000830184613c5d565b92915050565b6000604051905090565b600080fd5b600080fd5b60007fffffffff0000000000000000000000000000000000000000000000000000000082169050919050565b613cd081613c9b565b8114613cdb57600080fd5b50565b600081359050613ced81613cc7565b92915050565b600060208284031215613d0957613d08613c91565b5b6000613d1784828501613cde565b91505092915050565b60008115159050919050565b613d3581613d20565b82525050565b6000602082019050613d506000830184613d2c565b92915050565b600081519050919050565b600082825260208201905092915050565b60005b83811015613d90578082015181840152602081019050613d75565b83811115613d9f576000848401525b50505050565b6000601f19601f8301169050919050565b6000613dc182613d56565b613dcb8185613d61565b9350613ddb818560208601613d72565b613de481613da5565b840191505092915050565b60006020820190508181036000830152613e098184613db6565b905092915050565b613e1a81613c53565b8114613e2557600080fd5b50565b600081359050613e3781613e11565b92915050565b600060208284031215613e5357613e52613c91565b5b6000613e6184828501613e28565b91505092915050565b600073ffffffffffffffffffffffffffffffffffffffff82169050919050565b6000613e9582613e6a565b9050919050565b613ea581613e8a565b82525050565b6000602082019050613ec06000830184613e9c565b92915050565b613ecf81613e8a565b8114613eda57600080fd5b50565b600081359050613eec81613ec6565b92915050565b60008060408385031215613f0957613f08613c91565b5b6000613f1785828601613edd565b9250506020613f2885828601613e28565b9150509250929050565b600080fd5b600080fd5b7f4e487b7100000000000000000000000000000000000000000000000000000000600052604160045260246000fd5b613f7482613da5565b810181811067ffffffffffffffff82111715613f9357613f92613f3c565b5b80604052505050565b6000613fa6613c87565b9050613fb28282613f6b565b919050565b600067ffffffffffffffff821115613fd257613fd1613f3c565b5b613fdb82613da5565b9050602081019050919050565b82818337600083830152505050565b600061400a61400584613fb7565b613f9c565b90508281526020810184848401111561402657614025613f37565b5b614031848285613fe8565b509392505050565b600082601f83011261404e5761404d613f32565b5b813561405e848260208601613ff7565b91505092915050565b6000806040838503121561407e5761407d613c91565b5b600061408c85828601613e28565b925050602083013567ffffffffffffffff8111156140ad576140ac613c96565b5b6140b985828601614039565b9150509250929050565b6000806000606084860312156140dc576140db613c91565b5b60006140ea86828701613edd565b93505060206140fb86828701613edd565b925050604061410c86828701613e28565b9150509250925092565b6000806040838503121561412d5761412c613c91565b5b600061413b85828601613e28565b925050602061414c85828601613e28565b9150509250929050565b600060408201905061416b6000830185613e9c565b6141786020830184613c5d565b9392505050565b600067ffffffffffffffff82111561419a57614199613f3c565b5b602082029050602081019050919050565b600080fd5b60006141c36141be8461417f565b613f9c565b905080838252602082019050602084028301858111156141e6576141e56141ab565b5b835b8181101561420f57806141fb8882613edd565b8452602084019350506020810190506141e8565b5050509392505050565b600082601f83011261422e5761422d613f32565b5b813561423e8482602086016141b0565b91505092915050565b60006020828403121561425d5761425c613c91565b5b600082013567ffffffffffffffff81111561427b5761427a613c96565b5b61428784828501614219565b91505092915050565b60006bffffffffffffffffffffffff82169050919050565b6142b181614290565b81146142bc57600080fd5b50565b6000813590506142ce816142a8565b92915050565b600080604083850312156142eb576142ea613c91565b5b60006142f985828601613edd565b925050602061430a858286016142bf565b9150509250929050565b600060ff82169050919050565b61432a81614314565b811461433557600080fd5b50565b60008135905061434781614321565b92915050565b60006020828403121561436357614362613c91565b5b600061437184828501614338565b91505092915050565b6000602082840312156143905761438f613c91565b5b600082013567ffffffffffffffff8111156143ae576143ad613c96565b5b6143ba84828501614039565b91505092915050565b6143cc81614314565b82525050565b60006020820190506143e760008301846143c3565b92915050565b60006020828403121561440357614402613c91565b5b600061441184828501613edd565b91505092915050565b6000819050919050565b61442d8161441a565b82525050565b60006020820190506144486000830184614424565b92915050565b6000806040838503121561446557614464613c91565b5b600061447385828601613e28565b925050602061448485828601614338565b9150509250929050565b61449781613d20565b81146144a257600080fd5b50565b6000813590506144b48161448e565b92915050565b600080604083850312156144d1576144d0613c91565b5b60006144df85828601613edd565b92505060206144f0858286016144a5565b9150509250929050565b600067ffffffffffffffff82111561451557614514613f3c565b5b61451e82613da5565b9050602081019050919050565b600061453e614539846144fa565b613f9c565b90508281526020810184848401111561455a57614559613f37565b5b614565848285613fe8565b509392505050565b600082601f83011261458257614581613f32565b5b813561459284826020860161452b565b91505092915050565b600080600080608085870312156145b5576145b4613c91565b5b60006145c387828801613edd565b94505060206145d487828801613edd565b93505060406145e587828801613e28565b925050606085013567ffffffffffffffff81111561460657614605613c96565b5b6146128782880161456d565b91505092959194509250565b6000806040838503121561463557614634613c91565b5b600061464385828601613edd565b925050602061465485828601613edd565b9150509250929050565b7f4e487b7100000000000000000000000000000000000000000000000000000000600052602260045260246000fd5b600060028204905060018216806146a557607f821691505b602082108114156146b9576146b861465e565b5b50919050565b7f4552433732313a20617070726f76656420717565727920666f72206e6f6e657860008201527f697374656e7420746f6b656e0000000000000000000000000000000000000000602082015250565b600061471b602c83613d61565b9150614726826146bf565b604082019050919050565b6000602082019050818103600083015261474a8161470e565b9050919050565b7f4552433732313a20617070726f76616c20746f2063757272656e74206f776e6560008201527f7200000000000000000000000000000000000000000000000000000000000000602082015250565b60006147ad602183613d61565b91506147b882614751565b604082019050919050565b600060208201905081810360008301526147dc816147a0565b9050919050565b7f4552433732313a20617070726f76652063616c6c6572206973206e6f74206f7760008201527f6e6572206e6f7220617070726f76656420666f7220616c6c0000000000000000602082015250565b600061483f603883613d61565b915061484a826147e3565b604082019050919050565b6000602082019050818103600083015261486e81614832565b9050919050565b7f4f776e61626c653a2063616c6c6572206973206e6f7420746865206f776e6572600082015250565b60006148ab602083613d61565b91506148b682614875565b602082019050919050565b600060208201905081810360008301526148da8161489e565b9050919050565b600081905092915050565b50565b60006148fc6000836148e1565b9150614907826148ec565b600082019050919050565b600061491d826148ef565b9150819050919050565b7f4661696c656420746f2057697468647261772045746865720000000000000000600082015250565b600061495d601883613d61565b915061496882614927565b602082019050919050565b6000602082019050818103600083015261498c81614950565b9050919050565b7f4e487b7100000000000000000000000000000000000000000000000000000000600052601160045260246000fd5b60006149cd82613c53565b91506149d883613c53565b9250827fffffffffffffffffffffffffffffffffffffffffffffffffffffffffffffffff03821115614a0d57614a0c614993565b5b828201905092915050565b6000614a2382614314565b915060ff821415614a3757614a36614993565b5b600182019050919050565b7f4552433732313a207472616e736665722063616c6c6572206973206e6f74206f60008201527f776e6572206e6f7220617070726f766564000000000000000000000000000000602082015250565b6000614a9e603183613d61565b9150614aa982614a42565b604082019050919050565b60006020820190508181036000830152614acd81614a91565b9050919050565b6000614adf82613c53565b9150614aea83613c53565b9250817fffffffffffffffffffffffffffffffffffffffffffffffffffffffffffffffff0483118215151615614b2357614b22614993565b5b828202905092915050565b7f4e487b7100000000000000000000000000000000000000000000000000000000600052601260045260246000fd5b6000614b6882613c53565b9150614b7383613c53565b925082614b8357614b82614b2e565b5b828204905092915050565b7f4e487b7100000000000000000000000000000000000000000000000000000000600052603260045260246000fd5b6000614bc882613c53565b91507fffffffffffffffffffffffffffffffffffffffffffffffffffffffffffffffff821415614bfb57614bfa614993565b5b600182019050919050565b600081905092915050565b60008190508160005260206000209050919050565b60008154614c338161468d565b614c3d8186614c06565b94506001821660008114614c585760018114614c6957614c9c565b60ff19831686528186019350614c9c565b614c7285614c11565b60005b83811015614c9457815481890152600182019150602081019050614c75565b838801955050505b50505092915050565b6000614cb082613d56565b614cba8185614c06565b9350614cca818560208601613d72565b80840191505092915050565b6000614ce28286614c26565b9150614cee8285614ca5565b9150614cfa8284614ca5565b9150819050949350505050565b7f496e76616c69656420746965724e756d626572206f6620617272617900000000600082015250565b6000614d3d601c83613d61565b9150614d4882614d07565b602082019050919050565b60006020820190508181036000830152614d6c81614d30565b9050919050565b7f4552433732313a206f776e657220717565727920666f72206e6f6e657869737460008201527f656e7420746f6b656e0000000000000000000000000000000000000000000000602082015250565b6000614dcf602983613d61565b9150614dda82614d73565b604082019050919050565b60006020820190508181036000830152614dfe81614dc2565b9050919050565b7f4552433732313a2062616c616e636520717565727920666f7220746865207a6560008201527f726f206164647265737300000000000000000000000000000000000000000000602082015250565b6000614e61602a83613d61565b9150614e6c82614e05565b604082019050919050565b60006020820190508181036000830152614e9081614e54565b9050919050565b7f496e76616c69656420746965724e756d626572206f662061727261792e000000600082015250565b6000614ecd601d83613d61565b9150614ed882614e97565b602082019050919050565b60006020820190508181036000830152614efc81614ec0565b9050919050565b600069ffffffffffffffffffff82169050919050565b614f2281614f03565b8114614f2d57600080fd5b50565b600081519050614f3f81614f19565b92915050565b614f4e8161441a565b8114614f5957600080fd5b50565b600081519050614f6b81614f45565b92915050565b600081519050614f8081613e11565b92915050565b600080600080600060a08688031215614fa257614fa1613c91565b5b6000614fb088828901614f30565b9550506020614fc188828901614f5c565b9450506040614fd288828901614f71565b9350506060614fe388828901614f71565b9250506080614ff488828901614f30565b9150509295509295909350565b7f54696572207072696365206973206e6f74207365742e00000000000000000000600082015250565b6000615037601683613d61565b915061504282615001565b602082019050919050565b600060208201905081810360008301526150668161502a565b9050919050565b7f596f7520617265206e6f7420616c6c6f77656420746f20627579206d6f72652060008201527f7468616e203220746f6b656e73206174206f6e63652e00000000000000000000602082015250565b60006150c9603683613d61565b91506150d48261506d565b604082019050919050565b600060208201905081810360008301526150f8816150bc565b9050919050565b7f4e6f7420656e6f75676820746f6b656e73206c65667420746f206275792e0000600082015250565b6000615135601e83613d61565b9150615140826150ff565b602082019050919050565b6000602082019050818103600083015261516481615128565b9050919050565b7f4e6f7420617661696c61626c6520746f206d696e742e00000000000000000000600082015250565b60006151a1601683613d61565b91506151ac8261516b565b602082019050919050565b600060208201905081810360008301526151d081615194565b9050919050565b7f203a416d6f756e74206f662065746865722073656e74206e6f7420636f72726560008201527f63742e0000000000000000000000000000000000000000000000000000000000602082015250565b6000615233602383614c06565b915061523e826151d7565b602382019050919050565b60006152558284614ca5565b915061526082615226565b915081905092915050565b600061527682613c53565b915061528183613c53565b92508282101561529457615293614993565b5b828203905092915050565b7f4661696c656420746f20726566756e6400000000000000000000000000000000600082015250565b60006152d5601083613d61565b91506152e08261529f565b602082019050919050565b60006020820190508181036000830152615304816152c8565b9050919050565b7f4f766572666c6f77206d6178696d756d206d696e74206c696d69746174696f6e60008201527f2e00000000000000000000000000000000000000000000000000000000000000602082015250565b6000615367602183613d61565b91506153728261530b565b604082019050919050565b600060208201905081810360008301526153968161535a565b9050919050565b7f45524337323155524953746f726167653a2055524920717565727920666f722060008201527f6e6f6e6578697374656e7420746f6b656e000000000000000000000000000000602082015250565b60006153f9603183613d61565b91506154048261539d565b604082019050919050565b60006020820190508181036000830152615428816153ec565b9050919050565b600061543b8285614ca5565b91506154478284614ca5565b91508190509392505050565b7f4f776e61626c653a206e6577206f776e657220697320746865207a65726f206160008201527f6464726573730000000000000000000000000000000000000000000000000000602082015250565b60006154af602683613d61565b91506154ba82615453565b604082019050919050565b600060208201905081810360008301526154de816154a2565b9050919050565b7f45524337323155524953746f726167653a2055524920736574206f66206e6f6e60008201527f6578697374656e7420746f6b656e000000000000000000000000000000000000602082015250565b6000615541602e83613d61565b915061554c826154e5565b604082019050919050565b6000602082019050818103600083015261557081615534565b9050919050565b7f4552433732313a206f70657261746f7220717565727920666f72206e6f6e657860008201527f697374656e7420746f6b656e0000000000000000000000000000000000000000602082015250565b60006155d3602c83613d61565b91506155de82615577565b604082019050919050565b60006020820190508181036000830152615602816155c6565b9050919050565b7f4552433732313a207472616e736665722066726f6d20696e636f72726563742060008201527f6f776e6572000000000000000000000000000000000000000000000000000000602082015250565b6000615665602583613d61565b915061567082615609565b604082019050919050565b6000602082019050818103600083015261569481615658565b9050919050565b7f4552433732313a207472616e7366657220746f20746865207a65726f2061646460008201527f7265737300000000000000000000000000000000000000000000000000000000602082015250565b60006156f7602483613d61565b91506157028261569b565b604082019050919050565b60006020820190508181036000830152615726816156ea565b9050919050565b600061573882614314565b915061574383614314565b92508260ff0382111561575957615758614993565b5b828201905092915050565b7f455243323938313a20726f79616c7479206665652077696c6c2065786365656460008201527f2073616c65507269636500000000000000000000000000000000000000000000602082015250565b60006157c0602a83613d61565b91506157cb82615764565b604082019050919050565b600060208201905081810360008301526157ef816157b3565b9050919050565b7f455243323938313a20696e76616c696420726563656976657200000000000000600082015250565b600061582c601983613d61565b9150615837826157f6565b602082019050919050565b6000602082019050818103600083015261585b8161581f565b9050919050565b7f4552433732313a20617070726f766520746f2063616c6c657200000000000000600082015250565b6000615898601983613d61565b91506158a382615862565b602082019050919050565b600060208201905081810360008301526158c78161588b565b9050919050565b7f4552433732313a207472616e7366657220746f206e6f6e20455243373231526560008201527f63656976657220696d706c656d656e7465720000000000000000000000000000602082015250565b600061592a603283613d61565b9150615935826158ce565b604082019050919050565b600060208201905081810360008301526159598161591d565b9050919050565b7f4552433732313a206d696e7420746f20746865207a65726f2061646472657373600082015250565b6000615996602083613d61565b91506159a182615960565b602082019050919050565b600060208201905081810360008301526159c581615989565b9050919050565b7f4552433732313a20746f6b656e20616c7265616479206d696e74656400000000600082015250565b6000615a02601c83613d61565b9150615a0d826159cc565b602082019050919050565b60006020820190508181036000830152615a31816159f5565b9050919050565b7f4552433732314d657461646174613a2055524920717565727920666f72206e6f60008201527f6e6578697374656e7420746f6b656e0000000000000000000000000000000000602082015250565b6000615a94602f83613d61565b9150615a9f82615a38565b604082019050919050565b60006020820190508181036000830152615ac381615a87565b9050919050565b600081519050919050565b600082825260208201905092915050565b6000615af182615aca565b615afb8185615ad5565b9350615b0b818560208601613d72565b615b1481613da5565b840191505092915050565b6000608082019050615b346000830187613e9c565b615b416020830186613e9c565b615b4e6040830185613c5d565b8181036060830152615b608184615ae6565b905095945050505050565b600081519050615b7a81613cc7565b92915050565b600060208284031215615b9657615b95613c91565b5b6000615ba484828501615b6b565b91505092915050565b6000615bb882613c53565b9150615bc383613c53565b925082615bd357615bd2614b2e565b5b82820690509291505056fea2646970667358221220a4774e445c06f713e33187cb5cf1df148127296bc360028c21e832bd4ee0539a64736f6c634300080b003368747470733a2f2f676174657761792e70696e6174612e636c6f75642f697066732f516d5353474677487a6e6555466f6d34746157684d76314d4e594e72475546465142335655387267575a72464e58",
  "immutableReferences": {},
  "source": "// SPDX-License-Identifier: MIT\r\npragma solidity >=0.8.9 <0.9.0;\r\n\r\nimport \"@openzeppelin/contracts/access/Ownable.sol\";\r\n// import \"@openzeppelin/contracts/utils/Counters.sol\";\r\nimport \"@openzeppelin/contracts/token/ERC721/extensions/ERC721URIStorage.sol\";\r\nimport \"@openzeppelin/contracts/token/common/ERC2981.sol\";\r\nimport \"@openzeppelin/contracts/utils/introspection/ERC165.sol\";\r\nimport \"./IAggregatorV3.sol\";\r\nimport \"./Counters.sol\";\r\n\r\ncontract FathomyachtClub is ERC721URIStorage, ERC2981, Ownable {\r\n  using Counters for Counters.Counter;\r\n  Counters.Counter private _tokenIds;\r\n  uint256 private MAX_TOKEN = 10000;\r\n  uint256 private MAX_MINTABLE_LIMIT = 1000;\r\n\r\n  // mapping for token to tier number(0: power, 1: yacht, 2: prestige)\r\n  mapping(uint256 => uint8) private _tokenToTier;\r\n\r\n  // NFT prices in USD, mapping for tier to price(0: power, 1: yacht, 2: prestige)\r\n  uint256[] private NFT_PRICE = [50, 100, 150, 0, 0];\r\n  uint256[] private PRESALE_TIER_MINT_LIMIT = [100, 100, 50, 0, 0];\r\n  uint256[] private PUBLIC_SALE_TIER_MINT_LIMIT = [900, 900, 950, 0, 0];\r\n  uint256[] private _tokenIdRange = [8000, 0, 2000, 4000, 6000];\r\n  string private _tokenBatchURI = \"https://gateway.pinata.cloud/ipfs/QmSSGFwHzneUFom4taWhMv1MNYNrGUFFQB3VU8rgWZrFNX\";\r\n  // 0: presale start block, 1: public sale start block\r\n  uint256[] private EVENT_BLOCK = [10264904, 10437473];\r\n  // Mapping from address to minted number of NFTs(0: power, 1: yacht, 2: prestige)\r\n  mapping(uint8 => uint256) private _preSaleMintCounter;\r\n  // Mapping from address to minted number of NFTs(0: power, 1: yacht, 2: prestige)\r\n  mapping(uint8 => uint256) private _publicSaleMintCounter;\r\n  // Mapping from address to white list flag(1: added, 0: removed)\r\n  mapping(address => uint8) private _whitelister;\r\n\r\n  AggregatorV3Interface internal priceFeed;\r\n\r\n  constructor() ERC721(\"Fathom Yacht Club\", \"FYC\") {\r\n    _setDefaultRoyalty(msg.sender, 1000);\r\n    priceFeed = AggregatorV3Interface(0x8A753747A1Fa494EC906cE90E9f37563A8AF630e);\r\n  }\r\n\r\n  modifier ableMintBatch(uint256 number, uint8 tierNumber) {\r\n    require(NFT_PRICE[tierNumber] != 0, \"Tier price is not set.\");\r\n    require(number <= 2, \"You are not allowed to buy more than 2 tokens at once.\");\r\n    require(tierNumber >= 0 && tierNumber <= 2, \"Invalied tierNumber of array.\");\r\n    require(MAX_TOKEN > number + totalSupply() + 1, \"Not enough tokens left to buy.\");\r\n\r\n    uint8 blockStatus = checkBlock(msg.sender);\r\n    require(blockStatus > 0, \"Not available to mint.\");\r\n    _;\r\n  }\r\n\r\n  function checkBlock(address pm_address) internal view returns(uint8) {\r\n    uint256 curBlock = block.number;\r\n\r\n    if (curBlock >= EVENT_BLOCK[1]) {\r\n      return 2;\r\n    }\r\n    if (curBlock >= EVENT_BLOCK[0]) {\r\n      if(_whitelister[pm_address]== 1) {\r\n        return 1;\r\n      }\r\n    }\r\n\r\n    return 0;\r\n  }\r\n\r\n  function addWhiteList(address[] memory lsts) public onlyOwner {\r\n    uint256 new_len = lsts.length;\r\n    for(uint256 i=0; i<new_len; i++) {\r\n      _whitelister[lsts[i]] = 1;\r\n    }\r\n  }\r\n\r\n  function removeWhiteList(address[] memory lsts) public onlyOwner {\r\n    uint256 new_len = lsts.length;\r\n    for(uint256 i=0; i<new_len; i++) {\r\n      _whitelister[lsts[i]] = 0;\r\n    }\r\n  }\r\n\r\n  function getTierNumberOf(uint256 _tokenId) public view returns(uint8) {\r\n    return _tokenToTier[_tokenId];\r\n  }\r\n\r\n  function getTierPrice(uint8 tierNumber) public view returns(uint256) {\r\n    require(tierNumber >= 0 && tierNumber <= 2, \"Invalied tierNumber of array\");\r\n    return NFT_PRICE[tierNumber];\r\n  }\r\n\r\n  function setTierPrice(uint256 price, uint8 tierNumber) external onlyOwner {\r\n    require(tierNumber >= 0 && tierNumber <= 2, \"Invalied tierNumber of array.\");\r\n    NFT_PRICE[tierNumber] = price;\r\n  }\r\n\r\n  function getMaxLimit() external view returns(uint256) {\r\n    return MAX_TOKEN;\r\n  }\r\n\r\n  function setMaxLimit(uint256 limit) external onlyOwner {\r\n    MAX_TOKEN = limit;\r\n  }\r\n\r\n  function getMaxMintableLimit() external view returns(uint256) {\r\n    return MAX_MINTABLE_LIMIT;\r\n  }\r\n\r\n  function setMaxMintableLimit(uint256 limit) external onlyOwner {\r\n    MAX_MINTABLE_LIMIT = limit;\r\n  }\r\n\r\n  function getTierLimit(uint8 tierNumber) external view returns(uint256) {\r\n    require(tierNumber >= 0 && tierNumber <= 2, \"Invalied tierNumber of array.\");\r\n\r\n    uint256 curBlock = block.number;\r\n    if (curBlock >= EVENT_BLOCK[1]) {\r\n      return PUBLIC_SALE_TIER_MINT_LIMIT[tierNumber];\r\n    }\r\n    if (curBlock >= EVENT_BLOCK[0]) {\r\n      return PRESALE_TIER_MINT_LIMIT[tierNumber];\r\n    }\r\n\r\n    return 0;\r\n  }\r\n\r\n  function setTierMintLimit(uint256 limit, uint8 tierNumber) external onlyOwner {\r\n    require(tierNumber >= 0 && tierNumber <= 2, \"Invalied tierNumber of array.\");\r\n\r\n    uint256 curBlock = block.number;\r\n    if (curBlock >= EVENT_BLOCK[1]) {\r\n      PUBLIC_SALE_TIER_MINT_LIMIT[tierNumber] = limit;\r\n    }\r\n    if (curBlock >= EVENT_BLOCK[0]) {\r\n      PRESALE_TIER_MINT_LIMIT[tierNumber] = limit;\r\n    }\r\n  }\r\n\r\n  function withDraw() external onlyOwner {\r\n    address payable tgt = payable(owner());\r\n    (bool success1, ) = tgt.call{value:address(this).balance}(\"\");\r\n    require(success1, \"Failed to Withdraw Ether\");\r\n  }\r\n\r\n  function getTokenURI(uint256 _tokenId) public view returns(string memory) {\r\n    string memory subDirectory = 'Not specified';\r\n    if (_tokenId > 0 && _tokenId <= 2000) {\r\n      subDirectory = '/Yacht/';\r\n    }\r\n    else if (_tokenId > 2000 && _tokenId <= 4000) {\r\n      subDirectory = '/Prestige/';\r\n    }\r\n    else if (_tokenId > 4000 && _tokenId <= 6000) {\r\n      subDirectory = '/Ultra/';\r\n    }\r\n    else if (_tokenId > 6000 && _tokenId <= 8000) {\r\n      subDirectory = '/Reserve/';\r\n    }\r\n    else if (_tokenId > 8000 && _tokenId <= 10000) {\r\n      subDirectory = '/Power/';\r\n    }\r\n\r\n    return string(abi.encodePacked(_tokenBatchURI, subDirectory, uint2str(_tokenId)));\r\n  }\r\n\r\n  function setTokenBatchURI(string memory _batchTokenURI) external onlyOwner {\r\n    _tokenBatchURI = _batchTokenURI;\r\n  }\r\n\r\n  function setTokenURI(uint256 number, string memory tokenURI) public onlyOwner {\r\n    _setTokenURI(number, tokenURI);\r\n  }\r\n\r\n  function mintBatch(uint256 number, uint8 tierNumber) public payable ableMintBatch(number, tierNumber) returns(uint256) {\r\n    require(msg.value >= ((NFT_PRICE[tierNumber] * number) * (10 ** 26)) / uint256(getLatestPrice()), string(abi.encodePacked(uint2str(((NFT_PRICE[tierNumber] * number) * (10 ** 26)) / uint256(getLocalPrice())), \" :Amount of ether sent not correct.\")));\r\n\r\n    // refund the remainder\r\n    address payable tgt = payable(msg.sender);\r\n    (bool success1, ) = tgt.call{ value: msg.value - (((NFT_PRICE[tierNumber] * number) * (10 ** 26)) / uint256(getLatestPrice())) }(\"\");\r\n    require(success1, \"Failed to refund\");\r\n\r\n    uint256[] storage tierMintLimit = PRESALE_TIER_MINT_LIMIT;\r\n    mapping(uint8 => uint256) storage tierMintCounter = _preSaleMintCounter;\r\n    uint256 curBlock = block.number;\r\n\r\n    // use public sale variables if the current date is after public sale started\r\n    if (curBlock >= EVENT_BLOCK[1]) {\r\n      tierMintLimit = PUBLIC_SALE_TIER_MINT_LIMIT;\r\n      tierMintCounter = _publicSaleMintCounter;\r\n    }\r\n    require(tierMintCounter[tierNumber] + number < tierMintLimit[tierNumber], \"Overflow maximum mint limitation.\");\r\n\r\n    uint256 newItemId = 0;\r\n    // set where start the tokenIds to be incremented\r\n    _tokenIds.set(_tokenIdRange[tierNumber] + _preSaleMintCounter[tierNumber] + _publicSaleMintCounter[tierNumber]);\r\n\r\n    for (uint256 i = 0; i < number; i++) {\r\n      _tokenIds.increment();\r\n      newItemId = _tokenIds.current();\r\n      _mint(msg.sender, newItemId);\r\n      _tokenToTier[newItemId] = tierNumber;\r\n      setTokenURI(newItemId, getTokenURI(newItemId));\r\n      tierMintCounter[tierNumber] = tierMintCounter[tierNumber] + number;\r\n    }\r\n\r\n    return newItemId;\r\n  }\r\n\r\n  function totalSupply() public view returns(uint256) {\r\n    uint256 total = 0;\r\n    for(uint8 i = 0; i < 5; i++) {\r\n      total += (_preSaleMintCounter[i] + _publicSaleMintCounter[i]);\r\n    }\r\n    \r\n    return total;\r\n  }\r\n\r\n  function supportsInterface(bytes4 interfaceId) public view virtual override(ERC721, ERC2981) returns (bool) {\r\n    return super.supportsInterface(interfaceId);\r\n  }\r\n\r\n  /**\r\n    * @dev See {ERC721-_burn}. This override additionally clears the royalty information for the token.\r\n    */\r\n  function _burn(uint256 tokenId) internal virtual override {\r\n    super._burn(tokenId);\r\n    _resetTokenRoyalty(tokenId);\r\n  }\r\n\r\n  function setRoality(address receiver, uint96 feeNumerator) external onlyOwner {\r\n    _setDefaultRoyalty(receiver, feeNumerator);\r\n  }\r\n\r\n  function getLatestPrice() public view returns (int) {\r\n    (\r\n      ,\r\n      int price,\r\n      ,\r\n      ,\r\n      \r\n    ) = priceFeed.latestRoundData();\r\n    return price;\r\n  }\r\n\r\n  // use this for test purpose and delete when deploy on the mainnet\r\n  function getLocalPrice() public pure returns (int) {\r\n    int price = 257508605065;\r\n    return price;\r\n  }\r\n\r\n  function uint2str(uint _i) internal pure returns (string memory _uintAsString) {\r\n    string memory prefix = '';\r\n    if (_i == 0) {\r\n      return \"0\";\r\n    }\r\n    else if (_i > 0 && _i < 10) {\r\n      prefix = '0000';\r\n    }\r\n    else if (_i >= 10 && _i < 100) {\r\n      prefix = '000';\r\n    }\r\n    else if (_i >= 100 && _i < 1000) {\r\n      prefix = '00';\r\n    }\r\n    else if (_i >= 1000 && _i < 10000) {\r\n      prefix = '0';\r\n    }\r\n\r\n    uint j = _i;\r\n    uint len;\r\n    while (j != 0) {\r\n      len++;\r\n      j /= 10;\r\n    }\r\n    bytes memory bstr = new bytes(len);\r\n    uint k = len;\r\n    while (_i != 0) {\r\n      k = k-1;\r\n      uint8 temp = (48 + uint8(_i - _i / 10 * 10));\r\n      bytes1 b1 = bytes1(temp);\r\n      bstr[k] = b1;\r\n      _i /= 10;\r\n    }\r\n\r\n    return string(abi.encodePacked(prefix, string(bstr)));\r\n  }\r\n}\r\n",
  "sourcePath": "F:\\www-2022\\fathonclub-work\\app\\contracts\\FathomyachtClub.sol",
  "compiler": {
    "name": "solc",
    "version": "0.8.11+commit.d7f03943.Emscripten.clang"
  },
  "schemaVersion": "3.4.5",
  "updatedAt": "2022-03-15T02:13:19.612Z",
  "devdoc": {
    "kind": "dev",
    "methods": {
      "approve(address,uint256)": {
        "details": "See {IERC721-approve}."
      },
      "balanceOf(address)": {
        "details": "See {IERC721-balanceOf}."
      },
      "getApproved(uint256)": {
        "details": "See {IERC721-getApproved}."
      },
      "isApprovedForAll(address,address)": {
        "details": "See {IERC721-isApprovedForAll}."
      },
      "name()": {
        "details": "See {IERC721Metadata-name}."
      },
      "owner()": {
        "details": "Returns the address of the current owner."
      },
      "ownerOf(uint256)": {
        "details": "See {IERC721-ownerOf}."
      },
      "renounceOwnership()": {
        "details": "Leaves the contract without owner. It will not be possible to call `onlyOwner` functions anymore. Can only be called by the current owner. NOTE: Renouncing ownership will leave the contract without an owner, thereby removing any functionality that is only available to the owner."
      },
      "royaltyInfo(uint256,uint256)": {
        "details": "Returns how much royalty is owed and to whom, based on a sale price that may be denominated in any unit of exchange. The royalty amount is denominated and should be payed in that same unit of exchange."
      },
      "safeTransferFrom(address,address,uint256)": {
        "details": "See {IERC721-safeTransferFrom}."
      },
      "safeTransferFrom(address,address,uint256,bytes)": {
        "details": "See {IERC721-safeTransferFrom}."
      },
      "setApprovalForAll(address,bool)": {
        "details": "See {IERC721-setApprovalForAll}."
      },
      "symbol()": {
        "details": "See {IERC721Metadata-symbol}."
      },
      "tokenURI(uint256)": {
        "details": "See {IERC721Metadata-tokenURI}."
      },
      "transferFrom(address,address,uint256)": {
        "details": "See {IERC721-transferFrom}."
      },
      "transferOwnership(address)": {
        "details": "Transfers ownership of the contract to a new account (`newOwner`). Can only be called by the current owner."
      }
    },
    "version": 1
  },
  "userdoc": {
    "kind": "user",
    "methods": {},
    "version": 1
  }
}