{
  "contractName": "FathomyachtClub",
  "abi": [
    {
      "inputs": [],
      "stateMutability": "nonpayable",
      "type": "constructor"
    },
    {
      "anonymous": false,
      "inputs": [
        {
          "indexed": true,
          "internalType": "address",
          "name": "owner",
          "type": "address"
        },
        {
          "indexed": true,
          "internalType": "address",
          "name": "approved",
          "type": "address"
        },
        {
          "indexed": true,
          "internalType": "uint256",
          "name": "tokenId",
          "type": "uint256"
        }
      ],
      "name": "Approval",
      "type": "event"
    },
    {
      "anonymous": false,
      "inputs": [
        {
          "indexed": true,
          "internalType": "address",
          "name": "owner",
          "type": "address"
        },
        {
          "indexed": true,
          "internalType": "address",
          "name": "operator",
          "type": "address"
        },
        {
          "indexed": false,
          "internalType": "bool",
          "name": "approved",
          "type": "bool"
        }
      ],
      "name": "ApprovalForAll",
      "type": "event"
    },
    {
      "anonymous": false,
      "inputs": [
        {
          "indexed": true,
          "internalType": "address",
          "name": "previousOwner",
          "type": "address"
        },
        {
          "indexed": true,
          "internalType": "address",
          "name": "newOwner",
          "type": "address"
        }
      ],
      "name": "OwnershipTransferred",
      "type": "event"
    },
    {
      "anonymous": false,
      "inputs": [
        {
          "indexed": true,
          "internalType": "address",
          "name": "from",
          "type": "address"
        },
        {
          "indexed": true,
          "internalType": "address",
          "name": "to",
          "type": "address"
        },
        {
          "indexed": true,
          "internalType": "uint256",
          "name": "tokenId",
          "type": "uint256"
        }
      ],
      "name": "Transfer",
      "type": "event"
    },
    {
      "inputs": [
        {
          "internalType": "address",
          "name": "to",
          "type": "address"
        },
        {
          "internalType": "uint256",
          "name": "tokenId",
          "type": "uint256"
        }
      ],
      "name": "approve",
      "outputs": [],
      "stateMutability": "nonpayable",
      "type": "function"
    },
    {
      "inputs": [
        {
          "internalType": "address",
          "name": "owner",
          "type": "address"
        }
      ],
      "name": "balanceOf",
      "outputs": [
        {
          "internalType": "uint256",
          "name": "",
          "type": "uint256"
        }
      ],
      "stateMutability": "view",
      "type": "function"
    },
    {
      "inputs": [
        {
          "internalType": "uint256",
          "name": "tokenId",
          "type": "uint256"
        }
      ],
      "name": "getApproved",
      "outputs": [
        {
          "internalType": "address",
          "name": "",
          "type": "address"
        }
      ],
      "stateMutability": "view",
      "type": "function"
    },
    {
      "inputs": [
        {
          "internalType": "address",
          "name": "owner",
          "type": "address"
        },
        {
          "internalType": "address",
          "name": "operator",
          "type": "address"
        }
      ],
      "name": "isApprovedForAll",
      "outputs": [
        {
          "internalType": "bool",
          "name": "",
          "type": "bool"
        }
      ],
      "stateMutability": "view",
      "type": "function"
    },
    {
      "inputs": [],
      "name": "name",
      "outputs": [
        {
          "internalType": "string",
          "name": "",
          "type": "string"
        }
      ],
      "stateMutability": "view",
      "type": "function"
    },
    {
      "inputs": [],
      "name": "owner",
      "outputs": [
        {
          "internalType": "address",
          "name": "",
          "type": "address"
        }
      ],
      "stateMutability": "view",
      "type": "function"
    },
    {
      "inputs": [
        {
          "internalType": "uint256",
          "name": "tokenId",
          "type": "uint256"
        }
      ],
      "name": "ownerOf",
      "outputs": [
        {
          "internalType": "address",
          "name": "",
          "type": "address"
        }
      ],
      "stateMutability": "view",
      "type": "function"
    },
    {
      "inputs": [],
      "name": "renounceOwnership",
      "outputs": [],
      "stateMutability": "nonpayable",
      "type": "function"
    },
    {
      "inputs": [
        {
          "internalType": "uint256",
          "name": "_tokenId",
          "type": "uint256"
        },
        {
          "internalType": "uint256",
          "name": "_salePrice",
          "type": "uint256"
        }
      ],
      "name": "royaltyInfo",
      "outputs": [
        {
          "internalType": "address",
          "name": "",
          "type": "address"
        },
        {
          "internalType": "uint256",
          "name": "",
          "type": "uint256"
        }
      ],
      "stateMutability": "view",
      "type": "function"
    },
    {
      "inputs": [
        {
          "internalType": "address",
          "name": "from",
          "type": "address"
        },
        {
          "internalType": "address",
          "name": "to",
          "type": "address"
        },
        {
          "internalType": "uint256",
          "name": "tokenId",
          "type": "uint256"
        }
      ],
      "name": "safeTransferFrom",
      "outputs": [],
      "stateMutability": "nonpayable",
      "type": "function"
    },
    {
      "inputs": [
        {
          "internalType": "address",
          "name": "from",
          "type": "address"
        },
        {
          "internalType": "address",
          "name": "to",
          "type": "address"
        },
        {
          "internalType": "uint256",
          "name": "tokenId",
          "type": "uint256"
        },
        {
          "internalType": "bytes",
          "name": "_data",
          "type": "bytes"
        }
      ],
      "name": "safeTransferFrom",
      "outputs": [],
      "stateMutability": "nonpayable",
      "type": "function"
    },
    {
      "inputs": [
        {
          "internalType": "address",
          "name": "operator",
          "type": "address"
        },
        {
          "internalType": "bool",
          "name": "approved",
          "type": "bool"
        }
      ],
      "name": "setApprovalForAll",
      "outputs": [],
      "stateMutability": "nonpayable",
      "type": "function"
    },
    {
      "inputs": [],
      "name": "symbol",
      "outputs": [
        {
          "internalType": "string",
          "name": "",
          "type": "string"
        }
      ],
      "stateMutability": "view",
      "type": "function"
    },
    {
      "inputs": [
        {
          "internalType": "uint256",
          "name": "tokenId",
          "type": "uint256"
        }
      ],
      "name": "tokenURI",
      "outputs": [
        {
          "internalType": "string",
          "name": "",
          "type": "string"
        }
      ],
      "stateMutability": "view",
      "type": "function"
    },
    {
      "inputs": [
        {
          "internalType": "address",
          "name": "from",
          "type": "address"
        },
        {
          "internalType": "address",
          "name": "to",
          "type": "address"
        },
        {
          "internalType": "uint256",
          "name": "tokenId",
          "type": "uint256"
        }
      ],
      "name": "transferFrom",
      "outputs": [],
      "stateMutability": "nonpayable",
      "type": "function"
    },
    {
      "inputs": [
        {
          "internalType": "address",
          "name": "newOwner",
          "type": "address"
        }
      ],
      "name": "transferOwnership",
      "outputs": [],
      "stateMutability": "nonpayable",
      "type": "function"
    },
    {
      "inputs": [
        {
          "internalType": "address[]",
          "name": "lsts",
          "type": "address[]"
        }
      ],
      "name": "addWhiteList",
      "outputs": [],
      "stateMutability": "nonpayable",
      "type": "function"
    },
    {
      "inputs": [
        {
          "internalType": "address[]",
          "name": "lsts",
          "type": "address[]"
        }
      ],
      "name": "removeWhiteList",
      "outputs": [],
      "stateMutability": "nonpayable",
      "type": "function"
    },
    {
      "inputs": [
        {
          "internalType": "uint256",
          "name": "_tokenId",
          "type": "uint256"
        }
      ],
      "name": "getTierNumberOf",
      "outputs": [
        {
          "internalType": "uint8",
          "name": "",
          "type": "uint8"
        }
      ],
      "stateMutability": "view",
      "type": "function"
    },
    {
      "inputs": [
        {
          "internalType": "uint8",
          "name": "tierNumber",
          "type": "uint8"
        }
      ],
      "name": "getTierPrice",
      "outputs": [
        {
          "internalType": "uint256",
          "name": "",
          "type": "uint256"
        }
      ],
      "stateMutability": "view",
      "type": "function"
    },
    {
      "inputs": [
        {
          "internalType": "uint256",
          "name": "price",
          "type": "uint256"
        },
        {
          "internalType": "uint8",
          "name": "tierNumber",
          "type": "uint8"
        }
      ],
      "name": "setTierPrice",
      "outputs": [],
      "stateMutability": "nonpayable",
      "type": "function"
    },
    {
      "inputs": [],
      "name": "getMaxLimit",
      "outputs": [
        {
          "internalType": "uint256",
          "name": "",
          "type": "uint256"
        }
      ],
      "stateMutability": "view",
      "type": "function"
    },
    {
      "inputs": [
        {
          "internalType": "uint256",
          "name": "limit",
          "type": "uint256"
        }
      ],
      "name": "setMaxLimit",
      "outputs": [],
      "stateMutability": "nonpayable",
      "type": "function"
    },
    {
      "inputs": [],
      "name": "getMaxMintableLimit",
      "outputs": [
        {
          "internalType": "uint256",
          "name": "",
          "type": "uint256"
        }
      ],
      "stateMutability": "view",
      "type": "function"
    },
    {
      "inputs": [
        {
          "internalType": "uint256",
          "name": "limit",
          "type": "uint256"
        }
      ],
      "name": "setMaxMintableLimit",
      "outputs": [],
      "stateMutability": "nonpayable",
      "type": "function"
    },
    {
      "inputs": [
        {
          "internalType": "uint8",
          "name": "tierNumber",
          "type": "uint8"
        }
      ],
      "name": "getTierLimit",
      "outputs": [
        {
          "internalType": "uint256",
          "name": "",
          "type": "uint256"
        }
      ],
      "stateMutability": "view",
      "type": "function"
    },
    {
      "inputs": [
        {
          "internalType": "uint256",
          "name": "limit",
          "type": "uint256"
        },
        {
          "internalType": "uint8",
          "name": "tierNumber",
          "type": "uint8"
        }
      ],
      "name": "setTierMintLimit",
      "outputs": [],
      "stateMutability": "nonpayable",
      "type": "function"
    },
    {
      "inputs": [],
      "name": "withDraw",
      "outputs": [],
      "stateMutability": "nonpayable",
      "type": "function"
    },
    {
      "inputs": [
        {
          "internalType": "uint256",
          "name": "_tokenId",
          "type": "uint256"
        }
      ],
      "name": "getTokenURI",
      "outputs": [
        {
          "internalType": "string",
          "name": "",
          "type": "string"
        }
      ],
      "stateMutability": "view",
      "type": "function"
    },
    {
      "inputs": [
        {
          "internalType": "string",
          "name": "_batchTokenURI",
          "type": "string"
        }
      ],
      "name": "setTokenBatchURI",
      "outputs": [],
      "stateMutability": "nonpayable",
      "type": "function"
    },
    {
      "inputs": [
        {
          "internalType": "uint256",
          "name": "number",
          "type": "uint256"
        },
        {
          "internalType": "string",
          "name": "tokenURI",
          "type": "string"
        }
      ],
      "name": "setTokenURI",
      "outputs": [],
      "stateMutability": "nonpayable",
      "type": "function"
    },
    {
      "inputs": [
        {
          "internalType": "uint256",
          "name": "number",
          "type": "uint256"
        },
        {
          "internalType": "uint8",
          "name": "tierNumber",
          "type": "uint8"
        }
      ],
      "name": "mintBatch",
      "outputs": [
        {
          "internalType": "string",
          "name": "",
          "type": "string"
        }
      ],
      "stateMutability": "payable",
      "type": "function"
    },
    {
      "inputs": [],
      "name": "totalSupply",
      "outputs": [
        {
          "internalType": "uint256",
          "name": "",
          "type": "uint256"
        }
      ],
      "stateMutability": "view",
      "type": "function"
    },
    {
      "inputs": [
        {
          "internalType": "bytes4",
          "name": "interfaceId",
          "type": "bytes4"
        }
      ],
      "name": "supportsInterface",
      "outputs": [
        {
          "internalType": "bool",
          "name": "",
          "type": "bool"
        }
      ],
      "stateMutability": "view",
      "type": "function"
    },
    {
      "inputs": [
        {
          "internalType": "address",
          "name": "receiver",
          "type": "address"
        },
        {
          "internalType": "uint96",
          "name": "feeNumerator",
          "type": "uint96"
        }
      ],
      "name": "setRoality",
      "outputs": [],
      "stateMutability": "nonpayable",
      "type": "function"
    },
    {
      "inputs": [],
      "name": "getLatestPrice",
      "outputs": [
        {
          "internalType": "int256",
          "name": "",
          "type": "int256"
        }
      ],
      "stateMutability": "view",
      "type": "function"
    },
    {
      "inputs": [],
      "name": "getLocalPrice",
      "outputs": [
        {
          "internalType": "int256",
          "name": "",
          "type": "int256"
        }
      ],
      "stateMutability": "pure",
      "type": "function"
    }
  ],
  "bytecode": "0x6080604052612710600b556103e8600c556040518060a00160405280603260ff168152602001606460ff168152602001609660ff168152602001600060ff168152602001600060ff16815250600e9060056200005d9291906200057c565b506040518060a00160405280606460ff168152602001606460ff168152602001603260ff168152602001600060ff168152602001600060ff16815250600f906005620000ab9291906200057c565b506040518060a0016040528061038461ffff16815260200161038461ffff1681526020016103b661ffff168152602001600061ffff168152602001600061ffff16815250601090600562000101929190620005d3565b506040518060a00160405280611f4061ffff168152602001600061ffff1681526020016107d061ffff168152602001610fa061ffff16815260200161177061ffff16815250601190600562000158929190620005d3565b506040518060800160405280605081526020016200650d60509139601290805190602001906200018a9291906200062b565b506040518060400160405280629ca14862ffffff168152602001629f436162ffffff168152506013906002620001c2929190620006bc565b50348015620001d057600080fd5b506040518060400160405280601181526020017f466174686f6d20596163687420436c75620000000000000000000000000000008152506040518060400160405280600381526020017f46594300000000000000000000000000000000000000000000000000000000008152508160009080519060200190620002559291906200062b565b5080600190805190602001906200026e9291906200062b565b50505062000291620002856200030060201b60201c565b6200030860201b60201c565b620002a5336103e8620003ce60201b60201c565b738a753747a1fa494ec906ce90e9f37563a8af630e601760006101000a81548173ffffffffffffffffffffffffffffffffffffffff021916908373ffffffffffffffffffffffffffffffffffffffff160217905550620008b4565b600033905090565b6000600960009054906101000a900473ffffffffffffffffffffffffffffffffffffffff16905081600960006101000a81548173ffffffffffffffffffffffffffffffffffffffff021916908373ffffffffffffffffffffffffffffffffffffffff1602179055508173ffffffffffffffffffffffffffffffffffffffff168173ffffffffffffffffffffffffffffffffffffffff167f8be0079c531659141344cd1fd0a4f28419497f9722a3daafe3b4186f6b6457e060405160405180910390a35050565b620003de6200057260201b60201c565b6bffffffffffffffffffffffff16816bffffffffffffffffffffffff1611156200043f576040517f08c379a00000000000000000000000000000000000000000000000000000000081526004016200043690620007bb565b60405180910390fd5b600073ffffffffffffffffffffffffffffffffffffffff168273ffffffffffffffffffffffffffffffffffffffff161415620004b2576040517f08c379a0000000000000000000000000000000000000000000000000000000008152600401620004a9906200082d565b60405180910390fd5b60405180604001604052808373ffffffffffffffffffffffffffffffffffffffff168152602001826bffffffffffffffffffffffff16815250600760008201518160000160006101000a81548173ffffffffffffffffffffffffffffffffffffffff021916908373ffffffffffffffffffffffffffffffffffffffff16021790555060208201518160000160146101000a8154816bffffffffffffffffffffffff02191690836bffffffffffffffffffffffff1602179055509050505050565b6000612710905090565b828054828255906000526020600020908101928215620005c0579160200282015b82811115620005bf578251829060ff169055916020019190600101906200059d565b5b509050620005cf919062000715565b5090565b82805482825590600052602060002090810192821562000618579160200282015b8281111562000617578251829061ffff16905591602001919060010190620005f4565b5b50905062000627919062000715565b5090565b82805462000639906200087e565b90600052602060002090601f0160209004810192826200065d5760008555620006a9565b82601f106200067857805160ff1916838001178555620006a9565b82800160010185558215620006a9579182015b82811115620006a85782518255916020019190600101906200068b565b5b509050620006b8919062000715565b5090565b82805482825590600052602060002090810192821562000702579160200282015b8281111562000701578251829062ffffff16905591602001919060010190620006dd565b5b50905062000711919062000715565b5090565b5b808211156200073057600081600090555060010162000716565b5090565b600082825260208201905092915050565b7f455243323938313a20726f79616c7479206665652077696c6c2065786365656460008201527f2073616c65507269636500000000000000000000000000000000000000000000602082015250565b6000620007a3602a8362000734565b9150620007b08262000745565b604082019050919050565b60006020820190508181036000830152620007d68162000794565b9050919050565b7f455243323938313a20696e76616c696420726563656976657200000000000000600082015250565b60006200081560198362000734565b91506200082282620007dd565b602082019050919050565b60006020820190508181036000830152620008488162000806565b9050919050565b7f4e487b7100000000000000000000000000000000000000000000000000000000600052602260045260246000fd5b600060028204905060018216806200089757607f821691505b60208210811415620008ae57620008ad6200084f565b5b50919050565b615c4980620008c46000396000f3fe60806040526004361061021a5760003560e01c80636352211e11610123578063a22cb465116100ab578063dc3c233a1161006f578063dc3c233a146107f7578063ddce569f14610822578063df6d48431461084b578063e985e9c514610876578063f2fde38b146108b35761021a565b8063a22cb4651461070f578063b88d4fde14610738578063bf8bcee414610761578063c1a071f11461078a578063c87b56dd146107ba5761021a565b8063856e679c116100f2578063856e679c146106285780638da5cb5b146106655780638e15f47314610690578063956c9c6d146106bb57806395d89b41146106e45761021a565b80636352211e1461055a578063669aa2a31461059757806370a08231146105d4578063715018a6146106115761021a565b80632a55205a116101a657806342842e0e1161017557806342842e0e146104795780634815df1d146104a25780635586402d146104cb5780635e1045ec1461050857806361214582146105315761021a565b80632a55205a146103ac57806331192493146103ea57806339745791146104135780633bb3a24d1461043c5761021a565b8063095ea7b3116101ed578063095ea7b3146102ef5780630fdb1c1014610318578063162094c41461032f57806318160ddd1461035857806323b872dd146103835761021a565b8063016e6fe11461021f57806301ffc9a71461024a57806306fdde0314610287578063081812fc146102b2575b600080fd5b34801561022b57600080fd5b506102346108dc565b6040516102419190613ca1565b60405180910390f35b34801561025657600080fd5b50610271600480360381019061026c9190613d28565b6108e6565b60405161027e9190613d70565b60405180910390f35b34801561029357600080fd5b5061029c6108f8565b6040516102a99190613e24565b60405180910390f35b3480156102be57600080fd5b506102d960048036038101906102d49190613e72565b61098a565b6040516102e69190613ee0565b60405180910390f35b3480156102fb57600080fd5b5061031660048036038101906103119190613f27565b610a0f565b005b34801561032457600080fd5b5061032d610b27565b005b34801561033b57600080fd5b506103566004803603810190610351919061409c565b610c5f565b005b34801561036457600080fd5b5061036d610ce9565b60405161037a9190613ca1565b60405180910390f35b34801561038f57600080fd5b506103aa60048036038101906103a591906140f8565b610d65565b005b3480156103b857600080fd5b506103d360048036038101906103ce919061414b565b610dc5565b6040516103e192919061418b565b60405180910390f35b3480156103f657600080fd5b50610411600480360381019061040c9190613e72565b610fb0565b005b34801561041f57600080fd5b5061043a6004803603810190610435919061427c565b611036565b005b34801561044857600080fd5b50610463600480360381019061045e9190613e72565b61114e565b6040516104709190613e24565b60405180910390f35b34801561048557600080fd5b506104a0600480360381019061049b91906140f8565b611367565b005b3480156104ae57600080fd5b506104c960048036038101906104c49190614309565b611387565b005b3480156104d757600080fd5b506104f260048036038101906104ed9190614382565b611411565b6040516104ff9190613ca1565b60405180910390f35b34801561051457600080fd5b5061052f600480360381019061052a919061427c565b611492565b005b34801561053d57600080fd5b50610558600480360381019061055391906143af565b6115aa565b005b34801561056657600080fd5b50610581600480360381019061057c9190613e72565b611640565b60405161058e9190613ee0565b60405180910390f35b3480156105a357600080fd5b506105be60048036038101906105b99190613e72565b6116f2565b6040516105cb9190614407565b60405180910390f35b3480156105e057600080fd5b506105fb60048036038101906105f69190614422565b61171c565b6040516106089190613ca1565b60405180910390f35b34801561061d57600080fd5b506106266117d4565b005b34801561063457600080fd5b5061064f600480360381019061064a9190614382565b61185c565b60405161065c9190613ca1565b60405180910390f35b34801561067157600080fd5b5061067a611964565b6040516106879190613ee0565b60405180910390f35b34801561069c57600080fd5b506106a561198e565b6040516106b29190614468565b60405180910390f35b3480156106c757600080fd5b506106e260048036038101906106dd9190614483565b611a2f565b005b3480156106f057600080fd5b506106f9611b2c565b6040516107069190613e24565b60405180910390f35b34801561071b57600080fd5b50610736600480360381019061073191906144ef565b611bbe565b005b34801561074457600080fd5b5061075f600480360381019061075a91906145d0565b611bd4565b005b34801561076d57600080fd5b5061078860048036038101906107839190613e72565b611c36565b005b6107a4600480360381019061079f9190614483565b611cbc565b6040516107b19190613e24565b60405180910390f35b3480156107c657600080fd5b506107e160048036038101906107dc9190613e72565b6122e3565b6040516107ee9190613e24565b60405180910390f35b34801561080357600080fd5b5061080c612435565b6040516108199190614468565b60405180910390f35b34801561082e57600080fd5b5061084960048036038101906108449190614483565b612447565b005b34801561085757600080fd5b506108606125be565b60405161086d9190613ca1565b60405180910390f35b34801561088257600080fd5b5061089d60048036038101906108989190614653565b6125c8565b6040516108aa9190613d70565b60405180910390f35b3480156108bf57600080fd5b506108da60048036038101906108d59190614422565b61265c565b005b6000600c54905090565b60006108f182612754565b9050919050565b606060008054610907906146c2565b80601f0160208091040260200160405190810160405280929190818152602001828054610933906146c2565b80156109805780601f1061095557610100808354040283529160200191610980565b820191906000526020600020905b81548152906001019060200180831161096357829003601f168201915b5050505050905090565b6000610995826127ce565b6109d4576040517f08c379a00000000000000000000000000000000000000000000000000000000081526004016109cb90614766565b60405180910390fd5b6004600083815260200190815260200160002060009054906101000a900473ffffffffffffffffffffffffffffffffffffffff169050919050565b6000610a1a82611640565b90508073ffffffffffffffffffffffffffffffffffffffff168373ffffffffffffffffffffffffffffffffffffffff161415610a8b576040517f08c379a0000000000000000000000000000000000000000000000000000000008152600401610a82906147f8565b60405180910390fd5b8073ffffffffffffffffffffffffffffffffffffffff16610aaa61283a565b73ffffffffffffffffffffffffffffffffffffffff161480610ad95750610ad881610ad361283a565b6125c8565b5b610b18576040517f08c379a0000000000000000000000000000000000000000000000000000000008152600401610b0f9061488a565b60405180910390fd5b610b228383612842565b505050565b610b2f61283a565b73ffffffffffffffffffffffffffffffffffffffff16610b4d611964565b73ffffffffffffffffffffffffffffffffffffffff1614610ba3576040517f08c379a0000000000000000000000000000000000000000000000000000000008152600401610b9a906148f6565b60405180910390fd5b6000610bad611964565b905060008173ffffffffffffffffffffffffffffffffffffffff1647604051610bd590614947565b60006040518083038185875af1925050503d8060008114610c12576040519150601f19603f3d011682016040523d82523d6000602084013e610c17565b606091505b5050905080610c5b576040517f08c379a0000000000000000000000000000000000000000000000000000000008152600401610c52906149a8565b60405180910390fd5b5050565b610c6761283a565b73ffffffffffffffffffffffffffffffffffffffff16610c85611964565b73ffffffffffffffffffffffffffffffffffffffff1614610cdb576040517f08c379a0000000000000000000000000000000000000000000000000000000008152600401610cd2906148f6565b60405180910390fd5b610ce582826128fb565b5050565b6000806000905060005b60058160ff161015610d5d57601560008260ff1660ff16815260200190815260200160002054601460008360ff1660ff16815260200190815260200160002054610d3d91906149f7565b82610d4891906149f7565b91508080610d5590614a4d565b915050610cf3565b508091505090565b610d76610d7061283a565b8261296f565b610db5576040517f08c379a0000000000000000000000000000000000000000000000000000000008152600401610dac90614ae9565b60405180910390fd5b610dc0838383612a4d565b505050565b6000806000600860008681526020019081526020016000206040518060400160405290816000820160009054906101000a900473ffffffffffffffffffffffffffffffffffffffff1673ffffffffffffffffffffffffffffffffffffffff1673ffffffffffffffffffffffffffffffffffffffff1681526020016000820160149054906101000a90046bffffffffffffffffffffffff166bffffffffffffffffffffffff166bffffffffffffffffffffffff16815250509050600073ffffffffffffffffffffffffffffffffffffffff16816000015173ffffffffffffffffffffffffffffffffffffffff161415610f5b5760076040518060400160405290816000820160009054906101000a900473ffffffffffffffffffffffffffffffffffffffff1673ffffffffffffffffffffffffffffffffffffffff1673ffffffffffffffffffffffffffffffffffffffff1681526020016000820160149054906101000a90046bffffffffffffffffffffffff166bffffffffffffffffffffffff166bffffffffffffffffffffffff168152505090505b6000610f65612cb4565b6bffffffffffffffffffffffff1682602001516bffffffffffffffffffffffff1686610f919190614b09565b610f9b9190614b92565b90508160000151819350935050509250929050565b610fb861283a565b73ffffffffffffffffffffffffffffffffffffffff16610fd6611964565b73ffffffffffffffffffffffffffffffffffffffff161461102c576040517f08c379a0000000000000000000000000000000000000000000000000000000008152600401611023906148f6565b60405180910390fd5b80600c8190555050565b61103e61283a565b73ffffffffffffffffffffffffffffffffffffffff1661105c611964565b73ffffffffffffffffffffffffffffffffffffffff16146110b2576040517f08c379a00000000000000000000000000000000000000000000000000000000081526004016110a9906148f6565b60405180910390fd5b60008151905060005b81811015611149576000601660008584815181106110dc576110db614bc3565b5b602002602001015173ffffffffffffffffffffffffffffffffffffffff1673ffffffffffffffffffffffffffffffffffffffff16815260200190815260200160002060006101000a81548160ff021916908360ff160217905550808061114190614bf2565b9150506110bb565b505050565b606060006040518060400160405280600d81526020017f4e6f742073706563696669656400000000000000000000000000000000000000815250905060008311801561119c57506107d08311155b156111de576040518060400160405280600781526020017f2f59616368742f000000000000000000000000000000000000000000000000008152509050611332565b6107d0831180156111f15750610fa08311155b15611233576040518060400160405280600a81526020017f2f50726573746967652f000000000000000000000000000000000000000000008152509050611331565b610fa08311801561124657506117708311155b15611288576040518060400160405280600781526020017f2f556c7472612f000000000000000000000000000000000000000000000000008152509050611330565b6117708311801561129b5750611f408311155b156112dd576040518060400160405280600981526020017f2f526573657276652f0000000000000000000000000000000000000000000000815250905061132f565b611f40831180156112f057506127108311155b1561132e576040518060400160405280600781526020017f2f506f7765722f0000000000000000000000000000000000000000000000000081525090505b5b5b5b5b60128161133e85612cbe565b60405160200161135093929190614d0b565b604051602081830303815290604052915050919050565b61138283838360405180602001604052806000815250611bd4565b505050565b61138f61283a565b73ffffffffffffffffffffffffffffffffffffffff166113ad611964565b73ffffffffffffffffffffffffffffffffffffffff1614611403576040517f08c379a00000000000000000000000000000000000000000000000000000000081526004016113fa906148f6565b60405180910390fd5b61140d8282612fcb565b5050565b6000808260ff161015801561142a575060028260ff1611155b611469576040517f08c379a000000000000000000000000000000000000000000000000000000000815260040161146090614d88565b60405180910390fd5b600e8260ff16815481106114805761147f614bc3565b5b90600052602060002001549050919050565b61149a61283a565b73ffffffffffffffffffffffffffffffffffffffff166114b8611964565b73ffffffffffffffffffffffffffffffffffffffff161461150e576040517f08c379a0000000000000000000000000000000000000000000000000000000008152600401611505906148f6565b60405180910390fd5b60008151905060005b818110156115a55760016016600085848151811061153857611537614bc3565b5b602002602001015173ffffffffffffffffffffffffffffffffffffffff1673ffffffffffffffffffffffffffffffffffffffff16815260200190815260200160002060006101000a81548160ff021916908360ff160217905550808061159d90614bf2565b915050611517565b505050565b6115b261283a565b73ffffffffffffffffffffffffffffffffffffffff166115d0611964565b73ffffffffffffffffffffffffffffffffffffffff1614611626576040517f08c379a000000000000000000000000000000000000000000000000000000000815260040161161d906148f6565b60405180910390fd5b806012908051906020019061163c929190613be5565b5050565b6000806002600084815260200190815260200160002060009054906101000a900473ffffffffffffffffffffffffffffffffffffffff169050600073ffffffffffffffffffffffffffffffffffffffff168173ffffffffffffffffffffffffffffffffffffffff1614156116e9576040517f08c379a00000000000000000000000000000000000000000000000000000000081526004016116e090614e1a565b60405180910390fd5b80915050919050565b6000600d600083815260200190815260200160002060009054906101000a900460ff169050919050565b60008073ffffffffffffffffffffffffffffffffffffffff168273ffffffffffffffffffffffffffffffffffffffff16141561178d576040517f08c379a000000000000000000000000000000000000000000000000000000000815260040161178490614eac565b60405180910390fd5b600360008373ffffffffffffffffffffffffffffffffffffffff1673ffffffffffffffffffffffffffffffffffffffff168152602001908152602001600020549050919050565b6117dc61283a565b73ffffffffffffffffffffffffffffffffffffffff166117fa611964565b73ffffffffffffffffffffffffffffffffffffffff1614611850576040517f08c379a0000000000000000000000000000000000000000000000000000000008152600401611847906148f6565b60405180910390fd5b61185a6000613161565b565b6000808260ff1610158015611875575060028260ff1611155b6118b4576040517f08c379a00000000000000000000000000000000000000000000000000000000081526004016118ab90614f18565b60405180910390fd5b600043905060136001815481106118ce576118cd614bc3565b5b906000526020600020015481106119095760108360ff16815481106118f6576118f5614bc3565b5b906000526020600020015491505061195f565b601360008154811061191e5761191d614bc3565b5b9060005260206000200154811061195957600f8360ff168154811061194657611945614bc3565b5b906000526020600020015491505061195f565b60009150505b919050565b6000600960009054906101000a900473ffffffffffffffffffffffffffffffffffffffff16905090565b600080601760009054906101000a900473ffffffffffffffffffffffffffffffffffffffff1673ffffffffffffffffffffffffffffffffffffffff1663feaf968c6040518163ffffffff1660e01b815260040160a060405180830381865afa1580156119fe573d6000803e3d6000fd5b505050506040513d601f19601f82011682018060405250810190611a229190614fbb565b5050509150508091505090565b611a3761283a565b73ffffffffffffffffffffffffffffffffffffffff16611a55611964565b73ffffffffffffffffffffffffffffffffffffffff1614611aab576040517f08c379a0000000000000000000000000000000000000000000000000000000008152600401611aa2906148f6565b60405180910390fd5b60008160ff1610158015611ac3575060028160ff1611155b611b02576040517f08c379a0000000000000000000000000000000000000000000000000000000008152600401611af990614f18565b60405180910390fd5b81600e8260ff1681548110611b1a57611b19614bc3565b5b90600052602060002001819055505050565b606060018054611b3b906146c2565b80601f0160208091040260200160405190810160405280929190818152602001828054611b67906146c2565b8015611bb45780601f10611b8957610100808354040283529160200191611bb4565b820191906000526020600020905b815481529060010190602001808311611b9757829003601f168201915b5050505050905090565b611bd0611bc961283a565b8383613227565b5050565b611be5611bdf61283a565b8361296f565b611c24576040517f08c379a0000000000000000000000000000000000000000000000000000000008152600401611c1b90614ae9565b60405180910390fd5b611c3084848484613394565b50505050565b611c3e61283a565b73ffffffffffffffffffffffffffffffffffffffff16611c5c611964565b73ffffffffffffffffffffffffffffffffffffffff1614611cb2576040517f08c379a0000000000000000000000000000000000000000000000000000000008152600401611ca9906148f6565b60405180910390fd5b80600b8190555050565b606082826000600e8260ff1681548110611cd957611cd8614bc3565b5b90600052602060002001541415611d25576040517f08c379a0000000000000000000000000000000000000000000000000000000008152600401611d1c90615082565b60405180910390fd5b6002821115611d69576040517f08c379a0000000000000000000000000000000000000000000000000000000008152600401611d6090615114565b60405180910390fd5b60008160ff1610158015611d81575060028160ff1611155b611dc0576040517f08c379a0000000000000000000000000000000000000000000000000000000008152600401611db790614f18565b60405180910390fd5b6001611dca610ce9565b83611dd591906149f7565b611ddf91906149f7565b600b5411611e22576040517f08c379a0000000000000000000000000000000000000000000000000000000008152600401611e1990615180565b60405180910390fd5b6000611e2d336133f0565b905060008160ff1611611e75576040517f08c379a0000000000000000000000000000000000000000000000000000000008152600401611e6c906151ec565b60405180910390fd5b611e7d61198e565b6a52b7d2dcc80cd2e400000087600e8860ff1681548110611ea157611ea0614bc3565b5b9060005260206000200154611eb69190614b09565b611ec09190614b09565b611eca9190614b92565b341015611f2a611ed8612435565b6a52b7d2dcc80cd2e400000089600e8a60ff1681548110611efc57611efb614bc3565b5b9060005260206000200154611f119190614b09565b611f1b9190614b09565b611f259190614b92565b612cbe565b604051602001611f3a919061527e565b60405160208183030381529060405290611f8a576040517f08c379a0000000000000000000000000000000000000000000000000000000008152600401611f819190613e24565b60405180910390fd5b50600033905060008173ffffffffffffffffffffffffffffffffffffffff16611fb161198e565b6a52b7d2dcc80cd2e40000008a600e8b60ff1681548110611fd557611fd4614bc3565b5b9060005260206000200154611fea9190614b09565b611ff49190614b09565b611ffe9190614b92565b3461200991906152a0565b60405161201590614947565b60006040518083038185875af1925050503d8060008114612052576040519150601f19603f3d011682016040523d82523d6000602084013e612057565b606091505b505090508061209b576040517f08c379a000000000000000000000000000000000000000000000000000000000815260040161209290615320565b60405180910390fd5b6000600f9050600060149050600043905060136001815481106120c1576120c0614bc3565b5b906000526020600020015481106120db5760109250601591505b828a60ff16815481106120f1576120f0614bc3565b5b90600052602060002001548b8360008d60ff1660ff1681526020019081526020016000205461212091906149f7565b10612160576040517f08c379a0000000000000000000000000000000000000000000000000000000008152600401612157906153b2565b60405180910390fd5b8a8260008c60ff1660ff1681526020019081526020016000205461218491906149f7565b8260008c60ff1660ff16815260200190815260200160002081905550600061221f601560008d60ff1660ff16815260200190815260200160002054601460008e60ff1660ff1681526020019081526020016000205460118e60ff16815481106121f0576121ef614bc3565b5b906000526020600020015461220591906149f7565b61220f91906149f7565b600a6134ba90919063ffffffff16565b60005b8c81101561229b57612234600a6134c7565b61223e600a6134dd565b915061224a33836134eb565b8b600d600084815260200190815260200160002060006101000a81548160ff021916908360ff160217905550612288826122838461114e565b610c5f565b808061229390614bf2565b915050612222565b506040518060400160405280600781526020017f7375636365737300000000000000000000000000000000000000000000000000815250995050505050505050505092915050565b60606122ee826127ce565b61232d576040517f08c379a000000000000000000000000000000000000000000000000000000000815260040161232490615444565b60405180910390fd5b600060066000848152602001908152602001600020805461234d906146c2565b80601f0160208091040260200160405190810160405280929190818152602001828054612379906146c2565b80156123c65780601f1061239b576101008083540402835291602001916123c6565b820191906000526020600020905b8154815290600101906020018083116123a957829003601f168201915b5050505050905060006123d76136c5565b90506000815114156123ed578192505050612430565b60008251111561242257808260405160200161240a929190615464565b60405160208183030381529060405292505050612430565b61242b846136dc565b925050505b919050565b600080643bf4b57c8990508091505090565b61244f61283a565b73ffffffffffffffffffffffffffffffffffffffff1661246d611964565b73ffffffffffffffffffffffffffffffffffffffff16146124c3576040517f08c379a00000000000000000000000000000000000000000000000000000000081526004016124ba906148f6565b60405180910390fd5b60008160ff16101580156124db575060028160ff1611155b61251a576040517f08c379a000000000000000000000000000000000000000000000000000000000815260040161251190614f18565b60405180910390fd5b6000439050601360018154811061253457612533614bc3565b5b9060005260206000200154811061256c578260108360ff168154811061255d5761255c614bc3565b5b90600052602060002001819055505b601360008154811061258157612580614bc3565b5b906000526020600020015481106125b95782600f8360ff16815481106125aa576125a9614bc3565b5b90600052602060002001819055505b505050565b6000600b54905090565b6000600560008473ffffffffffffffffffffffffffffffffffffffff1673ffffffffffffffffffffffffffffffffffffffff16815260200190815260200160002060008373ffffffffffffffffffffffffffffffffffffffff1673ffffffffffffffffffffffffffffffffffffffff16815260200190815260200160002060009054906101000a900460ff16905092915050565b61266461283a565b73ffffffffffffffffffffffffffffffffffffffff16612682611964565b73ffffffffffffffffffffffffffffffffffffffff16146126d8576040517f08c379a00000000000000000000000000000000000000000000000000000000081526004016126cf906148f6565b60405180910390fd5b600073ffffffffffffffffffffffffffffffffffffffff168173ffffffffffffffffffffffffffffffffffffffff161415612748576040517f08c379a000000000000000000000000000000000000000000000000000000000815260040161273f906154fa565b60405180910390fd5b61275181613161565b50565b60007f2a55205a000000000000000000000000000000000000000000000000000000007bffffffffffffffffffffffffffffffffffffffffffffffffffffffff1916827bffffffffffffffffffffffffffffffffffffffffffffffffffffffff191614806127c757506127c682613783565b5b9050919050565b60008073ffffffffffffffffffffffffffffffffffffffff166002600084815260200190815260200160002060009054906101000a900473ffffffffffffffffffffffffffffffffffffffff1673ffffffffffffffffffffffffffffffffffffffff1614159050919050565b600033905090565b816004600083815260200190815260200160002060006101000a81548173ffffffffffffffffffffffffffffffffffffffff021916908373ffffffffffffffffffffffffffffffffffffffff160217905550808273ffffffffffffffffffffffffffffffffffffffff166128b583611640565b73ffffffffffffffffffffffffffffffffffffffff167f8c5be1e5ebec7d5bd14f71427d1e84f3dd0314c0f7b2291e5b200ac8c7c3b92560405160405180910390a45050565b612904826127ce565b612943576040517f08c379a000000000000000000000000000000000000000000000000000000000815260040161293a9061558c565b60405180910390fd5b8060066000848152602001908152602001600020908051906020019061296a929190613be5565b505050565b600061297a826127ce565b6129b9576040517f08c379a00000000000000000000000000000000000000000000000000000000081526004016129b09061561e565b60405180910390fd5b60006129c483611640565b90508073ffffffffffffffffffffffffffffffffffffffff168473ffffffffffffffffffffffffffffffffffffffff161480612a3357508373ffffffffffffffffffffffffffffffffffffffff16612a1b8461098a565b73ffffffffffffffffffffffffffffffffffffffff16145b80612a445750612a4381856125c8565b5b91505092915050565b8273ffffffffffffffffffffffffffffffffffffffff16612a6d82611640565b73ffffffffffffffffffffffffffffffffffffffff1614612ac3576040517f08c379a0000000000000000000000000000000000000000000000000000000008152600401612aba906156b0565b60405180910390fd5b600073ffffffffffffffffffffffffffffffffffffffff168273ffffffffffffffffffffffffffffffffffffffff161415612b33576040517f08c379a0000000000000000000000000000000000000000000000000000000008152600401612b2a90615742565b60405180910390fd5b612b3e838383613865565b612b49600082612842565b6001600360008573ffffffffffffffffffffffffffffffffffffffff1673ffffffffffffffffffffffffffffffffffffffff1681526020019081526020016000206000828254612b9991906152a0565b925050819055506001600360008473ffffffffffffffffffffffffffffffffffffffff1673ffffffffffffffffffffffffffffffffffffffff1681526020019081526020016000206000828254612bf091906149f7565b92505081905550816002600083815260200190815260200160002060006101000a81548173ffffffffffffffffffffffffffffffffffffffff021916908373ffffffffffffffffffffffffffffffffffffffff160217905550808273ffffffffffffffffffffffffffffffffffffffff168473ffffffffffffffffffffffffffffffffffffffff167fddf252ad1be2c89b69c2b068fc378daa952ba7f163c4a11628f55a4df523b3ef60405160405180910390a4612caf83838361386a565b505050565b6000612710905090565b606060006040518060200160405280600081525090506000831415612d1b576040518060400160405280600181526020017f3000000000000000000000000000000000000000000000000000000000000000815250915050612fc6565b600083118015612d2b5750600a83105b15612d6d576040518060400160405280600481526020017f30303030000000000000000000000000000000000000000000000000000000008152509050612e68565b600a8310158015612d7e5750606483105b15612dc0576040518060400160405280600381526020017f30303000000000000000000000000000000000000000000000000000000000008152509050612e67565b60648310158015612dd257506103e883105b15612e14576040518060400160405280600281526020017f30300000000000000000000000000000000000000000000000000000000000008152509050612e66565b6103e88310158015612e27575061271083105b15612e65576040518060400160405280600181526020017f300000000000000000000000000000000000000000000000000000000000000081525090505b5b5b5b600083905060005b60008214612e9a578080612e8390614bf2565b915050600a82612e939190614b92565b9150612e70565b60008167ffffffffffffffff811115612eb657612eb5613f71565b5b6040519080825280601f01601f191660200182016040528015612ee85781602001600182028036833780820191505090505b50905060008290505b60008714612f9c57600181612f0691906152a0565b90506000600a8089612f189190614b92565b612f229190614b09565b88612f2d91906152a0565b6030612f399190615762565b905060008160f81b905080848481518110612f5757612f56614bc3565b5b60200101907effffffffffffffffffffffffffffffffffffffffffffffffffffffffffffff1916908160001a905350600a89612f939190614b92565b98505050612ef1565b8482604051602001612faf929190615464565b604051602081830303815290604052955050505050505b919050565b612fd3612cb4565b6bffffffffffffffffffffffff16816bffffffffffffffffffffffff161115613031576040517f08c379a00000000000000000000000000000000000000000000000000000000081526004016130289061580b565b60405180910390fd5b600073ffffffffffffffffffffffffffffffffffffffff168273ffffffffffffffffffffffffffffffffffffffff1614156130a1576040517f08c379a000000000000000000000000000000000000000000000000000000000815260040161309890615877565b60405180910390fd5b60405180604001604052808373ffffffffffffffffffffffffffffffffffffffff168152602001826bffffffffffffffffffffffff16815250600760008201518160000160006101000a81548173ffffffffffffffffffffffffffffffffffffffff021916908373ffffffffffffffffffffffffffffffffffffffff16021790555060208201518160000160146101000a8154816bffffffffffffffffffffffff02191690836bffffffffffffffffffffffff1602179055509050505050565b6000600960009054906101000a900473ffffffffffffffffffffffffffffffffffffffff16905081600960006101000a81548173ffffffffffffffffffffffffffffffffffffffff021916908373ffffffffffffffffffffffffffffffffffffffff1602179055508173ffffffffffffffffffffffffffffffffffffffff168173ffffffffffffffffffffffffffffffffffffffff167f8be0079c531659141344cd1fd0a4f28419497f9722a3daafe3b4186f6b6457e060405160405180910390a35050565b8173ffffffffffffffffffffffffffffffffffffffff168373ffffffffffffffffffffffffffffffffffffffff161415613296576040517f08c379a000000000000000000000000000000000000000000000000000000000815260040161328d906158e3565b60405180910390fd5b80600560008573ffffffffffffffffffffffffffffffffffffffff1673ffffffffffffffffffffffffffffffffffffffff16815260200190815260200160002060008473ffffffffffffffffffffffffffffffffffffffff1673ffffffffffffffffffffffffffffffffffffffff16815260200190815260200160002060006101000a81548160ff0219169083151502179055508173ffffffffffffffffffffffffffffffffffffffff168373ffffffffffffffffffffffffffffffffffffffff167f17307eab39ab6107e8899845ad3d59bd9653f200f220920489ca2b5937696c31836040516133879190613d70565b60405180910390a3505050565b61339f848484612a4d565b6133ab8484848461386f565b6133ea576040517f08c379a00000000000000000000000000000000000000000000000000000000081526004016133e190615975565b60405180910390fd5b50505050565b600080439050601360018154811061340b5761340a614bc3565b5b906000526020600020015481106134265760029150506134b5565b601360008154811061343b5761343a614bc3565b5b906000526020600020015481106134af576001601660008573ffffffffffffffffffffffffffffffffffffffff1673ffffffffffffffffffffffffffffffffffffffff16815260200190815260200160002060009054906101000a900460ff1660ff1614156134ae5760019150506134b5565b5b60009150505b919050565b8082600001819055505050565b6001816000016000828254019250508190555050565b600081600001549050919050565b600073ffffffffffffffffffffffffffffffffffffffff168273ffffffffffffffffffffffffffffffffffffffff16141561355b576040517f08c379a0000000000000000000000000000000000000000000000000000000008152600401613552906159e1565b60405180910390fd5b613564816127ce565b156135a4576040517f08c379a000000000000000000000000000000000000000000000000000000000815260040161359b90615a4d565b60405180910390fd5b6135b060008383613865565b6001600360008473ffffffffffffffffffffffffffffffffffffffff1673ffffffffffffffffffffffffffffffffffffffff168152602001908152602001600020600082825461360091906149f7565b92505081905550816002600083815260200190815260200160002060006101000a81548173ffffffffffffffffffffffffffffffffffffffff021916908373ffffffffffffffffffffffffffffffffffffffff160217905550808273ffffffffffffffffffffffffffffffffffffffff16600073ffffffffffffffffffffffffffffffffffffffff167fddf252ad1be2c89b69c2b068fc378daa952ba7f163c4a11628f55a4df523b3ef60405160405180910390a46136c16000838361386a565b5050565b606060405180602001604052806000815250905090565b60606136e7826127ce565b613726576040517f08c379a000000000000000000000000000000000000000000000000000000000815260040161371d90615adf565b60405180910390fd5b60006137306136c5565b90506000815111613750576040518060200160405280600081525061377b565b8061375a846139f7565b60405160200161376b929190615464565b6040516020818303038152906040525b915050919050565b60007f80ac58cd000000000000000000000000000000000000000000000000000000007bffffffffffffffffffffffffffffffffffffffffffffffffffffffff1916827bffffffffffffffffffffffffffffffffffffffffffffffffffffffff1916148061384e57507f5b5e139f000000000000000000000000000000000000000000000000000000007bffffffffffffffffffffffffffffffffffffffffffffffffffffffff1916827bffffffffffffffffffffffffffffffffffffffffffffffffffffffff1916145b8061385e575061385d82613b58565b5b9050919050565b505050565b505050565b60006138908473ffffffffffffffffffffffffffffffffffffffff16613bc2565b156139ea578373ffffffffffffffffffffffffffffffffffffffff1663150b7a026138b961283a565b8786866040518563ffffffff1660e01b81526004016138db9493929190615b54565b6020604051808303816000875af192505050801561391757506040513d601f19601f820116820180604052508101906139149190615bb5565b60015b61399a573d8060008114613947576040519150601f19603f3d011682016040523d82523d6000602084013e61394c565b606091505b50600081511415613992576040517f08c379a000000000000000000000000000000000000000000000000000000000815260040161398990615975565b60405180910390fd5b805181602001fd5b63150b7a0260e01b7bffffffffffffffffffffffffffffffffffffffffffffffffffffffff1916817bffffffffffffffffffffffffffffffffffffffffffffffffffffffff1916149150506139ef565b600190505b949350505050565b60606000821415613a3f576040518060400160405280600181526020017f30000000000000000000000000000000000000000000000000000000000000008152509050613b53565b600082905060005b60008214613a71578080613a5a90614bf2565b915050600a82613a6a9190614b92565b9150613a47565b60008167ffffffffffffffff811115613a8d57613a8c613f71565b5b6040519080825280601f01601f191660200182016040528015613abf5781602001600182028036833780820191505090505b5090505b60008514613b4c57600182613ad891906152a0565b9150600a85613ae79190615be2565b6030613af391906149f7565b60f81b818381518110613b0957613b08614bc3565b5b60200101907effffffffffffffffffffffffffffffffffffffffffffffffffffffffffffff1916908160001a905350600a85613b459190614b92565b9450613ac3565b8093505050505b919050565b60007f01ffc9a7000000000000000000000000000000000000000000000000000000007bffffffffffffffffffffffffffffffffffffffffffffffffffffffff1916827bffffffffffffffffffffffffffffffffffffffffffffffffffffffff1916149050919050565b6000808273ffffffffffffffffffffffffffffffffffffffff163b119050919050565b828054613bf1906146c2565b90600052602060002090601f016020900481019282613c135760008555613c5a565b82601f10613c2c57805160ff1916838001178555613c5a565b82800160010185558215613c5a579182015b82811115613c59578251825591602001919060010190613c3e565b5b509050613c679190613c6b565b5090565b5b80821115613c84576000816000905550600101613c6c565b5090565b6000819050919050565b613c9b81613c88565b82525050565b6000602082019050613cb66000830184613c92565b92915050565b6000604051905090565b600080fd5b600080fd5b60007fffffffff0000000000000000000000000000000000000000000000000000000082169050919050565b613d0581613cd0565b8114613d1057600080fd5b50565b600081359050613d2281613cfc565b92915050565b600060208284031215613d3e57613d3d613cc6565b5b6000613d4c84828501613d13565b91505092915050565b60008115159050919050565b613d6a81613d55565b82525050565b6000602082019050613d856000830184613d61565b92915050565b600081519050919050565b600082825260208201905092915050565b60005b83811015613dc5578082015181840152602081019050613daa565b83811115613dd4576000848401525b50505050565b6000601f19601f8301169050919050565b6000613df682613d8b565b613e008185613d96565b9350613e10818560208601613da7565b613e1981613dda565b840191505092915050565b60006020820190508181036000830152613e3e8184613deb565b905092915050565b613e4f81613c88565b8114613e5a57600080fd5b50565b600081359050613e6c81613e46565b92915050565b600060208284031215613e8857613e87613cc6565b5b6000613e9684828501613e5d565b91505092915050565b600073ffffffffffffffffffffffffffffffffffffffff82169050919050565b6000613eca82613e9f565b9050919050565b613eda81613ebf565b82525050565b6000602082019050613ef56000830184613ed1565b92915050565b613f0481613ebf565b8114613f0f57600080fd5b50565b600081359050613f2181613efb565b92915050565b60008060408385031215613f3e57613f3d613cc6565b5b6000613f4c85828601613f12565b9250506020613f5d85828601613e5d565b9150509250929050565b600080fd5b600080fd5b7f4e487b7100000000000000000000000000000000000000000000000000000000600052604160045260246000fd5b613fa982613dda565b810181811067ffffffffffffffff82111715613fc857613fc7613f71565b5b80604052505050565b6000613fdb613cbc565b9050613fe78282613fa0565b919050565b600067ffffffffffffffff82111561400757614006613f71565b5b61401082613dda565b9050602081019050919050565b82818337600083830152505050565b600061403f61403a84613fec565b613fd1565b90508281526020810184848401111561405b5761405a613f6c565b5b61406684828561401d565b509392505050565b600082601f83011261408357614082613f67565b5b813561409384826020860161402c565b91505092915050565b600080604083850312156140b3576140b2613cc6565b5b60006140c185828601613e5d565b925050602083013567ffffffffffffffff8111156140e2576140e1613ccb565b5b6140ee8582860161406e565b9150509250929050565b60008060006060848603121561411157614110613cc6565b5b600061411f86828701613f12565b935050602061413086828701613f12565b925050604061414186828701613e5d565b9150509250925092565b6000806040838503121561416257614161613cc6565b5b600061417085828601613e5d565b925050602061418185828601613e5d565b9150509250929050565b60006040820190506141a06000830185613ed1565b6141ad6020830184613c92565b9392505050565b600067ffffffffffffffff8211156141cf576141ce613f71565b5b602082029050602081019050919050565b600080fd5b60006141f86141f3846141b4565b613fd1565b9050808382526020820190506020840283018581111561421b5761421a6141e0565b5b835b8181101561424457806142308882613f12565b84526020840193505060208101905061421d565b5050509392505050565b600082601f83011261426357614262613f67565b5b81356142738482602086016141e5565b91505092915050565b60006020828403121561429257614291613cc6565b5b600082013567ffffffffffffffff8111156142b0576142af613ccb565b5b6142bc8482850161424e565b91505092915050565b60006bffffffffffffffffffffffff82169050919050565b6142e6816142c5565b81146142f157600080fd5b50565b600081359050614303816142dd565b92915050565b600080604083850312156143205761431f613cc6565b5b600061432e85828601613f12565b925050602061433f858286016142f4565b9150509250929050565b600060ff82169050919050565b61435f81614349565b811461436a57600080fd5b50565b60008135905061437c81614356565b92915050565b60006020828403121561439857614397613cc6565b5b60006143a68482850161436d565b91505092915050565b6000602082840312156143c5576143c4613cc6565b5b600082013567ffffffffffffffff8111156143e3576143e2613ccb565b5b6143ef8482850161406e565b91505092915050565b61440181614349565b82525050565b600060208201905061441c60008301846143f8565b92915050565b60006020828403121561443857614437613cc6565b5b600061444684828501613f12565b91505092915050565b6000819050919050565b6144628161444f565b82525050565b600060208201905061447d6000830184614459565b92915050565b6000806040838503121561449a57614499613cc6565b5b60006144a885828601613e5d565b92505060206144b98582860161436d565b9150509250929050565b6144cc81613d55565b81146144d757600080fd5b50565b6000813590506144e9816144c3565b92915050565b6000806040838503121561450657614505613cc6565b5b600061451485828601613f12565b9250506020614525858286016144da565b9150509250929050565b600067ffffffffffffffff82111561454a57614549613f71565b5b61455382613dda565b9050602081019050919050565b600061457361456e8461452f565b613fd1565b90508281526020810184848401111561458f5761458e613f6c565b5b61459a84828561401d565b509392505050565b600082601f8301126145b7576145b6613f67565b5b81356145c7848260208601614560565b91505092915050565b600080600080608085870312156145ea576145e9613cc6565b5b60006145f887828801613f12565b945050602061460987828801613f12565b935050604061461a87828801613e5d565b925050606085013567ffffffffffffffff81111561463b5761463a613ccb565b5b614647878288016145a2565b91505092959194509250565b6000806040838503121561466a57614669613cc6565b5b600061467885828601613f12565b925050602061468985828601613f12565b9150509250929050565b7f4e487b7100000000000000000000000000000000000000000000000000000000600052602260045260246000fd5b600060028204905060018216806146da57607f821691505b602082108114156146ee576146ed614693565b5b50919050565b7f4552433732313a20617070726f76656420717565727920666f72206e6f6e657860008201527f697374656e7420746f6b656e0000000000000000000000000000000000000000602082015250565b6000614750602c83613d96565b915061475b826146f4565b604082019050919050565b6000602082019050818103600083015261477f81614743565b9050919050565b7f4552433732313a20617070726f76616c20746f2063757272656e74206f776e6560008201527f7200000000000000000000000000000000000000000000000000000000000000602082015250565b60006147e2602183613d96565b91506147ed82614786565b604082019050919050565b60006020820190508181036000830152614811816147d5565b9050919050565b7f4552433732313a20617070726f76652063616c6c6572206973206e6f74206f7760008201527f6e6572206e6f7220617070726f76656420666f7220616c6c0000000000000000602082015250565b6000614874603883613d96565b915061487f82614818565b604082019050919050565b600060208201905081810360008301526148a381614867565b9050919050565b7f4f776e61626c653a2063616c6c6572206973206e6f7420746865206f776e6572600082015250565b60006148e0602083613d96565b91506148eb826148aa565b602082019050919050565b6000602082019050818103600083015261490f816148d3565b9050919050565b600081905092915050565b50565b6000614931600083614916565b915061493c82614921565b600082019050919050565b600061495282614924565b9150819050919050565b7f4661696c656420746f2057697468647261772045746865720000000000000000600082015250565b6000614992601883613d96565b915061499d8261495c565b602082019050919050565b600060208201905081810360008301526149c181614985565b9050919050565b7f4e487b7100000000000000000000000000000000000000000000000000000000600052601160045260246000fd5b6000614a0282613c88565b9150614a0d83613c88565b9250827fffffffffffffffffffffffffffffffffffffffffffffffffffffffffffffffff03821115614a4257614a416149c8565b5b828201905092915050565b6000614a5882614349565b915060ff821415614a6c57614a6b6149c8565b5b600182019050919050565b7f4552433732313a207472616e736665722063616c6c6572206973206e6f74206f60008201527f776e6572206e6f7220617070726f766564000000000000000000000000000000602082015250565b6000614ad3603183613d96565b9150614ade82614a77565b604082019050919050565b60006020820190508181036000830152614b0281614ac6565b9050919050565b6000614b1482613c88565b9150614b1f83613c88565b9250817fffffffffffffffffffffffffffffffffffffffffffffffffffffffffffffffff0483118215151615614b5857614b576149c8565b5b828202905092915050565b7f4e487b7100000000000000000000000000000000000000000000000000000000600052601260045260246000fd5b6000614b9d82613c88565b9150614ba883613c88565b925082614bb857614bb7614b63565b5b828204905092915050565b7f4e487b7100000000000000000000000000000000000000000000000000000000600052603260045260246000fd5b6000614bfd82613c88565b91507fffffffffffffffffffffffffffffffffffffffffffffffffffffffffffffffff821415614c3057614c2f6149c8565b5b600182019050919050565b600081905092915050565b60008190508160005260206000209050919050565b60008154614c68816146c2565b614c728186614c3b565b94506001821660008114614c8d5760018114614c9e57614cd1565b60ff19831686528186019350614cd1565b614ca785614c46565b60005b83811015614cc957815481890152600182019150602081019050614caa565b838801955050505b50505092915050565b6000614ce582613d8b565b614cef8185614c3b565b9350614cff818560208601613da7565b80840191505092915050565b6000614d178286614c5b565b9150614d238285614cda565b9150614d2f8284614cda565b9150819050949350505050565b7f496e76616c69656420746965724e756d626572206f6620617272617900000000600082015250565b6000614d72601c83613d96565b9150614d7d82614d3c565b602082019050919050565b60006020820190508181036000830152614da181614d65565b9050919050565b7f4552433732313a206f776e657220717565727920666f72206e6f6e657869737460008201527f656e7420746f6b656e0000000000000000000000000000000000000000000000602082015250565b6000614e04602983613d96565b9150614e0f82614da8565b604082019050919050565b60006020820190508181036000830152614e3381614df7565b9050919050565b7f4552433732313a2062616c616e636520717565727920666f7220746865207a6560008201527f726f206164647265737300000000000000000000000000000000000000000000602082015250565b6000614e96602a83613d96565b9150614ea182614e3a565b604082019050919050565b60006020820190508181036000830152614ec581614e89565b9050919050565b7f496e76616c69656420746965724e756d626572206f662061727261792e000000600082015250565b6000614f02601d83613d96565b9150614f0d82614ecc565b602082019050919050565b60006020820190508181036000830152614f3181614ef5565b9050919050565b600069ffffffffffffffffffff82169050919050565b614f5781614f38565b8114614f6257600080fd5b50565b600081519050614f7481614f4e565b92915050565b614f838161444f565b8114614f8e57600080fd5b50565b600081519050614fa081614f7a565b92915050565b600081519050614fb581613e46565b92915050565b600080600080600060a08688031215614fd757614fd6613cc6565b5b6000614fe588828901614f65565b9550506020614ff688828901614f91565b945050604061500788828901614fa6565b935050606061501888828901614fa6565b925050608061502988828901614f65565b9150509295509295909350565b7f54696572207072696365206973206e6f74207365742e00000000000000000000600082015250565b600061506c601683613d96565b915061507782615036565b602082019050919050565b6000602082019050818103600083015261509b8161505f565b9050919050565b7f596f7520617265206e6f7420616c6c6f77656420746f20627579206d6f72652060008201527f7468616e203220746f6b656e73206174206f6e63652e00000000000000000000602082015250565b60006150fe603683613d96565b9150615109826150a2565b604082019050919050565b6000602082019050818103600083015261512d816150f1565b9050919050565b7f4e6f7420656e6f75676820746f6b656e73206c65667420746f206275792e0000600082015250565b600061516a601e83613d96565b915061517582615134565b602082019050919050565b600060208201905081810360008301526151998161515d565b9050919050565b7f4e6f7420617661696c61626c6520746f206d696e742e00000000000000000000600082015250565b60006151d6601683613d96565b91506151e1826151a0565b602082019050919050565b60006020820190508181036000830152615205816151c9565b9050919050565b7f203a416d6f756e74206f662065746865722073656e74206e6f7420636f72726560008201527f63742e0000000000000000000000000000000000000000000000000000000000602082015250565b6000615268602383614c3b565b91506152738261520c565b602382019050919050565b600061528a8284614cda565b91506152958261525b565b915081905092915050565b60006152ab82613c88565b91506152b683613c88565b9250828210156152c9576152c86149c8565b5b828203905092915050565b7f4661696c656420746f20726566756e6400000000000000000000000000000000600082015250565b600061530a601083613d96565b9150615315826152d4565b602082019050919050565b60006020820190508181036000830152615339816152fd565b9050919050565b7f4f766572666c6f77206d6178696d756d206d696e74206c696d69746174696f6e60008201527f2e00000000000000000000000000000000000000000000000000000000000000602082015250565b600061539c602183613d96565b91506153a782615340565b604082019050919050565b600060208201905081810360008301526153cb8161538f565b9050919050565b7f45524337323155524953746f726167653a2055524920717565727920666f722060008201527f6e6f6e6578697374656e7420746f6b656e000000000000000000000000000000602082015250565b600061542e603183613d96565b9150615439826153d2565b604082019050919050565b6000602082019050818103600083015261545d81615421565b9050919050565b60006154708285614cda565b915061547c8284614cda565b91508190509392505050565b7f4f776e61626c653a206e6577206f776e657220697320746865207a65726f206160008201527f6464726573730000000000000000000000000000000000000000000000000000602082015250565b60006154e4602683613d96565b91506154ef82615488565b604082019050919050565b60006020820190508181036000830152615513816154d7565b9050919050565b7f45524337323155524953746f726167653a2055524920736574206f66206e6f6e60008201527f6578697374656e7420746f6b656e000000000000000000000000000000000000602082015250565b6000615576602e83613d96565b91506155818261551a565b604082019050919050565b600060208201905081810360008301526155a581615569565b9050919050565b7f4552433732313a206f70657261746f7220717565727920666f72206e6f6e657860008201527f697374656e7420746f6b656e0000000000000000000000000000000000000000602082015250565b6000615608602c83613d96565b9150615613826155ac565b604082019050919050565b60006020820190508181036000830152615637816155fb565b9050919050565b7f4552433732313a207472616e736665722066726f6d20696e636f72726563742060008201527f6f776e6572000000000000000000000000000000000000000000000000000000602082015250565b600061569a602583613d96565b91506156a58261563e565b604082019050919050565b600060208201905081810360008301526156c98161568d565b9050919050565b7f4552433732313a207472616e7366657220746f20746865207a65726f2061646460008201527f7265737300000000000000000000000000000000000000000000000000000000602082015250565b600061572c602483613d96565b9150615737826156d0565b604082019050919050565b6000602082019050818103600083015261575b8161571f565b9050919050565b600061576d82614349565b915061577883614349565b92508260ff0382111561578e5761578d6149c8565b5b828201905092915050565b7f455243323938313a20726f79616c7479206665652077696c6c2065786365656460008201527f2073616c65507269636500000000000000000000000000000000000000000000602082015250565b60006157f5602a83613d96565b915061580082615799565b604082019050919050565b60006020820190508181036000830152615824816157e8565b9050919050565b7f455243323938313a20696e76616c696420726563656976657200000000000000600082015250565b6000615861601983613d96565b915061586c8261582b565b602082019050919050565b6000602082019050818103600083015261589081615854565b9050919050565b7f4552433732313a20617070726f766520746f2063616c6c657200000000000000600082015250565b60006158cd601983613d96565b91506158d882615897565b602082019050919050565b600060208201905081810360008301526158fc816158c0565b9050919050565b7f4552433732313a207472616e7366657220746f206e6f6e20455243373231526560008201527f63656976657220696d706c656d656e7465720000000000000000000000000000602082015250565b600061595f603283613d96565b915061596a82615903565b604082019050919050565b6000602082019050818103600083015261598e81615952565b9050919050565b7f4552433732313a206d696e7420746f20746865207a65726f2061646472657373600082015250565b60006159cb602083613d96565b91506159d682615995565b602082019050919050565b600060208201905081810360008301526159fa816159be565b9050919050565b7f4552433732313a20746f6b656e20616c7265616479206d696e74656400000000600082015250565b6000615a37601c83613d96565b9150615a4282615a01565b602082019050919050565b60006020820190508181036000830152615a6681615a2a565b9050919050565b7f4552433732314d657461646174613a2055524920717565727920666f72206e6f60008201527f6e6578697374656e7420746f6b656e0000000000000000000000000000000000602082015250565b6000615ac9602f83613d96565b9150615ad482615a6d565b604082019050919050565b60006020820190508181036000830152615af881615abc565b9050919050565b600081519050919050565b600082825260208201905092915050565b6000615b2682615aff565b615b308185615b0a565b9350615b40818560208601613da7565b615b4981613dda565b840191505092915050565b6000608082019050615b696000830187613ed1565b615b766020830186613ed1565b615b836040830185613c92565b8181036060830152615b958184615b1b565b905095945050505050565b600081519050615baf81613cfc565b92915050565b600060208284031215615bcb57615bca613cc6565b5b6000615bd984828501615ba0565b91505092915050565b6000615bed82613c88565b9150615bf883613c88565b925082615c0857615c07614b63565b5b82820690509291505056fea2646970667358221220e1c728a53e371f3a53a627e8c551365c1a009fa52e9aa145fc459fb5604fba9364736f6c634300080b003368747470733a2f2f676174657761792e70696e6174612e636c6f75642f697066732f516d5353474677487a6e6555466f6d34746157684d76314d4e594e72475546465142335655387267575a72464e58",
  "immutableReferences": {},
  "source": "// SPDX-License-Identifier: MIT\npragma solidity >=0.8.9 <0.9.0;\n\nimport \"@openzeppelin/contracts/access/Ownable.sol\";\n// import \"@openzeppelin/contracts/utils/Counters.sol\";\nimport \"@openzeppelin/contracts/token/ERC721/extensions/ERC721URIStorage.sol\";\nimport \"@openzeppelin/contracts/token/common/ERC2981.sol\";\nimport \"@openzeppelin/contracts/utils/introspection/ERC165.sol\";\nimport \"./IAggregatorV3.sol\";\nimport \"./Counters.sol\";\n\ncontract FathomyachtClub is ERC721URIStorage, ERC2981, Ownable {\n  using Counters for Counters.Counter;\n  Counters.Counter private _tokenIds;\n  uint256 private MAX_TOKEN = 10000;\n  uint256 private MAX_MINTABLE_LIMIT = 1000;\n\n  // mapping for token to tier number(0: power, 1: yacht, 2: prestige)\n  mapping(uint256 => uint8) private _tokenToTier;\n\n  // NFT prices in USD, mapping for tier to price(0: power, 1: yacht, 2: prestige)\n  uint256[] private NFT_PRICE = [50, 100, 150, 0, 0];\n  uint256[] private PRESALE_TIER_MINT_LIMIT = [100, 100, 50, 0, 0];\n  uint256[] private PUBLIC_SALE_TIER_MINT_LIMIT = [900, 900, 950, 0, 0];\n  uint256[] private _tokenIdRange = [8000, 0, 2000, 4000, 6000];\n  string private _tokenBatchURI = \"https://gateway.pinata.cloud/ipfs/QmSSGFwHzneUFom4taWhMv1MNYNrGUFFQB3VU8rgWZrFNX\";\n  // 0: presale start block, 1: public sale start block\n  uint256[] private EVENT_BLOCK = [10264904, 10437473];\n  // Mapping from address to minted number of NFTs(0: power, 1: yacht, 2: prestige)\n  mapping(uint8 => uint256) private _preSaleMintCounter;\n  // Mapping from address to minted number of NFTs(0: power, 1: yacht, 2: prestige)\n  mapping(uint8 => uint256) private _publicSaleMintCounter;\n  // Mapping from address to white list flag(1: added, 0: removed)\n  mapping(address => uint8) private _whitelister;\n\n  AggregatorV3Interface internal priceFeed;\n\n  constructor() ERC721(\"Fathom Yacht Club\", \"FYC\") {\n    _setDefaultRoyalty(msg.sender, 1000);\n    priceFeed = AggregatorV3Interface(0x8A753747A1Fa494EC906cE90E9f37563A8AF630e);\n  }\n\n  modifier ableMintBatch(uint256 number, uint8 tierNumber) {\n    require(NFT_PRICE[tierNumber] != 0, \"Tier price is not set.\");\n    require(number <= 2, \"You are not allowed to buy more than 2 tokens at once.\");\n    require(tierNumber >= 0 && tierNumber <= 2, \"Invalied tierNumber of array.\");\n    require(MAX_TOKEN > number + totalSupply() + 1, \"Not enough tokens left to buy.\");\n\n    uint8 blockStatus = checkBlock(msg.sender);\n    require(blockStatus > 0, \"Not available to mint.\");\n    _;\n  }\n\n  function checkBlock(address pm_address) internal view returns(uint8) {\n    uint256 curBlock = block.number;\n\n    if (curBlock >= EVENT_BLOCK[1]) {\n      return 2;\n    }\n    if (curBlock >= EVENT_BLOCK[0]) {\n      if(_whitelister[pm_address]== 1) {\n        return 1;\n      }\n    }\n\n    return 0;\n  }\n\n  function addWhiteList(address[] memory lsts) public onlyOwner {\n    uint256 new_len = lsts.length;\n    for(uint256 i=0; i<new_len; i++) {\n      _whitelister[lsts[i]] = 1;\n    }\n  }\n\n  function removeWhiteList(address[] memory lsts) public onlyOwner {\n    uint256 new_len = lsts.length;\n    for(uint256 i=0; i<new_len; i++) {\n      _whitelister[lsts[i]] = 0;\n    }\n  }\n\n  function getTierNumberOf(uint256 _tokenId) public view returns(uint8) {\n    return _tokenToTier[_tokenId];\n  }\n\n  function getTierPrice(uint8 tierNumber) public view returns(uint256) {\n    require(tierNumber >= 0 && tierNumber <= 2, \"Invalied tierNumber of array\");\n    return NFT_PRICE[tierNumber];\n  }\n\n  function setTierPrice(uint256 price, uint8 tierNumber) external onlyOwner {\n    require(tierNumber >= 0 && tierNumber <= 2, \"Invalied tierNumber of array.\");\n    NFT_PRICE[tierNumber] = price;\n  }\n\n  function getMaxLimit() external view returns(uint256) {\n    return MAX_TOKEN;\n  }\n\n  function setMaxLimit(uint256 limit) external onlyOwner {\n    MAX_TOKEN = limit;\n  }\n\n  function getMaxMintableLimit() external view returns(uint256) {\n    return MAX_MINTABLE_LIMIT;\n  }\n\n  function setMaxMintableLimit(uint256 limit) external onlyOwner {\n    MAX_MINTABLE_LIMIT = limit;\n  }\n\n  function getTierLimit(uint8 tierNumber) external view returns(uint256) {\n    require(tierNumber >= 0 && tierNumber <= 2, \"Invalied tierNumber of array.\");\n\n    uint256 curBlock = block.number;\n    if (curBlock >= EVENT_BLOCK[1]) {\n      return PUBLIC_SALE_TIER_MINT_LIMIT[tierNumber];\n    }\n    if (curBlock >= EVENT_BLOCK[0]) {\n      return PRESALE_TIER_MINT_LIMIT[tierNumber];\n    }\n\n    return 0;\n  }\n\n  function setTierMintLimit(uint256 limit, uint8 tierNumber) external onlyOwner {\n    require(tierNumber >= 0 && tierNumber <= 2, \"Invalied tierNumber of array.\");\n\n    uint256 curBlock = block.number;\n    if (curBlock >= EVENT_BLOCK[1]) {\n      PUBLIC_SALE_TIER_MINT_LIMIT[tierNumber] = limit;\n    }\n    if (curBlock >= EVENT_BLOCK[0]) {\n      PRESALE_TIER_MINT_LIMIT[tierNumber] = limit;\n    }\n  }\n\n  function withDraw() external onlyOwner {\n    address payable tgt = payable(owner());\n    (bool success1, ) = tgt.call{value:address(this).balance}(\"\");\n    require(success1, \"Failed to Withdraw Ether\");\n  }\n\n  function getTokenURI(uint256 _tokenId) public view returns(string memory) {\n    string memory subDirectory = 'Not specified';\n    if (_tokenId > 0 && _tokenId <= 2000) {\n      subDirectory = '/Yacht/';\n    }\n    else if (_tokenId > 2000 && _tokenId <= 4000) {\n      subDirectory = '/Prestige/';\n    }\n    else if (_tokenId > 4000 && _tokenId <= 6000) {\n      subDirectory = '/Ultra/';\n    }\n    else if (_tokenId > 6000 && _tokenId <= 8000) {\n      subDirectory = '/Reserve/';\n    }\n    else if (_tokenId > 8000 && _tokenId <= 10000) {\n      subDirectory = '/Power/';\n    }\n\n    return string(abi.encodePacked(_tokenBatchURI, subDirectory, uint2str(_tokenId)));\n  }\n\n  function setTokenBatchURI(string memory _batchTokenURI) external onlyOwner {\n    _tokenBatchURI = _batchTokenURI;\n  }\n\n  function setTokenURI(uint256 number, string memory tokenURI) public onlyOwner {\n    _setTokenURI(number, tokenURI);\n  }\n\n  function mintBatch(uint256 number, uint8 tierNumber) public payable ableMintBatch(number, tierNumber) returns(string memory) {\n    require(msg.value >= ((NFT_PRICE[tierNumber] * number) * (10 ** 26)) / uint256(getLatestPrice()), string(abi.encodePacked(uint2str(((NFT_PRICE[tierNumber] * number) * (10 ** 26)) / uint256(getLocalPrice())), \" :Amount of ether sent not correct.\")));\n\n    // refund the remainder\n    address payable tgt = payable(msg.sender);\n    (bool success1, ) = tgt.call{ value: msg.value - (((NFT_PRICE[tierNumber] * number) * (10 ** 26)) / uint256(getLatestPrice())) }(\"\");\n    require(success1, \"Failed to refund\");\n\n    uint256[] storage tierMintLimit = PRESALE_TIER_MINT_LIMIT;\n    mapping(uint8 => uint256) storage tierMintCounter = _preSaleMintCounter;\n    uint256 curBlock = block.number;\n\n    // use public sale variables if the current date is after public sale started\n    if (curBlock >= EVENT_BLOCK[1]) {\n      tierMintLimit = PUBLIC_SALE_TIER_MINT_LIMIT;\n      tierMintCounter = _publicSaleMintCounter;\n    }\n    require(tierMintCounter[tierNumber] + number < tierMintLimit[tierNumber], \"Overflow maximum mint limitation.\");\n\n    tierMintCounter[tierNumber] = tierMintCounter[tierNumber] + number;\n\n    uint256 newItemId = 0;\n    // set where start the tokenIds to be incremented\n    _tokenIds.set(_tokenIdRange[tierNumber] + _preSaleMintCounter[tierNumber] + _publicSaleMintCounter[tierNumber]);\n\n    for (uint256 i = 0; i < number; i++) {\n      _tokenIds.increment();\n      newItemId = _tokenIds.current();\n      _mint(msg.sender, newItemId);\n      _tokenToTier[newItemId] = tierNumber;\n      setTokenURI(newItemId, getTokenURI(newItemId));\n    }\n\n    return 'success';\n  }\n\n  function totalSupply() public view returns(uint256) {\n    uint256 total = 0;\n    for(uint8 i = 0; i < 5; i++) {\n      total += (_preSaleMintCounter[i] + _publicSaleMintCounter[i]);\n    }\n    \n    return total;\n  }\n\n  function supportsInterface(bytes4 interfaceId) public view virtual override(ERC721, ERC2981) returns (bool) {\n    return super.supportsInterface(interfaceId);\n  }\n\n  /**\n    * @dev See {ERC721-_burn}. This override additionally clears the royalty information for the token.\n    */\n  function _burn(uint256 tokenId) internal virtual override {\n    super._burn(tokenId);\n    _resetTokenRoyalty(tokenId);\n  }\n\n  function setRoality(address receiver, uint96 feeNumerator) external onlyOwner {\n    _setDefaultRoyalty(receiver, feeNumerator);\n  }\n\n  function getLatestPrice() public view returns (int) {\n    (\n      ,\n      int price,\n      ,\n      ,\n      \n    ) = priceFeed.latestRoundData();\n    return price;\n  }\n\n  // use this for test purpose and delete when deploy on the mainnet\n  function getLocalPrice() public pure returns (int) {\n    int price = 257508605065;\n    return price;\n  }\n\n  function uint2str(uint _i) internal pure returns (string memory _uintAsString) {\n    string memory prefix = '';\n    if (_i == 0) {\n      return \"0\";\n    }\n    else if (_i > 0 && _i < 10) {\n      prefix = '0000';\n    }\n    else if (_i >= 10 && _i < 100) {\n      prefix = '000';\n    }\n    else if (_i >= 100 && _i < 1000) {\n      prefix = '00';\n    }\n    else if (_i >= 1000 && _i < 10000) {\n      prefix = '0';\n    }\n\n    uint j = _i;\n    uint len;\n    while (j != 0) {\n      len++;\n      j /= 10;\n    }\n    bytes memory bstr = new bytes(len);\n    uint k = len;\n    while (_i != 0) {\n      k = k-1;\n      uint8 temp = (48 + uint8(_i - _i / 10 * 10));\n      bytes1 b1 = bytes1(temp);\n      bstr[k] = b1;\n      _i /= 10;\n    }\n\n    return string(abi.encodePacked(prefix, string(bstr)));\n  }\n}\n",
  "sourcePath": "F:\\www-2022\\fathonclub-work\\app\\contracts\\FathomyachtClub.sol",
  "compiler": {
    "name": "solc",
    "version": "0.8.11+commit.d7f03943.Emscripten.clang"
  },
  "schemaVersion": "3.4.5",
  "updatedAt": "2022-03-15T01:48:19.583Z",
  "devdoc": {
    "kind": "dev",
    "methods": {
      "approve(address,uint256)": {
        "details": "See {IERC721-approve}."
      },
      "balanceOf(address)": {
        "details": "See {IERC721-balanceOf}."
      },
      "getApproved(uint256)": {
        "details": "See {IERC721-getApproved}."
      },
      "isApprovedForAll(address,address)": {
        "details": "See {IERC721-isApprovedForAll}."
      },
      "name()": {
        "details": "See {IERC721Metadata-name}."
      },
      "owner()": {
        "details": "Returns the address of the current owner."
      },
      "ownerOf(uint256)": {
        "details": "See {IERC721-ownerOf}."
      },
      "renounceOwnership()": {
        "details": "Leaves the contract without owner. It will not be possible to call `onlyOwner` functions anymore. Can only be called by the current owner. NOTE: Renouncing ownership will leave the contract without an owner, thereby removing any functionality that is only available to the owner."
      },
      "royaltyInfo(uint256,uint256)": {
        "details": "Returns how much royalty is owed and to whom, based on a sale price that may be denominated in any unit of exchange. The royalty amount is denominated and should be payed in that same unit of exchange."
      },
      "safeTransferFrom(address,address,uint256)": {
        "details": "See {IERC721-safeTransferFrom}."
      },
      "safeTransferFrom(address,address,uint256,bytes)": {
        "details": "See {IERC721-safeTransferFrom}."
      },
      "setApprovalForAll(address,bool)": {
        "details": "See {IERC721-setApprovalForAll}."
      },
      "symbol()": {
        "details": "See {IERC721Metadata-symbol}."
      },
      "tokenURI(uint256)": {
        "details": "See {IERC721Metadata-tokenURI}."
      },
      "transferFrom(address,address,uint256)": {
        "details": "See {IERC721-transferFrom}."
      },
      "transferOwnership(address)": {
        "details": "Transfers ownership of the contract to a new account (`newOwner`). Can only be called by the current owner."
      }
    },
    "version": 1
  },
  "userdoc": {
    "kind": "user",
    "methods": {},
    "version": 1
  }
}