{
  "contractName": "FathomyachtClub",
  "abi": [
    {
      "inputs": [],
      "stateMutability": "nonpayable",
      "type": "constructor"
    },
    {
      "anonymous": false,
      "inputs": [
        {
          "indexed": true,
          "internalType": "address",
          "name": "owner",
          "type": "address"
        },
        {
          "indexed": true,
          "internalType": "address",
          "name": "approved",
          "type": "address"
        },
        {
          "indexed": true,
          "internalType": "uint256",
          "name": "tokenId",
          "type": "uint256"
        }
      ],
      "name": "Approval",
      "type": "event"
    },
    {
      "anonymous": false,
      "inputs": [
        {
          "indexed": true,
          "internalType": "address",
          "name": "owner",
          "type": "address"
        },
        {
          "indexed": true,
          "internalType": "address",
          "name": "operator",
          "type": "address"
        },
        {
          "indexed": false,
          "internalType": "bool",
          "name": "approved",
          "type": "bool"
        }
      ],
      "name": "ApprovalForAll",
      "type": "event"
    },
    {
      "anonymous": false,
      "inputs": [
        {
          "indexed": true,
          "internalType": "address",
          "name": "previousOwner",
          "type": "address"
        },
        {
          "indexed": true,
          "internalType": "address",
          "name": "newOwner",
          "type": "address"
        }
      ],
      "name": "OwnershipTransferred",
      "type": "event"
    },
    {
      "anonymous": false,
      "inputs": [
        {
          "indexed": true,
          "internalType": "address",
          "name": "from",
          "type": "address"
        },
        {
          "indexed": true,
          "internalType": "address",
          "name": "to",
          "type": "address"
        },
        {
          "indexed": true,
          "internalType": "uint256",
          "name": "tokenId",
          "type": "uint256"
        }
      ],
      "name": "Transfer",
      "type": "event"
    },
    {
      "inputs": [
        {
          "internalType": "address",
          "name": "to",
          "type": "address"
        },
        {
          "internalType": "uint256",
          "name": "tokenId",
          "type": "uint256"
        }
      ],
      "name": "approve",
      "outputs": [],
      "stateMutability": "nonpayable",
      "type": "function"
    },
    {
      "inputs": [
        {
          "internalType": "address",
          "name": "owner",
          "type": "address"
        }
      ],
      "name": "balanceOf",
      "outputs": [
        {
          "internalType": "uint256",
          "name": "",
          "type": "uint256"
        }
      ],
      "stateMutability": "view",
      "type": "function",
      "constant": true
    },
    {
      "inputs": [
        {
          "internalType": "uint256",
          "name": "tokenId",
          "type": "uint256"
        }
      ],
      "name": "getApproved",
      "outputs": [
        {
          "internalType": "address",
          "name": "",
          "type": "address"
        }
      ],
      "stateMutability": "view",
      "type": "function",
      "constant": true
    },
    {
      "inputs": [
        {
          "internalType": "address",
          "name": "owner",
          "type": "address"
        },
        {
          "internalType": "address",
          "name": "operator",
          "type": "address"
        }
      ],
      "name": "isApprovedForAll",
      "outputs": [
        {
          "internalType": "bool",
          "name": "",
          "type": "bool"
        }
      ],
      "stateMutability": "view",
      "type": "function",
      "constant": true
    },
    {
      "inputs": [],
      "name": "name",
      "outputs": [
        {
          "internalType": "string",
          "name": "",
          "type": "string"
        }
      ],
      "stateMutability": "view",
      "type": "function",
      "constant": true
    },
    {
      "inputs": [],
      "name": "owner",
      "outputs": [
        {
          "internalType": "address",
          "name": "",
          "type": "address"
        }
      ],
      "stateMutability": "view",
      "type": "function",
      "constant": true
    },
    {
      "inputs": [
        {
          "internalType": "uint256",
          "name": "tokenId",
          "type": "uint256"
        }
      ],
      "name": "ownerOf",
      "outputs": [
        {
          "internalType": "address",
          "name": "",
          "type": "address"
        }
      ],
      "stateMutability": "view",
      "type": "function",
      "constant": true
    },
    {
      "inputs": [],
      "name": "renounceOwnership",
      "outputs": [],
      "stateMutability": "nonpayable",
      "type": "function"
    },
    {
      "inputs": [
        {
          "internalType": "uint256",
          "name": "_tokenId",
          "type": "uint256"
        },
        {
          "internalType": "uint256",
          "name": "_salePrice",
          "type": "uint256"
        }
      ],
      "name": "royaltyInfo",
      "outputs": [
        {
          "internalType": "address",
          "name": "",
          "type": "address"
        },
        {
          "internalType": "uint256",
          "name": "",
          "type": "uint256"
        }
      ],
      "stateMutability": "view",
      "type": "function",
      "constant": true
    },
    {
      "inputs": [
        {
          "internalType": "address",
          "name": "from",
          "type": "address"
        },
        {
          "internalType": "address",
          "name": "to",
          "type": "address"
        },
        {
          "internalType": "uint256",
          "name": "tokenId",
          "type": "uint256"
        }
      ],
      "name": "safeTransferFrom",
      "outputs": [],
      "stateMutability": "nonpayable",
      "type": "function"
    },
    {
      "inputs": [
        {
          "internalType": "address",
          "name": "from",
          "type": "address"
        },
        {
          "internalType": "address",
          "name": "to",
          "type": "address"
        },
        {
          "internalType": "uint256",
          "name": "tokenId",
          "type": "uint256"
        },
        {
          "internalType": "bytes",
          "name": "_data",
          "type": "bytes"
        }
      ],
      "name": "safeTransferFrom",
      "outputs": [],
      "stateMutability": "nonpayable",
      "type": "function"
    },
    {
      "inputs": [
        {
          "internalType": "address",
          "name": "operator",
          "type": "address"
        },
        {
          "internalType": "bool",
          "name": "approved",
          "type": "bool"
        }
      ],
      "name": "setApprovalForAll",
      "outputs": [],
      "stateMutability": "nonpayable",
      "type": "function"
    },
    {
      "inputs": [],
      "name": "symbol",
      "outputs": [
        {
          "internalType": "string",
          "name": "",
          "type": "string"
        }
      ],
      "stateMutability": "view",
      "type": "function",
      "constant": true
    },
    {
      "inputs": [
        {
          "internalType": "uint256",
          "name": "tokenId",
          "type": "uint256"
        }
      ],
      "name": "tokenURI",
      "outputs": [
        {
          "internalType": "string",
          "name": "",
          "type": "string"
        }
      ],
      "stateMutability": "view",
      "type": "function",
      "constant": true
    },
    {
      "inputs": [
        {
          "internalType": "address",
          "name": "from",
          "type": "address"
        },
        {
          "internalType": "address",
          "name": "to",
          "type": "address"
        },
        {
          "internalType": "uint256",
          "name": "tokenId",
          "type": "uint256"
        }
      ],
      "name": "transferFrom",
      "outputs": [],
      "stateMutability": "nonpayable",
      "type": "function"
    },
    {
      "inputs": [
        {
          "internalType": "address",
          "name": "newOwner",
          "type": "address"
        }
      ],
      "name": "transferOwnership",
      "outputs": [],
      "stateMutability": "nonpayable",
      "type": "function"
    },
    {
      "inputs": [
        {
          "internalType": "address[]",
          "name": "lsts",
          "type": "address[]"
        }
      ],
      "name": "addWhiteList",
      "outputs": [],
      "stateMutability": "nonpayable",
      "type": "function"
    },
    {
      "inputs": [
        {
          "internalType": "address[]",
          "name": "lsts",
          "type": "address[]"
        }
      ],
      "name": "removeWhiteList",
      "outputs": [],
      "stateMutability": "nonpayable",
      "type": "function"
    },
    {
      "inputs": [
        {
          "internalType": "uint256",
          "name": "_tokenId",
          "type": "uint256"
        }
      ],
      "name": "getTierNumberOf",
      "outputs": [
        {
          "internalType": "uint8",
          "name": "",
          "type": "uint8"
        }
      ],
      "stateMutability": "view",
      "type": "function",
      "constant": true
    },
    {
      "inputs": [
        {
          "internalType": "uint8",
          "name": "tierNumber",
          "type": "uint8"
        }
      ],
      "name": "getTierPrice",
      "outputs": [
        {
          "internalType": "uint256",
          "name": "",
          "type": "uint256"
        }
      ],
      "stateMutability": "view",
      "type": "function",
      "constant": true
    },
    {
      "inputs": [
        {
          "internalType": "uint256",
          "name": "price",
          "type": "uint256"
        },
        {
          "internalType": "uint8",
          "name": "tierNumber",
          "type": "uint8"
        }
      ],
      "name": "setTierPrice",
      "outputs": [],
      "stateMutability": "nonpayable",
      "type": "function"
    },
    {
      "inputs": [],
      "name": "getMaxLimit",
      "outputs": [
        {
          "internalType": "uint256",
          "name": "",
          "type": "uint256"
        }
      ],
      "stateMutability": "view",
      "type": "function",
      "constant": true
    },
    {
      "inputs": [
        {
          "internalType": "uint256",
          "name": "limit",
          "type": "uint256"
        }
      ],
      "name": "setMaxLimit",
      "outputs": [],
      "stateMutability": "nonpayable",
      "type": "function"
    },
    {
      "inputs": [
        {
          "internalType": "uint8",
          "name": "tierNumber",
          "type": "uint8"
        }
      ],
      "name": "getTierLimit",
      "outputs": [
        {
          "internalType": "uint256",
          "name": "",
          "type": "uint256"
        }
      ],
      "stateMutability": "view",
      "type": "function",
      "constant": true
    },
    {
      "inputs": [
        {
          "internalType": "uint256",
          "name": "limit",
          "type": "uint256"
        },
        {
          "internalType": "uint8",
          "name": "tierNumber",
          "type": "uint8"
        }
      ],
      "name": "setTierMintLimit",
      "outputs": [],
      "stateMutability": "nonpayable",
      "type": "function"
    },
    {
      "inputs": [],
      "name": "withDraw",
      "outputs": [],
      "stateMutability": "nonpayable",
      "type": "function"
    },
    {
      "inputs": [
        {
          "internalType": "uint256",
          "name": "number",
          "type": "uint256"
        },
        {
          "internalType": "string",
          "name": "tokenURI",
          "type": "string"
        }
      ],
      "name": "setTokenURI",
      "outputs": [],
      "stateMutability": "nonpayable",
      "type": "function"
    },
    {
      "inputs": [
        {
          "internalType": "uint256",
          "name": "number",
          "type": "uint256"
        },
        {
          "internalType": "uint8",
          "name": "tierNumber",
          "type": "uint8"
        }
      ],
      "name": "mintBatch",
      "outputs": [
        {
          "internalType": "uint256",
          "name": "",
          "type": "uint256"
        }
      ],
      "stateMutability": "payable",
      "type": "function",
      "payable": true
    },
    {
      "inputs": [],
      "name": "totalSupply",
      "outputs": [
        {
          "internalType": "uint256",
          "name": "",
          "type": "uint256"
        }
      ],
      "stateMutability": "view",
      "type": "function",
      "constant": true
    },
    {
      "inputs": [
        {
          "internalType": "bytes4",
          "name": "interfaceId",
          "type": "bytes4"
        }
      ],
      "name": "supportsInterface",
      "outputs": [
        {
          "internalType": "bool",
          "name": "",
          "type": "bool"
        }
      ],
      "stateMutability": "view",
      "type": "function",
      "constant": true
    },
    {
      "inputs": [
        {
          "internalType": "address",
          "name": "receiver",
          "type": "address"
        },
        {
          "internalType": "uint96",
          "name": "feeNumerator",
          "type": "uint96"
        }
      ],
      "name": "setRoality",
      "outputs": [],
      "stateMutability": "nonpayable",
      "type": "function"
    }
  ],
  "bytecode": "0x6080604052611f40600b556000600c556000600d556000600e556040518060600160405280600060ff168152602001600060ff168152602001600060ff1681525060109060036200005292919062000469565b506040518060600160405280606460ff168152602001606460ff168152602001603260ff1681525060119060036200008c92919062000469565b50604051806060016040528061038461ffff16815260200161038461ffff1681526020016103b661ffff168152506012906003620000cc929190620004c0565b506040518060400160405280629ca14862ffffff168152602001629f436162ffffff1681525060139060026200010492919062000518565b503480156200011257600080fd5b506040518060400160405280601181526020017f466174686f6d20596163687420436c75620000000000000000000000000000008152506040518060400160405280600381526020017f465943000000000000000000000000000000000000000000000000000000000081525081600090805190602001906200019792919062000571565b508060019080519060200190620001b092919062000571565b505050620001d3620001c7620001ed60201b60201c565b620001f560201b60201c565b620001e7336103e8620002bb60201b60201c565b620007a1565b600033905090565b6000600960009054906101000a900473ffffffffffffffffffffffffffffffffffffffff16905081600960006101000a81548173ffffffffffffffffffffffffffffffffffffffff021916908373ffffffffffffffffffffffffffffffffffffffff1602179055508173ffffffffffffffffffffffffffffffffffffffff168173ffffffffffffffffffffffffffffffffffffffff167f8be0079c531659141344cd1fd0a4f28419497f9722a3daafe3b4186f6b6457e060405160405180910390a35050565b620002cb6200045f60201b60201c565b6bffffffffffffffffffffffff16816bffffffffffffffffffffffff1611156200032c576040517f08c379a00000000000000000000000000000000000000000000000000000000081526004016200032390620006a8565b60405180910390fd5b600073ffffffffffffffffffffffffffffffffffffffff168273ffffffffffffffffffffffffffffffffffffffff1614156200039f576040517f08c379a000000000000000000000000000000000000000000000000000000000815260040162000396906200071a565b60405180910390fd5b60405180604001604052808373ffffffffffffffffffffffffffffffffffffffff168152602001826bffffffffffffffffffffffff16815250600760008201518160000160006101000a81548173ffffffffffffffffffffffffffffffffffffffff021916908373ffffffffffffffffffffffffffffffffffffffff16021790555060208201518160000160146101000a8154816bffffffffffffffffffffffff02191690836bffffffffffffffffffffffff1602179055509050505050565b6000612710905090565b828054828255906000526020600020908101928215620004ad579160200282015b82811115620004ac578251829060ff169055916020019190600101906200048a565b5b509050620004bc919062000602565b5090565b82805482825590600052602060002090810192821562000505579160200282015b8281111562000504578251829061ffff16905591602001919060010190620004e1565b5b50905062000514919062000602565b5090565b8280548282559060005260206000209081019282156200055e579160200282015b828111156200055d578251829062ffffff1690559160200191906001019062000539565b5b5090506200056d919062000602565b5090565b8280546200057f906200076b565b90600052602060002090601f016020900481019282620005a35760008555620005ef565b82601f10620005be57805160ff1916838001178555620005ef565b82800160010185558215620005ef579182015b82811115620005ee578251825591602001919060010190620005d1565b5b509050620005fe919062000602565b5090565b5b808211156200061d57600081600090555060010162000603565b5090565b600082825260208201905092915050565b7f455243323938313a20726f79616c7479206665652077696c6c2065786365656460008201527f2073616c65507269636500000000000000000000000000000000000000000000602082015250565b600062000690602a8362000621565b91506200069d8262000632565b604082019050919050565b60006020820190508181036000830152620006c38162000681565b9050919050565b7f455243323938313a20696e76616c696420726563656976657200000000000000600082015250565b60006200070260198362000621565b91506200070f82620006ca565b602082019050919050565b600060208201905081810360008301526200073581620006f3565b9050919050565b7f4e487b7100000000000000000000000000000000000000000000000000000000600052602260045260246000fd5b600060028204905060018216806200078457607f821691505b602082108114156200079b576200079a6200073c565b5b50919050565b614dfd80620007b16000396000f3fe6080604052600436106101d85760003560e01c8063669aa2a311610102578063b88d4fde11610095578063ddce569f11610064578063ddce569f146106d0578063df6d4843146106f9578063e985e9c514610724578063f2fde38b14610761576101d8565b8063b88d4fde14610611578063bf8bcee41461063a578063c1a071f114610663578063c87b56dd14610693576101d8565b80638da5cb5b116100d15780638da5cb5b14610569578063956c9c6d1461059457806395d89b41146105bd578063a22cb465146105e8576101d8565b8063669aa2a31461049b57806370a08231146104d8578063715018a614610515578063856e679c1461052c576101d8565b806323b872dd1161017a5780634815df1d116101495780634815df1d146103cf5780635586402d146103f85780635e1045ec146104355780636352211e1461045e576101d8565b806323b872dd146103165780632a55205a1461033f578063397457911461037d57806342842e0e146103a6576101d8565b8063095ea7b3116101b6578063095ea7b3146102825780630fdb1c10146102ab578063162094c4146102c257806318160ddd146102eb576101d8565b806301ffc9a7146101dd57806306fdde031461021a578063081812fc14610245575b600080fd5b3480156101e957600080fd5b5061020460048036038101906101ff91906131b7565b61078a565b60405161021191906131ff565b60405180910390f35b34801561022657600080fd5b5061022f61079c565b60405161023c91906132b3565b60405180910390f35b34801561025157600080fd5b5061026c6004803603810190610267919061330b565b61082e565b6040516102799190613379565b60405180910390f35b34801561028e57600080fd5b506102a960048036038101906102a491906133c0565b6108b3565b005b3480156102b757600080fd5b506102c06109cb565b005b3480156102ce57600080fd5b506102e960048036038101906102e49190613535565b610b03565b005b3480156102f757600080fd5b50610300610b8d565b60405161030d91906135a0565b60405180910390f35b34801561032257600080fd5b5061033d600480360381019061033891906135bb565b610b9e565b005b34801561034b57600080fd5b506103666004803603810190610361919061360e565b610bfe565b60405161037492919061364e565b60405180910390f35b34801561038957600080fd5b506103a4600480360381019061039f919061373f565b610de9565b005b3480156103b257600080fd5b506103cd60048036038101906103c891906135bb565b610f01565b005b3480156103db57600080fd5b506103f660048036038101906103f191906137cc565b610f21565b005b34801561040457600080fd5b5061041f600480360381019061041a9190613845565b610fab565b60405161042c91906135a0565b60405180910390f35b34801561044157600080fd5b5061045c6004803603810190610457919061373f565b61102c565b005b34801561046a57600080fd5b506104856004803603810190610480919061330b565b611144565b6040516104929190613379565b60405180910390f35b3480156104a757600080fd5b506104c260048036038101906104bd919061330b565b6111f6565b6040516104cf9190613881565b60405180910390f35b3480156104e457600080fd5b506104ff60048036038101906104fa919061389c565b611220565b60405161050c91906135a0565b60405180910390f35b34801561052157600080fd5b5061052a6112d8565b005b34801561053857600080fd5b50610553600480360381019061054e9190613845565b611360565b60405161056091906135a0565b60405180910390f35b34801561057557600080fd5b5061057e611468565b60405161058b9190613379565b60405180910390f35b3480156105a057600080fd5b506105bb60048036038101906105b691906138c9565b611492565b005b3480156105c957600080fd5b506105d261158f565b6040516105df91906132b3565b60405180910390f35b3480156105f457600080fd5b5061060f600480360381019061060a9190613935565b611621565b005b34801561061d57600080fd5b5061063860048036038101906106339190613a16565b611637565b005b34801561064657600080fd5b50610661600480360381019061065c919061330b565b611699565b005b61067d600480360381019061067891906138c9565b61171f565b60405161068a91906135a0565b60405180910390f35b34801561069f57600080fd5b506106ba60048036038101906106b5919061330b565b611ad2565b6040516106c791906132b3565b60405180910390f35b3480156106dc57600080fd5b506106f760048036038101906106f291906138c9565b611c24565b005b34801561070557600080fd5b5061070e611d9b565b60405161071b91906135a0565b60405180910390f35b34801561073057600080fd5b5061074b60048036038101906107469190613a99565b611da5565b60405161075891906131ff565b60405180910390f35b34801561076d57600080fd5b506107886004803603810190610783919061389c565b611e39565b005b600061079582611f31565b9050919050565b6060600080546107ab90613b08565b80601f01602080910402602001604051908101604052809291908181526020018280546107d790613b08565b80156108245780601f106107f957610100808354040283529160200191610824565b820191906000526020600020905b81548152906001019060200180831161080757829003601f168201915b5050505050905090565b600061083982611fab565b610878576040517f08c379a000000000000000000000000000000000000000000000000000000000815260040161086f90613bac565b60405180910390fd5b6004600083815260200190815260200160002060009054906101000a900473ffffffffffffffffffffffffffffffffffffffff169050919050565b60006108be82611144565b90508073ffffffffffffffffffffffffffffffffffffffff168373ffffffffffffffffffffffffffffffffffffffff16141561092f576040517f08c379a000000000000000000000000000000000000000000000000000000000815260040161092690613c3e565b60405180910390fd5b8073ffffffffffffffffffffffffffffffffffffffff1661094e612017565b73ffffffffffffffffffffffffffffffffffffffff16148061097d575061097c81610977612017565b611da5565b5b6109bc576040517f08c379a00000000000000000000000000000000000000000000000000000000081526004016109b390613cd0565b60405180910390fd5b6109c6838361201f565b505050565b6109d3612017565b73ffffffffffffffffffffffffffffffffffffffff166109f1611468565b73ffffffffffffffffffffffffffffffffffffffff1614610a47576040517f08c379a0000000000000000000000000000000000000000000000000000000008152600401610a3e90613d3c565b60405180910390fd5b6000610a51611468565b905060008173ffffffffffffffffffffffffffffffffffffffff1647604051610a7990613d8d565b60006040518083038185875af1925050503d8060008114610ab6576040519150601f19603f3d011682016040523d82523d6000602084013e610abb565b606091505b5050905080610aff576040517f08c379a0000000000000000000000000000000000000000000000000000000008152600401610af690613dee565b60405180910390fd5b5050565b610b0b612017565b73ffffffffffffffffffffffffffffffffffffffff16610b29611468565b73ffffffffffffffffffffffffffffffffffffffff1614610b7f576040517f08c379a0000000000000000000000000000000000000000000000000000000008152600401610b7690613d3c565b60405180910390fd5b610b8982826120d8565b5050565b6000610b99600a61214c565b905090565b610baf610ba9612017565b8261215a565b610bee576040517f08c379a0000000000000000000000000000000000000000000000000000000008152600401610be590613e80565b60405180910390fd5b610bf9838383612238565b505050565b6000806000600860008681526020019081526020016000206040518060400160405290816000820160009054906101000a900473ffffffffffffffffffffffffffffffffffffffff1673ffffffffffffffffffffffffffffffffffffffff1673ffffffffffffffffffffffffffffffffffffffff1681526020016000820160149054906101000a90046bffffffffffffffffffffffff166bffffffffffffffffffffffff166bffffffffffffffffffffffff16815250509050600073ffffffffffffffffffffffffffffffffffffffff16816000015173ffffffffffffffffffffffffffffffffffffffff161415610d945760076040518060400160405290816000820160009054906101000a900473ffffffffffffffffffffffffffffffffffffffff1673ffffffffffffffffffffffffffffffffffffffff1673ffffffffffffffffffffffffffffffffffffffff1681526020016000820160149054906101000a90046bffffffffffffffffffffffff166bffffffffffffffffffffffff166bffffffffffffffffffffffff168152505090505b6000610d9e61249f565b6bffffffffffffffffffffffff1682602001516bffffffffffffffffffffffff1686610dca9190613ecf565b610dd49190613f58565b90508160000151819350935050509250929050565b610df1612017565b73ffffffffffffffffffffffffffffffffffffffff16610e0f611468565b73ffffffffffffffffffffffffffffffffffffffff1614610e65576040517f08c379a0000000000000000000000000000000000000000000000000000000008152600401610e5c90613d3c565b60405180910390fd5b60008151905060005b81811015610efc57600060166000858481518110610e8f57610e8e613f89565b5b602002602001015173ffffffffffffffffffffffffffffffffffffffff1673ffffffffffffffffffffffffffffffffffffffff16815260200190815260200160002060006101000a81548160ff021916908360ff1602179055508080610ef490613fb8565b915050610e6e565b505050565b610f1c83838360405180602001604052806000815250611637565b505050565b610f29612017565b73ffffffffffffffffffffffffffffffffffffffff16610f47611468565b73ffffffffffffffffffffffffffffffffffffffff1614610f9d576040517f08c379a0000000000000000000000000000000000000000000000000000000008152600401610f9490613d3c565b60405180910390fd5b610fa782826124a9565b5050565b6000808260ff1610158015610fc4575060028260ff1611155b611003576040517f08c379a0000000000000000000000000000000000000000000000000000000008152600401610ffa9061404d565b60405180910390fd5b60108260ff168154811061101a57611019613f89565b5b90600052602060002001549050919050565b611034612017565b73ffffffffffffffffffffffffffffffffffffffff16611052611468565b73ffffffffffffffffffffffffffffffffffffffff16146110a8576040517f08c379a000000000000000000000000000000000000000000000000000000000815260040161109f90613d3c565b60405180910390fd5b60008151905060005b8181101561113f576001601660008584815181106110d2576110d1613f89565b5b602002602001015173ffffffffffffffffffffffffffffffffffffffff1673ffffffffffffffffffffffffffffffffffffffff16815260200190815260200160002060006101000a81548160ff021916908360ff160217905550808061113790613fb8565b9150506110b1565b505050565b6000806002600084815260200190815260200160002060009054906101000a900473ffffffffffffffffffffffffffffffffffffffff169050600073ffffffffffffffffffffffffffffffffffffffff168173ffffffffffffffffffffffffffffffffffffffff1614156111ed576040517f08c379a00000000000000000000000000000000000000000000000000000000081526004016111e4906140df565b60405180910390fd5b80915050919050565b6000600f600083815260200190815260200160002060009054906101000a900460ff169050919050565b60008073ffffffffffffffffffffffffffffffffffffffff168273ffffffffffffffffffffffffffffffffffffffff161415611291576040517f08c379a000000000000000000000000000000000000000000000000000000000815260040161128890614171565b60405180910390fd5b600360008373ffffffffffffffffffffffffffffffffffffffff1673ffffffffffffffffffffffffffffffffffffffff168152602001908152602001600020549050919050565b6112e0612017565b73ffffffffffffffffffffffffffffffffffffffff166112fe611468565b73ffffffffffffffffffffffffffffffffffffffff1614611354576040517f08c379a000000000000000000000000000000000000000000000000000000000815260040161134b90613d3c565b60405180910390fd5b61135e600061263f565b565b6000808260ff1610158015611379575060028260ff1611155b6113b8576040517f08c379a00000000000000000000000000000000000000000000000000000000081526004016113af906141dd565b60405180910390fd5b600043905060136001815481106113d2576113d1613f89565b5b9060005260206000200154811061140d5760128360ff16815481106113fa576113f9613f89565b5b9060005260206000200154915050611463565b601360008154811061142257611421613f89565b5b9060005260206000200154811061145d5760118360ff168154811061144a57611449613f89565b5b9060005260206000200154915050611463565b60009150505b919050565b6000600960009054906101000a900473ffffffffffffffffffffffffffffffffffffffff16905090565b61149a612017565b73ffffffffffffffffffffffffffffffffffffffff166114b8611468565b73ffffffffffffffffffffffffffffffffffffffff161461150e576040517f08c379a000000000000000000000000000000000000000000000000000000000815260040161150590613d3c565b60405180910390fd5b60008160ff1610158015611526575060028160ff1611155b611565576040517f08c379a000000000000000000000000000000000000000000000000000000000815260040161155c906141dd565b60405180910390fd5b8160108260ff168154811061157d5761157c613f89565b5b90600052602060002001819055505050565b60606001805461159e90613b08565b80601f01602080910402602001604051908101604052809291908181526020018280546115ca90613b08565b80156116175780601f106115ec57610100808354040283529160200191611617565b820191906000526020600020905b8154815290600101906020018083116115fa57829003601f168201915b5050505050905090565b61163361162c612017565b8383612705565b5050565b611648611642612017565b8361215a565b611687576040517f08c379a000000000000000000000000000000000000000000000000000000000815260040161167e90613e80565b60405180910390fd5b61169384848484612872565b50505050565b6116a1612017565b73ffffffffffffffffffffffffffffffffffffffff166116bf611468565b73ffffffffffffffffffffffffffffffffffffffff1614611715576040517f08c379a000000000000000000000000000000000000000000000000000000000815260040161170c90613d3c565b60405180910390fd5b80600b8190555050565b60008282600061172e336128ce565b905060008160ff1611611776576040517f08c379a000000000000000000000000000000000000000000000000000000000815260040161176d90614249565b60405180910390fd5b60008560ff161015801561178e575060028560ff1611155b6117cd576040517f08c379a00000000000000000000000000000000000000000000000000000000081526004016117c4906141dd565b60405180910390fd5b600060108660ff16815481106117e6576117e5613f89565b5b90600052602060002001541415611832576040517f08c379a0000000000000000000000000000000000000000000000000000000008152600401611829906142b5565b60405180910390fd5b600161183e600a61214c565b8761184991906142d5565b61185391906142d5565b600b5411611896576040517f08c379a000000000000000000000000000000000000000000000000000000000815260040161188d90614377565b60405180910390fd5b8560108660ff16815481106118ae576118ad613f89565b5b90600052602060002001546118c39190613ecf565b341015611905576040517f08c379a00000000000000000000000000000000000000000000000000000000081526004016118fc90614409565b60405180910390fd5b6000600290508060ff168710611950576040517f08c379a00000000000000000000000000000000000000000000000000000000081526004016119479061449b565b60405180910390fd5b6000601190506000601490506000439050601360018154811061197657611975613f89565b5b906000526020600020015481106119905760129250601591505b828960ff16815481106119a6576119a5613f89565b5b90600052602060002001548a8360008c60ff1660ff168152602001908152602001600020546119d591906142d5565b10611a15576040517f08c379a0000000000000000000000000000000000000000000000000000000008152600401611a0c9061452d565b60405180910390fd5b898260008b60ff1660ff16815260200190815260200160002054611a3991906142d5565b8260008b60ff1660ff168152602001908152602001600020819055506000805b8b811015611ac057611a6b600a612998565b611a75600a61214c565b9150611a8133836129ae565b8a600f600084815260200190815260200160002060006101000a81548160ff021916908360ff1602179055508080611ab890613fb8565b915050611a59565b50809850505050505050505092915050565b6060611add82611fab565b611b1c576040517f08c379a0000000000000000000000000000000000000000000000000000000008152600401611b13906145bf565b60405180910390fd5b6000600660008481526020019081526020016000208054611b3c90613b08565b80601f0160208091040260200160405190810160405280929190818152602001828054611b6890613b08565b8015611bb55780601f10611b8a57610100808354040283529160200191611bb5565b820191906000526020600020905b815481529060010190602001808311611b9857829003601f168201915b505050505090506000611bc6612b88565b9050600081511415611bdc578192505050611c1f565b600082511115611c11578082604051602001611bf992919061461b565b60405160208183030381529060405292505050611c1f565b611c1a84612b9f565b925050505b919050565b611c2c612017565b73ffffffffffffffffffffffffffffffffffffffff16611c4a611468565b73ffffffffffffffffffffffffffffffffffffffff1614611ca0576040517f08c379a0000000000000000000000000000000000000000000000000000000008152600401611c9790613d3c565b60405180910390fd5b60008160ff1610158015611cb8575060028160ff1611155b611cf7576040517f08c379a0000000000000000000000000000000000000000000000000000000008152600401611cee906141dd565b60405180910390fd5b60004390506013600181548110611d1157611d10613f89565b5b90600052602060002001548110611d49578260128360ff1681548110611d3a57611d39613f89565b5b90600052602060002001819055505b6013600081548110611d5e57611d5d613f89565b5b90600052602060002001548110611d96578260118360ff1681548110611d8757611d86613f89565b5b90600052602060002001819055505b505050565b6000600b54905090565b6000600560008473ffffffffffffffffffffffffffffffffffffffff1673ffffffffffffffffffffffffffffffffffffffff16815260200190815260200160002060008373ffffffffffffffffffffffffffffffffffffffff1673ffffffffffffffffffffffffffffffffffffffff16815260200190815260200160002060009054906101000a900460ff16905092915050565b611e41612017565b73ffffffffffffffffffffffffffffffffffffffff16611e5f611468565b73ffffffffffffffffffffffffffffffffffffffff1614611eb5576040517f08c379a0000000000000000000000000000000000000000000000000000000008152600401611eac90613d3c565b60405180910390fd5b600073ffffffffffffffffffffffffffffffffffffffff168173ffffffffffffffffffffffffffffffffffffffff161415611f25576040517f08c379a0000000000000000000000000000000000000000000000000000000008152600401611f1c906146b1565b60405180910390fd5b611f2e8161263f565b50565b60007f2a55205a000000000000000000000000000000000000000000000000000000007bffffffffffffffffffffffffffffffffffffffffffffffffffffffff1916827bffffffffffffffffffffffffffffffffffffffffffffffffffffffff19161480611fa45750611fa382612c46565b5b9050919050565b60008073ffffffffffffffffffffffffffffffffffffffff166002600084815260200190815260200160002060009054906101000a900473ffffffffffffffffffffffffffffffffffffffff1673ffffffffffffffffffffffffffffffffffffffff1614159050919050565b600033905090565b816004600083815260200190815260200160002060006101000a81548173ffffffffffffffffffffffffffffffffffffffff021916908373ffffffffffffffffffffffffffffffffffffffff160217905550808273ffffffffffffffffffffffffffffffffffffffff1661209283611144565b73ffffffffffffffffffffffffffffffffffffffff167f8c5be1e5ebec7d5bd14f71427d1e84f3dd0314c0f7b2291e5b200ac8c7c3b92560405160405180910390a45050565b6120e182611fab565b612120576040517f08c379a000000000000000000000000000000000000000000000000000000000815260040161211790614743565b60405180910390fd5b806006600084815260200190815260200160002090805190602001906121479291906130a8565b505050565b600081600001549050919050565b600061216582611fab565b6121a4576040517f08c379a000000000000000000000000000000000000000000000000000000000815260040161219b906147d5565b60405180910390fd5b60006121af83611144565b90508073ffffffffffffffffffffffffffffffffffffffff168473ffffffffffffffffffffffffffffffffffffffff16148061221e57508373ffffffffffffffffffffffffffffffffffffffff166122068461082e565b73ffffffffffffffffffffffffffffffffffffffff16145b8061222f575061222e8185611da5565b5b91505092915050565b8273ffffffffffffffffffffffffffffffffffffffff1661225882611144565b73ffffffffffffffffffffffffffffffffffffffff16146122ae576040517f08c379a00000000000000000000000000000000000000000000000000000000081526004016122a590614867565b60405180910390fd5b600073ffffffffffffffffffffffffffffffffffffffff168273ffffffffffffffffffffffffffffffffffffffff16141561231e576040517f08c379a0000000000000000000000000000000000000000000000000000000008152600401612315906148f9565b60405180910390fd5b612329838383612d28565b61233460008261201f565b6001600360008573ffffffffffffffffffffffffffffffffffffffff1673ffffffffffffffffffffffffffffffffffffffff16815260200190815260200160002060008282546123849190614919565b925050819055506001600360008473ffffffffffffffffffffffffffffffffffffffff1673ffffffffffffffffffffffffffffffffffffffff16815260200190815260200160002060008282546123db91906142d5565b92505081905550816002600083815260200190815260200160002060006101000a81548173ffffffffffffffffffffffffffffffffffffffff021916908373ffffffffffffffffffffffffffffffffffffffff160217905550808273ffffffffffffffffffffffffffffffffffffffff168473ffffffffffffffffffffffffffffffffffffffff167fddf252ad1be2c89b69c2b068fc378daa952ba7f163c4a11628f55a4df523b3ef60405160405180910390a461249a838383612d2d565b505050565b6000612710905090565b6124b161249f565b6bffffffffffffffffffffffff16816bffffffffffffffffffffffff16111561250f576040517f08c379a0000000000000000000000000000000000000000000000000000000008152600401612506906149bf565b60405180910390fd5b600073ffffffffffffffffffffffffffffffffffffffff168273ffffffffffffffffffffffffffffffffffffffff16141561257f576040517f08c379a000000000000000000000000000000000000000000000000000000000815260040161257690614a2b565b60405180910390fd5b60405180604001604052808373ffffffffffffffffffffffffffffffffffffffff168152602001826bffffffffffffffffffffffff16815250600760008201518160000160006101000a81548173ffffffffffffffffffffffffffffffffffffffff021916908373ffffffffffffffffffffffffffffffffffffffff16021790555060208201518160000160146101000a8154816bffffffffffffffffffffffff02191690836bffffffffffffffffffffffff1602179055509050505050565b6000600960009054906101000a900473ffffffffffffffffffffffffffffffffffffffff16905081600960006101000a81548173ffffffffffffffffffffffffffffffffffffffff021916908373ffffffffffffffffffffffffffffffffffffffff1602179055508173ffffffffffffffffffffffffffffffffffffffff168173ffffffffffffffffffffffffffffffffffffffff167f8be0079c531659141344cd1fd0a4f28419497f9722a3daafe3b4186f6b6457e060405160405180910390a35050565b8173ffffffffffffffffffffffffffffffffffffffff168373ffffffffffffffffffffffffffffffffffffffff161415612774576040517f08c379a000000000000000000000000000000000000000000000000000000000815260040161276b90614a97565b60405180910390fd5b80600560008573ffffffffffffffffffffffffffffffffffffffff1673ffffffffffffffffffffffffffffffffffffffff16815260200190815260200160002060008473ffffffffffffffffffffffffffffffffffffffff1673ffffffffffffffffffffffffffffffffffffffff16815260200190815260200160002060006101000a81548160ff0219169083151502179055508173ffffffffffffffffffffffffffffffffffffffff168373ffffffffffffffffffffffffffffffffffffffff167f17307eab39ab6107e8899845ad3d59bd9653f200f220920489ca2b5937696c318360405161286591906131ff565b60405180910390a3505050565b61287d848484612238565b61288984848484612d32565b6128c8576040517f08c379a00000000000000000000000000000000000000000000000000000000081526004016128bf90614b29565b60405180910390fd5b50505050565b60008043905060136001815481106128e9576128e8613f89565b5b90600052602060002001548110612904576002915050612993565b601360008154811061291957612918613f89565b5b9060005260206000200154811061298d576001601660008573ffffffffffffffffffffffffffffffffffffffff1673ffffffffffffffffffffffffffffffffffffffff16815260200190815260200160002060009054906101000a900460ff1660ff16141561298c576001915050612993565b5b60009150505b919050565b6001816000016000828254019250508190555050565b600073ffffffffffffffffffffffffffffffffffffffff168273ffffffffffffffffffffffffffffffffffffffff161415612a1e576040517f08c379a0000000000000000000000000000000000000000000000000000000008152600401612a1590614b95565b60405180910390fd5b612a2781611fab565b15612a67576040517f08c379a0000000000000000000000000000000000000000000000000000000008152600401612a5e90614c01565b60405180910390fd5b612a7360008383612d28565b6001600360008473ffffffffffffffffffffffffffffffffffffffff1673ffffffffffffffffffffffffffffffffffffffff1681526020019081526020016000206000828254612ac391906142d5565b92505081905550816002600083815260200190815260200160002060006101000a81548173ffffffffffffffffffffffffffffffffffffffff021916908373ffffffffffffffffffffffffffffffffffffffff160217905550808273ffffffffffffffffffffffffffffffffffffffff16600073ffffffffffffffffffffffffffffffffffffffff167fddf252ad1be2c89b69c2b068fc378daa952ba7f163c4a11628f55a4df523b3ef60405160405180910390a4612b8460008383612d2d565b5050565b606060405180602001604052806000815250905090565b6060612baa82611fab565b612be9576040517f08c379a0000000000000000000000000000000000000000000000000000000008152600401612be090614c93565b60405180910390fd5b6000612bf3612b88565b90506000815111612c135760405180602001604052806000815250612c3e565b80612c1d84612eba565b604051602001612c2e92919061461b565b6040516020818303038152906040525b915050919050565b60007f80ac58cd000000000000000000000000000000000000000000000000000000007bffffffffffffffffffffffffffffffffffffffffffffffffffffffff1916827bffffffffffffffffffffffffffffffffffffffffffffffffffffffff19161480612d1157507f5b5e139f000000000000000000000000000000000000000000000000000000007bffffffffffffffffffffffffffffffffffffffffffffffffffffffff1916827bffffffffffffffffffffffffffffffffffffffffffffffffffffffff1916145b80612d215750612d208261301b565b5b9050919050565b505050565b505050565b6000612d538473ffffffffffffffffffffffffffffffffffffffff16613085565b15612ead578373ffffffffffffffffffffffffffffffffffffffff1663150b7a02612d7c612017565b8786866040518563ffffffff1660e01b8152600401612d9e9493929190614d08565b6020604051808303816000875af1925050508015612dda57506040513d601f19601f82011682018060405250810190612dd79190614d69565b60015b612e5d573d8060008114612e0a576040519150601f19603f3d011682016040523d82523d6000602084013e612e0f565b606091505b50600081511415612e55576040517f08c379a0000000000000000000000000000000000000000000000000000000008152600401612e4c90614b29565b60405180910390fd5b805181602001fd5b63150b7a0260e01b7bffffffffffffffffffffffffffffffffffffffffffffffffffffffff1916817bffffffffffffffffffffffffffffffffffffffffffffffffffffffff191614915050612eb2565b600190505b949350505050565b60606000821415612f02576040518060400160405280600181526020017f30000000000000000000000000000000000000000000000000000000000000008152509050613016565b600082905060005b60008214612f34578080612f1d90613fb8565b915050600a82612f2d9190613f58565b9150612f0a565b60008167ffffffffffffffff811115612f5057612f4f61340a565b5b6040519080825280601f01601f191660200182016040528015612f825781602001600182028036833780820191505090505b5090505b6000851461300f57600182612f9b9190614919565b9150600a85612faa9190614d96565b6030612fb691906142d5565b60f81b818381518110612fcc57612fcb613f89565b5b60200101907effffffffffffffffffffffffffffffffffffffffffffffffffffffffffffff1916908160001a905350600a856130089190613f58565b9450612f86565b8093505050505b919050565b60007f01ffc9a7000000000000000000000000000000000000000000000000000000007bffffffffffffffffffffffffffffffffffffffffffffffffffffffff1916827bffffffffffffffffffffffffffffffffffffffffffffffffffffffff1916149050919050565b6000808273ffffffffffffffffffffffffffffffffffffffff163b119050919050565b8280546130b490613b08565b90600052602060002090601f0160209004810192826130d6576000855561311d565b82601f106130ef57805160ff191683800117855561311d565b8280016001018555821561311d579182015b8281111561311c578251825591602001919060010190613101565b5b50905061312a919061312e565b5090565b5b8082111561314757600081600090555060010161312f565b5090565b6000604051905090565b600080fd5b600080fd5b60007fffffffff0000000000000000000000000000000000000000000000000000000082169050919050565b6131948161315f565b811461319f57600080fd5b50565b6000813590506131b18161318b565b92915050565b6000602082840312156131cd576131cc613155565b5b60006131db848285016131a2565b91505092915050565b60008115159050919050565b6131f9816131e4565b82525050565b600060208201905061321460008301846131f0565b92915050565b600081519050919050565b600082825260208201905092915050565b60005b83811015613254578082015181840152602081019050613239565b83811115613263576000848401525b50505050565b6000601f19601f8301169050919050565b60006132858261321a565b61328f8185613225565b935061329f818560208601613236565b6132a881613269565b840191505092915050565b600060208201905081810360008301526132cd818461327a565b905092915050565b6000819050919050565b6132e8816132d5565b81146132f357600080fd5b50565b600081359050613305816132df565b92915050565b60006020828403121561332157613320613155565b5b600061332f848285016132f6565b91505092915050565b600073ffffffffffffffffffffffffffffffffffffffff82169050919050565b600061336382613338565b9050919050565b61337381613358565b82525050565b600060208201905061338e600083018461336a565b92915050565b61339d81613358565b81146133a857600080fd5b50565b6000813590506133ba81613394565b92915050565b600080604083850312156133d7576133d6613155565b5b60006133e5858286016133ab565b92505060206133f6858286016132f6565b9150509250929050565b600080fd5b600080fd5b7f4e487b7100000000000000000000000000000000000000000000000000000000600052604160045260246000fd5b61344282613269565b810181811067ffffffffffffffff821117156134615761346061340a565b5b80604052505050565b600061347461314b565b90506134808282613439565b919050565b600067ffffffffffffffff8211156134a05761349f61340a565b5b6134a982613269565b9050602081019050919050565b82818337600083830152505050565b60006134d86134d384613485565b61346a565b9050828152602081018484840111156134f4576134f3613405565b5b6134ff8482856134b6565b509392505050565b600082601f83011261351c5761351b613400565b5b813561352c8482602086016134c5565b91505092915050565b6000806040838503121561354c5761354b613155565b5b600061355a858286016132f6565b925050602083013567ffffffffffffffff81111561357b5761357a61315a565b5b61358785828601613507565b9150509250929050565b61359a816132d5565b82525050565b60006020820190506135b56000830184613591565b92915050565b6000806000606084860312156135d4576135d3613155565b5b60006135e2868287016133ab565b93505060206135f3868287016133ab565b9250506040613604868287016132f6565b9150509250925092565b6000806040838503121561362557613624613155565b5b6000613633858286016132f6565b9250506020613644858286016132f6565b9150509250929050565b6000604082019050613663600083018561336a565b6136706020830184613591565b9392505050565b600067ffffffffffffffff8211156136925761369161340a565b5b602082029050602081019050919050565b600080fd5b60006136bb6136b684613677565b61346a565b905080838252602082019050602084028301858111156136de576136dd6136a3565b5b835b8181101561370757806136f388826133ab565b8452602084019350506020810190506136e0565b5050509392505050565b600082601f83011261372657613725613400565b5b81356137368482602086016136a8565b91505092915050565b60006020828403121561375557613754613155565b5b600082013567ffffffffffffffff8111156137735761377261315a565b5b61377f84828501613711565b91505092915050565b60006bffffffffffffffffffffffff82169050919050565b6137a981613788565b81146137b457600080fd5b50565b6000813590506137c6816137a0565b92915050565b600080604083850312156137e3576137e2613155565b5b60006137f1858286016133ab565b9250506020613802858286016137b7565b9150509250929050565b600060ff82169050919050565b6138228161380c565b811461382d57600080fd5b50565b60008135905061383f81613819565b92915050565b60006020828403121561385b5761385a613155565b5b600061386984828501613830565b91505092915050565b61387b8161380c565b82525050565b60006020820190506138966000830184613872565b92915050565b6000602082840312156138b2576138b1613155565b5b60006138c0848285016133ab565b91505092915050565b600080604083850312156138e0576138df613155565b5b60006138ee858286016132f6565b92505060206138ff85828601613830565b9150509250929050565b613912816131e4565b811461391d57600080fd5b50565b60008135905061392f81613909565b92915050565b6000806040838503121561394c5761394b613155565b5b600061395a858286016133ab565b925050602061396b85828601613920565b9150509250929050565b600067ffffffffffffffff8211156139905761398f61340a565b5b61399982613269565b9050602081019050919050565b60006139b96139b484613975565b61346a565b9050828152602081018484840111156139d5576139d4613405565b5b6139e08482856134b6565b509392505050565b600082601f8301126139fd576139fc613400565b5b8135613a0d8482602086016139a6565b91505092915050565b60008060008060808587031215613a3057613a2f613155565b5b6000613a3e878288016133ab565b9450506020613a4f878288016133ab565b9350506040613a60878288016132f6565b925050606085013567ffffffffffffffff811115613a8157613a8061315a565b5b613a8d878288016139e8565b91505092959194509250565b60008060408385031215613ab057613aaf613155565b5b6000613abe858286016133ab565b9250506020613acf858286016133ab565b9150509250929050565b7f4e487b7100000000000000000000000000000000000000000000000000000000600052602260045260246000fd5b60006002820490506001821680613b2057607f821691505b60208210811415613b3457613b33613ad9565b5b50919050565b7f4552433732313a20617070726f76656420717565727920666f72206e6f6e657860008201527f697374656e7420746f6b656e0000000000000000000000000000000000000000602082015250565b6000613b96602c83613225565b9150613ba182613b3a565b604082019050919050565b60006020820190508181036000830152613bc581613b89565b9050919050565b7f4552433732313a20617070726f76616c20746f2063757272656e74206f776e6560008201527f7200000000000000000000000000000000000000000000000000000000000000602082015250565b6000613c28602183613225565b9150613c3382613bcc565b604082019050919050565b60006020820190508181036000830152613c5781613c1b565b9050919050565b7f4552433732313a20617070726f76652063616c6c6572206973206e6f74206f7760008201527f6e6572206e6f7220617070726f76656420666f7220616c6c0000000000000000602082015250565b6000613cba603883613225565b9150613cc582613c5e565b604082019050919050565b60006020820190508181036000830152613ce981613cad565b9050919050565b7f4f776e61626c653a2063616c6c6572206973206e6f7420746865206f776e6572600082015250565b6000613d26602083613225565b9150613d3182613cf0565b602082019050919050565b60006020820190508181036000830152613d5581613d19565b9050919050565b600081905092915050565b50565b6000613d77600083613d5c565b9150613d8282613d67565b600082019050919050565b6000613d9882613d6a565b9150819050919050565b7f4661696c656420746f2057697468647261772045746865720000000000000000600082015250565b6000613dd8601883613225565b9150613de382613da2565b602082019050919050565b60006020820190508181036000830152613e0781613dcb565b9050919050565b7f4552433732313a207472616e736665722063616c6c6572206973206e6f74206f60008201527f776e6572206e6f7220617070726f766564000000000000000000000000000000602082015250565b6000613e6a603183613225565b9150613e7582613e0e565b604082019050919050565b60006020820190508181036000830152613e9981613e5d565b9050919050565b7f4e487b7100000000000000000000000000000000000000000000000000000000600052601160045260246000fd5b6000613eda826132d5565b9150613ee5836132d5565b9250817fffffffffffffffffffffffffffffffffffffffffffffffffffffffffffffffff0483118215151615613f1e57613f1d613ea0565b5b828202905092915050565b7f4e487b7100000000000000000000000000000000000000000000000000000000600052601260045260246000fd5b6000613f63826132d5565b9150613f6e836132d5565b925082613f7e57613f7d613f29565b5b828204905092915050565b7f4e487b7100000000000000000000000000000000000000000000000000000000600052603260045260246000fd5b6000613fc3826132d5565b91507fffffffffffffffffffffffffffffffffffffffffffffffffffffffffffffffff821415613ff657613ff5613ea0565b5b600182019050919050565b7f496e76616c69656420746965724e756d626572206f6620617272617900000000600082015250565b6000614037601c83613225565b915061404282614001565b602082019050919050565b600060208201905081810360008301526140668161402a565b9050919050565b7f4552433732313a206f776e657220717565727920666f72206e6f6e657869737460008201527f656e7420746f6b656e0000000000000000000000000000000000000000000000602082015250565b60006140c9602983613225565b91506140d48261406d565b604082019050919050565b600060208201905081810360008301526140f8816140bc565b9050919050565b7f4552433732313a2062616c616e636520717565727920666f7220746865207a6560008201527f726f206164647265737300000000000000000000000000000000000000000000602082015250565b600061415b602a83613225565b9150614166826140ff565b604082019050919050565b6000602082019050818103600083015261418a8161414e565b9050919050565b7f496e76616c69656420746965724e756d626572206f662061727261792e000000600082015250565b60006141c7601d83613225565b91506141d282614191565b602082019050919050565b600060208201905081810360008301526141f6816141ba565b9050919050565b7f4e6f7420617661696c61626c6520746f206d696e742e00000000000000000000600082015250565b6000614233601683613225565b915061423e826141fd565b602082019050919050565b6000602082019050818103600083015261426281614226565b9050919050565b7f54696572207072696365206973206e6f74207365742e00000000000000000000600082015250565b600061429f601683613225565b91506142aa82614269565b602082019050919050565b600060208201905081810360008301526142ce81614292565b9050919050565b60006142e0826132d5565b91506142eb836132d5565b9250827fffffffffffffffffffffffffffffffffffffffffffffffffffffffffffffffff038211156143205761431f613ea0565b5b828201905092915050565b7f4e6f7420656e6f75676820746f6b656e73206c65667420746f206275792e0000600082015250565b6000614361601e83613225565b915061436c8261432b565b602082019050919050565b6000602082019050818103600083015261439081614354565b9050919050565b7f416d6f756e74206f662065746865722073656e74206e6f7420636f727265637460008201527f2e00000000000000000000000000000000000000000000000000000000000000602082015250565b60006143f3602183613225565b91506143fe82614397565b604082019050919050565b60006020820190508181036000830152614422816143e6565b9050919050565b7f596f7520617265206e6f7420616c6c6f77656420746f20627579206d6f72652060008201527f7468616e203220746f6b656e73206174206f6e63652e00000000000000000000602082015250565b6000614485603683613225565b915061449082614429565b604082019050919050565b600060208201905081810360008301526144b481614478565b9050919050565b7f4f766572666c6f77206d6178696d756d206d696e74206c696d69746174696f6e60008201527f2e00000000000000000000000000000000000000000000000000000000000000602082015250565b6000614517602183613225565b9150614522826144bb565b604082019050919050565b600060208201905081810360008301526145468161450a565b9050919050565b7f45524337323155524953746f726167653a2055524920717565727920666f722060008201527f6e6f6e6578697374656e7420746f6b656e000000000000000000000000000000602082015250565b60006145a9603183613225565b91506145b48261454d565b604082019050919050565b600060208201905081810360008301526145d88161459c565b9050919050565b600081905092915050565b60006145f58261321a565b6145ff81856145df565b935061460f818560208601613236565b80840191505092915050565b600061462782856145ea565b915061463382846145ea565b91508190509392505050565b7f4f776e61626c653a206e6577206f776e657220697320746865207a65726f206160008201527f6464726573730000000000000000000000000000000000000000000000000000602082015250565b600061469b602683613225565b91506146a68261463f565b604082019050919050565b600060208201905081810360008301526146ca8161468e565b9050919050565b7f45524337323155524953746f726167653a2055524920736574206f66206e6f6e60008201527f6578697374656e7420746f6b656e000000000000000000000000000000000000602082015250565b600061472d602e83613225565b9150614738826146d1565b604082019050919050565b6000602082019050818103600083015261475c81614720565b9050919050565b7f4552433732313a206f70657261746f7220717565727920666f72206e6f6e657860008201527f697374656e7420746f6b656e0000000000000000000000000000000000000000602082015250565b60006147bf602c83613225565b91506147ca82614763565b604082019050919050565b600060208201905081810360008301526147ee816147b2565b9050919050565b7f4552433732313a207472616e736665722066726f6d20696e636f72726563742060008201527f6f776e6572000000000000000000000000000000000000000000000000000000602082015250565b6000614851602583613225565b915061485c826147f5565b604082019050919050565b6000602082019050818103600083015261488081614844565b9050919050565b7f4552433732313a207472616e7366657220746f20746865207a65726f2061646460008201527f7265737300000000000000000000000000000000000000000000000000000000602082015250565b60006148e3602483613225565b91506148ee82614887565b604082019050919050565b60006020820190508181036000830152614912816148d6565b9050919050565b6000614924826132d5565b915061492f836132d5565b92508282101561494257614941613ea0565b5b828203905092915050565b7f455243323938313a20726f79616c7479206665652077696c6c2065786365656460008201527f2073616c65507269636500000000000000000000000000000000000000000000602082015250565b60006149a9602a83613225565b91506149b48261494d565b604082019050919050565b600060208201905081810360008301526149d88161499c565b9050919050565b7f455243323938313a20696e76616c696420726563656976657200000000000000600082015250565b6000614a15601983613225565b9150614a20826149df565b602082019050919050565b60006020820190508181036000830152614a4481614a08565b9050919050565b7f4552433732313a20617070726f766520746f2063616c6c657200000000000000600082015250565b6000614a81601983613225565b9150614a8c82614a4b565b602082019050919050565b60006020820190508181036000830152614ab081614a74565b9050919050565b7f4552433732313a207472616e7366657220746f206e6f6e20455243373231526560008201527f63656976657220696d706c656d656e7465720000000000000000000000000000602082015250565b6000614b13603283613225565b9150614b1e82614ab7565b604082019050919050565b60006020820190508181036000830152614b4281614b06565b9050919050565b7f4552433732313a206d696e7420746f20746865207a65726f2061646472657373600082015250565b6000614b7f602083613225565b9150614b8a82614b49565b602082019050919050565b60006020820190508181036000830152614bae81614b72565b9050919050565b7f4552433732313a20746f6b656e20616c7265616479206d696e74656400000000600082015250565b6000614beb601c83613225565b9150614bf682614bb5565b602082019050919050565b60006020820190508181036000830152614c1a81614bde565b9050919050565b7f4552433732314d657461646174613a2055524920717565727920666f72206e6f60008201527f6e6578697374656e7420746f6b656e0000000000000000000000000000000000602082015250565b6000614c7d602f83613225565b9150614c8882614c21565b604082019050919050565b60006020820190508181036000830152614cac81614c70565b9050919050565b600081519050919050565b600082825260208201905092915050565b6000614cda82614cb3565b614ce48185614cbe565b9350614cf4818560208601613236565b614cfd81613269565b840191505092915050565b6000608082019050614d1d600083018761336a565b614d2a602083018661336a565b614d376040830185613591565b8181036060830152614d498184614ccf565b905095945050505050565b600081519050614d638161318b565b92915050565b600060208284031215614d7f57614d7e613155565b5b6000614d8d84828501614d54565b91505092915050565b6000614da1826132d5565b9150614dac836132d5565b925082614dbc57614dbb613f29565b5b82820690509291505056fea264697066735822122013bcb46bad1d6329b4848740db793657e79add3d6d5f3bff1707595158df805964736f6c634300080b0033",
  "immutableReferences": {},
  "source": "// SPDX-License-Identifier: MIT\npragma solidity >=0.8.9 <0.9.0;\n\nimport \"@openzeppelin/contracts/access/Ownable.sol\";\nimport \"@openzeppelin/contracts/utils/Counters.sol\";\nimport \"@openzeppelin/contracts/token/ERC721/extensions/ERC721URIStorage.sol\";\nimport \"@openzeppelin/contracts/token/common/ERC2981.sol\";\nimport \"@openzeppelin/contracts/utils/introspection/ERC165.sol\";\n\ncontract FathomyachtClub is ERC721URIStorage, ERC2981, Ownable {\n  using Counters for Counters.Counter;\n  Counters.Counter private _tokenIds;\n  uint256 private MAX_TOKEN = 8000;\n\n  uint256 private _powerCount = 0;\n  uint256 private _yachtCount = 0;\n  uint256 private _prestigeCount = 0;\n\n  // mapping for token to tier number(0: power, 1: yacht, 2: prestige)\n  mapping(uint256 => uint8) private _tokenToTier;\n\n  // mapping for tier to price(0: power, 1: yacht, 2: prestige)\n  uint256[] private NFT_PRICE = [0, 0, 0];\n  uint256[] private PRESALE_TIER_MINT_LIMIT = [100, 100, 50];\n  uint256[] private PUBLIC_SALE_TIER_MINT_LIMIT = [900, 900, 950];\n  // 0: presale start block, 1: public sale start block\n  uint256[] private EVENT_BLOCK = [10264904, 10437473];\n  // Mapping from address to minted number of NFTs(0: power, 1: yacht, 2: prestige)\n  mapping(uint8 => uint256) private _preSaleMintCounter;\n  // Mapping from address to minted number of NFTs(0: power, 1: yacht, 2: prestige)\n  mapping(uint8 => uint256) private _publicSaleMintCounter;\n  // Mapping from address to white list flag(1: added, 0: removed)\n  mapping(address => uint8) private _whitelister;\n\n  constructor() ERC721(\"Fathom Yacht Club\", \"FYC\") {\n    _setDefaultRoyalty(msg.sender, 1000);\n  }\n\n  modifier ableMintBatch(uint256 number, uint8 tierNumber) {\n    uint8 blockStatus = checkBlock(msg.sender);\n    require(blockStatus > 0, \"Not available to mint.\");\n    _;\n  }\n\n  function checkBlock(address pm_address) internal view returns(uint8) {\n    uint256 curBlock = block.number;\n\n    if (curBlock >= EVENT_BLOCK[1]) {\n      return 2;\n    }\n    if (curBlock >= EVENT_BLOCK[0]) {\n      if(_whitelister[pm_address]== 1) {\n        return 1;\n      }\n    }\n\n    return 0;\n  }\n\n  function addWhiteList(address[] memory lsts) public onlyOwner {\n    uint256 new_len = lsts.length;\n    for(uint256 i=0; i<new_len; i++) {\n      _whitelister[lsts[i]] = 1;\n    }\n  }\n\n  function removeWhiteList(address[] memory lsts) public onlyOwner {\n    uint256 new_len = lsts.length;\n    for(uint256 i=0; i<new_len; i++) {\n      _whitelister[lsts[i]] = 0;\n    }\n  }\n\n  function getTierNumberOf(uint256 _tokenId) public view returns(uint8) {\n    return _tokenToTier[_tokenId];\n  }\n\n  function getTierPrice(uint8 tierNumber) public view returns(uint256) {\n    require(tierNumber >= 0 && tierNumber <= 2, \"Invalied tierNumber of array\");\n    return NFT_PRICE[tierNumber];\n  }\n\n  function setTierPrice(uint256 price, uint8 tierNumber) external onlyOwner {\n    require(tierNumber >= 0 && tierNumber <= 2, \"Invalied tierNumber of array.\");\n    NFT_PRICE[tierNumber] = price;\n  }\n\n  function getMaxLimit() external view returns(uint256) {\n    return MAX_TOKEN;\n  }\n\n  function setMaxLimit(uint256 limit) external onlyOwner {\n    MAX_TOKEN = limit;\n  }\n\n  function getTierLimit(uint8 tierNumber) external view returns(uint256) {\n    require(tierNumber >= 0 && tierNumber <= 2, \"Invalied tierNumber of array.\");\n\n    uint256 curBlock = block.number;\n    if (curBlock >= EVENT_BLOCK[1]) {\n      return PUBLIC_SALE_TIER_MINT_LIMIT[tierNumber];\n    }\n    if (curBlock >= EVENT_BLOCK[0]) {\n      return PRESALE_TIER_MINT_LIMIT[tierNumber];\n    }\n\n    return 0;\n  }\n\n  function setTierMintLimit(uint256 limit, uint8 tierNumber) external onlyOwner {\n    require(tierNumber >= 0 && tierNumber <= 2, \"Invalied tierNumber of array.\");\n\n    uint256 curBlock = block.number;\n    if (curBlock >= EVENT_BLOCK[1]) {\n      PUBLIC_SALE_TIER_MINT_LIMIT[tierNumber] = limit;\n    }\n    if (curBlock >= EVENT_BLOCK[0]) {\n      PRESALE_TIER_MINT_LIMIT[tierNumber] = limit;\n    }\n  }\n\n  function withDraw() external onlyOwner {\n    address payable tgt = payable(owner());\n    (bool success1, ) = tgt.call{value:address(this).balance}(\"\");\n    require(success1, \"Failed to Withdraw Ether\");\n  }\n\n  function setTokenURI(uint256 number, string memory tokenURI) public onlyOwner {\n    _setTokenURI(number, tokenURI);\n  }\n\n  function mintBatch(uint256 number, uint8 tierNumber) public payable ableMintBatch(number, tierNumber) returns(uint256) {\n    require(tierNumber >= 0 && tierNumber <= 2, \"Invalied tierNumber of array.\");\n    require(NFT_PRICE[tierNumber] != 0, \"Tier price is not set.\");\n    require(MAX_TOKEN > number + _tokenIds.current() + 1, \"Not enough tokens left to buy.\");\n    require(msg.value >= NFT_PRICE[tierNumber] * number, \"Amount of ether sent not correct.\");\n\n    uint8 maxBatchable = 2;\n    require(number < maxBatchable, \"You are not allowed to buy more than 2 tokens at once.\");\n\n    uint256[] storage tierMintLimit = PRESALE_TIER_MINT_LIMIT;\n    mapping(uint8 => uint256) storage tierMintCounter = _preSaleMintCounter;\n    uint256 curBlock = block.number;\n\n    // use public sale variables if the current date is after public sale started\n    if (curBlock >= EVENT_BLOCK[1]) {\n      tierMintLimit = PUBLIC_SALE_TIER_MINT_LIMIT;\n      tierMintCounter = _publicSaleMintCounter;\n    }\n    require(tierMintCounter[tierNumber] + number < tierMintLimit[tierNumber], \"Overflow maximum mint limitation.\");\n\n    tierMintCounter[tierNumber] = tierMintCounter[tierNumber] + number;\n\n    uint256 newItemId = 0;\n    for (uint256 i = 0; i < number; i++) {\n      _tokenIds.increment();\n      newItemId = _tokenIds.current();\n      _mint(msg.sender, newItemId);\n      _tokenToTier[newItemId] = tierNumber;\n    }\n\n    return newItemId;\n  }\n\n  function totalSupply() public view returns(uint256) {\n    return _tokenIds.current();\n  }\n\n  function supportsInterface(bytes4 interfaceId) public view virtual override(ERC721, ERC2981) returns (bool) {\n    return super.supportsInterface(interfaceId);\n  }\n\n  /**\n    * @dev See {ERC721-_burn}. This override additionally clears the royalty information for the token.\n    */\n  function _burn(uint256 tokenId) internal virtual override {\n    super._burn(tokenId);\n    _resetTokenRoyalty(tokenId);\n  }\n\n  function setRoality(address receiver, uint96 feeNumerator) external onlyOwner {\n    _setDefaultRoyalty(receiver, feeNumerator);\n  }\n}\n",
  "sourcePath": "F:\\www-2022\\fathonclub-work\\app\\contracts\\FathomyachtClub.sol",
  "compiler": {
    "name": "solc",
    "version": "0.8.11+commit.d7f03943.Emscripten.clang"
  },
  "schemaVersion": "3.4.5",
  "updatedAt": "2022-03-07T17:56:36.774Z",
  "networkType": "ethereum",
  "devdoc": {
    "kind": "dev",
    "methods": {
      "approve(address,uint256)": {
        "details": "See {IERC721-approve}."
      },
      "balanceOf(address)": {
        "details": "See {IERC721-balanceOf}."
      },
      "getApproved(uint256)": {
        "details": "See {IERC721-getApproved}."
      },
      "isApprovedForAll(address,address)": {
        "details": "See {IERC721-isApprovedForAll}."
      },
      "name()": {
        "details": "See {IERC721Metadata-name}."
      },
      "owner()": {
        "details": "Returns the address of the current owner."
      },
      "ownerOf(uint256)": {
        "details": "See {IERC721-ownerOf}."
      },
      "renounceOwnership()": {
        "details": "Leaves the contract without owner. It will not be possible to call `onlyOwner` functions anymore. Can only be called by the current owner. NOTE: Renouncing ownership will leave the contract without an owner, thereby removing any functionality that is only available to the owner."
      },
      "royaltyInfo(uint256,uint256)": {
        "details": "Returns how much royalty is owed and to whom, based on a sale price that may be denominated in any unit of exchange. The royalty amount is denominated and should be payed in that same unit of exchange."
      },
      "safeTransferFrom(address,address,uint256)": {
        "details": "See {IERC721-safeTransferFrom}."
      },
      "safeTransferFrom(address,address,uint256,bytes)": {
        "details": "See {IERC721-safeTransferFrom}."
      },
      "setApprovalForAll(address,bool)": {
        "details": "See {IERC721-setApprovalForAll}."
      },
      "symbol()": {
        "details": "See {IERC721Metadata-symbol}."
      },
      "tokenURI(uint256)": {
        "details": "See {IERC721Metadata-tokenURI}."
      },
      "transferFrom(address,address,uint256)": {
        "details": "See {IERC721-transferFrom}."
      },
      "transferOwnership(address)": {
        "details": "Transfers ownership of the contract to a new account (`newOwner`). Can only be called by the current owner."
      }
    },
    "version": 1
  },
  "userdoc": {
    "kind": "user",
    "methods": {},
    "version": 1
  }
}