{
  "contractName": "FathomyachtClub",
  "abi": [
    {
      "inputs": [],
      "stateMutability": "nonpayable",
      "type": "constructor"
    },
    {
      "anonymous": false,
      "inputs": [
        {
          "indexed": true,
          "internalType": "address",
          "name": "owner",
          "type": "address"
        },
        {
          "indexed": true,
          "internalType": "address",
          "name": "approved",
          "type": "address"
        },
        {
          "indexed": true,
          "internalType": "uint256",
          "name": "tokenId",
          "type": "uint256"
        }
      ],
      "name": "Approval",
      "type": "event"
    },
    {
      "anonymous": false,
      "inputs": [
        {
          "indexed": true,
          "internalType": "address",
          "name": "owner",
          "type": "address"
        },
        {
          "indexed": true,
          "internalType": "address",
          "name": "operator",
          "type": "address"
        },
        {
          "indexed": false,
          "internalType": "bool",
          "name": "approved",
          "type": "bool"
        }
      ],
      "name": "ApprovalForAll",
      "type": "event"
    },
    {
      "anonymous": false,
      "inputs": [
        {
          "indexed": true,
          "internalType": "address",
          "name": "previousOwner",
          "type": "address"
        },
        {
          "indexed": true,
          "internalType": "address",
          "name": "newOwner",
          "type": "address"
        }
      ],
      "name": "OwnershipTransferred",
      "type": "event"
    },
    {
      "anonymous": false,
      "inputs": [
        {
          "indexed": true,
          "internalType": "address",
          "name": "from",
          "type": "address"
        },
        {
          "indexed": true,
          "internalType": "address",
          "name": "to",
          "type": "address"
        },
        {
          "indexed": true,
          "internalType": "uint256",
          "name": "tokenId",
          "type": "uint256"
        }
      ],
      "name": "Transfer",
      "type": "event"
    },
    {
      "inputs": [
        {
          "internalType": "address",
          "name": "to",
          "type": "address"
        },
        {
          "internalType": "uint256",
          "name": "tokenId",
          "type": "uint256"
        }
      ],
      "name": "approve",
      "outputs": [],
      "stateMutability": "nonpayable",
      "type": "function"
    },
    {
      "inputs": [
        {
          "internalType": "address",
          "name": "owner",
          "type": "address"
        }
      ],
      "name": "balanceOf",
      "outputs": [
        {
          "internalType": "uint256",
          "name": "",
          "type": "uint256"
        }
      ],
      "stateMutability": "view",
      "type": "function"
    },
    {
      "inputs": [
        {
          "internalType": "uint256",
          "name": "tokenId",
          "type": "uint256"
        }
      ],
      "name": "getApproved",
      "outputs": [
        {
          "internalType": "address",
          "name": "",
          "type": "address"
        }
      ],
      "stateMutability": "view",
      "type": "function"
    },
    {
      "inputs": [
        {
          "internalType": "address",
          "name": "owner",
          "type": "address"
        },
        {
          "internalType": "address",
          "name": "operator",
          "type": "address"
        }
      ],
      "name": "isApprovedForAll",
      "outputs": [
        {
          "internalType": "bool",
          "name": "",
          "type": "bool"
        }
      ],
      "stateMutability": "view",
      "type": "function"
    },
    {
      "inputs": [],
      "name": "name",
      "outputs": [
        {
          "internalType": "string",
          "name": "",
          "type": "string"
        }
      ],
      "stateMutability": "view",
      "type": "function"
    },
    {
      "inputs": [],
      "name": "owner",
      "outputs": [
        {
          "internalType": "address",
          "name": "",
          "type": "address"
        }
      ],
      "stateMutability": "view",
      "type": "function"
    },
    {
      "inputs": [
        {
          "internalType": "uint256",
          "name": "tokenId",
          "type": "uint256"
        }
      ],
      "name": "ownerOf",
      "outputs": [
        {
          "internalType": "address",
          "name": "",
          "type": "address"
        }
      ],
      "stateMutability": "view",
      "type": "function"
    },
    {
      "inputs": [],
      "name": "renounceOwnership",
      "outputs": [],
      "stateMutability": "nonpayable",
      "type": "function"
    },
    {
      "inputs": [
        {
          "internalType": "uint256",
          "name": "_tokenId",
          "type": "uint256"
        },
        {
          "internalType": "uint256",
          "name": "_salePrice",
          "type": "uint256"
        }
      ],
      "name": "royaltyInfo",
      "outputs": [
        {
          "internalType": "address",
          "name": "",
          "type": "address"
        },
        {
          "internalType": "uint256",
          "name": "",
          "type": "uint256"
        }
      ],
      "stateMutability": "view",
      "type": "function"
    },
    {
      "inputs": [
        {
          "internalType": "address",
          "name": "from",
          "type": "address"
        },
        {
          "internalType": "address",
          "name": "to",
          "type": "address"
        },
        {
          "internalType": "uint256",
          "name": "tokenId",
          "type": "uint256"
        }
      ],
      "name": "safeTransferFrom",
      "outputs": [],
      "stateMutability": "nonpayable",
      "type": "function"
    },
    {
      "inputs": [
        {
          "internalType": "address",
          "name": "from",
          "type": "address"
        },
        {
          "internalType": "address",
          "name": "to",
          "type": "address"
        },
        {
          "internalType": "uint256",
          "name": "tokenId",
          "type": "uint256"
        },
        {
          "internalType": "bytes",
          "name": "_data",
          "type": "bytes"
        }
      ],
      "name": "safeTransferFrom",
      "outputs": [],
      "stateMutability": "nonpayable",
      "type": "function"
    },
    {
      "inputs": [
        {
          "internalType": "address",
          "name": "operator",
          "type": "address"
        },
        {
          "internalType": "bool",
          "name": "approved",
          "type": "bool"
        }
      ],
      "name": "setApprovalForAll",
      "outputs": [],
      "stateMutability": "nonpayable",
      "type": "function"
    },
    {
      "inputs": [],
      "name": "symbol",
      "outputs": [
        {
          "internalType": "string",
          "name": "",
          "type": "string"
        }
      ],
      "stateMutability": "view",
      "type": "function"
    },
    {
      "inputs": [
        {
          "internalType": "uint256",
          "name": "tokenId",
          "type": "uint256"
        }
      ],
      "name": "tokenURI",
      "outputs": [
        {
          "internalType": "string",
          "name": "",
          "type": "string"
        }
      ],
      "stateMutability": "view",
      "type": "function"
    },
    {
      "inputs": [
        {
          "internalType": "address",
          "name": "from",
          "type": "address"
        },
        {
          "internalType": "address",
          "name": "to",
          "type": "address"
        },
        {
          "internalType": "uint256",
          "name": "tokenId",
          "type": "uint256"
        }
      ],
      "name": "transferFrom",
      "outputs": [],
      "stateMutability": "nonpayable",
      "type": "function"
    },
    {
      "inputs": [
        {
          "internalType": "address",
          "name": "newOwner",
          "type": "address"
        }
      ],
      "name": "transferOwnership",
      "outputs": [],
      "stateMutability": "nonpayable",
      "type": "function"
    },
    {
      "inputs": [
        {
          "internalType": "address[]",
          "name": "lsts",
          "type": "address[]"
        }
      ],
      "name": "addWhiteList",
      "outputs": [],
      "stateMutability": "nonpayable",
      "type": "function"
    },
    {
      "inputs": [
        {
          "internalType": "address",
          "name": "holder_address",
          "type": "address"
        }
      ],
      "name": "getTokensOfHolder",
      "outputs": [
        {
          "internalType": "uint256[]",
          "name": "",
          "type": "uint256[]"
        }
      ],
      "stateMutability": "view",
      "type": "function"
    },
    {
      "inputs": [
        {
          "internalType": "address[]",
          "name": "lsts",
          "type": "address[]"
        }
      ],
      "name": "removeWhiteList",
      "outputs": [],
      "stateMutability": "nonpayable",
      "type": "function"
    },
    {
      "inputs": [
        {
          "internalType": "uint256",
          "name": "_tokenId",
          "type": "uint256"
        }
      ],
      "name": "getTierNumberOf",
      "outputs": [
        {
          "internalType": "uint8",
          "name": "",
          "type": "uint8"
        }
      ],
      "stateMutability": "view",
      "type": "function"
    },
    {
      "inputs": [
        {
          "internalType": "uint8",
          "name": "tierNumber",
          "type": "uint8"
        }
      ],
      "name": "getTierPrice",
      "outputs": [
        {
          "internalType": "uint256",
          "name": "",
          "type": "uint256"
        }
      ],
      "stateMutability": "view",
      "type": "function"
    },
    {
      "inputs": [
        {
          "internalType": "uint256",
          "name": "price",
          "type": "uint256"
        },
        {
          "internalType": "uint8",
          "name": "tierNumber",
          "type": "uint8"
        }
      ],
      "name": "setTierPrice",
      "outputs": [],
      "stateMutability": "nonpayable",
      "type": "function"
    },
    {
      "inputs": [],
      "name": "getMaxLimit",
      "outputs": [
        {
          "internalType": "uint256",
          "name": "",
          "type": "uint256"
        }
      ],
      "stateMutability": "view",
      "type": "function"
    },
    {
      "inputs": [
        {
          "internalType": "uint256",
          "name": "limit",
          "type": "uint256"
        }
      ],
      "name": "setMaxLimit",
      "outputs": [],
      "stateMutability": "nonpayable",
      "type": "function"
    },
    {
      "inputs": [
        {
          "internalType": "uint8",
          "name": "tierNumber",
          "type": "uint8"
        }
      ],
      "name": "getTierLimit",
      "outputs": [
        {
          "internalType": "uint256",
          "name": "",
          "type": "uint256"
        }
      ],
      "stateMutability": "view",
      "type": "function"
    },
    {
      "inputs": [
        {
          "internalType": "uint256",
          "name": "limit",
          "type": "uint256"
        },
        {
          "internalType": "uint8",
          "name": "tierNumber",
          "type": "uint8"
        }
      ],
      "name": "setTierMintLimit",
      "outputs": [],
      "stateMutability": "nonpayable",
      "type": "function"
    },
    {
      "inputs": [],
      "name": "withDraw",
      "outputs": [],
      "stateMutability": "nonpayable",
      "type": "function"
    },
    {
      "inputs": [
        {
          "internalType": "uint256",
          "name": "_tokenId",
          "type": "uint256"
        }
      ],
      "name": "getTokenURI",
      "outputs": [
        {
          "internalType": "string",
          "name": "",
          "type": "string"
        }
      ],
      "stateMutability": "view",
      "type": "function"
    },
    {
      "inputs": [
        {
          "internalType": "string",
          "name": "_batchTokenURI",
          "type": "string"
        }
      ],
      "name": "setTokenBatchURI",
      "outputs": [],
      "stateMutability": "nonpayable",
      "type": "function"
    },
    {
      "inputs": [
        {
          "internalType": "uint256",
          "name": "number",
          "type": "uint256"
        },
        {
          "internalType": "string",
          "name": "tokenURI",
          "type": "string"
        }
      ],
      "name": "setTokenURI",
      "outputs": [],
      "stateMutability": "nonpayable",
      "type": "function"
    },
    {
      "inputs": [
        {
          "internalType": "uint256",
          "name": "number",
          "type": "uint256"
        },
        {
          "internalType": "uint8",
          "name": "tierNumber",
          "type": "uint8"
        }
      ],
      "name": "mintBatch",
      "outputs": [
        {
          "internalType": "uint256",
          "name": "",
          "type": "uint256"
        }
      ],
      "stateMutability": "payable",
      "type": "function"
    },
    {
      "inputs": [],
      "name": "totalSupply",
      "outputs": [
        {
          "internalType": "uint256",
          "name": "",
          "type": "uint256"
        }
      ],
      "stateMutability": "view",
      "type": "function"
    },
    {
      "inputs": [
        {
          "internalType": "bytes4",
          "name": "interfaceId",
          "type": "bytes4"
        }
      ],
      "name": "supportsInterface",
      "outputs": [
        {
          "internalType": "bool",
          "name": "",
          "type": "bool"
        }
      ],
      "stateMutability": "view",
      "type": "function"
    },
    {
      "inputs": [
        {
          "internalType": "address",
          "name": "receiver",
          "type": "address"
        },
        {
          "internalType": "uint96",
          "name": "feeNumerator",
          "type": "uint96"
        }
      ],
      "name": "setRoality",
      "outputs": [],
      "stateMutability": "nonpayable",
      "type": "function"
    },
    {
      "inputs": [],
      "name": "getLatestPrice",
      "outputs": [
        {
          "internalType": "int256",
          "name": "",
          "type": "int256"
        }
      ],
      "stateMutability": "view",
      "type": "function"
    },
    {
      "inputs": [],
      "name": "getLocalPrice",
      "outputs": [
        {
          "internalType": "int256",
          "name": "",
          "type": "int256"
        }
      ],
      "stateMutability": "pure",
      "type": "function"
    }
  ],
  "bytecode": "0x6080604052612710600a556040518060a00160405280611f4061ffff168152602001600061ffff1681526020016107d061ffff168152602001610fa061ffff16815260200161177061ffff16815250600b9060056200006092919062000576565b506040518060a00160405280603260ff168152602001606460ff168152602001609660ff168152602001600060ff168152602001600060ff16815250600d906005620000ae929190620005ce565b506040518060a00160405280606460ff168152602001606460ff168152602001603260ff168152602001600060ff168152602001600060ff16815250600e906005620000fc929190620005ce565b506040518060a0016040528061038461ffff16815260200161038461ffff1681526020016103b661ffff168152602001600061ffff168152602001600061ffff16815250600f9060056200015292919062000576565b506040518060800160405280605081526020016200644160509139601090805190602001906200018492919062000625565b506040518060400160405280629ca14862ffffff168152602001629f436162ffffff168152506011906002620001bc929190620006b6565b50348015620001ca57600080fd5b506040518060400160405280601181526020017f466174686f6d20596163687420436c75620000000000000000000000000000008152506040518060400160405280600381526020017f465943000000000000000000000000000000000000000000000000000000000081525081600090805190602001906200024f92919062000625565b5080600190805190602001906200026892919062000625565b5050506200028b6200027f620002fa60201b60201c565b6200030260201b60201c565b6200029f336103e8620003c860201b60201c565b738a753747a1fa494ec906ce90e9f37563a8af630e601660006101000a81548173ffffffffffffffffffffffffffffffffffffffff021916908373ffffffffffffffffffffffffffffffffffffffff160217905550620008ae565b600033905090565b6000600960009054906101000a900473ffffffffffffffffffffffffffffffffffffffff16905081600960006101000a81548173ffffffffffffffffffffffffffffffffffffffff021916908373ffffffffffffffffffffffffffffffffffffffff1602179055508173ffffffffffffffffffffffffffffffffffffffff168173ffffffffffffffffffffffffffffffffffffffff167f8be0079c531659141344cd1fd0a4f28419497f9722a3daafe3b4186f6b6457e060405160405180910390a35050565b620003d86200056c60201b60201c565b6bffffffffffffffffffffffff16816bffffffffffffffffffffffff16111562000439576040517f08c379a00000000000000000000000000000000000000000000000000000000081526004016200043090620007b5565b60405180910390fd5b600073ffffffffffffffffffffffffffffffffffffffff168273ffffffffffffffffffffffffffffffffffffffff161415620004ac576040517f08c379a0000000000000000000000000000000000000000000000000000000008152600401620004a39062000827565b60405180910390fd5b60405180604001604052808373ffffffffffffffffffffffffffffffffffffffff168152602001826bffffffffffffffffffffffff16815250600760008201518160000160006101000a81548173ffffffffffffffffffffffffffffffffffffffff021916908373ffffffffffffffffffffffffffffffffffffffff16021790555060208201518160000160146101000a8154816bffffffffffffffffffffffff02191690836bffffffffffffffffffffffff1602179055509050505050565b6000612710905090565b828054828255906000526020600020908101928215620005bb579160200282015b82811115620005ba578251829061ffff1690559160200191906001019062000597565b5b509050620005ca91906200070f565b5090565b82805482825590600052602060002090810192821562000612579160200282015b8281111562000611578251829060ff16905591602001919060010190620005ef565b5b5090506200062191906200070f565b5090565b828054620006339062000878565b90600052602060002090601f016020900481019282620006575760008555620006a3565b82601f106200067257805160ff1916838001178555620006a3565b82800160010185558215620006a3579182015b82811115620006a257825182559160200191906001019062000685565b5b509050620006b291906200070f565b5090565b828054828255906000526020600020908101928215620006fc579160200282015b82811115620006fb578251829062ffffff16905591602001919060010190620006d7565b5b5090506200070b91906200070f565b5090565b5b808211156200072a57600081600090555060010162000710565b5090565b600082825260208201905092915050565b7f455243323938313a20726f79616c7479206665652077696c6c2065786365656460008201527f2073616c65507269636500000000000000000000000000000000000000000000602082015250565b60006200079d602a836200072e565b9150620007aa826200073f565b604082019050919050565b60006020820190508181036000830152620007d0816200078e565b9050919050565b7f455243323938313a20696e76616c696420726563656976657200000000000000600082015250565b60006200080f6019836200072e565b91506200081c82620007d7565b602082019050919050565b60006020820190508181036000830152620008428162000800565b9050919050565b7f4e487b7100000000000000000000000000000000000000000000000000000000600052602260045260246000fd5b600060028204905060018216806200089157607f821691505b60208210811415620008a857620008a762000849565b5b50919050565b615b8380620008be6000396000f3fe60806040526004361061020f5760003560e01c8063669aa2a311610118578063b88d4fde116100a0578063dc3c233a1161006f578063dc3c233a146107d5578063ddce569f14610800578063df6d484314610829578063e985e9c514610854578063f2fde38b146108915761020f565b8063b88d4fde14610716578063bf8bcee41461073f578063c1a071f114610768578063c87b56dd146107985761020f565b80638da5cb5b116100e75780638da5cb5b146106435780638e15f4731461066e578063956c9c6d1461069957806395d89b41146106c2578063a22cb465146106ed5761020f565b8063669aa2a31461057557806370a08231146105b2578063715018a6146105ef578063856e679c146106065761020f565b8063397457911161019b5780635586402d1161016a5780635586402d1461046c5780635e1045ec146104a957806361214582146104d25780636352211e146104fb57806364e4907c146105385761020f565b806339745791146103b45780633bb3a24d146103dd57806342842e0e1461041a5780634815df1d146104435761020f565b80630fdb1c10116101e25780630fdb1c10146102e2578063162094c4146102f957806318160ddd1461032257806323b872dd1461034d5780632a55205a146103765761020f565b806301ffc9a71461021457806306fdde0314610251578063081812fc1461027c578063095ea7b3146102b9575b600080fd5b34801561022057600080fd5b5061023b60048036038101906102369190613b50565b6108ba565b6040516102489190613b98565b60405180910390f35b34801561025d57600080fd5b506102666108cc565b6040516102739190613c4c565b60405180910390f35b34801561028857600080fd5b506102a3600480360381019061029e9190613ca4565b61095e565b6040516102b09190613d12565b60405180910390f35b3480156102c557600080fd5b506102e060048036038101906102db9190613d59565b6109e3565b005b3480156102ee57600080fd5b506102f7610afb565b005b34801561030557600080fd5b50610320600480360381019061031b9190613ece565b610c33565b005b34801561032e57600080fd5b50610337610cbd565b6040516103449190613f39565b60405180910390f35b34801561035957600080fd5b50610374600480360381019061036f9190613f54565b610d39565b005b34801561038257600080fd5b5061039d60048036038101906103989190613fa7565b610d99565b6040516103ab929190613fe7565b60405180910390f35b3480156103c057600080fd5b506103db60048036038101906103d691906140d8565b610f84565b005b3480156103e957600080fd5b5061040460048036038101906103ff9190613ca4565b61109c565b6040516104119190613c4c565b60405180910390f35b34801561042657600080fd5b50610441600480360381019061043c9190613f54565b6112b5565b005b34801561044f57600080fd5b5061046a60048036038101906104659190614165565b6112d5565b005b34801561047857600080fd5b50610493600480360381019061048e91906141de565b61135f565b6040516104a09190613f39565b60405180910390f35b3480156104b557600080fd5b506104d060048036038101906104cb91906140d8565b6113e0565b005b3480156104de57600080fd5b506104f960048036038101906104f4919061420b565b6114f8565b005b34801561050757600080fd5b50610522600480360381019061051d9190613ca4565b61158e565b60405161052f9190613d12565b60405180910390f35b34801561054457600080fd5b5061055f600480360381019061055a9190614254565b611640565b60405161056c919061433f565b60405180910390f35b34801561058157600080fd5b5061059c60048036038101906105979190613ca4565b6116d7565b6040516105a99190614370565b60405180910390f35b3480156105be57600080fd5b506105d960048036038101906105d49190614254565b611701565b6040516105e69190613f39565b60405180910390f35b3480156105fb57600080fd5b506106046117b9565b005b34801561061257600080fd5b5061062d600480360381019061062891906141de565b611841565b60405161063a9190613f39565b60405180910390f35b34801561064f57600080fd5b50610658611949565b6040516106659190613d12565b60405180910390f35b34801561067a57600080fd5b50610683611973565b60405161069091906143a4565b60405180910390f35b3480156106a557600080fd5b506106c060048036038101906106bb91906143bf565b611a14565b005b3480156106ce57600080fd5b506106d7611b11565b6040516106e49190613c4c565b60405180910390f35b3480156106f957600080fd5b50610714600480360381019061070f919061442b565b611ba3565b005b34801561072257600080fd5b5061073d6004803603810190610738919061450c565b611bb9565b005b34801561074b57600080fd5b5061076660048036038101906107619190613ca4565b611c1b565b005b610782600480360381019061077d91906143bf565b611ca1565b60405161078f9190613f39565b60405180910390f35b3480156107a457600080fd5b506107bf60048036038101906107ba9190613ca4565b61223a565b6040516107cc9190613c4c565b60405180910390f35b3480156107e157600080fd5b506107ea61238c565b6040516107f791906143a4565b60405180910390f35b34801561080c57600080fd5b50610827600480360381019061082291906143bf565b61239e565b005b34801561083557600080fd5b5061083e612515565b60405161084b9190613f39565b60405180910390f35b34801561086057600080fd5b5061087b6004803603810190610876919061458f565b61251f565b6040516108889190613b98565b60405180910390f35b34801561089d57600080fd5b506108b860048036038101906108b39190614254565b6125b3565b005b60006108c5826126ab565b9050919050565b6060600080546108db906145fe565b80601f0160208091040260200160405190810160405280929190818152602001828054610907906145fe565b80156109545780601f1061092957610100808354040283529160200191610954565b820191906000526020600020905b81548152906001019060200180831161093757829003601f168201915b5050505050905090565b600061096982612725565b6109a8576040517f08c379a000000000000000000000000000000000000000000000000000000000815260040161099f906146a2565b60405180910390fd5b6004600083815260200190815260200160002060009054906101000a900473ffffffffffffffffffffffffffffffffffffffff169050919050565b60006109ee8261158e565b90508073ffffffffffffffffffffffffffffffffffffffff168373ffffffffffffffffffffffffffffffffffffffff161415610a5f576040517f08c379a0000000000000000000000000000000000000000000000000000000008152600401610a5690614734565b60405180910390fd5b8073ffffffffffffffffffffffffffffffffffffffff16610a7e612791565b73ffffffffffffffffffffffffffffffffffffffff161480610aad5750610aac81610aa7612791565b61251f565b5b610aec576040517f08c379a0000000000000000000000000000000000000000000000000000000008152600401610ae3906147c6565b60405180910390fd5b610af68383612799565b505050565b610b03612791565b73ffffffffffffffffffffffffffffffffffffffff16610b21611949565b73ffffffffffffffffffffffffffffffffffffffff1614610b77576040517f08c379a0000000000000000000000000000000000000000000000000000000008152600401610b6e90614832565b60405180910390fd5b6000610b81611949565b905060008173ffffffffffffffffffffffffffffffffffffffff1647604051610ba990614883565b60006040518083038185875af1925050503d8060008114610be6576040519150601f19603f3d011682016040523d82523d6000602084013e610beb565b606091505b5050905080610c2f576040517f08c379a0000000000000000000000000000000000000000000000000000000008152600401610c26906148e4565b60405180910390fd5b5050565b610c3b612791565b73ffffffffffffffffffffffffffffffffffffffff16610c59611949565b73ffffffffffffffffffffffffffffffffffffffff1614610caf576040517f08c379a0000000000000000000000000000000000000000000000000000000008152600401610ca690614832565b60405180910390fd5b610cb98282612852565b5050565b6000806000905060005b60058160ff161015610d3157601360008260ff1660ff16815260200190815260200160002054601260008360ff1660ff16815260200190815260200160002054610d119190614933565b82610d1c9190614933565b91508080610d2990614989565b915050610cc7565b508091505090565b610d4a610d44612791565b826128c6565b610d89576040517f08c379a0000000000000000000000000000000000000000000000000000000008152600401610d8090614a25565b60405180910390fd5b610d948383836129a4565b505050565b6000806000600860008681526020019081526020016000206040518060400160405290816000820160009054906101000a900473ffffffffffffffffffffffffffffffffffffffff1673ffffffffffffffffffffffffffffffffffffffff1673ffffffffffffffffffffffffffffffffffffffff1681526020016000820160149054906101000a90046bffffffffffffffffffffffff166bffffffffffffffffffffffff166bffffffffffffffffffffffff16815250509050600073ffffffffffffffffffffffffffffffffffffffff16816000015173ffffffffffffffffffffffffffffffffffffffff161415610f2f5760076040518060400160405290816000820160009054906101000a900473ffffffffffffffffffffffffffffffffffffffff1673ffffffffffffffffffffffffffffffffffffffff1673ffffffffffffffffffffffffffffffffffffffff1681526020016000820160149054906101000a90046bffffffffffffffffffffffff166bffffffffffffffffffffffff166bffffffffffffffffffffffff168152505090505b6000610f39612c0b565b6bffffffffffffffffffffffff1682602001516bffffffffffffffffffffffff1686610f659190614a45565b610f6f9190614ace565b90508160000151819350935050509250929050565b610f8c612791565b73ffffffffffffffffffffffffffffffffffffffff16610faa611949565b73ffffffffffffffffffffffffffffffffffffffff1614611000576040517f08c379a0000000000000000000000000000000000000000000000000000000008152600401610ff790614832565b60405180910390fd5b60008151905060005b818110156110975760006014600085848151811061102a57611029614aff565b5b602002602001015173ffffffffffffffffffffffffffffffffffffffff1673ffffffffffffffffffffffffffffffffffffffff16815260200190815260200160002060006101000a81548160ff021916908360ff160217905550808061108f90614b2e565b915050611009565b505050565b606060006040518060400160405280600d81526020017f4e6f74207370656369666965640000000000000000000000000000000000000081525090506000831180156110ea57506107d08311155b1561112c576040518060400160405280600781526020017f2f59616368742f000000000000000000000000000000000000000000000000008152509050611280565b6107d08311801561113f5750610fa08311155b15611181576040518060400160405280600a81526020017f2f50726573746967652f00000000000000000000000000000000000000000000815250905061127f565b610fa08311801561119457506117708311155b156111d6576040518060400160405280600781526020017f2f556c7472612f00000000000000000000000000000000000000000000000000815250905061127e565b611770831180156111e95750611f408311155b1561122b576040518060400160405280600981526020017f2f526573657276652f0000000000000000000000000000000000000000000000815250905061127d565b611f408311801561123e57506127108311155b1561127c576040518060400160405280600781526020017f2f506f7765722f0000000000000000000000000000000000000000000000000081525090505b5b5b5b5b60108161128c85612c15565b60405160200161129e93929190614c47565b604051602081830303815290604052915050919050565b6112d083838360405180602001604052806000815250611bb9565b505050565b6112dd612791565b73ffffffffffffffffffffffffffffffffffffffff166112fb611949565b73ffffffffffffffffffffffffffffffffffffffff1614611351576040517f08c379a000000000000000000000000000000000000000000000000000000000815260040161134890614832565b60405180910390fd5b61135b8282612f22565b5050565b6000808260ff1610158015611378575060028260ff1611155b6113b7576040517f08c379a00000000000000000000000000000000000000000000000000000000081526004016113ae90614cc4565b60405180910390fd5b600d8260ff16815481106113ce576113cd614aff565b5b90600052602060002001549050919050565b6113e8612791565b73ffffffffffffffffffffffffffffffffffffffff16611406611949565b73ffffffffffffffffffffffffffffffffffffffff161461145c576040517f08c379a000000000000000000000000000000000000000000000000000000000815260040161145390614832565b60405180910390fd5b60008151905060005b818110156114f35760016014600085848151811061148657611485614aff565b5b602002602001015173ffffffffffffffffffffffffffffffffffffffff1673ffffffffffffffffffffffffffffffffffffffff16815260200190815260200160002060006101000a81548160ff021916908360ff16021790555080806114eb90614b2e565b915050611465565b505050565b611500612791565b73ffffffffffffffffffffffffffffffffffffffff1661151e611949565b73ffffffffffffffffffffffffffffffffffffffff1614611574576040517f08c379a000000000000000000000000000000000000000000000000000000000815260040161156b90614832565b60405180910390fd5b806010908051906020019061158a929190613a41565b5050565b6000806002600084815260200190815260200160002060009054906101000a900473ffffffffffffffffffffffffffffffffffffffff169050600073ffffffffffffffffffffffffffffffffffffffff168173ffffffffffffffffffffffffffffffffffffffff161415611637576040517f08c379a000000000000000000000000000000000000000000000000000000000815260040161162e90614d56565b60405180910390fd5b80915050919050565b6060601560008373ffffffffffffffffffffffffffffffffffffffff1673ffffffffffffffffffffffffffffffffffffffff1681526020019081526020016000208054806020026020016040519081016040528092919081815260200182805480156116cb57602002820191906000526020600020905b8154815260200190600101908083116116b7575b50505050509050919050565b6000600c600083815260200190815260200160002060009054906101000a900460ff169050919050565b60008073ffffffffffffffffffffffffffffffffffffffff168273ffffffffffffffffffffffffffffffffffffffff161415611772576040517f08c379a000000000000000000000000000000000000000000000000000000000815260040161176990614de8565b60405180910390fd5b600360008373ffffffffffffffffffffffffffffffffffffffff1673ffffffffffffffffffffffffffffffffffffffff168152602001908152602001600020549050919050565b6117c1612791565b73ffffffffffffffffffffffffffffffffffffffff166117df611949565b73ffffffffffffffffffffffffffffffffffffffff1614611835576040517f08c379a000000000000000000000000000000000000000000000000000000000815260040161182c90614832565b60405180910390fd5b61183f60006130b8565b565b6000808260ff161015801561185a575060028260ff1611155b611899576040517f08c379a000000000000000000000000000000000000000000000000000000000815260040161189090614e54565b60405180910390fd5b600043905060116001815481106118b3576118b2614aff565b5b906000526020600020015481106118ee57600f8360ff16815481106118db576118da614aff565b5b9060005260206000200154915050611944565b601160008154811061190357611902614aff565b5b9060005260206000200154811061193e57600e8360ff168154811061192b5761192a614aff565b5b9060005260206000200154915050611944565b60009150505b919050565b6000600960009054906101000a900473ffffffffffffffffffffffffffffffffffffffff16905090565b600080601660009054906101000a900473ffffffffffffffffffffffffffffffffffffffff1673ffffffffffffffffffffffffffffffffffffffff1663feaf968c6040518163ffffffff1660e01b815260040160a060405180830381865afa1580156119e3573d6000803e3d6000fd5b505050506040513d601f19601f82011682018060405250810190611a079190614ef7565b5050509150508091505090565b611a1c612791565b73ffffffffffffffffffffffffffffffffffffffff16611a3a611949565b73ffffffffffffffffffffffffffffffffffffffff1614611a90576040517f08c379a0000000000000000000000000000000000000000000000000000000008152600401611a8790614832565b60405180910390fd5b60008160ff1610158015611aa8575060028160ff1611155b611ae7576040517f08c379a0000000000000000000000000000000000000000000000000000000008152600401611ade90614e54565b60405180910390fd5b81600d8260ff1681548110611aff57611afe614aff565b5b90600052602060002001819055505050565b606060018054611b20906145fe565b80601f0160208091040260200160405190810160405280929190818152602001828054611b4c906145fe565b8015611b995780601f10611b6e57610100808354040283529160200191611b99565b820191906000526020600020905b815481529060010190602001808311611b7c57829003601f168201915b5050505050905090565b611bb5611bae612791565b838361317e565b5050565b611bca611bc4612791565b836128c6565b611c09576040517f08c379a0000000000000000000000000000000000000000000000000000000008152600401611c0090614a25565b60405180910390fd5b611c15848484846132eb565b50505050565b611c23612791565b73ffffffffffffffffffffffffffffffffffffffff16611c41611949565b73ffffffffffffffffffffffffffffffffffffffff1614611c97576040517f08c379a0000000000000000000000000000000000000000000000000000000008152600401611c8e90614832565b60405180910390fd5b80600a8190555050565b600082826000600d8260ff1681548110611cbe57611cbd614aff565b5b90600052602060002001541415611d0a576040517f08c379a0000000000000000000000000000000000000000000000000000000008152600401611d0190614fbe565b60405180910390fd5b6002821115611d4e576040517f08c379a0000000000000000000000000000000000000000000000000000000008152600401611d4590615050565b60405180910390fd5b60008160ff1610158015611d66575060028160ff1611155b611da5576040517f08c379a0000000000000000000000000000000000000000000000000000000008152600401611d9c90614e54565b60405180910390fd5b6001611daf610cbd565b83611dba9190614933565b611dc49190614933565b600a5411611e07576040517f08c379a0000000000000000000000000000000000000000000000000000000008152600401611dfe906150bc565b60405180910390fd5b60006001905060008160ff1611611e53576040517f08c379a0000000000000000000000000000000000000000000000000000000008152600401611e4a90615128565b60405180910390fd5b611e5b61238c565b6a52b7d2dcc80cd2e400000087600d8860ff1681548110611e7f57611e7e614aff565b5b9060005260206000200154611e949190614a45565b611e9e9190614a45565b611ea89190614ace565b341015611eea576040517f08c379a0000000000000000000000000000000000000000000000000000000008152600401611ee1906151ba565b60405180910390fd5b600033905060008173ffffffffffffffffffffffffffffffffffffffff16611f1061238c565b6a52b7d2dcc80cd2e40000008a600d8b60ff1681548110611f3457611f33614aff565b5b9060005260206000200154611f499190614a45565b611f539190614a45565b611f5d9190614ace565b34611f6891906151da565b604051611f7490614883565b60006040518083038185875af1925050503d8060008114611fb1576040519150601f19603f3d011682016040523d82523d6000602084013e611fb6565b606091505b5050905080611ffa576040517f08c379a0000000000000000000000000000000000000000000000000000000008152600401611ff19061525a565b60405180910390fd5b6000600e9050600060129050600043905060116001815481106120205761201f614aff565b5b9060005260206000200154811061203a57600f9250601391505b828a60ff16815481106120505761204f614aff565b5b90600052602060002001548b8360008d60ff1660ff1681526020019081526020016000205461207f9190614933565b106120bf576040517f08c379a00000000000000000000000000000000000000000000000000000000081526004016120b6906152ec565b60405180910390fd5b6000805b8c8110156121e757600b8c60ff16815481106120e2576120e1614aff565b5b9060005260206000200160008154809291906120fd90614b2e565b9190505550600b8c60ff168154811061211957612118614aff565b5b906000526020600020015491506121303383613347565b8b600c600084815260200190815260200160002060006101000a81548160ff021916908360ff160217905550601560003373ffffffffffffffffffffffffffffffffffffffff1673ffffffffffffffffffffffffffffffffffffffff1681526020019081526020016000208290806001815401808255809150506001900390600052602060002001600090919091909150556121d4826121cf8461109c565b612852565b80806121df90614b2e565b9150506120c3565b508b8360008d60ff1660ff1681526020019081526020016000205461220c9190614933565b8360008d60ff1660ff1681526020019081526020016000208190555080995050505050505050505092915050565b606061224582612725565b612284576040517f08c379a000000000000000000000000000000000000000000000000000000000815260040161227b9061537e565b60405180910390fd5b60006006600084815260200190815260200160002080546122a4906145fe565b80601f01602080910402602001604051908101604052809291908181526020018280546122d0906145fe565b801561231d5780601f106122f25761010080835404028352916020019161231d565b820191906000526020600020905b81548152906001019060200180831161230057829003601f168201915b50505050509050600061232e613521565b9050600081511415612344578192505050612387565b60008251111561237957808260405160200161236192919061539e565b60405160208183030381529060405292505050612387565b61238284613538565b925050505b919050565b600080643bf4b57c8990508091505090565b6123a6612791565b73ffffffffffffffffffffffffffffffffffffffff166123c4611949565b73ffffffffffffffffffffffffffffffffffffffff161461241a576040517f08c379a000000000000000000000000000000000000000000000000000000000815260040161241190614832565b60405180910390fd5b60008160ff1610158015612432575060028160ff1611155b612471576040517f08c379a000000000000000000000000000000000000000000000000000000000815260040161246890614e54565b60405180910390fd5b6000439050601160018154811061248b5761248a614aff565b5b906000526020600020015481106124c35782600f8360ff16815481106124b4576124b3614aff565b5b90600052602060002001819055505b60116000815481106124d8576124d7614aff565b5b906000526020600020015481106125105782600e8360ff168154811061250157612500614aff565b5b90600052602060002001819055505b505050565b6000600a54905090565b6000600560008473ffffffffffffffffffffffffffffffffffffffff1673ffffffffffffffffffffffffffffffffffffffff16815260200190815260200160002060008373ffffffffffffffffffffffffffffffffffffffff1673ffffffffffffffffffffffffffffffffffffffff16815260200190815260200160002060009054906101000a900460ff16905092915050565b6125bb612791565b73ffffffffffffffffffffffffffffffffffffffff166125d9611949565b73ffffffffffffffffffffffffffffffffffffffff161461262f576040517f08c379a000000000000000000000000000000000000000000000000000000000815260040161262690614832565b60405180910390fd5b600073ffffffffffffffffffffffffffffffffffffffff168173ffffffffffffffffffffffffffffffffffffffff16141561269f576040517f08c379a000000000000000000000000000000000000000000000000000000000815260040161269690615434565b60405180910390fd5b6126a8816130b8565b50565b60007f2a55205a000000000000000000000000000000000000000000000000000000007bffffffffffffffffffffffffffffffffffffffffffffffffffffffff1916827bffffffffffffffffffffffffffffffffffffffffffffffffffffffff1916148061271e575061271d826135df565b5b9050919050565b60008073ffffffffffffffffffffffffffffffffffffffff166002600084815260200190815260200160002060009054906101000a900473ffffffffffffffffffffffffffffffffffffffff1673ffffffffffffffffffffffffffffffffffffffff1614159050919050565b600033905090565b816004600083815260200190815260200160002060006101000a81548173ffffffffffffffffffffffffffffffffffffffff021916908373ffffffffffffffffffffffffffffffffffffffff160217905550808273ffffffffffffffffffffffffffffffffffffffff1661280c8361158e565b73ffffffffffffffffffffffffffffffffffffffff167f8c5be1e5ebec7d5bd14f71427d1e84f3dd0314c0f7b2291e5b200ac8c7c3b92560405160405180910390a45050565b61285b82612725565b61289a576040517f08c379a0000000000000000000000000000000000000000000000000000000008152600401612891906154c6565b60405180910390fd5b806006600084815260200190815260200160002090805190602001906128c1929190613a41565b505050565b60006128d182612725565b612910576040517f08c379a000000000000000000000000000000000000000000000000000000000815260040161290790615558565b60405180910390fd5b600061291b8361158e565b90508073ffffffffffffffffffffffffffffffffffffffff168473ffffffffffffffffffffffffffffffffffffffff16148061298a57508373ffffffffffffffffffffffffffffffffffffffff166129728461095e565b73ffffffffffffffffffffffffffffffffffffffff16145b8061299b575061299a818561251f565b5b91505092915050565b8273ffffffffffffffffffffffffffffffffffffffff166129c48261158e565b73ffffffffffffffffffffffffffffffffffffffff1614612a1a576040517f08c379a0000000000000000000000000000000000000000000000000000000008152600401612a11906155ea565b60405180910390fd5b600073ffffffffffffffffffffffffffffffffffffffff168273ffffffffffffffffffffffffffffffffffffffff161415612a8a576040517f08c379a0000000000000000000000000000000000000000000000000000000008152600401612a819061567c565b60405180910390fd5b612a958383836136c1565b612aa0600082612799565b6001600360008573ffffffffffffffffffffffffffffffffffffffff1673ffffffffffffffffffffffffffffffffffffffff1681526020019081526020016000206000828254612af091906151da565b925050819055506001600360008473ffffffffffffffffffffffffffffffffffffffff1673ffffffffffffffffffffffffffffffffffffffff1681526020019081526020016000206000828254612b479190614933565b92505081905550816002600083815260200190815260200160002060006101000a81548173ffffffffffffffffffffffffffffffffffffffff021916908373ffffffffffffffffffffffffffffffffffffffff160217905550808273ffffffffffffffffffffffffffffffffffffffff168473ffffffffffffffffffffffffffffffffffffffff167fddf252ad1be2c89b69c2b068fc378daa952ba7f163c4a11628f55a4df523b3ef60405160405180910390a4612c068383836136c6565b505050565b6000612710905090565b606060006040518060200160405280600081525090506000831415612c72576040518060400160405280600181526020017f3000000000000000000000000000000000000000000000000000000000000000815250915050612f1d565b600083118015612c825750600a83105b15612cc4576040518060400160405280600481526020017f30303030000000000000000000000000000000000000000000000000000000008152509050612dbf565b600a8310158015612cd55750606483105b15612d17576040518060400160405280600381526020017f30303000000000000000000000000000000000000000000000000000000000008152509050612dbe565b60648310158015612d2957506103e883105b15612d6b576040518060400160405280600281526020017f30300000000000000000000000000000000000000000000000000000000000008152509050612dbd565b6103e88310158015612d7e575061271083105b15612dbc576040518060400160405280600181526020017f300000000000000000000000000000000000000000000000000000000000000081525090505b5b5b5b600083905060005b60008214612df1578080612dda90614b2e565b915050600a82612dea9190614ace565b9150612dc7565b60008167ffffffffffffffff811115612e0d57612e0c613da3565b5b6040519080825280601f01601f191660200182016040528015612e3f5781602001600182028036833780820191505090505b50905060008290505b60008714612ef357600181612e5d91906151da565b90506000600a8089612e6f9190614ace565b612e799190614a45565b88612e8491906151da565b6030612e90919061569c565b905060008160f81b905080848481518110612eae57612ead614aff565b5b60200101907effffffffffffffffffffffffffffffffffffffffffffffffffffffffffffff1916908160001a905350600a89612eea9190614ace565b98505050612e48565b8482604051602001612f0692919061539e565b604051602081830303815290604052955050505050505b919050565b612f2a612c0b565b6bffffffffffffffffffffffff16816bffffffffffffffffffffffff161115612f88576040517f08c379a0000000000000000000000000000000000000000000000000000000008152600401612f7f90615745565b60405180910390fd5b600073ffffffffffffffffffffffffffffffffffffffff168273ffffffffffffffffffffffffffffffffffffffff161415612ff8576040517f08c379a0000000000000000000000000000000000000000000000000000000008152600401612fef906157b1565b60405180910390fd5b60405180604001604052808373ffffffffffffffffffffffffffffffffffffffff168152602001826bffffffffffffffffffffffff16815250600760008201518160000160006101000a81548173ffffffffffffffffffffffffffffffffffffffff021916908373ffffffffffffffffffffffffffffffffffffffff16021790555060208201518160000160146101000a8154816bffffffffffffffffffffffff02191690836bffffffffffffffffffffffff1602179055509050505050565b6000600960009054906101000a900473ffffffffffffffffffffffffffffffffffffffff16905081600960006101000a81548173ffffffffffffffffffffffffffffffffffffffff021916908373ffffffffffffffffffffffffffffffffffffffff1602179055508173ffffffffffffffffffffffffffffffffffffffff168173ffffffffffffffffffffffffffffffffffffffff167f8be0079c531659141344cd1fd0a4f28419497f9722a3daafe3b4186f6b6457e060405160405180910390a35050565b8173ffffffffffffffffffffffffffffffffffffffff168373ffffffffffffffffffffffffffffffffffffffff1614156131ed576040517f08c379a00000000000000000000000000000000000000000000000000000000081526004016131e49061581d565b60405180910390fd5b80600560008573ffffffffffffffffffffffffffffffffffffffff1673ffffffffffffffffffffffffffffffffffffffff16815260200190815260200160002060008473ffffffffffffffffffffffffffffffffffffffff1673ffffffffffffffffffffffffffffffffffffffff16815260200190815260200160002060006101000a81548160ff0219169083151502179055508173ffffffffffffffffffffffffffffffffffffffff168373ffffffffffffffffffffffffffffffffffffffff167f17307eab39ab6107e8899845ad3d59bd9653f200f220920489ca2b5937696c31836040516132de9190613b98565b60405180910390a3505050565b6132f68484846129a4565b613302848484846136cb565b613341576040517f08c379a0000000000000000000000000000000000000000000000000000000008152600401613338906158af565b60405180910390fd5b50505050565b600073ffffffffffffffffffffffffffffffffffffffff168273ffffffffffffffffffffffffffffffffffffffff1614156133b7576040517f08c379a00000000000000000000000000000000000000000000000000000000081526004016133ae9061591b565b60405180910390fd5b6133c081612725565b15613400576040517f08c379a00000000000000000000000000000000000000000000000000000000081526004016133f790615987565b60405180910390fd5b61340c600083836136c1565b6001600360008473ffffffffffffffffffffffffffffffffffffffff1673ffffffffffffffffffffffffffffffffffffffff168152602001908152602001600020600082825461345c9190614933565b92505081905550816002600083815260200190815260200160002060006101000a81548173ffffffffffffffffffffffffffffffffffffffff021916908373ffffffffffffffffffffffffffffffffffffffff160217905550808273ffffffffffffffffffffffffffffffffffffffff16600073ffffffffffffffffffffffffffffffffffffffff167fddf252ad1be2c89b69c2b068fc378daa952ba7f163c4a11628f55a4df523b3ef60405160405180910390a461351d600083836136c6565b5050565b606060405180602001604052806000815250905090565b606061354382612725565b613582576040517f08c379a000000000000000000000000000000000000000000000000000000000815260040161357990615a19565b60405180910390fd5b600061358c613521565b905060008151116135ac57604051806020016040528060008152506135d7565b806135b684613853565b6040516020016135c792919061539e565b6040516020818303038152906040525b915050919050565b60007f80ac58cd000000000000000000000000000000000000000000000000000000007bffffffffffffffffffffffffffffffffffffffffffffffffffffffff1916827bffffffffffffffffffffffffffffffffffffffffffffffffffffffff191614806136aa57507f5b5e139f000000000000000000000000000000000000000000000000000000007bffffffffffffffffffffffffffffffffffffffffffffffffffffffff1916827bffffffffffffffffffffffffffffffffffffffffffffffffffffffff1916145b806136ba57506136b9826139b4565b5b9050919050565b505050565b505050565b60006136ec8473ffffffffffffffffffffffffffffffffffffffff16613a1e565b15613846578373ffffffffffffffffffffffffffffffffffffffff1663150b7a02613715612791565b8786866040518563ffffffff1660e01b81526004016137379493929190615a8e565b6020604051808303816000875af192505050801561377357506040513d601f19601f820116820180604052508101906137709190615aef565b60015b6137f6573d80600081146137a3576040519150601f19603f3d011682016040523d82523d6000602084013e6137a8565b606091505b506000815114156137ee576040517f08c379a00000000000000000000000000000000000000000000000000000000081526004016137e5906158af565b60405180910390fd5b805181602001fd5b63150b7a0260e01b7bffffffffffffffffffffffffffffffffffffffffffffffffffffffff1916817bffffffffffffffffffffffffffffffffffffffffffffffffffffffff19161491505061384b565b600190505b949350505050565b6060600082141561389b576040518060400160405280600181526020017f300000000000000000000000000000000000000000000000000000000000000081525090506139af565b600082905060005b600082146138cd5780806138b690614b2e565b915050600a826138c69190614ace565b91506138a3565b60008167ffffffffffffffff8111156138e9576138e8613da3565b5b6040519080825280601f01601f19166020018201604052801561391b5781602001600182028036833780820191505090505b5090505b600085146139a85760018261393491906151da565b9150600a856139439190615b1c565b603061394f9190614933565b60f81b81838151811061396557613964614aff565b5b60200101907effffffffffffffffffffffffffffffffffffffffffffffffffffffffffffff1916908160001a905350600a856139a19190614ace565b945061391f565b8093505050505b919050565b60007f01ffc9a7000000000000000000000000000000000000000000000000000000007bffffffffffffffffffffffffffffffffffffffffffffffffffffffff1916827bffffffffffffffffffffffffffffffffffffffffffffffffffffffff1916149050919050565b6000808273ffffffffffffffffffffffffffffffffffffffff163b119050919050565b828054613a4d906145fe565b90600052602060002090601f016020900481019282613a6f5760008555613ab6565b82601f10613a8857805160ff1916838001178555613ab6565b82800160010185558215613ab6579182015b82811115613ab5578251825591602001919060010190613a9a565b5b509050613ac39190613ac7565b5090565b5b80821115613ae0576000816000905550600101613ac8565b5090565b6000604051905090565b600080fd5b600080fd5b60007fffffffff0000000000000000000000000000000000000000000000000000000082169050919050565b613b2d81613af8565b8114613b3857600080fd5b50565b600081359050613b4a81613b24565b92915050565b600060208284031215613b6657613b65613aee565b5b6000613b7484828501613b3b565b91505092915050565b60008115159050919050565b613b9281613b7d565b82525050565b6000602082019050613bad6000830184613b89565b92915050565b600081519050919050565b600082825260208201905092915050565b60005b83811015613bed578082015181840152602081019050613bd2565b83811115613bfc576000848401525b50505050565b6000601f19601f8301169050919050565b6000613c1e82613bb3565b613c288185613bbe565b9350613c38818560208601613bcf565b613c4181613c02565b840191505092915050565b60006020820190508181036000830152613c668184613c13565b905092915050565b6000819050919050565b613c8181613c6e565b8114613c8c57600080fd5b50565b600081359050613c9e81613c78565b92915050565b600060208284031215613cba57613cb9613aee565b5b6000613cc884828501613c8f565b91505092915050565b600073ffffffffffffffffffffffffffffffffffffffff82169050919050565b6000613cfc82613cd1565b9050919050565b613d0c81613cf1565b82525050565b6000602082019050613d276000830184613d03565b92915050565b613d3681613cf1565b8114613d4157600080fd5b50565b600081359050613d5381613d2d565b92915050565b60008060408385031215613d7057613d6f613aee565b5b6000613d7e85828601613d44565b9250506020613d8f85828601613c8f565b9150509250929050565b600080fd5b600080fd5b7f4e487b7100000000000000000000000000000000000000000000000000000000600052604160045260246000fd5b613ddb82613c02565b810181811067ffffffffffffffff82111715613dfa57613df9613da3565b5b80604052505050565b6000613e0d613ae4565b9050613e198282613dd2565b919050565b600067ffffffffffffffff821115613e3957613e38613da3565b5b613e4282613c02565b9050602081019050919050565b82818337600083830152505050565b6000613e71613e6c84613e1e565b613e03565b905082815260208101848484011115613e8d57613e8c613d9e565b5b613e98848285613e4f565b509392505050565b600082601f830112613eb557613eb4613d99565b5b8135613ec5848260208601613e5e565b91505092915050565b60008060408385031215613ee557613ee4613aee565b5b6000613ef385828601613c8f565b925050602083013567ffffffffffffffff811115613f1457613f13613af3565b5b613f2085828601613ea0565b9150509250929050565b613f3381613c6e565b82525050565b6000602082019050613f4e6000830184613f2a565b92915050565b600080600060608486031215613f6d57613f6c613aee565b5b6000613f7b86828701613d44565b9350506020613f8c86828701613d44565b9250506040613f9d86828701613c8f565b9150509250925092565b60008060408385031215613fbe57613fbd613aee565b5b6000613fcc85828601613c8f565b9250506020613fdd85828601613c8f565b9150509250929050565b6000604082019050613ffc6000830185613d03565b6140096020830184613f2a565b9392505050565b600067ffffffffffffffff82111561402b5761402a613da3565b5b602082029050602081019050919050565b600080fd5b600061405461404f84614010565b613e03565b905080838252602082019050602084028301858111156140775761407661403c565b5b835b818110156140a0578061408c8882613d44565b845260208401935050602081019050614079565b5050509392505050565b600082601f8301126140bf576140be613d99565b5b81356140cf848260208601614041565b91505092915050565b6000602082840312156140ee576140ed613aee565b5b600082013567ffffffffffffffff81111561410c5761410b613af3565b5b614118848285016140aa565b91505092915050565b60006bffffffffffffffffffffffff82169050919050565b61414281614121565b811461414d57600080fd5b50565b60008135905061415f81614139565b92915050565b6000806040838503121561417c5761417b613aee565b5b600061418a85828601613d44565b925050602061419b85828601614150565b9150509250929050565b600060ff82169050919050565b6141bb816141a5565b81146141c657600080fd5b50565b6000813590506141d8816141b2565b92915050565b6000602082840312156141f4576141f3613aee565b5b6000614202848285016141c9565b91505092915050565b60006020828403121561422157614220613aee565b5b600082013567ffffffffffffffff81111561423f5761423e613af3565b5b61424b84828501613ea0565b91505092915050565b60006020828403121561426a57614269613aee565b5b600061427884828501613d44565b91505092915050565b600081519050919050565b600082825260208201905092915050565b6000819050602082019050919050565b6142b681613c6e565b82525050565b60006142c883836142ad565b60208301905092915050565b6000602082019050919050565b60006142ec82614281565b6142f6818561428c565b93506143018361429d565b8060005b8381101561433257815161431988826142bc565b9750614324836142d4565b925050600181019050614305565b5085935050505092915050565b6000602082019050818103600083015261435981846142e1565b905092915050565b61436a816141a5565b82525050565b60006020820190506143856000830184614361565b92915050565b6000819050919050565b61439e8161438b565b82525050565b60006020820190506143b96000830184614395565b92915050565b600080604083850312156143d6576143d5613aee565b5b60006143e485828601613c8f565b92505060206143f5858286016141c9565b9150509250929050565b61440881613b7d565b811461441357600080fd5b50565b600081359050614425816143ff565b92915050565b6000806040838503121561444257614441613aee565b5b600061445085828601613d44565b925050602061446185828601614416565b9150509250929050565b600067ffffffffffffffff82111561448657614485613da3565b5b61448f82613c02565b9050602081019050919050565b60006144af6144aa8461446b565b613e03565b9050828152602081018484840111156144cb576144ca613d9e565b5b6144d6848285613e4f565b509392505050565b600082601f8301126144f3576144f2613d99565b5b813561450384826020860161449c565b91505092915050565b6000806000806080858703121561452657614525613aee565b5b600061453487828801613d44565b945050602061454587828801613d44565b935050604061455687828801613c8f565b925050606085013567ffffffffffffffff81111561457757614576613af3565b5b614583878288016144de565b91505092959194509250565b600080604083850312156145a6576145a5613aee565b5b60006145b485828601613d44565b92505060206145c585828601613d44565b9150509250929050565b7f4e487b7100000000000000000000000000000000000000000000000000000000600052602260045260246000fd5b6000600282049050600182168061461657607f821691505b6020821081141561462a576146296145cf565b5b50919050565b7f4552433732313a20617070726f76656420717565727920666f72206e6f6e657860008201527f697374656e7420746f6b656e0000000000000000000000000000000000000000602082015250565b600061468c602c83613bbe565b915061469782614630565b604082019050919050565b600060208201905081810360008301526146bb8161467f565b9050919050565b7f4552433732313a20617070726f76616c20746f2063757272656e74206f776e6560008201527f7200000000000000000000000000000000000000000000000000000000000000602082015250565b600061471e602183613bbe565b9150614729826146c2565b604082019050919050565b6000602082019050818103600083015261474d81614711565b9050919050565b7f4552433732313a20617070726f76652063616c6c6572206973206e6f74206f7760008201527f6e6572206e6f7220617070726f76656420666f7220616c6c0000000000000000602082015250565b60006147b0603883613bbe565b91506147bb82614754565b604082019050919050565b600060208201905081810360008301526147df816147a3565b9050919050565b7f4f776e61626c653a2063616c6c6572206973206e6f7420746865206f776e6572600082015250565b600061481c602083613bbe565b9150614827826147e6565b602082019050919050565b6000602082019050818103600083015261484b8161480f565b9050919050565b600081905092915050565b50565b600061486d600083614852565b91506148788261485d565b600082019050919050565b600061488e82614860565b9150819050919050565b7f4661696c656420746f2057697468647261772045746865720000000000000000600082015250565b60006148ce601883613bbe565b91506148d982614898565b602082019050919050565b600060208201905081810360008301526148fd816148c1565b9050919050565b7f4e487b7100000000000000000000000000000000000000000000000000000000600052601160045260246000fd5b600061493e82613c6e565b915061494983613c6e565b9250827fffffffffffffffffffffffffffffffffffffffffffffffffffffffffffffffff0382111561497e5761497d614904565b5b828201905092915050565b6000614994826141a5565b915060ff8214156149a8576149a7614904565b5b600182019050919050565b7f4552433732313a207472616e736665722063616c6c6572206973206e6f74206f60008201527f776e6572206e6f7220617070726f766564000000000000000000000000000000602082015250565b6000614a0f603183613bbe565b9150614a1a826149b3565b604082019050919050565b60006020820190508181036000830152614a3e81614a02565b9050919050565b6000614a5082613c6e565b9150614a5b83613c6e565b9250817fffffffffffffffffffffffffffffffffffffffffffffffffffffffffffffffff0483118215151615614a9457614a93614904565b5b828202905092915050565b7f4e487b7100000000000000000000000000000000000000000000000000000000600052601260045260246000fd5b6000614ad982613c6e565b9150614ae483613c6e565b925082614af457614af3614a9f565b5b828204905092915050565b7f4e487b7100000000000000000000000000000000000000000000000000000000600052603260045260246000fd5b6000614b3982613c6e565b91507fffffffffffffffffffffffffffffffffffffffffffffffffffffffffffffffff821415614b6c57614b6b614904565b5b600182019050919050565b600081905092915050565b60008190508160005260206000209050919050565b60008154614ba4816145fe565b614bae8186614b77565b94506001821660008114614bc95760018114614bda57614c0d565b60ff19831686528186019350614c0d565b614be385614b82565b60005b83811015614c0557815481890152600182019150602081019050614be6565b838801955050505b50505092915050565b6000614c2182613bb3565b614c2b8185614b77565b9350614c3b818560208601613bcf565b80840191505092915050565b6000614c538286614b97565b9150614c5f8285614c16565b9150614c6b8284614c16565b9150819050949350505050565b7f496e76616c69656420746965724e756d626572206f6620617272617900000000600082015250565b6000614cae601c83613bbe565b9150614cb982614c78565b602082019050919050565b60006020820190508181036000830152614cdd81614ca1565b9050919050565b7f4552433732313a206f776e657220717565727920666f72206e6f6e657869737460008201527f656e7420746f6b656e0000000000000000000000000000000000000000000000602082015250565b6000614d40602983613bbe565b9150614d4b82614ce4565b604082019050919050565b60006020820190508181036000830152614d6f81614d33565b9050919050565b7f4552433732313a2062616c616e636520717565727920666f7220746865207a6560008201527f726f206164647265737300000000000000000000000000000000000000000000602082015250565b6000614dd2602a83613bbe565b9150614ddd82614d76565b604082019050919050565b60006020820190508181036000830152614e0181614dc5565b9050919050565b7f496e76616c69656420746965724e756d626572206f662061727261792e000000600082015250565b6000614e3e601d83613bbe565b9150614e4982614e08565b602082019050919050565b60006020820190508181036000830152614e6d81614e31565b9050919050565b600069ffffffffffffffffffff82169050919050565b614e9381614e74565b8114614e9e57600080fd5b50565b600081519050614eb081614e8a565b92915050565b614ebf8161438b565b8114614eca57600080fd5b50565b600081519050614edc81614eb6565b92915050565b600081519050614ef181613c78565b92915050565b600080600080600060a08688031215614f1357614f12613aee565b5b6000614f2188828901614ea1565b9550506020614f3288828901614ecd565b9450506040614f4388828901614ee2565b9350506060614f5488828901614ee2565b9250506080614f6588828901614ea1565b9150509295509295909350565b7f54696572207072696365206973206e6f74207365742e00000000000000000000600082015250565b6000614fa8601683613bbe565b9150614fb382614f72565b602082019050919050565b60006020820190508181036000830152614fd781614f9b565b9050919050565b7f596f7520617265206e6f7420616c6c6f77656420746f20627579206d6f72652060008201527f7468616e203220746f6b656e73206174206f6e63652e00000000000000000000602082015250565b600061503a603683613bbe565b915061504582614fde565b604082019050919050565b600060208201905081810360008301526150698161502d565b9050919050565b7f4e6f7420656e6f75676820746f6b656e73206c65667420746f206275792e0000600082015250565b60006150a6601e83613bbe565b91506150b182615070565b602082019050919050565b600060208201905081810360008301526150d581615099565b9050919050565b7f4e6f7420617661696c61626c6520746f206d696e742e00000000000000000000600082015250565b6000615112601683613bbe565b915061511d826150dc565b602082019050919050565b6000602082019050818103600083015261514181615105565b9050919050565b7f416d6f756e74206f662065746865722073656e74206e6f7420636f727265637460008201527f2e00000000000000000000000000000000000000000000000000000000000000602082015250565b60006151a4602183613bbe565b91506151af82615148565b604082019050919050565b600060208201905081810360008301526151d381615197565b9050919050565b60006151e582613c6e565b91506151f083613c6e565b92508282101561520357615202614904565b5b828203905092915050565b7f4661696c656420746f20726566756e6400000000000000000000000000000000600082015250565b6000615244601083613bbe565b915061524f8261520e565b602082019050919050565b6000602082019050818103600083015261527381615237565b9050919050565b7f4f766572666c6f77206d6178696d756d206d696e74206c696d69746174696f6e60008201527f2e00000000000000000000000000000000000000000000000000000000000000602082015250565b60006152d6602183613bbe565b91506152e18261527a565b604082019050919050565b60006020820190508181036000830152615305816152c9565b9050919050565b7f45524337323155524953746f726167653a2055524920717565727920666f722060008201527f6e6f6e6578697374656e7420746f6b656e000000000000000000000000000000602082015250565b6000615368603183613bbe565b91506153738261530c565b604082019050919050565b600060208201905081810360008301526153978161535b565b9050919050565b60006153aa8285614c16565b91506153b68284614c16565b91508190509392505050565b7f4f776e61626c653a206e6577206f776e657220697320746865207a65726f206160008201527f6464726573730000000000000000000000000000000000000000000000000000602082015250565b600061541e602683613bbe565b9150615429826153c2565b604082019050919050565b6000602082019050818103600083015261544d81615411565b9050919050565b7f45524337323155524953746f726167653a2055524920736574206f66206e6f6e60008201527f6578697374656e7420746f6b656e000000000000000000000000000000000000602082015250565b60006154b0602e83613bbe565b91506154bb82615454565b604082019050919050565b600060208201905081810360008301526154df816154a3565b9050919050565b7f4552433732313a206f70657261746f7220717565727920666f72206e6f6e657860008201527f697374656e7420746f6b656e0000000000000000000000000000000000000000602082015250565b6000615542602c83613bbe565b915061554d826154e6565b604082019050919050565b6000602082019050818103600083015261557181615535565b9050919050565b7f4552433732313a207472616e736665722066726f6d20696e636f72726563742060008201527f6f776e6572000000000000000000000000000000000000000000000000000000602082015250565b60006155d4602583613bbe565b91506155df82615578565b604082019050919050565b60006020820190508181036000830152615603816155c7565b9050919050565b7f4552433732313a207472616e7366657220746f20746865207a65726f2061646460008201527f7265737300000000000000000000000000000000000000000000000000000000602082015250565b6000615666602483613bbe565b91506156718261560a565b604082019050919050565b6000602082019050818103600083015261569581615659565b9050919050565b60006156a7826141a5565b91506156b2836141a5565b92508260ff038211156156c8576156c7614904565b5b828201905092915050565b7f455243323938313a20726f79616c7479206665652077696c6c2065786365656460008201527f2073616c65507269636500000000000000000000000000000000000000000000602082015250565b600061572f602a83613bbe565b915061573a826156d3565b604082019050919050565b6000602082019050818103600083015261575e81615722565b9050919050565b7f455243323938313a20696e76616c696420726563656976657200000000000000600082015250565b600061579b601983613bbe565b91506157a682615765565b602082019050919050565b600060208201905081810360008301526157ca8161578e565b9050919050565b7f4552433732313a20617070726f766520746f2063616c6c657200000000000000600082015250565b6000615807601983613bbe565b9150615812826157d1565b602082019050919050565b60006020820190508181036000830152615836816157fa565b9050919050565b7f4552433732313a207472616e7366657220746f206e6f6e20455243373231526560008201527f63656976657220696d706c656d656e7465720000000000000000000000000000602082015250565b6000615899603283613bbe565b91506158a48261583d565b604082019050919050565b600060208201905081810360008301526158c88161588c565b9050919050565b7f4552433732313a206d696e7420746f20746865207a65726f2061646472657373600082015250565b6000615905602083613bbe565b9150615910826158cf565b602082019050919050565b60006020820190508181036000830152615934816158f8565b9050919050565b7f4552433732313a20746f6b656e20616c7265616479206d696e74656400000000600082015250565b6000615971601c83613bbe565b915061597c8261593b565b602082019050919050565b600060208201905081810360008301526159a081615964565b9050919050565b7f4552433732314d657461646174613a2055524920717565727920666f72206e6f60008201527f6e6578697374656e7420746f6b656e0000000000000000000000000000000000602082015250565b6000615a03602f83613bbe565b9150615a0e826159a7565b604082019050919050565b60006020820190508181036000830152615a32816159f6565b9050919050565b600081519050919050565b600082825260208201905092915050565b6000615a6082615a39565b615a6a8185615a44565b9350615a7a818560208601613bcf565b615a8381613c02565b840191505092915050565b6000608082019050615aa36000830187613d03565b615ab06020830186613d03565b615abd6040830185613f2a565b8181036060830152615acf8184615a55565b905095945050505050565b600081519050615ae981613b24565b92915050565b600060208284031215615b0557615b04613aee565b5b6000615b1384828501615ada565b91505092915050565b6000615b2782613c6e565b9150615b3283613c6e565b925082615b4257615b41614a9f565b5b82820690509291505056fea2646970667358221220d2860650f733b1ce6d4f6f53fbf19dee23a359532ba01e274b44c31e044f859864736f6c634300080b003368747470733a2f2f676174657761792e70696e6174612e636c6f75642f697066732f516d5353474677487a6e6555466f6d34746157684d76314d4e594e72475546465142335655387267575a72464e58",
  "immutableReferences": {},
  "source": "// SPDX-License-Identifier: MIT\r\npragma solidity >=0.8.9 <0.9.0;\r\n\r\nimport \"@openzeppelin/contracts/access/Ownable.sol\";\r\nimport \"@openzeppelin/contracts/token/ERC721/extensions/ERC721URIStorage.sol\";\r\nimport \"@openzeppelin/contracts/token/common/ERC2981.sol\";\r\nimport \"@openzeppelin/contracts/utils/introspection/ERC165.sol\";\r\nimport \"./IAggregatorV3.sol\";\r\n\r\ncontract FathomyachtClub is ERC721URIStorage, ERC2981, Ownable {\r\n  uint256 private MAX_TOKEN = 10000;\r\n  uint256[] private _tokenIds = [8000, 0, 2000, 4000, 6000];\r\n\r\n  // mapping for token to tier number(0: power, 1: yacht, 2: prestige)\r\n  mapping(uint256 => uint8) private _tokenToTier;\r\n\r\n  // NFT prices in USD, mapping for tier to price(0: power, 1: yacht, 2: prestige)\r\n  uint256[] private NFT_PRICE = [50, 100, 150, 0, 0];\r\n  uint256[] private PRESALE_TIER_MINT_LIMIT = [100, 100, 50, 0, 0];\r\n  uint256[] private PUBLIC_SALE_TIER_MINT_LIMIT = [900, 900, 950, 0, 0];\r\n  string private _tokenBatchURI = \"https://gateway.pinata.cloud/ipfs/QmSSGFwHzneUFom4taWhMv1MNYNrGUFFQB3VU8rgWZrFNX\";\r\n  // 0: presale start block, 1: public sale start block\r\n  uint256[] private EVENT_BLOCK = [10264904, 10437473];\r\n  // Mapping from address to minted number of NFTs(0: power, 1: yacht, 2: prestige)\r\n  mapping(uint8 => uint256) private _preSaleMintCounter;\r\n  // Mapping from address to minted number of NFTs(0: power, 1: yacht, 2: prestige)\r\n  mapping(uint8 => uint256) private _publicSaleMintCounter;\r\n  // Mapping from address to white list flag(1: added, 0: removed)\r\n  mapping(address => uint8) private _whitelister;\r\n  // Mapping that returns tokens array of a holder\r\n  mapping(address => uint256[]) private _tokensOfholder;\r\n\r\n  AggregatorV3Interface internal priceFeed;\r\n\r\n  constructor() ERC721(\"Fathom Yacht Club\", \"FYC\") {\r\n    _setDefaultRoyalty(msg.sender, 1000);\r\n    priceFeed = AggregatorV3Interface(0x8A753747A1Fa494EC906cE90E9f37563A8AF630e);\r\n  }\r\n\r\n  modifier ableMintBatch(uint256 number, uint8 tierNumber) {\r\n    require(NFT_PRICE[tierNumber] != 0, \"Tier price is not set.\");\r\n    require(number <= 2, \"You are not allowed to buy more than 2 tokens at once.\");\r\n    require(tierNumber >= 0 && tierNumber <= 2, \"Invalied tierNumber of array.\");\r\n    require(MAX_TOKEN > number + totalSupply() + 1, \"Not enough tokens left to buy.\");\r\n\r\n    // uint8 blockStatus = checkBlock(msg.sender);\r\n    uint8 blockStatus = 1;\r\n    require(blockStatus > 0, \"Not available to mint.\");\r\n    _;\r\n  }\r\n\r\n  function checkBlock(address pm_address) internal view returns(uint8) {\r\n    uint256 curBlock = block.number;\r\n\r\n    if (curBlock >= EVENT_BLOCK[1]) {\r\n      return 2;\r\n    }\r\n    if (curBlock >= EVENT_BLOCK[0]) {\r\n      if(_whitelister[pm_address]== 1) {\r\n        return 1;\r\n      }\r\n    }\r\n\r\n    return 0;\r\n  }\r\n\r\n  function addWhiteList(address[] memory lsts) public onlyOwner {\r\n    uint256 new_len = lsts.length;\r\n    for(uint256 i=0; i<new_len; i++) {\r\n      _whitelister[lsts[i]] = 1;\r\n    }\r\n  }\r\n\r\n  function getTokensOfHolder(address holder_address) external view returns(uint256[] memory) {\r\n    return _tokensOfholder[holder_address];\r\n  }\r\n\r\n  function removeWhiteList(address[] memory lsts) public onlyOwner {\r\n    uint256 new_len = lsts.length;\r\n    for(uint256 i=0; i<new_len; i++) {\r\n      _whitelister[lsts[i]] = 0;\r\n    }\r\n  }\r\n\r\n  function getTierNumberOf(uint256 _tokenId) public view returns(uint8) {\r\n    return _tokenToTier[_tokenId];\r\n  }\r\n\r\n  function getTierPrice(uint8 tierNumber) public view returns(uint256) {\r\n    require(tierNumber >= 0 && tierNumber <= 2, \"Invalied tierNumber of array\");\r\n    return NFT_PRICE[tierNumber];\r\n  }\r\n\r\n  function setTierPrice(uint256 price, uint8 tierNumber) external onlyOwner {\r\n    require(tierNumber >= 0 && tierNumber <= 2, \"Invalied tierNumber of array.\");\r\n    NFT_PRICE[tierNumber] = price;\r\n  }\r\n\r\n  function getMaxLimit() external view returns(uint256) {\r\n    return MAX_TOKEN;\r\n  }\r\n\r\n  function setMaxLimit(uint256 limit) external onlyOwner {\r\n    MAX_TOKEN = limit;\r\n  }\r\n\r\n  function getTierLimit(uint8 tierNumber) external view returns(uint256) {\r\n    require(tierNumber >= 0 && tierNumber <= 2, \"Invalied tierNumber of array.\");\r\n\r\n    uint256 curBlock = block.number;\r\n    if (curBlock >= EVENT_BLOCK[1]) {\r\n      return PUBLIC_SALE_TIER_MINT_LIMIT[tierNumber];\r\n    }\r\n    if (curBlock >= EVENT_BLOCK[0]) {\r\n      return PRESALE_TIER_MINT_LIMIT[tierNumber];\r\n    }\r\n\r\n    return 0;\r\n  }\r\n\r\n  function setTierMintLimit(uint256 limit, uint8 tierNumber) external onlyOwner {\r\n    require(tierNumber >= 0 && tierNumber <= 2, \"Invalied tierNumber of array.\");\r\n\r\n    uint256 curBlock = block.number;\r\n    if (curBlock >= EVENT_BLOCK[1]) {\r\n      PUBLIC_SALE_TIER_MINT_LIMIT[tierNumber] = limit;\r\n    }\r\n    if (curBlock >= EVENT_BLOCK[0]) {\r\n      PRESALE_TIER_MINT_LIMIT[tierNumber] = limit;\r\n    }\r\n  }\r\n\r\n  function withDraw() external onlyOwner {\r\n    address payable tgt = payable(owner());\r\n    (bool success1, ) = tgt.call{value:address(this).balance}(\"\");\r\n    require(success1, \"Failed to Withdraw Ether\");\r\n  }\r\n\r\n  function getTokenURI(uint256 _tokenId) public view returns(string memory) {\r\n    string memory subDirectory = 'Not specified';\r\n    if (_tokenId > 0 && _tokenId <= 2000) {\r\n      subDirectory = '/Yacht/';\r\n    }\r\n    else if (_tokenId > 2000 && _tokenId <= 4000) {\r\n      subDirectory = '/Prestige/';\r\n    }\r\n    else if (_tokenId > 4000 && _tokenId <= 6000) {\r\n      subDirectory = '/Ultra/';\r\n    }\r\n    else if (_tokenId > 6000 && _tokenId <= 8000) {\r\n      subDirectory = '/Reserve/';\r\n    }\r\n    else if (_tokenId > 8000 && _tokenId <= 10000) {\r\n      subDirectory = '/Power/';\r\n    }\r\n\r\n    return string(abi.encodePacked(_tokenBatchURI, subDirectory, uint2str(_tokenId)));\r\n  }\r\n\r\n  function setTokenBatchURI(string memory _batchTokenURI) external onlyOwner {\r\n    _tokenBatchURI = _batchTokenURI;\r\n  }\r\n\r\n  function setTokenURI(uint256 number, string memory tokenURI) public onlyOwner {\r\n    _setTokenURI(number, tokenURI);\r\n  }\r\n\r\n  function mintBatch(uint256 number, uint8 tierNumber) public payable ableMintBatch(number, tierNumber) returns(uint256) {\r\n    require(msg.value >= ((NFT_PRICE[tierNumber] * number) * (10 ** 26)) / uint256(getLocalPrice()), \"Amount of ether sent not correct.\");\r\n\r\n    // refund the remainder\r\n    address payable tgt = payable(msg.sender);\r\n    (bool success1, ) = tgt.call{ value: msg.value - (((NFT_PRICE[tierNumber] * number) * (10 ** 26)) / uint256(getLocalPrice())) }(\"\");\r\n    require(success1, \"Failed to refund\");\r\n\r\n    uint256[] storage tierMintLimit = PRESALE_TIER_MINT_LIMIT;\r\n    mapping(uint8 => uint256) storage tierMintCounter = _preSaleMintCounter;\r\n    uint256 curBlock = block.number;\r\n\r\n    // use public sale variables if the current date is after public sale started\r\n    if (curBlock >= EVENT_BLOCK[1]) {\r\n      tierMintLimit = PUBLIC_SALE_TIER_MINT_LIMIT;\r\n      tierMintCounter = _publicSaleMintCounter;\r\n    }\r\n    require(tierMintCounter[tierNumber] + number < tierMintLimit[tierNumber], \"Overflow maximum mint limitation.\");\r\n\r\n    uint256 newItemId = 0;\r\n    // set where start the tokenIds to be incremented\r\n\r\n    for (uint256 i = 0; i < number; i++) {\r\n      _tokenIds[tierNumber]++;\r\n      newItemId = _tokenIds[tierNumber];\r\n      _mint(msg.sender, newItemId);\r\n      _tokenToTier[newItemId] = tierNumber;\r\n      _tokensOfholder[msg.sender].push(newItemId);\r\n      _setTokenURI(newItemId, getTokenURI(newItemId));\r\n    }\r\n\r\n    tierMintCounter[tierNumber] = tierMintCounter[tierNumber] + number;\r\n\r\n    return newItemId;\r\n  }\r\n\r\n  function totalSupply() public view returns(uint256) {\r\n    uint256 total = 0;\r\n    for(uint8 i = 0; i < 5; i++) {\r\n      total += (_preSaleMintCounter[i] + _publicSaleMintCounter[i]);\r\n    }\r\n    \r\n    return total;\r\n  }\r\n\r\n  function supportsInterface(bytes4 interfaceId) public view virtual override(ERC721, ERC2981) returns (bool) {\r\n    return super.supportsInterface(interfaceId);\r\n  }\r\n\r\n  /**\r\n    * @dev See {ERC721-_burn}. This override additionally clears the royalty information for the token.\r\n    */\r\n  function _burn(uint256 tokenId) internal virtual override {\r\n    super._burn(tokenId);\r\n    _resetTokenRoyalty(tokenId);\r\n  }\r\n\r\n  function setRoality(address receiver, uint96 feeNumerator) external onlyOwner {\r\n    _setDefaultRoyalty(receiver, feeNumerator);\r\n  }\r\n\r\n  function getLatestPrice() public view returns (int) {\r\n    (\r\n      ,\r\n      int price,\r\n      ,\r\n      ,\r\n      \r\n    ) = priceFeed.latestRoundData();\r\n    return price;\r\n  }\r\n\r\n  // use this for test purpose and delete when deploy on the mainnet\r\n  function getLocalPrice() public pure returns (int) {\r\n    int price = 257508605065;\r\n    return price;\r\n  }\r\n\r\n  function uint2str(uint _i) internal pure returns (string memory _uintAsString) {\r\n    string memory prefix = '';\r\n    if (_i == 0) {\r\n      return \"0\";\r\n    }\r\n    else if (_i > 0 && _i < 10) {\r\n      prefix = '0000';\r\n    }\r\n    else if (_i >= 10 && _i < 100) {\r\n      prefix = '000';\r\n    }\r\n    else if (_i >= 100 && _i < 1000) {\r\n      prefix = '00';\r\n    }\r\n    else if (_i >= 1000 && _i < 10000) {\r\n      prefix = '0';\r\n    }\r\n\r\n    uint j = _i;\r\n    uint len;\r\n    while (j != 0) {\r\n      len++;\r\n      j /= 10;\r\n    }\r\n    bytes memory bstr = new bytes(len);\r\n    uint k = len;\r\n    while (_i != 0) {\r\n      k = k-1;\r\n      uint8 temp = (48 + uint8(_i - _i / 10 * 10));\r\n      bytes1 b1 = bytes1(temp);\r\n      bstr[k] = b1;\r\n      _i /= 10;\r\n    }\r\n\r\n    return string(abi.encodePacked(prefix, string(bstr)));\r\n  }\r\n}\r\n",
  "sourcePath": "F:\\www-2022\\fathonclub-work\\app\\contracts\\FathomyachtClub.sol",
  "compiler": {
    "name": "solc",
    "version": "0.8.11+commit.d7f03943.Emscripten.clang"
  },
  "schemaVersion": "3.4.5",
  "updatedAt": "2022-03-15T16:01:26.247Z",
  "devdoc": {
    "kind": "dev",
    "methods": {
      "approve(address,uint256)": {
        "details": "See {IERC721-approve}."
      },
      "balanceOf(address)": {
        "details": "See {IERC721-balanceOf}."
      },
      "getApproved(uint256)": {
        "details": "See {IERC721-getApproved}."
      },
      "isApprovedForAll(address,address)": {
        "details": "See {IERC721-isApprovedForAll}."
      },
      "name()": {
        "details": "See {IERC721Metadata-name}."
      },
      "owner()": {
        "details": "Returns the address of the current owner."
      },
      "ownerOf(uint256)": {
        "details": "See {IERC721-ownerOf}."
      },
      "renounceOwnership()": {
        "details": "Leaves the contract without owner. It will not be possible to call `onlyOwner` functions anymore. Can only be called by the current owner. NOTE: Renouncing ownership will leave the contract without an owner, thereby removing any functionality that is only available to the owner."
      },
      "royaltyInfo(uint256,uint256)": {
        "details": "Returns how much royalty is owed and to whom, based on a sale price that may be denominated in any unit of exchange. The royalty amount is denominated and should be payed in that same unit of exchange."
      },
      "safeTransferFrom(address,address,uint256)": {
        "details": "See {IERC721-safeTransferFrom}."
      },
      "safeTransferFrom(address,address,uint256,bytes)": {
        "details": "See {IERC721-safeTransferFrom}."
      },
      "setApprovalForAll(address,bool)": {
        "details": "See {IERC721-setApprovalForAll}."
      },
      "symbol()": {
        "details": "See {IERC721Metadata-symbol}."
      },
      "tokenURI(uint256)": {
        "details": "See {IERC721Metadata-tokenURI}."
      },
      "transferFrom(address,address,uint256)": {
        "details": "See {IERC721-transferFrom}."
      },
      "transferOwnership(address)": {
        "details": "Transfers ownership of the contract to a new account (`newOwner`). Can only be called by the current owner."
      }
    },
    "version": 1
  },
  "userdoc": {
    "kind": "user",
    "methods": {},
    "version": 1
  }
}