{
  "contractName": "FathomyachtClub",
  "abi": [
    {
      "inputs": [],
      "stateMutability": "nonpayable",
      "type": "constructor"
    },
    {
      "anonymous": false,
      "inputs": [
        {
          "indexed": true,
          "internalType": "address",
          "name": "owner",
          "type": "address"
        },
        {
          "indexed": true,
          "internalType": "address",
          "name": "approved",
          "type": "address"
        },
        {
          "indexed": true,
          "internalType": "uint256",
          "name": "tokenId",
          "type": "uint256"
        }
      ],
      "name": "Approval",
      "type": "event"
    },
    {
      "anonymous": false,
      "inputs": [
        {
          "indexed": true,
          "internalType": "address",
          "name": "owner",
          "type": "address"
        },
        {
          "indexed": true,
          "internalType": "address",
          "name": "operator",
          "type": "address"
        },
        {
          "indexed": false,
          "internalType": "bool",
          "name": "approved",
          "type": "bool"
        }
      ],
      "name": "ApprovalForAll",
      "type": "event"
    },
    {
      "anonymous": false,
      "inputs": [
        {
          "indexed": true,
          "internalType": "address",
          "name": "previousOwner",
          "type": "address"
        },
        {
          "indexed": true,
          "internalType": "address",
          "name": "newOwner",
          "type": "address"
        }
      ],
      "name": "OwnershipTransferred",
      "type": "event"
    },
    {
      "anonymous": false,
      "inputs": [
        {
          "indexed": true,
          "internalType": "address",
          "name": "from",
          "type": "address"
        },
        {
          "indexed": true,
          "internalType": "address",
          "name": "to",
          "type": "address"
        },
        {
          "indexed": true,
          "internalType": "uint256",
          "name": "tokenId",
          "type": "uint256"
        }
      ],
      "name": "Transfer",
      "type": "event"
    },
    {
      "inputs": [
        {
          "internalType": "address",
          "name": "to",
          "type": "address"
        },
        {
          "internalType": "uint256",
          "name": "tokenId",
          "type": "uint256"
        }
      ],
      "name": "approve",
      "outputs": [],
      "stateMutability": "nonpayable",
      "type": "function"
    },
    {
      "inputs": [
        {
          "internalType": "address",
          "name": "owner",
          "type": "address"
        }
      ],
      "name": "balanceOf",
      "outputs": [
        {
          "internalType": "uint256",
          "name": "",
          "type": "uint256"
        }
      ],
      "stateMutability": "view",
      "type": "function"
    },
    {
      "inputs": [
        {
          "internalType": "uint256",
          "name": "tokenId",
          "type": "uint256"
        }
      ],
      "name": "getApproved",
      "outputs": [
        {
          "internalType": "address",
          "name": "",
          "type": "address"
        }
      ],
      "stateMutability": "view",
      "type": "function"
    },
    {
      "inputs": [
        {
          "internalType": "address",
          "name": "owner",
          "type": "address"
        },
        {
          "internalType": "address",
          "name": "operator",
          "type": "address"
        }
      ],
      "name": "isApprovedForAll",
      "outputs": [
        {
          "internalType": "bool",
          "name": "",
          "type": "bool"
        }
      ],
      "stateMutability": "view",
      "type": "function"
    },
    {
      "inputs": [],
      "name": "name",
      "outputs": [
        {
          "internalType": "string",
          "name": "",
          "type": "string"
        }
      ],
      "stateMutability": "view",
      "type": "function"
    },
    {
      "inputs": [],
      "name": "owner",
      "outputs": [
        {
          "internalType": "address",
          "name": "",
          "type": "address"
        }
      ],
      "stateMutability": "view",
      "type": "function"
    },
    {
      "inputs": [
        {
          "internalType": "uint256",
          "name": "tokenId",
          "type": "uint256"
        }
      ],
      "name": "ownerOf",
      "outputs": [
        {
          "internalType": "address",
          "name": "",
          "type": "address"
        }
      ],
      "stateMutability": "view",
      "type": "function"
    },
    {
      "inputs": [],
      "name": "renounceOwnership",
      "outputs": [],
      "stateMutability": "nonpayable",
      "type": "function"
    },
    {
      "inputs": [
        {
          "internalType": "uint256",
          "name": "_tokenId",
          "type": "uint256"
        },
        {
          "internalType": "uint256",
          "name": "_salePrice",
          "type": "uint256"
        }
      ],
      "name": "royaltyInfo",
      "outputs": [
        {
          "internalType": "address",
          "name": "",
          "type": "address"
        },
        {
          "internalType": "uint256",
          "name": "",
          "type": "uint256"
        }
      ],
      "stateMutability": "view",
      "type": "function"
    },
    {
      "inputs": [
        {
          "internalType": "address",
          "name": "from",
          "type": "address"
        },
        {
          "internalType": "address",
          "name": "to",
          "type": "address"
        },
        {
          "internalType": "uint256",
          "name": "tokenId",
          "type": "uint256"
        }
      ],
      "name": "safeTransferFrom",
      "outputs": [],
      "stateMutability": "nonpayable",
      "type": "function"
    },
    {
      "inputs": [
        {
          "internalType": "address",
          "name": "from",
          "type": "address"
        },
        {
          "internalType": "address",
          "name": "to",
          "type": "address"
        },
        {
          "internalType": "uint256",
          "name": "tokenId",
          "type": "uint256"
        },
        {
          "internalType": "bytes",
          "name": "_data",
          "type": "bytes"
        }
      ],
      "name": "safeTransferFrom",
      "outputs": [],
      "stateMutability": "nonpayable",
      "type": "function"
    },
    {
      "inputs": [
        {
          "internalType": "address",
          "name": "operator",
          "type": "address"
        },
        {
          "internalType": "bool",
          "name": "approved",
          "type": "bool"
        }
      ],
      "name": "setApprovalForAll",
      "outputs": [],
      "stateMutability": "nonpayable",
      "type": "function"
    },
    {
      "inputs": [],
      "name": "symbol",
      "outputs": [
        {
          "internalType": "string",
          "name": "",
          "type": "string"
        }
      ],
      "stateMutability": "view",
      "type": "function"
    },
    {
      "inputs": [
        {
          "internalType": "uint256",
          "name": "tokenId",
          "type": "uint256"
        }
      ],
      "name": "tokenURI",
      "outputs": [
        {
          "internalType": "string",
          "name": "",
          "type": "string"
        }
      ],
      "stateMutability": "view",
      "type": "function"
    },
    {
      "inputs": [
        {
          "internalType": "address",
          "name": "from",
          "type": "address"
        },
        {
          "internalType": "address",
          "name": "to",
          "type": "address"
        },
        {
          "internalType": "uint256",
          "name": "tokenId",
          "type": "uint256"
        }
      ],
      "name": "transferFrom",
      "outputs": [],
      "stateMutability": "nonpayable",
      "type": "function"
    },
    {
      "inputs": [
        {
          "internalType": "address",
          "name": "newOwner",
          "type": "address"
        }
      ],
      "name": "transferOwnership",
      "outputs": [],
      "stateMutability": "nonpayable",
      "type": "function"
    },
    {
      "inputs": [
        {
          "internalType": "address[]",
          "name": "lsts",
          "type": "address[]"
        }
      ],
      "name": "addWhiteList",
      "outputs": [],
      "stateMutability": "nonpayable",
      "type": "function"
    },
    {
      "inputs": [
        {
          "internalType": "address",
          "name": "holder_address",
          "type": "address"
        }
      ],
      "name": "getTokensOfHolder",
      "outputs": [
        {
          "internalType": "uint256[]",
          "name": "",
          "type": "uint256[]"
        }
      ],
      "stateMutability": "view",
      "type": "function"
    },
    {
      "inputs": [
        {
          "internalType": "address[]",
          "name": "lsts",
          "type": "address[]"
        }
      ],
      "name": "removeWhiteList",
      "outputs": [],
      "stateMutability": "nonpayable",
      "type": "function"
    },
    {
      "inputs": [
        {
          "internalType": "uint256",
          "name": "_tokenId",
          "type": "uint256"
        }
      ],
      "name": "getTierNumberOf",
      "outputs": [
        {
          "internalType": "uint8",
          "name": "",
          "type": "uint8"
        }
      ],
      "stateMutability": "view",
      "type": "function"
    },
    {
      "inputs": [
        {
          "internalType": "uint8",
          "name": "tierNumber",
          "type": "uint8"
        }
      ],
      "name": "getTierPrice",
      "outputs": [
        {
          "internalType": "uint256",
          "name": "",
          "type": "uint256"
        }
      ],
      "stateMutability": "view",
      "type": "function"
    },
    {
      "inputs": [
        {
          "internalType": "uint256",
          "name": "price",
          "type": "uint256"
        },
        {
          "internalType": "uint8",
          "name": "tierNumber",
          "type": "uint8"
        }
      ],
      "name": "setTierPrice",
      "outputs": [],
      "stateMutability": "nonpayable",
      "type": "function"
    },
    {
      "inputs": [],
      "name": "getMaxLimit",
      "outputs": [
        {
          "internalType": "uint256",
          "name": "",
          "type": "uint256"
        }
      ],
      "stateMutability": "view",
      "type": "function"
    },
    {
      "inputs": [
        {
          "internalType": "uint256",
          "name": "limit",
          "type": "uint256"
        }
      ],
      "name": "setMaxLimit",
      "outputs": [],
      "stateMutability": "nonpayable",
      "type": "function"
    },
    {
      "inputs": [
        {
          "internalType": "uint8",
          "name": "tierNumber",
          "type": "uint8"
        }
      ],
      "name": "getTierLimit",
      "outputs": [
        {
          "internalType": "uint256",
          "name": "",
          "type": "uint256"
        }
      ],
      "stateMutability": "view",
      "type": "function"
    },
    {
      "inputs": [
        {
          "internalType": "uint256",
          "name": "limit",
          "type": "uint256"
        },
        {
          "internalType": "uint8",
          "name": "tierNumber",
          "type": "uint8"
        }
      ],
      "name": "setTierMintLimit",
      "outputs": [],
      "stateMutability": "nonpayable",
      "type": "function"
    },
    {
      "inputs": [],
      "name": "withDraw",
      "outputs": [],
      "stateMutability": "nonpayable",
      "type": "function"
    },
    {
      "inputs": [
        {
          "internalType": "uint256",
          "name": "_tokenId",
          "type": "uint256"
        }
      ],
      "name": "getTokenURI",
      "outputs": [
        {
          "internalType": "string",
          "name": "",
          "type": "string"
        }
      ],
      "stateMutability": "view",
      "type": "function"
    },
    {
      "inputs": [
        {
          "internalType": "string",
          "name": "_batchTokenURI",
          "type": "string"
        }
      ],
      "name": "setTokenBatchURI",
      "outputs": [],
      "stateMutability": "nonpayable",
      "type": "function"
    },
    {
      "inputs": [
        {
          "internalType": "uint256",
          "name": "number",
          "type": "uint256"
        },
        {
          "internalType": "string",
          "name": "tokenURI",
          "type": "string"
        }
      ],
      "name": "setTokenURI",
      "outputs": [],
      "stateMutability": "nonpayable",
      "type": "function"
    },
    {
      "inputs": [
        {
          "internalType": "uint256",
          "name": "number",
          "type": "uint256"
        },
        {
          "internalType": "uint8",
          "name": "tierNumber",
          "type": "uint8"
        }
      ],
      "name": "mintBatch",
      "outputs": [
        {
          "internalType": "uint256",
          "name": "",
          "type": "uint256"
        }
      ],
      "stateMutability": "payable",
      "type": "function"
    },
    {
      "inputs": [],
      "name": "totalSupply",
      "outputs": [
        {
          "internalType": "uint256",
          "name": "",
          "type": "uint256"
        }
      ],
      "stateMutability": "view",
      "type": "function"
    },
    {
      "inputs": [
        {
          "internalType": "bytes4",
          "name": "interfaceId",
          "type": "bytes4"
        }
      ],
      "name": "supportsInterface",
      "outputs": [
        {
          "internalType": "bool",
          "name": "",
          "type": "bool"
        }
      ],
      "stateMutability": "view",
      "type": "function"
    },
    {
      "inputs": [
        {
          "internalType": "address",
          "name": "receiver",
          "type": "address"
        },
        {
          "internalType": "uint96",
          "name": "feeNumerator",
          "type": "uint96"
        }
      ],
      "name": "setRoality",
      "outputs": [],
      "stateMutability": "nonpayable",
      "type": "function"
    },
    {
      "inputs": [],
      "name": "getLatestPrice",
      "outputs": [
        {
          "internalType": "int256",
          "name": "",
          "type": "int256"
        }
      ],
      "stateMutability": "view",
      "type": "function"
    },
    {
      "inputs": [],
      "name": "getLocalPrice",
      "outputs": [
        {
          "internalType": "int256",
          "name": "",
          "type": "int256"
        }
      ],
      "stateMutability": "pure",
      "type": "function"
    }
  ],
  "bytecode": "0x6080604052612710600a556040518060a00160405280611f4061ffff168152602001600061ffff1681526020016107d061ffff168152602001610fa061ffff16815260200161177061ffff16815250600b9060056200006092919062000576565b506040518060a00160405280603260ff168152602001606460ff168152602001609660ff168152602001600060ff168152602001600060ff16815250600d906005620000ae929190620005ce565b506040518060a00160405280606460ff168152602001606460ff168152602001603260ff168152602001600060ff168152602001600060ff16815250600e906005620000fc929190620005ce565b506040518060a0016040528061038461ffff16815260200161038461ffff1681526020016103b661ffff168152602001600061ffff168152602001600061ffff16815250600f9060056200015292919062000576565b506040518060800160405280605081526020016200637760509139601090805190602001906200018492919062000625565b506040518060400160405280629ca14862ffffff168152602001629f436162ffffff168152506011906002620001bc929190620006b6565b50348015620001ca57600080fd5b506040518060400160405280601181526020017f466174686f6d20596163687420436c75620000000000000000000000000000008152506040518060400160405280600381526020017f465943000000000000000000000000000000000000000000000000000000000081525081600090805190602001906200024f92919062000625565b5080600190805190602001906200026892919062000625565b5050506200028b6200027f620002fa60201b60201c565b6200030260201b60201c565b6200029f336103e8620003c860201b60201c565b738a753747a1fa494ec906ce90e9f37563a8af630e601660006101000a81548173ffffffffffffffffffffffffffffffffffffffff021916908373ffffffffffffffffffffffffffffffffffffffff160217905550620008ae565b600033905090565b6000600960009054906101000a900473ffffffffffffffffffffffffffffffffffffffff16905081600960006101000a81548173ffffffffffffffffffffffffffffffffffffffff021916908373ffffffffffffffffffffffffffffffffffffffff1602179055508173ffffffffffffffffffffffffffffffffffffffff168173ffffffffffffffffffffffffffffffffffffffff167f8be0079c531659141344cd1fd0a4f28419497f9722a3daafe3b4186f6b6457e060405160405180910390a35050565b620003d86200056c60201b60201c565b6bffffffffffffffffffffffff16816bffffffffffffffffffffffff16111562000439576040517f08c379a00000000000000000000000000000000000000000000000000000000081526004016200043090620007b5565b60405180910390fd5b600073ffffffffffffffffffffffffffffffffffffffff168273ffffffffffffffffffffffffffffffffffffffff161415620004ac576040517f08c379a0000000000000000000000000000000000000000000000000000000008152600401620004a39062000827565b60405180910390fd5b60405180604001604052808373ffffffffffffffffffffffffffffffffffffffff168152602001826bffffffffffffffffffffffff16815250600760008201518160000160006101000a81548173ffffffffffffffffffffffffffffffffffffffff021916908373ffffffffffffffffffffffffffffffffffffffff16021790555060208201518160000160146101000a8154816bffffffffffffffffffffffff02191690836bffffffffffffffffffffffff1602179055509050505050565b6000612710905090565b828054828255906000526020600020908101928215620005bb579160200282015b82811115620005ba578251829061ffff1690559160200191906001019062000597565b5b509050620005ca91906200070f565b5090565b82805482825590600052602060002090810192821562000612579160200282015b8281111562000611578251829060ff16905591602001919060010190620005ef565b5b5090506200062191906200070f565b5090565b828054620006339062000878565b90600052602060002090601f016020900481019282620006575760008555620006a3565b82601f106200067257805160ff1916838001178555620006a3565b82800160010185558215620006a3579182015b82811115620006a257825182559160200191906001019062000685565b5b509050620006b291906200070f565b5090565b828054828255906000526020600020908101928215620006fc579160200282015b82811115620006fb578251829062ffffff16905591602001919060010190620006d7565b5b5090506200070b91906200070f565b5090565b5b808211156200072a57600081600090555060010162000710565b5090565b600082825260208201905092915050565b7f455243323938313a20726f79616c7479206665652077696c6c2065786365656460008201527f2073616c65507269636500000000000000000000000000000000000000000000602082015250565b60006200079d602a836200072e565b9150620007aa826200073f565b604082019050919050565b60006020820190508181036000830152620007d0816200078e565b9050919050565b7f455243323938313a20696e76616c696420726563656976657200000000000000600082015250565b60006200080f6019836200072e565b91506200081c82620007d7565b602082019050919050565b60006020820190508181036000830152620008428162000800565b9050919050565b7f4e487b7100000000000000000000000000000000000000000000000000000000600052602260045260246000fd5b600060028204905060018216806200089157607f821691505b60208210811415620008a857620008a762000849565b5b50919050565b615ab980620008be6000396000f3fe60806040526004361061020f5760003560e01c8063669aa2a311610118578063b88d4fde116100a0578063dc3c233a1161006f578063dc3c233a146107d5578063ddce569f14610800578063df6d484314610829578063e985e9c514610854578063f2fde38b146108915761020f565b8063b88d4fde14610716578063bf8bcee41461073f578063c1a071f114610768578063c87b56dd146107985761020f565b80638da5cb5b116100e75780638da5cb5b146106435780638e15f4731461066e578063956c9c6d1461069957806395d89b41146106c2578063a22cb465146106ed5761020f565b8063669aa2a31461057557806370a08231146105b2578063715018a6146105ef578063856e679c146106065761020f565b8063397457911161019b5780635586402d1161016a5780635586402d1461046c5780635e1045ec146104a957806361214582146104d25780636352211e146104fb57806364e4907c146105385761020f565b806339745791146103b45780633bb3a24d146103dd57806342842e0e1461041a5780634815df1d146104435761020f565b80630fdb1c10116101e25780630fdb1c10146102e2578063162094c4146102f957806318160ddd1461032257806323b872dd1461034d5780632a55205a146103765761020f565b806301ffc9a71461021457806306fdde0314610251578063081812fc1461027c578063095ea7b3146102b9575b600080fd5b34801561022057600080fd5b5061023b60048036038101906102369190613a3c565b6108ba565b6040516102489190613a84565b60405180910390f35b34801561025d57600080fd5b506102666108cc565b6040516102739190613b38565b60405180910390f35b34801561028857600080fd5b506102a3600480360381019061029e9190613b90565b61095e565b6040516102b09190613bfe565b60405180910390f35b3480156102c557600080fd5b506102e060048036038101906102db9190613c45565b6109e3565b005b3480156102ee57600080fd5b506102f7610afb565b005b34801561030557600080fd5b50610320600480360381019061031b9190613dba565b610c33565b005b34801561032e57600080fd5b50610337610cbd565b6040516103449190613e25565b60405180910390f35b34801561035957600080fd5b50610374600480360381019061036f9190613e40565b610d39565b005b34801561038257600080fd5b5061039d60048036038101906103989190613e93565b610d99565b6040516103ab929190613ed3565b60405180910390f35b3480156103c057600080fd5b506103db60048036038101906103d69190613fc4565b610f84565b005b3480156103e957600080fd5b5061040460048036038101906103ff9190613b90565b61109c565b6040516104119190613b38565b60405180910390f35b34801561042657600080fd5b50610441600480360381019061043c9190613e40565b6110d0565b005b34801561044f57600080fd5b5061046a60048036038101906104659190614051565b6110f0565b005b34801561047857600080fd5b50610493600480360381019061048e91906140ca565b61117a565b6040516104a09190613e25565b60405180910390f35b3480156104b557600080fd5b506104d060048036038101906104cb9190613fc4565b6111fb565b005b3480156104de57600080fd5b506104f960048036038101906104f491906140f7565b611313565b005b34801561050757600080fd5b50610522600480360381019061051d9190613b90565b6113a9565b60405161052f9190613bfe565b60405180910390f35b34801561054457600080fd5b5061055f600480360381019061055a9190614140565b61145b565b60405161056c919061422b565b60405180910390f35b34801561058157600080fd5b5061059c60048036038101906105979190613b90565b6114f2565b6040516105a9919061425c565b60405180910390f35b3480156105be57600080fd5b506105d960048036038101906105d49190614140565b61151c565b6040516105e69190613e25565b60405180910390f35b3480156105fb57600080fd5b506106046115d4565b005b34801561061257600080fd5b5061062d600480360381019061062891906140ca565b61165c565b60405161063a9190613e25565b60405180910390f35b34801561064f57600080fd5b50610658611764565b6040516106659190613bfe565b60405180910390f35b34801561067a57600080fd5b5061068361178e565b6040516106909190614290565b60405180910390f35b3480156106a557600080fd5b506106c060048036038101906106bb91906142ab565b61182f565b005b3480156106ce57600080fd5b506106d761192c565b6040516106e49190613b38565b60405180910390f35b3480156106f957600080fd5b50610714600480360381019061070f9190614317565b6119be565b005b34801561072257600080fd5b5061073d600480360381019061073891906143f8565b6119d4565b005b34801561074b57600080fd5b5061076660048036038101906107619190613b90565b611a36565b005b610782600480360381019061077d91906142ab565b611abc565b60405161078f9190613e25565b60405180910390f35b3480156107a457600080fd5b506107bf60048036038101906107ba9190613b90565b61205c565b6040516107cc9190613b38565b60405180910390f35b3480156107e157600080fd5b506107ea6121ae565b6040516107f79190614290565b60405180910390f35b34801561080c57600080fd5b50610827600480360381019061082291906142ab565b6121c0565b005b34801561083557600080fd5b5061083e612337565b60405161084b9190613e25565b60405180910390f35b34801561086057600080fd5b5061087b6004803603810190610876919061447b565b612341565b6040516108889190613a84565b60405180910390f35b34801561089d57600080fd5b506108b860048036038101906108b39190614140565b6123d5565b005b60006108c5826124cd565b9050919050565b6060600080546108db906144ea565b80601f0160208091040260200160405190810160405280929190818152602001828054610907906144ea565b80156109545780601f1061092957610100808354040283529160200191610954565b820191906000526020600020905b81548152906001019060200180831161093757829003601f168201915b5050505050905090565b600061096982612547565b6109a8576040517f08c379a000000000000000000000000000000000000000000000000000000000815260040161099f9061458e565b60405180910390fd5b6004600083815260200190815260200160002060009054906101000a900473ffffffffffffffffffffffffffffffffffffffff169050919050565b60006109ee826113a9565b90508073ffffffffffffffffffffffffffffffffffffffff168373ffffffffffffffffffffffffffffffffffffffff161415610a5f576040517f08c379a0000000000000000000000000000000000000000000000000000000008152600401610a5690614620565b60405180910390fd5b8073ffffffffffffffffffffffffffffffffffffffff16610a7e6125b3565b73ffffffffffffffffffffffffffffffffffffffff161480610aad5750610aac81610aa76125b3565b612341565b5b610aec576040517f08c379a0000000000000000000000000000000000000000000000000000000008152600401610ae3906146b2565b60405180910390fd5b610af683836125bb565b505050565b610b036125b3565b73ffffffffffffffffffffffffffffffffffffffff16610b21611764565b73ffffffffffffffffffffffffffffffffffffffff1614610b77576040517f08c379a0000000000000000000000000000000000000000000000000000000008152600401610b6e9061471e565b60405180910390fd5b6000610b81611764565b905060008173ffffffffffffffffffffffffffffffffffffffff1647604051610ba99061476f565b60006040518083038185875af1925050503d8060008114610be6576040519150601f19603f3d011682016040523d82523d6000602084013e610beb565b606091505b5050905080610c2f576040517f08c379a0000000000000000000000000000000000000000000000000000000008152600401610c26906147d0565b60405180910390fd5b5050565b610c3b6125b3565b73ffffffffffffffffffffffffffffffffffffffff16610c59611764565b73ffffffffffffffffffffffffffffffffffffffff1614610caf576040517f08c379a0000000000000000000000000000000000000000000000000000000008152600401610ca69061471e565b60405180910390fd5b610cb98282612674565b5050565b6000806000905060005b60058160ff161015610d3157601360008260ff1660ff16815260200190815260200160002054601260008360ff1660ff16815260200190815260200160002054610d11919061481f565b82610d1c919061481f565b91508080610d2990614875565b915050610cc7565b508091505090565b610d4a610d446125b3565b826126e8565b610d89576040517f08c379a0000000000000000000000000000000000000000000000000000000008152600401610d8090614911565b60405180910390fd5b610d948383836127c6565b505050565b6000806000600860008681526020019081526020016000206040518060400160405290816000820160009054906101000a900473ffffffffffffffffffffffffffffffffffffffff1673ffffffffffffffffffffffffffffffffffffffff1673ffffffffffffffffffffffffffffffffffffffff1681526020016000820160149054906101000a90046bffffffffffffffffffffffff166bffffffffffffffffffffffff166bffffffffffffffffffffffff16815250509050600073ffffffffffffffffffffffffffffffffffffffff16816000015173ffffffffffffffffffffffffffffffffffffffff161415610f2f5760076040518060400160405290816000820160009054906101000a900473ffffffffffffffffffffffffffffffffffffffff1673ffffffffffffffffffffffffffffffffffffffff1673ffffffffffffffffffffffffffffffffffffffff1681526020016000820160149054906101000a90046bffffffffffffffffffffffff166bffffffffffffffffffffffff166bffffffffffffffffffffffff168152505090505b6000610f39612a2d565b6bffffffffffffffffffffffff1682602001516bffffffffffffffffffffffff1686610f659190614931565b610f6f91906149ba565b90508160000151819350935050509250929050565b610f8c6125b3565b73ffffffffffffffffffffffffffffffffffffffff16610faa611764565b73ffffffffffffffffffffffffffffffffffffffff1614611000576040517f08c379a0000000000000000000000000000000000000000000000000000000008152600401610ff79061471e565b60405180910390fd5b60008151905060005b818110156110975760006014600085848151811061102a576110296149eb565b5b602002602001015173ffffffffffffffffffffffffffffffffffffffff1673ffffffffffffffffffffffffffffffffffffffff16815260200190815260200160002060006101000a81548160ff021916908360ff160217905550808061108f90614a1a565b915050611009565b505050565b606060106110a983612a37565b6040516020016110ba929190614b7f565b6040516020818303038152906040529050919050565b6110eb838383604051806020016040528060008152506119d4565b505050565b6110f86125b3565b73ffffffffffffffffffffffffffffffffffffffff16611116611764565b73ffffffffffffffffffffffffffffffffffffffff161461116c576040517f08c379a00000000000000000000000000000000000000000000000000000000081526004016111639061471e565b60405180910390fd5b6111768282612d44565b5050565b6000808260ff1610158015611193575060028260ff1611155b6111d2576040517f08c379a00000000000000000000000000000000000000000000000000000000081526004016111c990614bfa565b60405180910390fd5b600d8260ff16815481106111e9576111e86149eb565b5b90600052602060002001549050919050565b6112036125b3565b73ffffffffffffffffffffffffffffffffffffffff16611221611764565b73ffffffffffffffffffffffffffffffffffffffff1614611277576040517f08c379a000000000000000000000000000000000000000000000000000000000815260040161126e9061471e565b60405180910390fd5b60008151905060005b8181101561130e576001601460008584815181106112a1576112a06149eb565b5b602002602001015173ffffffffffffffffffffffffffffffffffffffff1673ffffffffffffffffffffffffffffffffffffffff16815260200190815260200160002060006101000a81548160ff021916908360ff160217905550808061130690614a1a565b915050611280565b505050565b61131b6125b3565b73ffffffffffffffffffffffffffffffffffffffff16611339611764565b73ffffffffffffffffffffffffffffffffffffffff161461138f576040517f08c379a00000000000000000000000000000000000000000000000000000000081526004016113869061471e565b60405180910390fd5b80601090805190602001906113a592919061392d565b5050565b6000806002600084815260200190815260200160002060009054906101000a900473ffffffffffffffffffffffffffffffffffffffff169050600073ffffffffffffffffffffffffffffffffffffffff168173ffffffffffffffffffffffffffffffffffffffff161415611452576040517f08c379a000000000000000000000000000000000000000000000000000000000815260040161144990614c8c565b60405180910390fd5b80915050919050565b6060601560008373ffffffffffffffffffffffffffffffffffffffff1673ffffffffffffffffffffffffffffffffffffffff1681526020019081526020016000208054806020026020016040519081016040528092919081815260200182805480156114e657602002820191906000526020600020905b8154815260200190600101908083116114d2575b50505050509050919050565b6000600c600083815260200190815260200160002060009054906101000a900460ff169050919050565b60008073ffffffffffffffffffffffffffffffffffffffff168273ffffffffffffffffffffffffffffffffffffffff16141561158d576040517f08c379a000000000000000000000000000000000000000000000000000000000815260040161158490614d1e565b60405180910390fd5b600360008373ffffffffffffffffffffffffffffffffffffffff1673ffffffffffffffffffffffffffffffffffffffff168152602001908152602001600020549050919050565b6115dc6125b3565b73ffffffffffffffffffffffffffffffffffffffff166115fa611764565b73ffffffffffffffffffffffffffffffffffffffff1614611650576040517f08c379a00000000000000000000000000000000000000000000000000000000081526004016116479061471e565b60405180910390fd5b61165a6000612eda565b565b6000808260ff1610158015611675575060028260ff1611155b6116b4576040517f08c379a00000000000000000000000000000000000000000000000000000000081526004016116ab90614d8a565b60405180910390fd5b600043905060116001815481106116ce576116cd6149eb565b5b9060005260206000200154811061170957600f8360ff16815481106116f6576116f56149eb565b5b906000526020600020015491505061175f565b601160008154811061171e5761171d6149eb565b5b9060005260206000200154811061175957600e8360ff1681548110611746576117456149eb565b5b906000526020600020015491505061175f565b60009150505b919050565b6000600960009054906101000a900473ffffffffffffffffffffffffffffffffffffffff16905090565b600080601660009054906101000a900473ffffffffffffffffffffffffffffffffffffffff1673ffffffffffffffffffffffffffffffffffffffff1663feaf968c6040518163ffffffff1660e01b815260040160a060405180830381865afa1580156117fe573d6000803e3d6000fd5b505050506040513d601f19601f820116820180604052508101906118229190614e2d565b5050509150508091505090565b6118376125b3565b73ffffffffffffffffffffffffffffffffffffffff16611855611764565b73ffffffffffffffffffffffffffffffffffffffff16146118ab576040517f08c379a00000000000000000000000000000000000000000000000000000000081526004016118a29061471e565b60405180910390fd5b60008160ff16101580156118c3575060028160ff1611155b611902576040517f08c379a00000000000000000000000000000000000000000000000000000000081526004016118f990614d8a565b60405180910390fd5b81600d8260ff168154811061191a576119196149eb565b5b90600052602060002001819055505050565b60606001805461193b906144ea565b80601f0160208091040260200160405190810160405280929190818152602001828054611967906144ea565b80156119b45780601f10611989576101008083540402835291602001916119b4565b820191906000526020600020905b81548152906001019060200180831161199757829003601f168201915b5050505050905090565b6119d06119c96125b3565b8383612fa0565b5050565b6119e56119df6125b3565b836126e8565b611a24576040517f08c379a0000000000000000000000000000000000000000000000000000000008152600401611a1b90614911565b60405180910390fd5b611a308484848461310d565b50505050565b611a3e6125b3565b73ffffffffffffffffffffffffffffffffffffffff16611a5c611764565b73ffffffffffffffffffffffffffffffffffffffff1614611ab2576040517f08c379a0000000000000000000000000000000000000000000000000000000008152600401611aa99061471e565b60405180910390fd5b80600a8190555050565b600082826000600d8260ff1681548110611ad957611ad86149eb565b5b90600052602060002001541415611b25576040517f08c379a0000000000000000000000000000000000000000000000000000000008152600401611b1c90614ef4565b60405180910390fd5b6002821115611b69576040517f08c379a0000000000000000000000000000000000000000000000000000000008152600401611b6090614f86565b60405180910390fd5b60008160ff1610158015611b81575060028160ff1611155b611bc0576040517f08c379a0000000000000000000000000000000000000000000000000000000008152600401611bb790614d8a565b60405180910390fd5b6001611bca610cbd565b83611bd5919061481f565b611bdf919061481f565b600a5411611c22576040517f08c379a0000000000000000000000000000000000000000000000000000000008152600401611c1990614ff2565b60405180910390fd5b6000611c2d33613169565b905060008160ff1611611c75576040517f08c379a0000000000000000000000000000000000000000000000000000000008152600401611c6c9061505e565b60405180910390fd5b611c7d61178e565b6a52b7d2dcc80cd2e400000087600d8860ff1681548110611ca157611ca06149eb565b5b9060005260206000200154611cb69190614931565b611cc09190614931565b611cca91906149ba565b341015611d0c576040517f08c379a0000000000000000000000000000000000000000000000000000000008152600401611d03906150f0565b60405180910390fd5b600033905060008173ffffffffffffffffffffffffffffffffffffffff16611d3261178e565b6a52b7d2dcc80cd2e40000008a600d8b60ff1681548110611d5657611d556149eb565b5b9060005260206000200154611d6b9190614931565b611d759190614931565b611d7f91906149ba565b34611d8a9190615110565b604051611d969061476f565b60006040518083038185875af1925050503d8060008114611dd3576040519150601f19603f3d011682016040523d82523d6000602084013e611dd8565b606091505b5050905080611e1c576040517f08c379a0000000000000000000000000000000000000000000000000000000008152600401611e1390615190565b60405180910390fd5b6000600e905060006012905060004390506011600181548110611e4257611e416149eb565b5b90600052602060002001548110611e5c57600f9250601391505b828a60ff1681548110611e7257611e716149eb565b5b90600052602060002001548b8360008d60ff1660ff16815260200190815260200160002054611ea1919061481f565b10611ee1576040517f08c379a0000000000000000000000000000000000000000000000000000000008152600401611ed890615222565b60405180910390fd5b6000805b8c81101561200957600b8c60ff1681548110611f0457611f036149eb565b5b906000526020600020016000815480929190611f1f90614a1a565b9190505550600b8c60ff1681548110611f3b57611f3a6149eb565b5b90600052602060002001549150611f523383613233565b8b600c600084815260200190815260200160002060006101000a81548160ff021916908360ff160217905550601560003373ffffffffffffffffffffffffffffffffffffffff1673ffffffffffffffffffffffffffffffffffffffff168152602001908152602001600020829080600181540180825580915050600190039060005260206000200160009091909190915055611ff682611ff18461109c565b612674565b808061200190614a1a565b915050611ee5565b508b8360008d60ff1660ff1681526020019081526020016000205461202e919061481f565b8360008d60ff1660ff1681526020019081526020016000208190555080995050505050505050505092915050565b606061206782612547565b6120a6576040517f08c379a000000000000000000000000000000000000000000000000000000000815260040161209d906152b4565b60405180910390fd5b60006006600084815260200190815260200160002080546120c6906144ea565b80601f01602080910402602001604051908101604052809291908181526020018280546120f2906144ea565b801561213f5780601f106121145761010080835404028352916020019161213f565b820191906000526020600020905b81548152906001019060200180831161212257829003601f168201915b50505050509050600061215061340d565b90506000815114156121665781925050506121a9565b60008251111561219b5780826040516020016121839291906152d4565b604051602081830303815290604052925050506121a9565b6121a484613424565b925050505b919050565b600080643bf4b57c8990508091505090565b6121c86125b3565b73ffffffffffffffffffffffffffffffffffffffff166121e6611764565b73ffffffffffffffffffffffffffffffffffffffff161461223c576040517f08c379a00000000000000000000000000000000000000000000000000000000081526004016122339061471e565b60405180910390fd5b60008160ff1610158015612254575060028160ff1611155b612293576040517f08c379a000000000000000000000000000000000000000000000000000000000815260040161228a90614d8a565b60405180910390fd5b600043905060116001815481106122ad576122ac6149eb565b5b906000526020600020015481106122e55782600f8360ff16815481106122d6576122d56149eb565b5b90600052602060002001819055505b60116000815481106122fa576122f96149eb565b5b906000526020600020015481106123325782600e8360ff1681548110612323576123226149eb565b5b90600052602060002001819055505b505050565b6000600a54905090565b6000600560008473ffffffffffffffffffffffffffffffffffffffff1673ffffffffffffffffffffffffffffffffffffffff16815260200190815260200160002060008373ffffffffffffffffffffffffffffffffffffffff1673ffffffffffffffffffffffffffffffffffffffff16815260200190815260200160002060009054906101000a900460ff16905092915050565b6123dd6125b3565b73ffffffffffffffffffffffffffffffffffffffff166123fb611764565b73ffffffffffffffffffffffffffffffffffffffff1614612451576040517f08c379a00000000000000000000000000000000000000000000000000000000081526004016124489061471e565b60405180910390fd5b600073ffffffffffffffffffffffffffffffffffffffff168173ffffffffffffffffffffffffffffffffffffffff1614156124c1576040517f08c379a00000000000000000000000000000000000000000000000000000000081526004016124b89061536a565b60405180910390fd5b6124ca81612eda565b50565b60007f2a55205a000000000000000000000000000000000000000000000000000000007bffffffffffffffffffffffffffffffffffffffffffffffffffffffff1916827bffffffffffffffffffffffffffffffffffffffffffffffffffffffff19161480612540575061253f826134cb565b5b9050919050565b60008073ffffffffffffffffffffffffffffffffffffffff166002600084815260200190815260200160002060009054906101000a900473ffffffffffffffffffffffffffffffffffffffff1673ffffffffffffffffffffffffffffffffffffffff1614159050919050565b600033905090565b816004600083815260200190815260200160002060006101000a81548173ffffffffffffffffffffffffffffffffffffffff021916908373ffffffffffffffffffffffffffffffffffffffff160217905550808273ffffffffffffffffffffffffffffffffffffffff1661262e836113a9565b73ffffffffffffffffffffffffffffffffffffffff167f8c5be1e5ebec7d5bd14f71427d1e84f3dd0314c0f7b2291e5b200ac8c7c3b92560405160405180910390a45050565b61267d82612547565b6126bc576040517f08c379a00000000000000000000000000000000000000000000000000000000081526004016126b3906153fc565b60405180910390fd5b806006600084815260200190815260200160002090805190602001906126e392919061392d565b505050565b60006126f382612547565b612732576040517f08c379a00000000000000000000000000000000000000000000000000000000081526004016127299061548e565b60405180910390fd5b600061273d836113a9565b90508073ffffffffffffffffffffffffffffffffffffffff168473ffffffffffffffffffffffffffffffffffffffff1614806127ac57508373ffffffffffffffffffffffffffffffffffffffff166127948461095e565b73ffffffffffffffffffffffffffffffffffffffff16145b806127bd57506127bc8185612341565b5b91505092915050565b8273ffffffffffffffffffffffffffffffffffffffff166127e6826113a9565b73ffffffffffffffffffffffffffffffffffffffff161461283c576040517f08c379a000000000000000000000000000000000000000000000000000000000815260040161283390615520565b60405180910390fd5b600073ffffffffffffffffffffffffffffffffffffffff168273ffffffffffffffffffffffffffffffffffffffff1614156128ac576040517f08c379a00000000000000000000000000000000000000000000000000000000081526004016128a3906155b2565b60405180910390fd5b6128b78383836135ad565b6128c26000826125bb565b6001600360008573ffffffffffffffffffffffffffffffffffffffff1673ffffffffffffffffffffffffffffffffffffffff16815260200190815260200160002060008282546129129190615110565b925050819055506001600360008473ffffffffffffffffffffffffffffffffffffffff1673ffffffffffffffffffffffffffffffffffffffff1681526020019081526020016000206000828254612969919061481f565b92505081905550816002600083815260200190815260200160002060006101000a81548173ffffffffffffffffffffffffffffffffffffffff021916908373ffffffffffffffffffffffffffffffffffffffff160217905550808273ffffffffffffffffffffffffffffffffffffffff168473ffffffffffffffffffffffffffffffffffffffff167fddf252ad1be2c89b69c2b068fc378daa952ba7f163c4a11628f55a4df523b3ef60405160405180910390a4612a288383836135b2565b505050565b6000612710905090565b606060006040518060200160405280600081525090506000831415612a94576040518060400160405280600181526020017f3000000000000000000000000000000000000000000000000000000000000000815250915050612d3f565b600083118015612aa45750600a83105b15612ae6576040518060400160405280600481526020017f30303030000000000000000000000000000000000000000000000000000000008152509050612be1565b600a8310158015612af75750606483105b15612b39576040518060400160405280600381526020017f30303000000000000000000000000000000000000000000000000000000000008152509050612be0565b60648310158015612b4b57506103e883105b15612b8d576040518060400160405280600281526020017f30300000000000000000000000000000000000000000000000000000000000008152509050612bdf565b6103e88310158015612ba0575061271083105b15612bde576040518060400160405280600181526020017f300000000000000000000000000000000000000000000000000000000000000081525090505b5b5b5b600083905060005b60008214612c13578080612bfc90614a1a565b915050600a82612c0c91906149ba565b9150612be9565b60008167ffffffffffffffff811115612c2f57612c2e613c8f565b5b6040519080825280601f01601f191660200182016040528015612c615781602001600182028036833780820191505090505b50905060008290505b60008714612d1557600181612c7f9190615110565b90506000600a8089612c9191906149ba565b612c9b9190614931565b88612ca69190615110565b6030612cb291906155d2565b905060008160f81b905080848481518110612cd057612ccf6149eb565b5b60200101907effffffffffffffffffffffffffffffffffffffffffffffffffffffffffffff1916908160001a905350600a89612d0c91906149ba565b98505050612c6a565b8482604051602001612d289291906152d4565b604051602081830303815290604052955050505050505b919050565b612d4c612a2d565b6bffffffffffffffffffffffff16816bffffffffffffffffffffffff161115612daa576040517f08c379a0000000000000000000000000000000000000000000000000000000008152600401612da19061567b565b60405180910390fd5b600073ffffffffffffffffffffffffffffffffffffffff168273ffffffffffffffffffffffffffffffffffffffff161415612e1a576040517f08c379a0000000000000000000000000000000000000000000000000000000008152600401612e11906156e7565b60405180910390fd5b60405180604001604052808373ffffffffffffffffffffffffffffffffffffffff168152602001826bffffffffffffffffffffffff16815250600760008201518160000160006101000a81548173ffffffffffffffffffffffffffffffffffffffff021916908373ffffffffffffffffffffffffffffffffffffffff16021790555060208201518160000160146101000a8154816bffffffffffffffffffffffff02191690836bffffffffffffffffffffffff1602179055509050505050565b6000600960009054906101000a900473ffffffffffffffffffffffffffffffffffffffff16905081600960006101000a81548173ffffffffffffffffffffffffffffffffffffffff021916908373ffffffffffffffffffffffffffffffffffffffff1602179055508173ffffffffffffffffffffffffffffffffffffffff168173ffffffffffffffffffffffffffffffffffffffff167f8be0079c531659141344cd1fd0a4f28419497f9722a3daafe3b4186f6b6457e060405160405180910390a35050565b8173ffffffffffffffffffffffffffffffffffffffff168373ffffffffffffffffffffffffffffffffffffffff16141561300f576040517f08c379a000000000000000000000000000000000000000000000000000000000815260040161300690615753565b60405180910390fd5b80600560008573ffffffffffffffffffffffffffffffffffffffff1673ffffffffffffffffffffffffffffffffffffffff16815260200190815260200160002060008473ffffffffffffffffffffffffffffffffffffffff1673ffffffffffffffffffffffffffffffffffffffff16815260200190815260200160002060006101000a81548160ff0219169083151502179055508173ffffffffffffffffffffffffffffffffffffffff168373ffffffffffffffffffffffffffffffffffffffff167f17307eab39ab6107e8899845ad3d59bd9653f200f220920489ca2b5937696c31836040516131009190613a84565b60405180910390a3505050565b6131188484846127c6565b613124848484846135b7565b613163576040517f08c379a000000000000000000000000000000000000000000000000000000000815260040161315a906157e5565b60405180910390fd5b50505050565b6000804390506011600181548110613184576131836149eb565b5b9060005260206000200154811061319f57600291505061322e565b60116000815481106131b4576131b36149eb565b5b90600052602060002001548110613228576001601460008573ffffffffffffffffffffffffffffffffffffffff1673ffffffffffffffffffffffffffffffffffffffff16815260200190815260200160002060009054906101000a900460ff1660ff16141561322757600191505061322e565b5b60009150505b919050565b600073ffffffffffffffffffffffffffffffffffffffff168273ffffffffffffffffffffffffffffffffffffffff1614156132a3576040517f08c379a000000000000000000000000000000000000000000000000000000000815260040161329a90615851565b60405180910390fd5b6132ac81612547565b156132ec576040517f08c379a00000000000000000000000000000000000000000000000000000000081526004016132e3906158bd565b60405180910390fd5b6132f8600083836135ad565b6001600360008473ffffffffffffffffffffffffffffffffffffffff1673ffffffffffffffffffffffffffffffffffffffff1681526020019081526020016000206000828254613348919061481f565b92505081905550816002600083815260200190815260200160002060006101000a81548173ffffffffffffffffffffffffffffffffffffffff021916908373ffffffffffffffffffffffffffffffffffffffff160217905550808273ffffffffffffffffffffffffffffffffffffffff16600073ffffffffffffffffffffffffffffffffffffffff167fddf252ad1be2c89b69c2b068fc378daa952ba7f163c4a11628f55a4df523b3ef60405160405180910390a4613409600083836135b2565b5050565b606060405180602001604052806000815250905090565b606061342f82612547565b61346e576040517f08c379a00000000000000000000000000000000000000000000000000000000081526004016134659061594f565b60405180910390fd5b600061347861340d565b9050600081511161349857604051806020016040528060008152506134c3565b806134a28461373f565b6040516020016134b39291906152d4565b6040516020818303038152906040525b915050919050565b60007f80ac58cd000000000000000000000000000000000000000000000000000000007bffffffffffffffffffffffffffffffffffffffffffffffffffffffff1916827bffffffffffffffffffffffffffffffffffffffffffffffffffffffff1916148061359657507f5b5e139f000000000000000000000000000000000000000000000000000000007bffffffffffffffffffffffffffffffffffffffffffffffffffffffff1916827bffffffffffffffffffffffffffffffffffffffffffffffffffffffff1916145b806135a657506135a5826138a0565b5b9050919050565b505050565b505050565b60006135d88473ffffffffffffffffffffffffffffffffffffffff1661390a565b15613732578373ffffffffffffffffffffffffffffffffffffffff1663150b7a026136016125b3565b8786866040518563ffffffff1660e01b815260040161362394939291906159c4565b6020604051808303816000875af192505050801561365f57506040513d601f19601f8201168201806040525081019061365c9190615a25565b60015b6136e2573d806000811461368f576040519150601f19603f3d011682016040523d82523d6000602084013e613694565b606091505b506000815114156136da576040517f08c379a00000000000000000000000000000000000000000000000000000000081526004016136d1906157e5565b60405180910390fd5b805181602001fd5b63150b7a0260e01b7bffffffffffffffffffffffffffffffffffffffffffffffffffffffff1916817bffffffffffffffffffffffffffffffffffffffffffffffffffffffff191614915050613737565b600190505b949350505050565b60606000821415613787576040518060400160405280600181526020017f3000000000000000000000000000000000000000000000000000000000000000815250905061389b565b600082905060005b600082146137b95780806137a290614a1a565b915050600a826137b291906149ba565b915061378f565b60008167ffffffffffffffff8111156137d5576137d4613c8f565b5b6040519080825280601f01601f1916602001820160405280156138075781602001600182028036833780820191505090505b5090505b60008514613894576001826138209190615110565b9150600a8561382f9190615a52565b603061383b919061481f565b60f81b818381518110613851576138506149eb565b5b60200101907effffffffffffffffffffffffffffffffffffffffffffffffffffffffffffff1916908160001a905350600a8561388d91906149ba565b945061380b565b8093505050505b919050565b60007f01ffc9a7000000000000000000000000000000000000000000000000000000007bffffffffffffffffffffffffffffffffffffffffffffffffffffffff1916827bffffffffffffffffffffffffffffffffffffffffffffffffffffffff1916149050919050565b6000808273ffffffffffffffffffffffffffffffffffffffff163b119050919050565b828054613939906144ea565b90600052602060002090601f01602090048101928261395b57600085556139a2565b82601f1061397457805160ff19168380011785556139a2565b828001600101855582156139a2579182015b828111156139a1578251825591602001919060010190613986565b5b5090506139af91906139b3565b5090565b5b808211156139cc5760008160009055506001016139b4565b5090565b6000604051905090565b600080fd5b600080fd5b60007fffffffff0000000000000000000000000000000000000000000000000000000082169050919050565b613a19816139e4565b8114613a2457600080fd5b50565b600081359050613a3681613a10565b92915050565b600060208284031215613a5257613a516139da565b5b6000613a6084828501613a27565b91505092915050565b60008115159050919050565b613a7e81613a69565b82525050565b6000602082019050613a996000830184613a75565b92915050565b600081519050919050565b600082825260208201905092915050565b60005b83811015613ad9578082015181840152602081019050613abe565b83811115613ae8576000848401525b50505050565b6000601f19601f8301169050919050565b6000613b0a82613a9f565b613b148185613aaa565b9350613b24818560208601613abb565b613b2d81613aee565b840191505092915050565b60006020820190508181036000830152613b528184613aff565b905092915050565b6000819050919050565b613b6d81613b5a565b8114613b7857600080fd5b50565b600081359050613b8a81613b64565b92915050565b600060208284031215613ba657613ba56139da565b5b6000613bb484828501613b7b565b91505092915050565b600073ffffffffffffffffffffffffffffffffffffffff82169050919050565b6000613be882613bbd565b9050919050565b613bf881613bdd565b82525050565b6000602082019050613c136000830184613bef565b92915050565b613c2281613bdd565b8114613c2d57600080fd5b50565b600081359050613c3f81613c19565b92915050565b60008060408385031215613c5c57613c5b6139da565b5b6000613c6a85828601613c30565b9250506020613c7b85828601613b7b565b9150509250929050565b600080fd5b600080fd5b7f4e487b7100000000000000000000000000000000000000000000000000000000600052604160045260246000fd5b613cc782613aee565b810181811067ffffffffffffffff82111715613ce657613ce5613c8f565b5b80604052505050565b6000613cf96139d0565b9050613d058282613cbe565b919050565b600067ffffffffffffffff821115613d2557613d24613c8f565b5b613d2e82613aee565b9050602081019050919050565b82818337600083830152505050565b6000613d5d613d5884613d0a565b613cef565b905082815260208101848484011115613d7957613d78613c8a565b5b613d84848285613d3b565b509392505050565b600082601f830112613da157613da0613c85565b5b8135613db1848260208601613d4a565b91505092915050565b60008060408385031215613dd157613dd06139da565b5b6000613ddf85828601613b7b565b925050602083013567ffffffffffffffff811115613e0057613dff6139df565b5b613e0c85828601613d8c565b9150509250929050565b613e1f81613b5a565b82525050565b6000602082019050613e3a6000830184613e16565b92915050565b600080600060608486031215613e5957613e586139da565b5b6000613e6786828701613c30565b9350506020613e7886828701613c30565b9250506040613e8986828701613b7b565b9150509250925092565b60008060408385031215613eaa57613ea96139da565b5b6000613eb885828601613b7b565b9250506020613ec985828601613b7b565b9150509250929050565b6000604082019050613ee86000830185613bef565b613ef56020830184613e16565b9392505050565b600067ffffffffffffffff821115613f1757613f16613c8f565b5b602082029050602081019050919050565b600080fd5b6000613f40613f3b84613efc565b613cef565b90508083825260208201905060208402830185811115613f6357613f62613f28565b5b835b81811015613f8c5780613f788882613c30565b845260208401935050602081019050613f65565b5050509392505050565b600082601f830112613fab57613faa613c85565b5b8135613fbb848260208601613f2d565b91505092915050565b600060208284031215613fda57613fd96139da565b5b600082013567ffffffffffffffff811115613ff857613ff76139df565b5b61400484828501613f96565b91505092915050565b60006bffffffffffffffffffffffff82169050919050565b61402e8161400d565b811461403957600080fd5b50565b60008135905061404b81614025565b92915050565b60008060408385031215614068576140676139da565b5b600061407685828601613c30565b92505060206140878582860161403c565b9150509250929050565b600060ff82169050919050565b6140a781614091565b81146140b257600080fd5b50565b6000813590506140c48161409e565b92915050565b6000602082840312156140e0576140df6139da565b5b60006140ee848285016140b5565b91505092915050565b60006020828403121561410d5761410c6139da565b5b600082013567ffffffffffffffff81111561412b5761412a6139df565b5b61413784828501613d8c565b91505092915050565b600060208284031215614156576141556139da565b5b600061416484828501613c30565b91505092915050565b600081519050919050565b600082825260208201905092915050565b6000819050602082019050919050565b6141a281613b5a565b82525050565b60006141b48383614199565b60208301905092915050565b6000602082019050919050565b60006141d88261416d565b6141e28185614178565b93506141ed83614189565b8060005b8381101561421e57815161420588826141a8565b9750614210836141c0565b9250506001810190506141f1565b5085935050505092915050565b6000602082019050818103600083015261424581846141cd565b905092915050565b61425681614091565b82525050565b6000602082019050614271600083018461424d565b92915050565b6000819050919050565b61428a81614277565b82525050565b60006020820190506142a56000830184614281565b92915050565b600080604083850312156142c2576142c16139da565b5b60006142d085828601613b7b565b92505060206142e1858286016140b5565b9150509250929050565b6142f481613a69565b81146142ff57600080fd5b50565b600081359050614311816142eb565b92915050565b6000806040838503121561432e5761432d6139da565b5b600061433c85828601613c30565b925050602061434d85828601614302565b9150509250929050565b600067ffffffffffffffff82111561437257614371613c8f565b5b61437b82613aee565b9050602081019050919050565b600061439b61439684614357565b613cef565b9050828152602081018484840111156143b7576143b6613c8a565b5b6143c2848285613d3b565b509392505050565b600082601f8301126143df576143de613c85565b5b81356143ef848260208601614388565b91505092915050565b60008060008060808587031215614412576144116139da565b5b600061442087828801613c30565b945050602061443187828801613c30565b935050604061444287828801613b7b565b925050606085013567ffffffffffffffff811115614463576144626139df565b5b61446f878288016143ca565b91505092959194509250565b60008060408385031215614492576144916139da565b5b60006144a085828601613c30565b92505060206144b185828601613c30565b9150509250929050565b7f4e487b7100000000000000000000000000000000000000000000000000000000600052602260045260246000fd5b6000600282049050600182168061450257607f821691505b60208210811415614516576145156144bb565b5b50919050565b7f4552433732313a20617070726f76656420717565727920666f72206e6f6e657860008201527f697374656e7420746f6b656e0000000000000000000000000000000000000000602082015250565b6000614578602c83613aaa565b91506145838261451c565b604082019050919050565b600060208201905081810360008301526145a78161456b565b9050919050565b7f4552433732313a20617070726f76616c20746f2063757272656e74206f776e6560008201527f7200000000000000000000000000000000000000000000000000000000000000602082015250565b600061460a602183613aaa565b9150614615826145ae565b604082019050919050565b60006020820190508181036000830152614639816145fd565b9050919050565b7f4552433732313a20617070726f76652063616c6c6572206973206e6f74206f7760008201527f6e6572206e6f7220617070726f76656420666f7220616c6c0000000000000000602082015250565b600061469c603883613aaa565b91506146a782614640565b604082019050919050565b600060208201905081810360008301526146cb8161468f565b9050919050565b7f4f776e61626c653a2063616c6c6572206973206e6f7420746865206f776e6572600082015250565b6000614708602083613aaa565b9150614713826146d2565b602082019050919050565b60006020820190508181036000830152614737816146fb565b9050919050565b600081905092915050565b50565b600061475960008361473e565b915061476482614749565b600082019050919050565b600061477a8261474c565b9150819050919050565b7f4661696c656420746f2057697468647261772045746865720000000000000000600082015250565b60006147ba601883613aaa565b91506147c582614784565b602082019050919050565b600060208201905081810360008301526147e9816147ad565b9050919050565b7f4e487b7100000000000000000000000000000000000000000000000000000000600052601160045260246000fd5b600061482a82613b5a565b915061483583613b5a565b9250827fffffffffffffffffffffffffffffffffffffffffffffffffffffffffffffffff0382111561486a576148696147f0565b5b828201905092915050565b600061488082614091565b915060ff821415614894576148936147f0565b5b600182019050919050565b7f4552433732313a207472616e736665722063616c6c6572206973206e6f74206f60008201527f776e6572206e6f7220617070726f766564000000000000000000000000000000602082015250565b60006148fb603183613aaa565b91506149068261489f565b604082019050919050565b6000602082019050818103600083015261492a816148ee565b9050919050565b600061493c82613b5a565b915061494783613b5a565b9250817fffffffffffffffffffffffffffffffffffffffffffffffffffffffffffffffff04831182151516156149805761497f6147f0565b5b828202905092915050565b7f4e487b7100000000000000000000000000000000000000000000000000000000600052601260045260246000fd5b60006149c582613b5a565b91506149d083613b5a565b9250826149e0576149df61498b565b5b828204905092915050565b7f4e487b7100000000000000000000000000000000000000000000000000000000600052603260045260246000fd5b6000614a2582613b5a565b91507fffffffffffffffffffffffffffffffffffffffffffffffffffffffffffffffff821415614a5857614a576147f0565b5b600182019050919050565b600081905092915050565b60008190508160005260206000209050919050565b60008154614a90816144ea565b614a9a8186614a63565b94506001821660008114614ab55760018114614ac657614af9565b60ff19831686528186019350614af9565b614acf85614a6e565b60005b83811015614af157815481890152600182019150602081019050614ad2565b838801955050505b50505092915050565b7f2f00000000000000000000000000000000000000000000000000000000000000600082015250565b6000614b38600183614a63565b9150614b4382614b02565b600182019050919050565b6000614b5982613a9f565b614b638185614a63565b9350614b73818560208601613abb565b80840191505092915050565b6000614b8b8285614a83565b9150614b9682614b2b565b9150614ba28284614b4e565b91508190509392505050565b7f496e76616c69656420746965724e756d626572206f6620617272617900000000600082015250565b6000614be4601c83613aaa565b9150614bef82614bae565b602082019050919050565b60006020820190508181036000830152614c1381614bd7565b9050919050565b7f4552433732313a206f776e657220717565727920666f72206e6f6e657869737460008201527f656e7420746f6b656e0000000000000000000000000000000000000000000000602082015250565b6000614c76602983613aaa565b9150614c8182614c1a565b604082019050919050565b60006020820190508181036000830152614ca581614c69565b9050919050565b7f4552433732313a2062616c616e636520717565727920666f7220746865207a6560008201527f726f206164647265737300000000000000000000000000000000000000000000602082015250565b6000614d08602a83613aaa565b9150614d1382614cac565b604082019050919050565b60006020820190508181036000830152614d3781614cfb565b9050919050565b7f496e76616c69656420746965724e756d626572206f662061727261792e000000600082015250565b6000614d74601d83613aaa565b9150614d7f82614d3e565b602082019050919050565b60006020820190508181036000830152614da381614d67565b9050919050565b600069ffffffffffffffffffff82169050919050565b614dc981614daa565b8114614dd457600080fd5b50565b600081519050614de681614dc0565b92915050565b614df581614277565b8114614e0057600080fd5b50565b600081519050614e1281614dec565b92915050565b600081519050614e2781613b64565b92915050565b600080600080600060a08688031215614e4957614e486139da565b5b6000614e5788828901614dd7565b9550506020614e6888828901614e03565b9450506040614e7988828901614e18565b9350506060614e8a88828901614e18565b9250506080614e9b88828901614dd7565b9150509295509295909350565b7f54696572207072696365206973206e6f74207365742e00000000000000000000600082015250565b6000614ede601683613aaa565b9150614ee982614ea8565b602082019050919050565b60006020820190508181036000830152614f0d81614ed1565b9050919050565b7f596f7520617265206e6f7420616c6c6f77656420746f20627579206d6f72652060008201527f7468616e203220746f6b656e73206174206f6e63652e00000000000000000000602082015250565b6000614f70603683613aaa565b9150614f7b82614f14565b604082019050919050565b60006020820190508181036000830152614f9f81614f63565b9050919050565b7f4e6f7420656e6f75676820746f6b656e73206c65667420746f206275792e0000600082015250565b6000614fdc601e83613aaa565b9150614fe782614fa6565b602082019050919050565b6000602082019050818103600083015261500b81614fcf565b9050919050565b7f4e6f7420617661696c61626c6520746f206d696e742e00000000000000000000600082015250565b6000615048601683613aaa565b915061505382615012565b602082019050919050565b600060208201905081810360008301526150778161503b565b9050919050565b7f416d6f756e74206f662065746865722073656e74206e6f7420636f727265637460008201527f2e00000000000000000000000000000000000000000000000000000000000000602082015250565b60006150da602183613aaa565b91506150e58261507e565b604082019050919050565b60006020820190508181036000830152615109816150cd565b9050919050565b600061511b82613b5a565b915061512683613b5a565b925082821015615139576151386147f0565b5b828203905092915050565b7f4661696c656420746f20726566756e6400000000000000000000000000000000600082015250565b600061517a601083613aaa565b915061518582615144565b602082019050919050565b600060208201905081810360008301526151a98161516d565b9050919050565b7f4f766572666c6f77206d6178696d756d206d696e74206c696d69746174696f6e60008201527f2e00000000000000000000000000000000000000000000000000000000000000602082015250565b600061520c602183613aaa565b9150615217826151b0565b604082019050919050565b6000602082019050818103600083015261523b816151ff565b9050919050565b7f45524337323155524953746f726167653a2055524920717565727920666f722060008201527f6e6f6e6578697374656e7420746f6b656e000000000000000000000000000000602082015250565b600061529e603183613aaa565b91506152a982615242565b604082019050919050565b600060208201905081810360008301526152cd81615291565b9050919050565b60006152e08285614b4e565b91506152ec8284614b4e565b91508190509392505050565b7f4f776e61626c653a206e6577206f776e657220697320746865207a65726f206160008201527f6464726573730000000000000000000000000000000000000000000000000000602082015250565b6000615354602683613aaa565b915061535f826152f8565b604082019050919050565b6000602082019050818103600083015261538381615347565b9050919050565b7f45524337323155524953746f726167653a2055524920736574206f66206e6f6e60008201527f6578697374656e7420746f6b656e000000000000000000000000000000000000602082015250565b60006153e6602e83613aaa565b91506153f18261538a565b604082019050919050565b60006020820190508181036000830152615415816153d9565b9050919050565b7f4552433732313a206f70657261746f7220717565727920666f72206e6f6e657860008201527f697374656e7420746f6b656e0000000000000000000000000000000000000000602082015250565b6000615478602c83613aaa565b91506154838261541c565b604082019050919050565b600060208201905081810360008301526154a78161546b565b9050919050565b7f4552433732313a207472616e736665722066726f6d20696e636f72726563742060008201527f6f776e6572000000000000000000000000000000000000000000000000000000602082015250565b600061550a602583613aaa565b9150615515826154ae565b604082019050919050565b60006020820190508181036000830152615539816154fd565b9050919050565b7f4552433732313a207472616e7366657220746f20746865207a65726f2061646460008201527f7265737300000000000000000000000000000000000000000000000000000000602082015250565b600061559c602483613aaa565b91506155a782615540565b604082019050919050565b600060208201905081810360008301526155cb8161558f565b9050919050565b60006155dd82614091565b91506155e883614091565b92508260ff038211156155fe576155fd6147f0565b5b828201905092915050565b7f455243323938313a20726f79616c7479206665652077696c6c2065786365656460008201527f2073616c65507269636500000000000000000000000000000000000000000000602082015250565b6000615665602a83613aaa565b915061567082615609565b604082019050919050565b6000602082019050818103600083015261569481615658565b9050919050565b7f455243323938313a20696e76616c696420726563656976657200000000000000600082015250565b60006156d1601983613aaa565b91506156dc8261569b565b602082019050919050565b60006020820190508181036000830152615700816156c4565b9050919050565b7f4552433732313a20617070726f766520746f2063616c6c657200000000000000600082015250565b600061573d601983613aaa565b915061574882615707565b602082019050919050565b6000602082019050818103600083015261576c81615730565b9050919050565b7f4552433732313a207472616e7366657220746f206e6f6e20455243373231526560008201527f63656976657220696d706c656d656e7465720000000000000000000000000000602082015250565b60006157cf603283613aaa565b91506157da82615773565b604082019050919050565b600060208201905081810360008301526157fe816157c2565b9050919050565b7f4552433732313a206d696e7420746f20746865207a65726f2061646472657373600082015250565b600061583b602083613aaa565b915061584682615805565b602082019050919050565b6000602082019050818103600083015261586a8161582e565b9050919050565b7f4552433732313a20746f6b656e20616c7265616479206d696e74656400000000600082015250565b60006158a7601c83613aaa565b91506158b282615871565b602082019050919050565b600060208201905081810360008301526158d68161589a565b9050919050565b7f4552433732314d657461646174613a2055524920717565727920666f72206e6f60008201527f6e6578697374656e7420746f6b656e0000000000000000000000000000000000602082015250565b6000615939602f83613aaa565b9150615944826158dd565b604082019050919050565b600060208201905081810360008301526159688161592c565b9050919050565b600081519050919050565b600082825260208201905092915050565b60006159968261596f565b6159a0818561597a565b93506159b0818560208601613abb565b6159b981613aee565b840191505092915050565b60006080820190506159d96000830187613bef565b6159e66020830186613bef565b6159f36040830185613e16565b8181036060830152615a05818461598b565b905095945050505050565b600081519050615a1f81613a10565b92915050565b600060208284031215615a3b57615a3a6139da565b5b6000615a4984828501615a10565b91505092915050565b6000615a5d82613b5a565b9150615a6883613b5a565b925082615a7857615a7761498b565b5b82820690509291505056fea2646970667358221220f9509cabb20c73d2ab6e5d96c116846b69dddd80b767a2ecd0e256ecca1ff8ad64736f6c634300080b003368747470733a2f2f676174657761792e70696e6174612e636c6f75642f697066732f516d52676d74673754386e4c336950383165673367545764365748556a7337354d34467a47597839637468594367",
  "immutableReferences": {},
  "source": "// SPDX-License-Identifier: MIT\r\npragma solidity >=0.8.9 <0.9.0;\r\n\r\nimport \"@openzeppelin/contracts/access/Ownable.sol\";\r\nimport \"@openzeppelin/contracts/token/ERC721/extensions/ERC721URIStorage.sol\";\r\nimport \"@openzeppelin/contracts/token/common/ERC2981.sol\";\r\nimport \"@openzeppelin/contracts/utils/introspection/ERC165.sol\";\r\nimport \"./IAggregatorV3.sol\";\r\n\r\ncontract FathomyachtClub is ERC721URIStorage, ERC2981, Ownable {\r\n  uint256 private MAX_TOKEN = 10000;\r\n  uint256[] private _tokenIds = [8000, 0, 2000, 4000, 6000];\r\n\r\n  // mapping for token to tier number(0: power, 1: yacht, 2: prestige)\r\n  mapping(uint256 => uint8) private _tokenToTier;\r\n\r\n  // NFT prices in USD, mapping for tier to price(0: power, 1: yacht, 2: prestige)\r\n  uint256[] private NFT_PRICE = [50, 100, 150, 0, 0];\r\n  uint256[] private PRESALE_TIER_MINT_LIMIT = [100, 100, 50, 0, 0];\r\n  uint256[] private PUBLIC_SALE_TIER_MINT_LIMIT = [900, 900, 950, 0, 0];\r\n  string private _tokenBatchURI = \"https://gateway.pinata.cloud/ipfs/QmRgmtg7T8nL3iP81eg3gTWd6WHUjs75M4FzGYx9cthYCg\";\r\n  // 0: presale start block, 1: public sale start block\r\n  uint256[] private EVENT_BLOCK = [10264904, 10437473];\r\n  // Mapping from address to minted number of NFTs(0: power, 1: yacht, 2: prestige)\r\n  mapping(uint8 => uint256) private _preSaleMintCounter;\r\n  // Mapping from address to minted number of NFTs(0: power, 1: yacht, 2: prestige)\r\n  mapping(uint8 => uint256) private _publicSaleMintCounter;\r\n  // Mapping from address to white list flag(1: added, 0: removed)\r\n  mapping(address => uint8) private _whitelister;\r\n  // Mapping that returns tokens array of a holder\r\n  mapping(address => uint256[]) private _tokensOfholder;\r\n\r\n  AggregatorV3Interface internal priceFeed;\r\n\r\n  constructor() ERC721(\"Fathom Yacht Club\", \"FYC\") {\r\n    _setDefaultRoyalty(msg.sender, 1000);\r\n    priceFeed = AggregatorV3Interface(0x8A753747A1Fa494EC906cE90E9f37563A8AF630e);\r\n  }\r\n\r\n  modifier ableMintBatch(uint256 number, uint8 tierNumber) {\r\n    require(NFT_PRICE[tierNumber] != 0, \"Tier price is not set.\");\r\n    require(number <= 2, \"You are not allowed to buy more than 2 tokens at once.\");\r\n    require(tierNumber >= 0 && tierNumber <= 2, \"Invalied tierNumber of array.\");\r\n    require(MAX_TOKEN > number + totalSupply() + 1, \"Not enough tokens left to buy.\");\r\n\r\n    uint8 blockStatus = checkBlock(msg.sender);\r\n    // uint8 blockStatus = 1;\r\n    require(blockStatus > 0, \"Not available to mint.\");\r\n    _;\r\n  }\r\n\r\n  function checkBlock(address pm_address) internal view returns(uint8) {\r\n    uint256 curBlock = block.number;\r\n\r\n    if (curBlock >= EVENT_BLOCK[1]) {\r\n      return 2;\r\n    }\r\n    if (curBlock >= EVENT_BLOCK[0]) {\r\n      if(_whitelister[pm_address]== 1) {\r\n        return 1;\r\n      }\r\n    }\r\n\r\n    return 0;\r\n  }\r\n\r\n  function addWhiteList(address[] memory lsts) public onlyOwner {\r\n    uint256 new_len = lsts.length;\r\n    for(uint256 i=0; i<new_len; i++) {\r\n      _whitelister[lsts[i]] = 1;\r\n    }\r\n  }\r\n\r\n  function getTokensOfHolder(address holder_address) external view returns(uint256[] memory) {\r\n    return _tokensOfholder[holder_address];\r\n  }\r\n\r\n  function removeWhiteList(address[] memory lsts) public onlyOwner {\r\n    uint256 new_len = lsts.length;\r\n    for(uint256 i=0; i<new_len; i++) {\r\n      _whitelister[lsts[i]] = 0;\r\n    }\r\n  }\r\n\r\n  function getTierNumberOf(uint256 _tokenId) public view returns(uint8) {\r\n    return _tokenToTier[_tokenId];\r\n  }\r\n\r\n  function getTierPrice(uint8 tierNumber) public view returns(uint256) {\r\n    require(tierNumber >= 0 && tierNumber <= 2, \"Invalied tierNumber of array\");\r\n    return NFT_PRICE[tierNumber];\r\n  }\r\n\r\n  function setTierPrice(uint256 price, uint8 tierNumber) external onlyOwner {\r\n    require(tierNumber >= 0 && tierNumber <= 2, \"Invalied tierNumber of array.\");\r\n    NFT_PRICE[tierNumber] = price;\r\n  }\r\n\r\n  function getMaxLimit() external view returns(uint256) {\r\n    return MAX_TOKEN;\r\n  }\r\n\r\n  function setMaxLimit(uint256 limit) external onlyOwner {\r\n    MAX_TOKEN = limit;\r\n  }\r\n\r\n  function getTierLimit(uint8 tierNumber) external view returns(uint256) {\r\n    require(tierNumber >= 0 && tierNumber <= 2, \"Invalied tierNumber of array.\");\r\n\r\n    uint256 curBlock = block.number;\r\n    if (curBlock >= EVENT_BLOCK[1]) {\r\n      return PUBLIC_SALE_TIER_MINT_LIMIT[tierNumber];\r\n    }\r\n    if (curBlock >= EVENT_BLOCK[0]) {\r\n      return PRESALE_TIER_MINT_LIMIT[tierNumber];\r\n    }\r\n\r\n    return 0;\r\n  }\r\n\r\n  function setTierMintLimit(uint256 limit, uint8 tierNumber) external onlyOwner {\r\n    require(tierNumber >= 0 && tierNumber <= 2, \"Invalied tierNumber of array.\");\r\n\r\n    uint256 curBlock = block.number;\r\n    if (curBlock >= EVENT_BLOCK[1]) {\r\n      PUBLIC_SALE_TIER_MINT_LIMIT[tierNumber] = limit;\r\n    }\r\n    if (curBlock >= EVENT_BLOCK[0]) {\r\n      PRESALE_TIER_MINT_LIMIT[tierNumber] = limit;\r\n    }\r\n  }\r\n\r\n  function withDraw() external onlyOwner {\r\n    address payable tgt = payable(owner());\r\n    (bool success1, ) = tgt.call{value:address(this).balance}(\"\");\r\n    require(success1, \"Failed to Withdraw Ether\");\r\n  }\r\n\r\n  function getTokenURI(uint256 _tokenId) public view returns(string memory) {\r\n    return string(abi.encodePacked(_tokenBatchURI, '/', uint2str(_tokenId)));\r\n  }\r\n\r\n  function setTokenBatchURI(string memory _batchTokenURI) external onlyOwner {\r\n    _tokenBatchURI = _batchTokenURI;\r\n  }\r\n\r\n  function setTokenURI(uint256 number, string memory tokenURI) public onlyOwner {\r\n    _setTokenURI(number, tokenURI);\r\n  }\r\n\r\n  function mintBatch(uint256 number, uint8 tierNumber) public payable ableMintBatch(number, tierNumber) returns(uint256) {\r\n    require(msg.value >= ((NFT_PRICE[tierNumber] * number) * (10 ** 26)) / uint256(getLatestPrice()), \"Amount of ether sent not correct.\");\r\n\r\n    // refund the remainder\r\n    address payable tgt = payable(msg.sender);\r\n    (bool success1, ) = tgt.call{ value: msg.value - (((NFT_PRICE[tierNumber] * number) * (10 ** 26)) / uint256(getLatestPrice())) }(\"\");\r\n    require(success1, \"Failed to refund\");\r\n\r\n    uint256[] storage tierMintLimit = PRESALE_TIER_MINT_LIMIT;\r\n    mapping(uint8 => uint256) storage tierMintCounter = _preSaleMintCounter;\r\n    uint256 curBlock = block.number;\r\n\r\n    // use public sale variables if the current date is after public sale started\r\n    if (curBlock >= EVENT_BLOCK[1]) {\r\n      tierMintLimit = PUBLIC_SALE_TIER_MINT_LIMIT;\r\n      tierMintCounter = _publicSaleMintCounter;\r\n    }\r\n    require(tierMintCounter[tierNumber] + number < tierMintLimit[tierNumber], \"Overflow maximum mint limitation.\");\r\n\r\n    uint256 newItemId = 0;\r\n    // set where start the tokenIds to be incremented\r\n\r\n    for (uint256 i = 0; i < number; i++) {\r\n      _tokenIds[tierNumber]++;\r\n      newItemId = _tokenIds[tierNumber];\r\n      _mint(msg.sender, newItemId);\r\n      _tokenToTier[newItemId] = tierNumber;\r\n      _tokensOfholder[msg.sender].push(newItemId);\r\n      _setTokenURI(newItemId, getTokenURI(newItemId));\r\n    }\r\n\r\n    tierMintCounter[tierNumber] = tierMintCounter[tierNumber] + number;\r\n\r\n    return newItemId;\r\n  }\r\n\r\n  function totalSupply() public view returns(uint256) {\r\n    uint256 total = 0;\r\n    for(uint8 i = 0; i < 5; i++) {\r\n      total += (_preSaleMintCounter[i] + _publicSaleMintCounter[i]);\r\n    }\r\n    \r\n    return total;\r\n  }\r\n\r\n  function supportsInterface(bytes4 interfaceId) public view virtual override(ERC721, ERC2981) returns (bool) {\r\n    return super.supportsInterface(interfaceId);\r\n  }\r\n\r\n  /**\r\n    * @dev See {ERC721-_burn}. This override additionally clears the royalty information for the token.\r\n    */\r\n  function _burn(uint256 tokenId) internal virtual override {\r\n    super._burn(tokenId);\r\n    _resetTokenRoyalty(tokenId);\r\n  }\r\n\r\n  function setRoality(address receiver, uint96 feeNumerator) external onlyOwner {\r\n    _setDefaultRoyalty(receiver, feeNumerator);\r\n  }\r\n\r\n  function getLatestPrice() public view returns (int) {\r\n    (\r\n      ,\r\n      int price,\r\n      ,\r\n      ,\r\n      \r\n    ) = priceFeed.latestRoundData();\r\n    return price;\r\n  }\r\n\r\n  // use this for test purpose and delete when deploy on the mainnet\r\n  function getLocalPrice() public pure returns (int) {\r\n    int price = 257508605065;\r\n    return price;\r\n  }\r\n\r\n  function uint2str(uint _i) internal pure returns (string memory _uintAsString) {\r\n    string memory prefix = '';\r\n    if (_i == 0) {\r\n      return \"0\";\r\n    }\r\n    else if (_i > 0 && _i < 10) {\r\n      prefix = '0000';\r\n    }\r\n    else if (_i >= 10 && _i < 100) {\r\n      prefix = '000';\r\n    }\r\n    else if (_i >= 100 && _i < 1000) {\r\n      prefix = '00';\r\n    }\r\n    else if (_i >= 1000 && _i < 10000) {\r\n      prefix = '0';\r\n    }\r\n\r\n    uint j = _i;\r\n    uint len;\r\n    while (j != 0) {\r\n      len++;\r\n      j /= 10;\r\n    }\r\n    bytes memory bstr = new bytes(len);\r\n    uint k = len;\r\n    while (_i != 0) {\r\n      k = k-1;\r\n      uint8 temp = (48 + uint8(_i - _i / 10 * 10));\r\n      bytes1 b1 = bytes1(temp);\r\n      bstr[k] = b1;\r\n      _i /= 10;\r\n    }\r\n\r\n    return string(abi.encodePacked(prefix, string(bstr)));\r\n  }\r\n}\r\n",
  "sourcePath": "F:\\www-2022\\fathonclub-work\\app\\contracts\\FathomyachtClub.sol",
  "compiler": {
    "name": "solc",
    "version": "0.8.11+commit.d7f03943.Emscripten.clang"
  },
  "schemaVersion": "3.4.5",
  "updatedAt": "2022-03-15T16:42:21.032Z",
  "devdoc": {
    "kind": "dev",
    "methods": {
      "approve(address,uint256)": {
        "details": "See {IERC721-approve}."
      },
      "balanceOf(address)": {
        "details": "See {IERC721-balanceOf}."
      },
      "getApproved(uint256)": {
        "details": "See {IERC721-getApproved}."
      },
      "isApprovedForAll(address,address)": {
        "details": "See {IERC721-isApprovedForAll}."
      },
      "name()": {
        "details": "See {IERC721Metadata-name}."
      },
      "owner()": {
        "details": "Returns the address of the current owner."
      },
      "ownerOf(uint256)": {
        "details": "See {IERC721-ownerOf}."
      },
      "renounceOwnership()": {
        "details": "Leaves the contract without owner. It will not be possible to call `onlyOwner` functions anymore. Can only be called by the current owner. NOTE: Renouncing ownership will leave the contract without an owner, thereby removing any functionality that is only available to the owner."
      },
      "royaltyInfo(uint256,uint256)": {
        "details": "Returns how much royalty is owed and to whom, based on a sale price that may be denominated in any unit of exchange. The royalty amount is denominated and should be payed in that same unit of exchange."
      },
      "safeTransferFrom(address,address,uint256)": {
        "details": "See {IERC721-safeTransferFrom}."
      },
      "safeTransferFrom(address,address,uint256,bytes)": {
        "details": "See {IERC721-safeTransferFrom}."
      },
      "setApprovalForAll(address,bool)": {
        "details": "See {IERC721-setApprovalForAll}."
      },
      "symbol()": {
        "details": "See {IERC721Metadata-symbol}."
      },
      "tokenURI(uint256)": {
        "details": "See {IERC721Metadata-tokenURI}."
      },
      "transferFrom(address,address,uint256)": {
        "details": "See {IERC721-transferFrom}."
      },
      "transferOwnership(address)": {
        "details": "Transfers ownership of the contract to a new account (`newOwner`). Can only be called by the current owner."
      }
    },
    "version": 1
  },
  "userdoc": {
    "kind": "user",
    "methods": {},
    "version": 1
  }
}