{
  "contractName": "FathomyachtClub",
  "abi": [
    {
      "inputs": [],
      "stateMutability": "nonpayable",
      "type": "constructor"
    },
    {
      "anonymous": false,
      "inputs": [
        {
          "indexed": true,
          "internalType": "address",
          "name": "owner",
          "type": "address"
        },
        {
          "indexed": true,
          "internalType": "address",
          "name": "approved",
          "type": "address"
        },
        {
          "indexed": true,
          "internalType": "uint256",
          "name": "tokenId",
          "type": "uint256"
        }
      ],
      "name": "Approval",
      "type": "event"
    },
    {
      "anonymous": false,
      "inputs": [
        {
          "indexed": true,
          "internalType": "address",
          "name": "owner",
          "type": "address"
        },
        {
          "indexed": true,
          "internalType": "address",
          "name": "operator",
          "type": "address"
        },
        {
          "indexed": false,
          "internalType": "bool",
          "name": "approved",
          "type": "bool"
        }
      ],
      "name": "ApprovalForAll",
      "type": "event"
    },
    {
      "anonymous": false,
      "inputs": [
        {
          "indexed": true,
          "internalType": "address",
          "name": "previousOwner",
          "type": "address"
        },
        {
          "indexed": true,
          "internalType": "address",
          "name": "newOwner",
          "type": "address"
        }
      ],
      "name": "OwnershipTransferred",
      "type": "event"
    },
    {
      "anonymous": false,
      "inputs": [
        {
          "indexed": true,
          "internalType": "address",
          "name": "from",
          "type": "address"
        },
        {
          "indexed": true,
          "internalType": "address",
          "name": "to",
          "type": "address"
        },
        {
          "indexed": true,
          "internalType": "uint256",
          "name": "tokenId",
          "type": "uint256"
        }
      ],
      "name": "Transfer",
      "type": "event"
    },
    {
      "inputs": [
        {
          "internalType": "address",
          "name": "to",
          "type": "address"
        },
        {
          "internalType": "uint256",
          "name": "tokenId",
          "type": "uint256"
        }
      ],
      "name": "approve",
      "outputs": [],
      "stateMutability": "nonpayable",
      "type": "function"
    },
    {
      "inputs": [
        {
          "internalType": "address",
          "name": "owner",
          "type": "address"
        }
      ],
      "name": "balanceOf",
      "outputs": [
        {
          "internalType": "uint256",
          "name": "",
          "type": "uint256"
        }
      ],
      "stateMutability": "view",
      "type": "function"
    },
    {
      "inputs": [
        {
          "internalType": "uint256",
          "name": "tokenId",
          "type": "uint256"
        }
      ],
      "name": "getApproved",
      "outputs": [
        {
          "internalType": "address",
          "name": "",
          "type": "address"
        }
      ],
      "stateMutability": "view",
      "type": "function"
    },
    {
      "inputs": [
        {
          "internalType": "address",
          "name": "owner",
          "type": "address"
        },
        {
          "internalType": "address",
          "name": "operator",
          "type": "address"
        }
      ],
      "name": "isApprovedForAll",
      "outputs": [
        {
          "internalType": "bool",
          "name": "",
          "type": "bool"
        }
      ],
      "stateMutability": "view",
      "type": "function"
    },
    {
      "inputs": [],
      "name": "name",
      "outputs": [
        {
          "internalType": "string",
          "name": "",
          "type": "string"
        }
      ],
      "stateMutability": "view",
      "type": "function"
    },
    {
      "inputs": [],
      "name": "owner",
      "outputs": [
        {
          "internalType": "address",
          "name": "",
          "type": "address"
        }
      ],
      "stateMutability": "view",
      "type": "function"
    },
    {
      "inputs": [
        {
          "internalType": "uint256",
          "name": "tokenId",
          "type": "uint256"
        }
      ],
      "name": "ownerOf",
      "outputs": [
        {
          "internalType": "address",
          "name": "",
          "type": "address"
        }
      ],
      "stateMutability": "view",
      "type": "function"
    },
    {
      "inputs": [],
      "name": "renounceOwnership",
      "outputs": [],
      "stateMutability": "nonpayable",
      "type": "function"
    },
    {
      "inputs": [
        {
          "internalType": "uint256",
          "name": "_tokenId",
          "type": "uint256"
        },
        {
          "internalType": "uint256",
          "name": "_salePrice",
          "type": "uint256"
        }
      ],
      "name": "royaltyInfo",
      "outputs": [
        {
          "internalType": "address",
          "name": "",
          "type": "address"
        },
        {
          "internalType": "uint256",
          "name": "",
          "type": "uint256"
        }
      ],
      "stateMutability": "view",
      "type": "function"
    },
    {
      "inputs": [
        {
          "internalType": "address",
          "name": "from",
          "type": "address"
        },
        {
          "internalType": "address",
          "name": "to",
          "type": "address"
        },
        {
          "internalType": "uint256",
          "name": "tokenId",
          "type": "uint256"
        }
      ],
      "name": "safeTransferFrom",
      "outputs": [],
      "stateMutability": "nonpayable",
      "type": "function"
    },
    {
      "inputs": [
        {
          "internalType": "address",
          "name": "from",
          "type": "address"
        },
        {
          "internalType": "address",
          "name": "to",
          "type": "address"
        },
        {
          "internalType": "uint256",
          "name": "tokenId",
          "type": "uint256"
        },
        {
          "internalType": "bytes",
          "name": "_data",
          "type": "bytes"
        }
      ],
      "name": "safeTransferFrom",
      "outputs": [],
      "stateMutability": "nonpayable",
      "type": "function"
    },
    {
      "inputs": [
        {
          "internalType": "address",
          "name": "operator",
          "type": "address"
        },
        {
          "internalType": "bool",
          "name": "approved",
          "type": "bool"
        }
      ],
      "name": "setApprovalForAll",
      "outputs": [],
      "stateMutability": "nonpayable",
      "type": "function"
    },
    {
      "inputs": [],
      "name": "symbol",
      "outputs": [
        {
          "internalType": "string",
          "name": "",
          "type": "string"
        }
      ],
      "stateMutability": "view",
      "type": "function"
    },
    {
      "inputs": [
        {
          "internalType": "uint256",
          "name": "tokenId",
          "type": "uint256"
        }
      ],
      "name": "tokenURI",
      "outputs": [
        {
          "internalType": "string",
          "name": "",
          "type": "string"
        }
      ],
      "stateMutability": "view",
      "type": "function"
    },
    {
      "inputs": [
        {
          "internalType": "address",
          "name": "from",
          "type": "address"
        },
        {
          "internalType": "address",
          "name": "to",
          "type": "address"
        },
        {
          "internalType": "uint256",
          "name": "tokenId",
          "type": "uint256"
        }
      ],
      "name": "transferFrom",
      "outputs": [],
      "stateMutability": "nonpayable",
      "type": "function"
    },
    {
      "inputs": [
        {
          "internalType": "address",
          "name": "newOwner",
          "type": "address"
        }
      ],
      "name": "transferOwnership",
      "outputs": [],
      "stateMutability": "nonpayable",
      "type": "function"
    },
    {
      "inputs": [
        {
          "internalType": "address[]",
          "name": "lsts",
          "type": "address[]"
        }
      ],
      "name": "addWhiteList",
      "outputs": [],
      "stateMutability": "nonpayable",
      "type": "function"
    },
    {
      "inputs": [
        {
          "internalType": "address[]",
          "name": "lsts",
          "type": "address[]"
        }
      ],
      "name": "removeWhiteList",
      "outputs": [],
      "stateMutability": "nonpayable",
      "type": "function"
    },
    {
      "inputs": [
        {
          "internalType": "uint256",
          "name": "_tokenId",
          "type": "uint256"
        }
      ],
      "name": "getTierNumberOf",
      "outputs": [
        {
          "internalType": "uint8",
          "name": "",
          "type": "uint8"
        }
      ],
      "stateMutability": "view",
      "type": "function"
    },
    {
      "inputs": [
        {
          "internalType": "uint8",
          "name": "tierNumber",
          "type": "uint8"
        }
      ],
      "name": "getTierPrice",
      "outputs": [
        {
          "internalType": "uint256",
          "name": "",
          "type": "uint256"
        }
      ],
      "stateMutability": "view",
      "type": "function"
    },
    {
      "inputs": [
        {
          "internalType": "uint256",
          "name": "price",
          "type": "uint256"
        },
        {
          "internalType": "uint8",
          "name": "tierNumber",
          "type": "uint8"
        }
      ],
      "name": "setTierPrice",
      "outputs": [],
      "stateMutability": "nonpayable",
      "type": "function"
    },
    {
      "inputs": [],
      "name": "getMaxLimit",
      "outputs": [
        {
          "internalType": "uint256",
          "name": "",
          "type": "uint256"
        }
      ],
      "stateMutability": "view",
      "type": "function"
    },
    {
      "inputs": [
        {
          "internalType": "uint256",
          "name": "limit",
          "type": "uint256"
        }
      ],
      "name": "setMaxLimit",
      "outputs": [],
      "stateMutability": "nonpayable",
      "type": "function"
    },
    {
      "inputs": [
        {
          "internalType": "uint8",
          "name": "tierNumber",
          "type": "uint8"
        }
      ],
      "name": "getTierLimit",
      "outputs": [
        {
          "internalType": "uint256",
          "name": "",
          "type": "uint256"
        }
      ],
      "stateMutability": "view",
      "type": "function"
    },
    {
      "inputs": [
        {
          "internalType": "uint256",
          "name": "limit",
          "type": "uint256"
        },
        {
          "internalType": "uint8",
          "name": "tierNumber",
          "type": "uint8"
        }
      ],
      "name": "setTierMintLimit",
      "outputs": [],
      "stateMutability": "nonpayable",
      "type": "function"
    },
    {
      "inputs": [],
      "name": "withDraw",
      "outputs": [],
      "stateMutability": "nonpayable",
      "type": "function"
    },
    {
      "inputs": [
        {
          "internalType": "uint256",
          "name": "number",
          "type": "uint256"
        },
        {
          "internalType": "string",
          "name": "tokenURI",
          "type": "string"
        }
      ],
      "name": "setTokenURI",
      "outputs": [],
      "stateMutability": "nonpayable",
      "type": "function"
    },
    {
      "inputs": [
        {
          "internalType": "uint256",
          "name": "number",
          "type": "uint256"
        },
        {
          "internalType": "uint8",
          "name": "tierNumber",
          "type": "uint8"
        }
      ],
      "name": "mintBatch",
      "outputs": [
        {
          "internalType": "uint256",
          "name": "",
          "type": "uint256"
        }
      ],
      "stateMutability": "payable",
      "type": "function"
    },
    {
      "inputs": [],
      "name": "totalSupply",
      "outputs": [
        {
          "internalType": "uint256",
          "name": "",
          "type": "uint256"
        }
      ],
      "stateMutability": "view",
      "type": "function"
    },
    {
      "inputs": [
        {
          "internalType": "bytes4",
          "name": "interfaceId",
          "type": "bytes4"
        }
      ],
      "name": "supportsInterface",
      "outputs": [
        {
          "internalType": "bool",
          "name": "",
          "type": "bool"
        }
      ],
      "stateMutability": "view",
      "type": "function"
    },
    {
      "inputs": [
        {
          "internalType": "address",
          "name": "receiver",
          "type": "address"
        },
        {
          "internalType": "uint96",
          "name": "feeNumerator",
          "type": "uint96"
        }
      ],
      "name": "setRoality",
      "outputs": [],
      "stateMutability": "nonpayable",
      "type": "function"
    },
    {
      "inputs": [],
      "name": "getLatestPrice",
      "outputs": [
        {
          "internalType": "int256",
          "name": "",
          "type": "int256"
        }
      ],
      "stateMutability": "view",
      "type": "function"
    }
  ],
  "bytecode": "0x6080604052611f40600b556000600c556000600d556000600e556040518060600160405280603260ff168152602001606460ff168152602001609660ff16815250601090600362000052929190620004be565b506040518060600160405280606460ff168152602001606460ff168152602001603260ff1681525060119060036200008c929190620004be565b50604051806060016040528061038461ffff16815260200161038461ffff1681526020016103b661ffff168152506012906003620000cc92919062000515565b506040518060400160405280629ca14862ffffff168152602001629f436162ffffff168152506013906002620001049291906200056d565b503480156200011257600080fd5b506040518060400160405280601181526020017f466174686f6d20596163687420436c75620000000000000000000000000000008152506040518060400160405280600381526020017f4659430000000000000000000000000000000000000000000000000000000000815250816000908051906020019062000197929190620005c6565b508060019080519060200190620001b0929190620005c6565b505050620001d3620001c76200024260201b60201c565b6200024a60201b60201c565b620001e7336103e86200031060201b60201c565b738a753747a1fa494ec906ce90e9f37563a8af630e601760006101000a81548173ffffffffffffffffffffffffffffffffffffffff021916908373ffffffffffffffffffffffffffffffffffffffff160217905550620007f6565b600033905090565b6000600960009054906101000a900473ffffffffffffffffffffffffffffffffffffffff16905081600960006101000a81548173ffffffffffffffffffffffffffffffffffffffff021916908373ffffffffffffffffffffffffffffffffffffffff1602179055508173ffffffffffffffffffffffffffffffffffffffff168173ffffffffffffffffffffffffffffffffffffffff167f8be0079c531659141344cd1fd0a4f28419497f9722a3daafe3b4186f6b6457e060405160405180910390a35050565b62000320620004b460201b60201c565b6bffffffffffffffffffffffff16816bffffffffffffffffffffffff16111562000381576040517f08c379a00000000000000000000000000000000000000000000000000000000081526004016200037890620006fd565b60405180910390fd5b600073ffffffffffffffffffffffffffffffffffffffff168273ffffffffffffffffffffffffffffffffffffffff161415620003f4576040517f08c379a0000000000000000000000000000000000000000000000000000000008152600401620003eb906200076f565b60405180910390fd5b60405180604001604052808373ffffffffffffffffffffffffffffffffffffffff168152602001826bffffffffffffffffffffffff16815250600760008201518160000160006101000a81548173ffffffffffffffffffffffffffffffffffffffff021916908373ffffffffffffffffffffffffffffffffffffffff16021790555060208201518160000160146101000a8154816bffffffffffffffffffffffff02191690836bffffffffffffffffffffffff1602179055509050505050565b6000612710905090565b82805482825590600052602060002090810192821562000502579160200282015b8281111562000501578251829060ff16905591602001919060010190620004df565b5b50905062000511919062000657565b5090565b8280548282559060005260206000209081019282156200055a579160200282015b8281111562000559578251829061ffff1690559160200191906001019062000536565b5b50905062000569919062000657565b5090565b828054828255906000526020600020908101928215620005b3579160200282015b82811115620005b2578251829062ffffff169055916020019190600101906200058e565b5b509050620005c2919062000657565b5090565b828054620005d490620007c0565b90600052602060002090601f016020900481019282620005f8576000855562000644565b82601f106200061357805160ff191683800117855562000644565b8280016001018555821562000644579182015b828111156200064357825182559160200191906001019062000626565b5b50905062000653919062000657565b5090565b5b808211156200067257600081600090555060010162000658565b5090565b600082825260208201905092915050565b7f455243323938313a20726f79616c7479206665652077696c6c2065786365656460008201527f2073616c65507269636500000000000000000000000000000000000000000000602082015250565b6000620006e5602a8362000676565b9150620006f28262000687565b604082019050919050565b600060208201905081810360008301526200071881620006d6565b9050919050565b7f455243323938313a20696e76616c696420726563656976657200000000000000600082015250565b60006200075760198362000676565b915062000764826200071f565b602082019050919050565b600060208201905081810360008301526200078a8162000748565b9050919050565b7f4e487b7100000000000000000000000000000000000000000000000000000000600052602260045260246000fd5b60006002820490506001821680620007d957607f821691505b60208210811415620007f057620007ef62000791565b5b50919050565b6151c480620008066000396000f3fe6080604052600436106101e35760003560e01c806370a0823111610102578063b88d4fde11610095578063ddce569f11610064578063ddce569f14610706578063df6d48431461072f578063e985e9c51461075a578063f2fde38b14610797576101e3565b8063b88d4fde14610647578063bf8bcee414610670578063c1a071f114610699578063c87b56dd146106c9576101e3565b80638e15f473116100d15780638e15f4731461059f578063956c9c6d146105ca57806395d89b41146105f3578063a22cb4651461061e576101e3565b806370a08231146104e3578063715018a614610520578063856e679c146105375780638da5cb5b14610574576101e3565b80632a55205a1161017a5780635586402d116101495780635586402d146104035780635e1045ec146104405780636352211e14610469578063669aa2a3146104a6576101e3565b80632a55205a1461034a578063397457911461038857806342842e0e146103b15780634815df1d146103da576101e3565b80630fdb1c10116101b65780630fdb1c10146102b6578063162094c4146102cd57806318160ddd146102f657806323b872dd14610321576101e3565b806301ffc9a7146101e857806306fdde0314610225578063081812fc14610250578063095ea7b31461028d575b600080fd5b3480156101f457600080fd5b5061020f600480360381019061020a91906133e0565b6107c0565b60405161021c9190613428565b60405180910390f35b34801561023157600080fd5b5061023a6107d2565b60405161024791906134dc565b60405180910390f35b34801561025c57600080fd5b5061027760048036038101906102729190613534565b610864565b60405161028491906135a2565b60405180910390f35b34801561029957600080fd5b506102b460048036038101906102af91906135e9565b6108e9565b005b3480156102c257600080fd5b506102cb610a01565b005b3480156102d957600080fd5b506102f460048036038101906102ef919061375e565b610b39565b005b34801561030257600080fd5b5061030b610bc3565b60405161031891906137c9565b60405180910390f35b34801561032d57600080fd5b50610348600480360381019061034391906137e4565b610bd4565b005b34801561035657600080fd5b50610371600480360381019061036c9190613837565b610c34565b60405161037f929190613877565b60405180910390f35b34801561039457600080fd5b506103af60048036038101906103aa9190613968565b610e1f565b005b3480156103bd57600080fd5b506103d860048036038101906103d391906137e4565b610f37565b005b3480156103e657600080fd5b5061040160048036038101906103fc91906139f5565b610f57565b005b34801561040f57600080fd5b5061042a60048036038101906104259190613a6e565b610fe1565b60405161043791906137c9565b60405180910390f35b34801561044c57600080fd5b5061046760048036038101906104629190613968565b611062565b005b34801561047557600080fd5b50610490600480360381019061048b9190613534565b61117a565b60405161049d91906135a2565b60405180910390f35b3480156104b257600080fd5b506104cd60048036038101906104c89190613534565b61122c565b6040516104da9190613aaa565b60405180910390f35b3480156104ef57600080fd5b5061050a60048036038101906105059190613ac5565b611256565b60405161051791906137c9565b60405180910390f35b34801561052c57600080fd5b5061053561130e565b005b34801561054357600080fd5b5061055e60048036038101906105599190613a6e565b611396565b60405161056b91906137c9565b60405180910390f35b34801561058057600080fd5b5061058961149e565b60405161059691906135a2565b60405180910390f35b3480156105ab57600080fd5b506105b46114c8565b6040516105c19190613b0b565b60405180910390f35b3480156105d657600080fd5b506105f160048036038101906105ec9190613b26565b611569565b005b3480156105ff57600080fd5b50610608611666565b60405161061591906134dc565b60405180910390f35b34801561062a57600080fd5b5061064560048036038101906106409190613b92565b6116f8565b005b34801561065357600080fd5b5061066e60048036038101906106699190613c73565b61170e565b005b34801561067c57600080fd5b5061069760048036038101906106929190613534565b611770565b005b6106b360048036038101906106ae9190613b26565b6117f6565b6040516106c091906137c9565b60405180910390f35b3480156106d557600080fd5b506106f060048036038101906106eb9190613534565b611cfb565b6040516106fd91906134dc565b60405180910390f35b34801561071257600080fd5b5061072d60048036038101906107289190613b26565b611e4d565b005b34801561073b57600080fd5b50610744611fc4565b60405161075191906137c9565b60405180910390f35b34801561076657600080fd5b50610781600480360381019061077c9190613cf6565b611fce565b60405161078e9190613428565b60405180910390f35b3480156107a357600080fd5b506107be60048036038101906107b99190613ac5565b612062565b005b60006107cb8261215a565b9050919050565b6060600080546107e190613d65565b80601f016020809104026020016040519081016040528092919081815260200182805461080d90613d65565b801561085a5780601f1061082f5761010080835404028352916020019161085a565b820191906000526020600020905b81548152906001019060200180831161083d57829003601f168201915b5050505050905090565b600061086f826121d4565b6108ae576040517f08c379a00000000000000000000000000000000000000000000000000000000081526004016108a590613e09565b60405180910390fd5b6004600083815260200190815260200160002060009054906101000a900473ffffffffffffffffffffffffffffffffffffffff169050919050565b60006108f48261117a565b90508073ffffffffffffffffffffffffffffffffffffffff168373ffffffffffffffffffffffffffffffffffffffff161415610965576040517f08c379a000000000000000000000000000000000000000000000000000000000815260040161095c90613e9b565b60405180910390fd5b8073ffffffffffffffffffffffffffffffffffffffff16610984612240565b73ffffffffffffffffffffffffffffffffffffffff1614806109b357506109b2816109ad612240565b611fce565b5b6109f2576040517f08c379a00000000000000000000000000000000000000000000000000000000081526004016109e990613f2d565b60405180910390fd5b6109fc8383612248565b505050565b610a09612240565b73ffffffffffffffffffffffffffffffffffffffff16610a2761149e565b73ffffffffffffffffffffffffffffffffffffffff1614610a7d576040517f08c379a0000000000000000000000000000000000000000000000000000000008152600401610a7490613f99565b60405180910390fd5b6000610a8761149e565b905060008173ffffffffffffffffffffffffffffffffffffffff1647604051610aaf90613fea565b60006040518083038185875af1925050503d8060008114610aec576040519150601f19603f3d011682016040523d82523d6000602084013e610af1565b606091505b5050905080610b35576040517f08c379a0000000000000000000000000000000000000000000000000000000008152600401610b2c9061404b565b60405180910390fd5b5050565b610b41612240565b73ffffffffffffffffffffffffffffffffffffffff16610b5f61149e565b73ffffffffffffffffffffffffffffffffffffffff1614610bb5576040517f08c379a0000000000000000000000000000000000000000000000000000000008152600401610bac90613f99565b60405180910390fd5b610bbf8282612301565b5050565b6000610bcf600a612375565b905090565b610be5610bdf612240565b82612383565b610c24576040517f08c379a0000000000000000000000000000000000000000000000000000000008152600401610c1b906140dd565b60405180910390fd5b610c2f838383612461565b505050565b6000806000600860008681526020019081526020016000206040518060400160405290816000820160009054906101000a900473ffffffffffffffffffffffffffffffffffffffff1673ffffffffffffffffffffffffffffffffffffffff1673ffffffffffffffffffffffffffffffffffffffff1681526020016000820160149054906101000a90046bffffffffffffffffffffffff166bffffffffffffffffffffffff166bffffffffffffffffffffffff16815250509050600073ffffffffffffffffffffffffffffffffffffffff16816000015173ffffffffffffffffffffffffffffffffffffffff161415610dca5760076040518060400160405290816000820160009054906101000a900473ffffffffffffffffffffffffffffffffffffffff1673ffffffffffffffffffffffffffffffffffffffff1673ffffffffffffffffffffffffffffffffffffffff1681526020016000820160149054906101000a90046bffffffffffffffffffffffff166bffffffffffffffffffffffff166bffffffffffffffffffffffff168152505090505b6000610dd46126c8565b6bffffffffffffffffffffffff1682602001516bffffffffffffffffffffffff1686610e00919061412c565b610e0a91906141b5565b90508160000151819350935050509250929050565b610e27612240565b73ffffffffffffffffffffffffffffffffffffffff16610e4561149e565b73ffffffffffffffffffffffffffffffffffffffff1614610e9b576040517f08c379a0000000000000000000000000000000000000000000000000000000008152600401610e9290613f99565b60405180910390fd5b60008151905060005b81811015610f3257600060166000858481518110610ec557610ec46141e6565b5b602002602001015173ffffffffffffffffffffffffffffffffffffffff1673ffffffffffffffffffffffffffffffffffffffff16815260200190815260200160002060006101000a81548160ff021916908360ff1602179055508080610f2a90614215565b915050610ea4565b505050565b610f528383836040518060200160405280600081525061170e565b505050565b610f5f612240565b73ffffffffffffffffffffffffffffffffffffffff16610f7d61149e565b73ffffffffffffffffffffffffffffffffffffffff1614610fd3576040517f08c379a0000000000000000000000000000000000000000000000000000000008152600401610fca90613f99565b60405180910390fd5b610fdd82826126d2565b5050565b6000808260ff1610158015610ffa575060028260ff1611155b611039576040517f08c379a0000000000000000000000000000000000000000000000000000000008152600401611030906142aa565b60405180910390fd5b60108260ff16815481106110505761104f6141e6565b5b90600052602060002001549050919050565b61106a612240565b73ffffffffffffffffffffffffffffffffffffffff1661108861149e565b73ffffffffffffffffffffffffffffffffffffffff16146110de576040517f08c379a00000000000000000000000000000000000000000000000000000000081526004016110d590613f99565b60405180910390fd5b60008151905060005b8181101561117557600160166000858481518110611108576111076141e6565b5b602002602001015173ffffffffffffffffffffffffffffffffffffffff1673ffffffffffffffffffffffffffffffffffffffff16815260200190815260200160002060006101000a81548160ff021916908360ff160217905550808061116d90614215565b9150506110e7565b505050565b6000806002600084815260200190815260200160002060009054906101000a900473ffffffffffffffffffffffffffffffffffffffff169050600073ffffffffffffffffffffffffffffffffffffffff168173ffffffffffffffffffffffffffffffffffffffff161415611223576040517f08c379a000000000000000000000000000000000000000000000000000000000815260040161121a9061433c565b60405180910390fd5b80915050919050565b6000600f600083815260200190815260200160002060009054906101000a900460ff169050919050565b60008073ffffffffffffffffffffffffffffffffffffffff168273ffffffffffffffffffffffffffffffffffffffff1614156112c7576040517f08c379a00000000000000000000000000000000000000000000000000000000081526004016112be906143ce565b60405180910390fd5b600360008373ffffffffffffffffffffffffffffffffffffffff1673ffffffffffffffffffffffffffffffffffffffff168152602001908152602001600020549050919050565b611316612240565b73ffffffffffffffffffffffffffffffffffffffff1661133461149e565b73ffffffffffffffffffffffffffffffffffffffff161461138a576040517f08c379a000000000000000000000000000000000000000000000000000000000815260040161138190613f99565b60405180910390fd5b6113946000612868565b565b6000808260ff16101580156113af575060028260ff1611155b6113ee576040517f08c379a00000000000000000000000000000000000000000000000000000000081526004016113e59061443a565b60405180910390fd5b60004390506013600181548110611408576114076141e6565b5b906000526020600020015481106114435760128360ff16815481106114305761142f6141e6565b5b9060005260206000200154915050611499565b6013600081548110611458576114576141e6565b5b906000526020600020015481106114935760118360ff16815481106114805761147f6141e6565b5b9060005260206000200154915050611499565b60009150505b919050565b6000600960009054906101000a900473ffffffffffffffffffffffffffffffffffffffff16905090565b600080601760009054906101000a900473ffffffffffffffffffffffffffffffffffffffff1673ffffffffffffffffffffffffffffffffffffffff1663feaf968c6040518163ffffffff1660e01b815260040160a060405180830381865afa158015611538573d6000803e3d6000fd5b505050506040513d601f19601f8201168201806040525081019061155c91906144dd565b5050509150508091505090565b611571612240565b73ffffffffffffffffffffffffffffffffffffffff1661158f61149e565b73ffffffffffffffffffffffffffffffffffffffff16146115e5576040517f08c379a00000000000000000000000000000000000000000000000000000000081526004016115dc90613f99565b60405180910390fd5b60008160ff16101580156115fd575060028160ff1611155b61163c576040517f08c379a00000000000000000000000000000000000000000000000000000000081526004016116339061443a565b60405180910390fd5b8160108260ff1681548110611654576116536141e6565b5b90600052602060002001819055505050565b60606001805461167590613d65565b80601f01602080910402602001604051908101604052809291908181526020018280546116a190613d65565b80156116ee5780601f106116c3576101008083540402835291602001916116ee565b820191906000526020600020905b8154815290600101906020018083116116d157829003601f168201915b5050505050905090565b61170a611703612240565b838361292e565b5050565b61171f611719612240565b83612383565b61175e576040517f08c379a0000000000000000000000000000000000000000000000000000000008152600401611755906140dd565b60405180910390fd5b61176a84848484612a9b565b50505050565b611778612240565b73ffffffffffffffffffffffffffffffffffffffff1661179661149e565b73ffffffffffffffffffffffffffffffffffffffff16146117ec576040517f08c379a00000000000000000000000000000000000000000000000000000000081526004016117e390613f99565b60405180910390fd5b80600b8190555050565b60008282600061180533612af7565b905060008160ff161161184d576040517f08c379a0000000000000000000000000000000000000000000000000000000008152600401611844906145a4565b60405180910390fd5b60006118576114c8565b905060008660ff1610158015611871575060028660ff1611155b6118b0576040517f08c379a00000000000000000000000000000000000000000000000000000000081526004016118a79061443a565b60405180910390fd5b600060108760ff16815481106118c9576118c86141e6565b5b90600052602060002001541415611915576040517f08c379a000000000000000000000000000000000000000000000000000000000815260040161190c90614610565b60405180910390fd5b6001611921600a612375565b8861192c9190614630565b6119369190614630565b600b5411611979576040517f08c379a0000000000000000000000000000000000000000000000000000000008152600401611970906146d2565b60405180910390fd5b670de0b6b3a7640000816305f5e1008960108a60ff16815481106119a05761199f6141e6565b5b90600052602060002001546119b5919061412c565b6119bf919061412c565b6119c991906141b5565b6119d3919061412c565b341015611a15576040517f08c379a0000000000000000000000000000000000000000000000000000000008152600401611a0c90614764565b60405180910390fd5b600033905060008173ffffffffffffffffffffffffffffffffffffffff16670de0b6b3a7640000846305f5e1008c60108d60ff1681548110611a5a57611a596141e6565b5b9060005260206000200154611a6f919061412c565b611a79919061412c565b611a8391906141b5565b611a8d919061412c565b34611a989190614784565b604051611aa490613fea565b60006040518083038185875af1925050503d8060008114611ae1576040519150601f19603f3d011682016040523d82523d6000602084013e611ae6565b606091505b5050905080611b2a576040517f08c379a0000000000000000000000000000000000000000000000000000000008152600401611b2190614804565b60405180910390fd5b6000600290508060ff168a1115611b76576040517f08c379a0000000000000000000000000000000000000000000000000000000008152600401611b6d90614896565b60405180910390fd5b60006011905060006014905060004390506013600181548110611b9c57611b9b6141e6565b5b90600052602060002001548110611bb65760129250601591505b828c60ff1681548110611bcc57611bcb6141e6565b5b90600052602060002001548d8360008f60ff1660ff16815260200190815260200160002054611bfb9190614630565b10611c3b576040517f08c379a0000000000000000000000000000000000000000000000000000000008152600401611c3290614928565b60405180910390fd5b8c8260008e60ff1660ff16815260200190815260200160002054611c5f9190614630565b8260008e60ff1660ff168152602001908152602001600020819055506000805b8e811015611ce657611c91600a612bc1565b611c9b600a612375565b9150611ca73383612bd7565b8d600f600084815260200190815260200160002060006101000a81548160ff021916908360ff1602179055508080611cde90614215565b915050611c7f565b50809b50505050505050505050505092915050565b6060611d06826121d4565b611d45576040517f08c379a0000000000000000000000000000000000000000000000000000000008152600401611d3c906149ba565b60405180910390fd5b6000600660008481526020019081526020016000208054611d6590613d65565b80601f0160208091040260200160405190810160405280929190818152602001828054611d9190613d65565b8015611dde5780601f10611db357610100808354040283529160200191611dde565b820191906000526020600020905b815481529060010190602001808311611dc157829003601f168201915b505050505090506000611def612db1565b9050600081511415611e05578192505050611e48565b600082511115611e3a578082604051602001611e22929190614a16565b60405160208183030381529060405292505050611e48565b611e4384612dc8565b925050505b919050565b611e55612240565b73ffffffffffffffffffffffffffffffffffffffff16611e7361149e565b73ffffffffffffffffffffffffffffffffffffffff1614611ec9576040517f08c379a0000000000000000000000000000000000000000000000000000000008152600401611ec090613f99565b60405180910390fd5b60008160ff1610158015611ee1575060028160ff1611155b611f20576040517f08c379a0000000000000000000000000000000000000000000000000000000008152600401611f179061443a565b60405180910390fd5b60004390506013600181548110611f3a57611f396141e6565b5b90600052602060002001548110611f72578260128360ff1681548110611f6357611f626141e6565b5b90600052602060002001819055505b6013600081548110611f8757611f866141e6565b5b90600052602060002001548110611fbf578260118360ff1681548110611fb057611faf6141e6565b5b90600052602060002001819055505b505050565b6000600b54905090565b6000600560008473ffffffffffffffffffffffffffffffffffffffff1673ffffffffffffffffffffffffffffffffffffffff16815260200190815260200160002060008373ffffffffffffffffffffffffffffffffffffffff1673ffffffffffffffffffffffffffffffffffffffff16815260200190815260200160002060009054906101000a900460ff16905092915050565b61206a612240565b73ffffffffffffffffffffffffffffffffffffffff1661208861149e565b73ffffffffffffffffffffffffffffffffffffffff16146120de576040517f08c379a00000000000000000000000000000000000000000000000000000000081526004016120d590613f99565b60405180910390fd5b600073ffffffffffffffffffffffffffffffffffffffff168173ffffffffffffffffffffffffffffffffffffffff16141561214e576040517f08c379a000000000000000000000000000000000000000000000000000000000815260040161214590614aac565b60405180910390fd5b61215781612868565b50565b60007f2a55205a000000000000000000000000000000000000000000000000000000007bffffffffffffffffffffffffffffffffffffffffffffffffffffffff1916827bffffffffffffffffffffffffffffffffffffffffffffffffffffffff191614806121cd57506121cc82612e6f565b5b9050919050565b60008073ffffffffffffffffffffffffffffffffffffffff166002600084815260200190815260200160002060009054906101000a900473ffffffffffffffffffffffffffffffffffffffff1673ffffffffffffffffffffffffffffffffffffffff1614159050919050565b600033905090565b816004600083815260200190815260200160002060006101000a81548173ffffffffffffffffffffffffffffffffffffffff021916908373ffffffffffffffffffffffffffffffffffffffff160217905550808273ffffffffffffffffffffffffffffffffffffffff166122bb8361117a565b73ffffffffffffffffffffffffffffffffffffffff167f8c5be1e5ebec7d5bd14f71427d1e84f3dd0314c0f7b2291e5b200ac8c7c3b92560405160405180910390a45050565b61230a826121d4565b612349576040517f08c379a000000000000000000000000000000000000000000000000000000000815260040161234090614b3e565b60405180910390fd5b806006600084815260200190815260200160002090805190602001906123709291906132d1565b505050565b600081600001549050919050565b600061238e826121d4565b6123cd576040517f08c379a00000000000000000000000000000000000000000000000000000000081526004016123c490614bd0565b60405180910390fd5b60006123d88361117a565b90508073ffffffffffffffffffffffffffffffffffffffff168473ffffffffffffffffffffffffffffffffffffffff16148061244757508373ffffffffffffffffffffffffffffffffffffffff1661242f84610864565b73ffffffffffffffffffffffffffffffffffffffff16145b8061245857506124578185611fce565b5b91505092915050565b8273ffffffffffffffffffffffffffffffffffffffff166124818261117a565b73ffffffffffffffffffffffffffffffffffffffff16146124d7576040517f08c379a00000000000000000000000000000000000000000000000000000000081526004016124ce90614c62565b60405180910390fd5b600073ffffffffffffffffffffffffffffffffffffffff168273ffffffffffffffffffffffffffffffffffffffff161415612547576040517f08c379a000000000000000000000000000000000000000000000000000000000815260040161253e90614cf4565b60405180910390fd5b612552838383612f51565b61255d600082612248565b6001600360008573ffffffffffffffffffffffffffffffffffffffff1673ffffffffffffffffffffffffffffffffffffffff16815260200190815260200160002060008282546125ad9190614784565b925050819055506001600360008473ffffffffffffffffffffffffffffffffffffffff1673ffffffffffffffffffffffffffffffffffffffff16815260200190815260200160002060008282546126049190614630565b92505081905550816002600083815260200190815260200160002060006101000a81548173ffffffffffffffffffffffffffffffffffffffff021916908373ffffffffffffffffffffffffffffffffffffffff160217905550808273ffffffffffffffffffffffffffffffffffffffff168473ffffffffffffffffffffffffffffffffffffffff167fddf252ad1be2c89b69c2b068fc378daa952ba7f163c4a11628f55a4df523b3ef60405160405180910390a46126c3838383612f56565b505050565b6000612710905090565b6126da6126c8565b6bffffffffffffffffffffffff16816bffffffffffffffffffffffff161115612738576040517f08c379a000000000000000000000000000000000000000000000000000000000815260040161272f90614d86565b60405180910390fd5b600073ffffffffffffffffffffffffffffffffffffffff168273ffffffffffffffffffffffffffffffffffffffff1614156127a8576040517f08c379a000000000000000000000000000000000000000000000000000000000815260040161279f90614df2565b60405180910390fd5b60405180604001604052808373ffffffffffffffffffffffffffffffffffffffff168152602001826bffffffffffffffffffffffff16815250600760008201518160000160006101000a81548173ffffffffffffffffffffffffffffffffffffffff021916908373ffffffffffffffffffffffffffffffffffffffff16021790555060208201518160000160146101000a8154816bffffffffffffffffffffffff02191690836bffffffffffffffffffffffff1602179055509050505050565b6000600960009054906101000a900473ffffffffffffffffffffffffffffffffffffffff16905081600960006101000a81548173ffffffffffffffffffffffffffffffffffffffff021916908373ffffffffffffffffffffffffffffffffffffffff1602179055508173ffffffffffffffffffffffffffffffffffffffff168173ffffffffffffffffffffffffffffffffffffffff167f8be0079c531659141344cd1fd0a4f28419497f9722a3daafe3b4186f6b6457e060405160405180910390a35050565b8173ffffffffffffffffffffffffffffffffffffffff168373ffffffffffffffffffffffffffffffffffffffff16141561299d576040517f08c379a000000000000000000000000000000000000000000000000000000000815260040161299490614e5e565b60405180910390fd5b80600560008573ffffffffffffffffffffffffffffffffffffffff1673ffffffffffffffffffffffffffffffffffffffff16815260200190815260200160002060008473ffffffffffffffffffffffffffffffffffffffff1673ffffffffffffffffffffffffffffffffffffffff16815260200190815260200160002060006101000a81548160ff0219169083151502179055508173ffffffffffffffffffffffffffffffffffffffff168373ffffffffffffffffffffffffffffffffffffffff167f17307eab39ab6107e8899845ad3d59bd9653f200f220920489ca2b5937696c3183604051612a8e9190613428565b60405180910390a3505050565b612aa6848484612461565b612ab284848484612f5b565b612af1576040517f08c379a0000000000000000000000000000000000000000000000000000000008152600401612ae890614ef0565b60405180910390fd5b50505050565b6000804390506013600181548110612b1257612b116141e6565b5b90600052602060002001548110612b2d576002915050612bbc565b6013600081548110612b4257612b416141e6565b5b90600052602060002001548110612bb6576001601660008573ffffffffffffffffffffffffffffffffffffffff1673ffffffffffffffffffffffffffffffffffffffff16815260200190815260200160002060009054906101000a900460ff1660ff161415612bb5576001915050612bbc565b5b60009150505b919050565b6001816000016000828254019250508190555050565b600073ffffffffffffffffffffffffffffffffffffffff168273ffffffffffffffffffffffffffffffffffffffff161415612c47576040517f08c379a0000000000000000000000000000000000000000000000000000000008152600401612c3e90614f5c565b60405180910390fd5b612c50816121d4565b15612c90576040517f08c379a0000000000000000000000000000000000000000000000000000000008152600401612c8790614fc8565b60405180910390fd5b612c9c60008383612f51565b6001600360008473ffffffffffffffffffffffffffffffffffffffff1673ffffffffffffffffffffffffffffffffffffffff1681526020019081526020016000206000828254612cec9190614630565b92505081905550816002600083815260200190815260200160002060006101000a81548173ffffffffffffffffffffffffffffffffffffffff021916908373ffffffffffffffffffffffffffffffffffffffff160217905550808273ffffffffffffffffffffffffffffffffffffffff16600073ffffffffffffffffffffffffffffffffffffffff167fddf252ad1be2c89b69c2b068fc378daa952ba7f163c4a11628f55a4df523b3ef60405160405180910390a4612dad60008383612f56565b5050565b606060405180602001604052806000815250905090565b6060612dd3826121d4565b612e12576040517f08c379a0000000000000000000000000000000000000000000000000000000008152600401612e099061505a565b60405180910390fd5b6000612e1c612db1565b90506000815111612e3c5760405180602001604052806000815250612e67565b80612e46846130e3565b604051602001612e57929190614a16565b6040516020818303038152906040525b915050919050565b60007f80ac58cd000000000000000000000000000000000000000000000000000000007bffffffffffffffffffffffffffffffffffffffffffffffffffffffff1916827bffffffffffffffffffffffffffffffffffffffffffffffffffffffff19161480612f3a57507f5b5e139f000000000000000000000000000000000000000000000000000000007bffffffffffffffffffffffffffffffffffffffffffffffffffffffff1916827bffffffffffffffffffffffffffffffffffffffffffffffffffffffff1916145b80612f4a5750612f4982613244565b5b9050919050565b505050565b505050565b6000612f7c8473ffffffffffffffffffffffffffffffffffffffff166132ae565b156130d6578373ffffffffffffffffffffffffffffffffffffffff1663150b7a02612fa5612240565b8786866040518563ffffffff1660e01b8152600401612fc794939291906150cf565b6020604051808303816000875af192505050801561300357506040513d601f19601f820116820180604052508101906130009190615130565b60015b613086573d8060008114613033576040519150601f19603f3d011682016040523d82523d6000602084013e613038565b606091505b5060008151141561307e576040517f08c379a000000000000000000000000000000000000000000000000000000000815260040161307590614ef0565b60405180910390fd5b805181602001fd5b63150b7a0260e01b7bffffffffffffffffffffffffffffffffffffffffffffffffffffffff1916817bffffffffffffffffffffffffffffffffffffffffffffffffffffffff1916149150506130db565b600190505b949350505050565b6060600082141561312b576040518060400160405280600181526020017f3000000000000000000000000000000000000000000000000000000000000000815250905061323f565b600082905060005b6000821461315d57808061314690614215565b915050600a8261315691906141b5565b9150613133565b60008167ffffffffffffffff81111561317957613178613633565b5b6040519080825280601f01601f1916602001820160405280156131ab5781602001600182028036833780820191505090505b5090505b60008514613238576001826131c49190614784565b9150600a856131d3919061515d565b60306131df9190614630565b60f81b8183815181106131f5576131f46141e6565b5b60200101907effffffffffffffffffffffffffffffffffffffffffffffffffffffffffffff1916908160001a905350600a8561323191906141b5565b94506131af565b8093505050505b919050565b60007f01ffc9a7000000000000000000000000000000000000000000000000000000007bffffffffffffffffffffffffffffffffffffffffffffffffffffffff1916827bffffffffffffffffffffffffffffffffffffffffffffffffffffffff1916149050919050565b6000808273ffffffffffffffffffffffffffffffffffffffff163b119050919050565b8280546132dd90613d65565b90600052602060002090601f0160209004810192826132ff5760008555613346565b82601f1061331857805160ff1916838001178555613346565b82800160010185558215613346579182015b8281111561334557825182559160200191906001019061332a565b5b5090506133539190613357565b5090565b5b80821115613370576000816000905550600101613358565b5090565b6000604051905090565b600080fd5b600080fd5b60007fffffffff0000000000000000000000000000000000000000000000000000000082169050919050565b6133bd81613388565b81146133c857600080fd5b50565b6000813590506133da816133b4565b92915050565b6000602082840312156133f6576133f561337e565b5b6000613404848285016133cb565b91505092915050565b60008115159050919050565b6134228161340d565b82525050565b600060208201905061343d6000830184613419565b92915050565b600081519050919050565b600082825260208201905092915050565b60005b8381101561347d578082015181840152602081019050613462565b8381111561348c576000848401525b50505050565b6000601f19601f8301169050919050565b60006134ae82613443565b6134b8818561344e565b93506134c881856020860161345f565b6134d181613492565b840191505092915050565b600060208201905081810360008301526134f681846134a3565b905092915050565b6000819050919050565b613511816134fe565b811461351c57600080fd5b50565b60008135905061352e81613508565b92915050565b60006020828403121561354a5761354961337e565b5b60006135588482850161351f565b91505092915050565b600073ffffffffffffffffffffffffffffffffffffffff82169050919050565b600061358c82613561565b9050919050565b61359c81613581565b82525050565b60006020820190506135b76000830184613593565b92915050565b6135c681613581565b81146135d157600080fd5b50565b6000813590506135e3816135bd565b92915050565b60008060408385031215613600576135ff61337e565b5b600061360e858286016135d4565b925050602061361f8582860161351f565b9150509250929050565b600080fd5b600080fd5b7f4e487b7100000000000000000000000000000000000000000000000000000000600052604160045260246000fd5b61366b82613492565b810181811067ffffffffffffffff8211171561368a57613689613633565b5b80604052505050565b600061369d613374565b90506136a98282613662565b919050565b600067ffffffffffffffff8211156136c9576136c8613633565b5b6136d282613492565b9050602081019050919050565b82818337600083830152505050565b60006137016136fc846136ae565b613693565b90508281526020810184848401111561371d5761371c61362e565b5b6137288482856136df565b509392505050565b600082601f83011261374557613744613629565b5b81356137558482602086016136ee565b91505092915050565b600080604083850312156137755761377461337e565b5b60006137838582860161351f565b925050602083013567ffffffffffffffff8111156137a4576137a3613383565b5b6137b085828601613730565b9150509250929050565b6137c3816134fe565b82525050565b60006020820190506137de60008301846137ba565b92915050565b6000806000606084860312156137fd576137fc61337e565b5b600061380b868287016135d4565b935050602061381c868287016135d4565b925050604061382d8682870161351f565b9150509250925092565b6000806040838503121561384e5761384d61337e565b5b600061385c8582860161351f565b925050602061386d8582860161351f565b9150509250929050565b600060408201905061388c6000830185613593565b61389960208301846137ba565b9392505050565b600067ffffffffffffffff8211156138bb576138ba613633565b5b602082029050602081019050919050565b600080fd5b60006138e46138df846138a0565b613693565b90508083825260208201905060208402830185811115613907576139066138cc565b5b835b81811015613930578061391c88826135d4565b845260208401935050602081019050613909565b5050509392505050565b600082601f83011261394f5761394e613629565b5b813561395f8482602086016138d1565b91505092915050565b60006020828403121561397e5761397d61337e565b5b600082013567ffffffffffffffff81111561399c5761399b613383565b5b6139a88482850161393a565b91505092915050565b60006bffffffffffffffffffffffff82169050919050565b6139d2816139b1565b81146139dd57600080fd5b50565b6000813590506139ef816139c9565b92915050565b60008060408385031215613a0c57613a0b61337e565b5b6000613a1a858286016135d4565b9250506020613a2b858286016139e0565b9150509250929050565b600060ff82169050919050565b613a4b81613a35565b8114613a5657600080fd5b50565b600081359050613a6881613a42565b92915050565b600060208284031215613a8457613a8361337e565b5b6000613a9284828501613a59565b91505092915050565b613aa481613a35565b82525050565b6000602082019050613abf6000830184613a9b565b92915050565b600060208284031215613adb57613ada61337e565b5b6000613ae9848285016135d4565b91505092915050565b6000819050919050565b613b0581613af2565b82525050565b6000602082019050613b206000830184613afc565b92915050565b60008060408385031215613b3d57613b3c61337e565b5b6000613b4b8582860161351f565b9250506020613b5c85828601613a59565b9150509250929050565b613b6f8161340d565b8114613b7a57600080fd5b50565b600081359050613b8c81613b66565b92915050565b60008060408385031215613ba957613ba861337e565b5b6000613bb7858286016135d4565b9250506020613bc885828601613b7d565b9150509250929050565b600067ffffffffffffffff821115613bed57613bec613633565b5b613bf682613492565b9050602081019050919050565b6000613c16613c1184613bd2565b613693565b905082815260208101848484011115613c3257613c3161362e565b5b613c3d8482856136df565b509392505050565b600082601f830112613c5a57613c59613629565b5b8135613c6a848260208601613c03565b91505092915050565b60008060008060808587031215613c8d57613c8c61337e565b5b6000613c9b878288016135d4565b9450506020613cac878288016135d4565b9350506040613cbd8782880161351f565b925050606085013567ffffffffffffffff811115613cde57613cdd613383565b5b613cea87828801613c45565b91505092959194509250565b60008060408385031215613d0d57613d0c61337e565b5b6000613d1b858286016135d4565b9250506020613d2c858286016135d4565b9150509250929050565b7f4e487b7100000000000000000000000000000000000000000000000000000000600052602260045260246000fd5b60006002820490506001821680613d7d57607f821691505b60208210811415613d9157613d90613d36565b5b50919050565b7f4552433732313a20617070726f76656420717565727920666f72206e6f6e657860008201527f697374656e7420746f6b656e0000000000000000000000000000000000000000602082015250565b6000613df3602c8361344e565b9150613dfe82613d97565b604082019050919050565b60006020820190508181036000830152613e2281613de6565b9050919050565b7f4552433732313a20617070726f76616c20746f2063757272656e74206f776e6560008201527f7200000000000000000000000000000000000000000000000000000000000000602082015250565b6000613e8560218361344e565b9150613e9082613e29565b604082019050919050565b60006020820190508181036000830152613eb481613e78565b9050919050565b7f4552433732313a20617070726f76652063616c6c6572206973206e6f74206f7760008201527f6e6572206e6f7220617070726f76656420666f7220616c6c0000000000000000602082015250565b6000613f1760388361344e565b9150613f2282613ebb565b604082019050919050565b60006020820190508181036000830152613f4681613f0a565b9050919050565b7f4f776e61626c653a2063616c6c6572206973206e6f7420746865206f776e6572600082015250565b6000613f8360208361344e565b9150613f8e82613f4d565b602082019050919050565b60006020820190508181036000830152613fb281613f76565b9050919050565b600081905092915050565b50565b6000613fd4600083613fb9565b9150613fdf82613fc4565b600082019050919050565b6000613ff582613fc7565b9150819050919050565b7f4661696c656420746f2057697468647261772045746865720000000000000000600082015250565b600061403560188361344e565b915061404082613fff565b602082019050919050565b6000602082019050818103600083015261406481614028565b9050919050565b7f4552433732313a207472616e736665722063616c6c6572206973206e6f74206f60008201527f776e6572206e6f7220617070726f766564000000000000000000000000000000602082015250565b60006140c760318361344e565b91506140d28261406b565b604082019050919050565b600060208201905081810360008301526140f6816140ba565b9050919050565b7f4e487b7100000000000000000000000000000000000000000000000000000000600052601160045260246000fd5b6000614137826134fe565b9150614142836134fe565b9250817fffffffffffffffffffffffffffffffffffffffffffffffffffffffffffffffff048311821515161561417b5761417a6140fd565b5b828202905092915050565b7f4e487b7100000000000000000000000000000000000000000000000000000000600052601260045260246000fd5b60006141c0826134fe565b91506141cb836134fe565b9250826141db576141da614186565b5b828204905092915050565b7f4e487b7100000000000000000000000000000000000000000000000000000000600052603260045260246000fd5b6000614220826134fe565b91507fffffffffffffffffffffffffffffffffffffffffffffffffffffffffffffffff821415614253576142526140fd565b5b600182019050919050565b7f496e76616c69656420746965724e756d626572206f6620617272617900000000600082015250565b6000614294601c8361344e565b915061429f8261425e565b602082019050919050565b600060208201905081810360008301526142c381614287565b9050919050565b7f4552433732313a206f776e657220717565727920666f72206e6f6e657869737460008201527f656e7420746f6b656e0000000000000000000000000000000000000000000000602082015250565b600061432660298361344e565b9150614331826142ca565b604082019050919050565b6000602082019050818103600083015261435581614319565b9050919050565b7f4552433732313a2062616c616e636520717565727920666f7220746865207a6560008201527f726f206164647265737300000000000000000000000000000000000000000000602082015250565b60006143b8602a8361344e565b91506143c38261435c565b604082019050919050565b600060208201905081810360008301526143e7816143ab565b9050919050565b7f496e76616c69656420746965724e756d626572206f662061727261792e000000600082015250565b6000614424601d8361344e565b915061442f826143ee565b602082019050919050565b6000602082019050818103600083015261445381614417565b9050919050565b600069ffffffffffffffffffff82169050919050565b6144798161445a565b811461448457600080fd5b50565b60008151905061449681614470565b92915050565b6144a581613af2565b81146144b057600080fd5b50565b6000815190506144c28161449c565b92915050565b6000815190506144d781613508565b92915050565b600080600080600060a086880312156144f9576144f861337e565b5b600061450788828901614487565b9550506020614518888289016144b3565b9450506040614529888289016144c8565b935050606061453a888289016144c8565b925050608061454b88828901614487565b9150509295509295909350565b7f4e6f7420617661696c61626c6520746f206d696e742e00000000000000000000600082015250565b600061458e60168361344e565b915061459982614558565b602082019050919050565b600060208201905081810360008301526145bd81614581565b9050919050565b7f54696572207072696365206973206e6f74207365742e00000000000000000000600082015250565b60006145fa60168361344e565b9150614605826145c4565b602082019050919050565b60006020820190508181036000830152614629816145ed565b9050919050565b600061463b826134fe565b9150614646836134fe565b9250827fffffffffffffffffffffffffffffffffffffffffffffffffffffffffffffffff0382111561467b5761467a6140fd565b5b828201905092915050565b7f4e6f7420656e6f75676820746f6b656e73206c65667420746f206275792e0000600082015250565b60006146bc601e8361344e565b91506146c782614686565b602082019050919050565b600060208201905081810360008301526146eb816146af565b9050919050565b7f416d6f756e74206f662065746865722073656e74206e6f7420636f727265637460008201527f2e00000000000000000000000000000000000000000000000000000000000000602082015250565b600061474e60218361344e565b9150614759826146f2565b604082019050919050565b6000602082019050818103600083015261477d81614741565b9050919050565b600061478f826134fe565b915061479a836134fe565b9250828210156147ad576147ac6140fd565b5b828203905092915050565b7f4661696c656420746f20726566756e6400000000000000000000000000000000600082015250565b60006147ee60108361344e565b91506147f9826147b8565b602082019050919050565b6000602082019050818103600083015261481d816147e1565b9050919050565b7f596f7520617265206e6f7420616c6c6f77656420746f20627579206d6f72652060008201527f7468616e203220746f6b656e73206174206f6e63652e00000000000000000000602082015250565b600061488060368361344e565b915061488b82614824565b604082019050919050565b600060208201905081810360008301526148af81614873565b9050919050565b7f4f766572666c6f77206d6178696d756d206d696e74206c696d69746174696f6e60008201527f2e00000000000000000000000000000000000000000000000000000000000000602082015250565b600061491260218361344e565b915061491d826148b6565b604082019050919050565b6000602082019050818103600083015261494181614905565b9050919050565b7f45524337323155524953746f726167653a2055524920717565727920666f722060008201527f6e6f6e6578697374656e7420746f6b656e000000000000000000000000000000602082015250565b60006149a460318361344e565b91506149af82614948565b604082019050919050565b600060208201905081810360008301526149d381614997565b9050919050565b600081905092915050565b60006149f082613443565b6149fa81856149da565b9350614a0a81856020860161345f565b80840191505092915050565b6000614a2282856149e5565b9150614a2e82846149e5565b91508190509392505050565b7f4f776e61626c653a206e6577206f776e657220697320746865207a65726f206160008201527f6464726573730000000000000000000000000000000000000000000000000000602082015250565b6000614a9660268361344e565b9150614aa182614a3a565b604082019050919050565b60006020820190508181036000830152614ac581614a89565b9050919050565b7f45524337323155524953746f726167653a2055524920736574206f66206e6f6e60008201527f6578697374656e7420746f6b656e000000000000000000000000000000000000602082015250565b6000614b28602e8361344e565b9150614b3382614acc565b604082019050919050565b60006020820190508181036000830152614b5781614b1b565b9050919050565b7f4552433732313a206f70657261746f7220717565727920666f72206e6f6e657860008201527f697374656e7420746f6b656e0000000000000000000000000000000000000000602082015250565b6000614bba602c8361344e565b9150614bc582614b5e565b604082019050919050565b60006020820190508181036000830152614be981614bad565b9050919050565b7f4552433732313a207472616e736665722066726f6d20696e636f72726563742060008201527f6f776e6572000000000000000000000000000000000000000000000000000000602082015250565b6000614c4c60258361344e565b9150614c5782614bf0565b604082019050919050565b60006020820190508181036000830152614c7b81614c3f565b9050919050565b7f4552433732313a207472616e7366657220746f20746865207a65726f2061646460008201527f7265737300000000000000000000000000000000000000000000000000000000602082015250565b6000614cde60248361344e565b9150614ce982614c82565b604082019050919050565b60006020820190508181036000830152614d0d81614cd1565b9050919050565b7f455243323938313a20726f79616c7479206665652077696c6c2065786365656460008201527f2073616c65507269636500000000000000000000000000000000000000000000602082015250565b6000614d70602a8361344e565b9150614d7b82614d14565b604082019050919050565b60006020820190508181036000830152614d9f81614d63565b9050919050565b7f455243323938313a20696e76616c696420726563656976657200000000000000600082015250565b6000614ddc60198361344e565b9150614de782614da6565b602082019050919050565b60006020820190508181036000830152614e0b81614dcf565b9050919050565b7f4552433732313a20617070726f766520746f2063616c6c657200000000000000600082015250565b6000614e4860198361344e565b9150614e5382614e12565b602082019050919050565b60006020820190508181036000830152614e7781614e3b565b9050919050565b7f4552433732313a207472616e7366657220746f206e6f6e20455243373231526560008201527f63656976657220696d706c656d656e7465720000000000000000000000000000602082015250565b6000614eda60328361344e565b9150614ee582614e7e565b604082019050919050565b60006020820190508181036000830152614f0981614ecd565b9050919050565b7f4552433732313a206d696e7420746f20746865207a65726f2061646472657373600082015250565b6000614f4660208361344e565b9150614f5182614f10565b602082019050919050565b60006020820190508181036000830152614f7581614f39565b9050919050565b7f4552433732313a20746f6b656e20616c7265616479206d696e74656400000000600082015250565b6000614fb2601c8361344e565b9150614fbd82614f7c565b602082019050919050565b60006020820190508181036000830152614fe181614fa5565b9050919050565b7f4552433732314d657461646174613a2055524920717565727920666f72206e6f60008201527f6e6578697374656e7420746f6b656e0000000000000000000000000000000000602082015250565b6000615044602f8361344e565b915061504f82614fe8565b604082019050919050565b6000602082019050818103600083015261507381615037565b9050919050565b600081519050919050565b600082825260208201905092915050565b60006150a18261507a565b6150ab8185615085565b93506150bb81856020860161345f565b6150c481613492565b840191505092915050565b60006080820190506150e46000830187613593565b6150f16020830186613593565b6150fe60408301856137ba565b81810360608301526151108184615096565b905095945050505050565b60008151905061512a816133b4565b92915050565b6000602082840312156151465761514561337e565b5b60006151548482850161511b565b91505092915050565b6000615168826134fe565b9150615173836134fe565b92508261518357615182614186565b5b82820690509291505056fea2646970667358221220f06e14899a83fcd6b087740d08a104f683a7a1be1935fc2fc8e12014d480e1e364736f6c634300080b0033",
  "immutableReferences": {},
  "source": "// SPDX-License-Identifier: MIT\npragma solidity >=0.8.9 <0.9.0;\n\nimport \"@openzeppelin/contracts/access/Ownable.sol\";\nimport \"@openzeppelin/contracts/utils/Counters.sol\";\nimport \"@openzeppelin/contracts/token/ERC721/extensions/ERC721URIStorage.sol\";\nimport \"@openzeppelin/contracts/token/common/ERC2981.sol\";\nimport \"@openzeppelin/contracts/utils/introspection/ERC165.sol\";\nimport \"./IAggregatorV3.sol\";\n\ncontract FathomyachtClub is ERC721URIStorage, ERC2981, Ownable {\n  using Counters for Counters.Counter;\n  Counters.Counter private _tokenIds;\n  uint256 private MAX_TOKEN = 8000;\n\n  uint256 private _powerCount = 0;\n  uint256 private _yachtCount = 0;\n  uint256 private _prestigeCount = 0;\n\n  // mapping for token to tier number(0: power, 1: yacht, 2: prestige)\n  mapping(uint256 => uint8) private _tokenToTier;\n\n  // NFT prices in USD, mapping for tier to price(0: power, 1: yacht, 2: prestige)\n  uint256[] private NFT_PRICE = [50, 100, 150];\n  uint256[] private PRESALE_TIER_MINT_LIMIT = [100, 100, 50];\n  uint256[] private PUBLIC_SALE_TIER_MINT_LIMIT = [900, 900, 950];\n  // 0: presale start block, 1: public sale start block\n  uint256[] private EVENT_BLOCK = [10264904, 10437473];\n  // Mapping from address to minted number of NFTs(0: power, 1: yacht, 2: prestige)\n  mapping(uint8 => uint256) private _preSaleMintCounter;\n  // Mapping from address to minted number of NFTs(0: power, 1: yacht, 2: prestige)\n  mapping(uint8 => uint256) private _publicSaleMintCounter;\n  // Mapping from address to white list flag(1: added, 0: removed)\n  mapping(address => uint8) private _whitelister;\n\n  AggregatorV3Interface internal priceFeed;\n\n  constructor() ERC721(\"Fathom Yacht Club\", \"FYC\") {\n    _setDefaultRoyalty(msg.sender, 1000);\n    priceFeed = AggregatorV3Interface(0x8A753747A1Fa494EC906cE90E9f37563A8AF630e);\n  }\n\n  modifier ableMintBatch(uint256 number, uint8 tierNumber) {\n    uint8 blockStatus = checkBlock(msg.sender);\n    require(blockStatus > 0, \"Not available to mint.\");\n    _;\n  }\n\n  function checkBlock(address pm_address) internal view returns(uint8) {\n    uint256 curBlock = block.number;\n\n    if (curBlock >= EVENT_BLOCK[1]) {\n      return 2;\n    }\n    if (curBlock >= EVENT_BLOCK[0]) {\n      if(_whitelister[pm_address]== 1) {\n        return 1;\n      }\n    }\n\n    return 0;\n  }\n\n  function addWhiteList(address[] memory lsts) public onlyOwner {\n    uint256 new_len = lsts.length;\n    for(uint256 i=0; i<new_len; i++) {\n      _whitelister[lsts[i]] = 1;\n    }\n  }\n\n  function removeWhiteList(address[] memory lsts) public onlyOwner {\n    uint256 new_len = lsts.length;\n    for(uint256 i=0; i<new_len; i++) {\n      _whitelister[lsts[i]] = 0;\n    }\n  }\n\n  function getTierNumberOf(uint256 _tokenId) public view returns(uint8) {\n    return _tokenToTier[_tokenId];\n  }\n\n  function getTierPrice(uint8 tierNumber) public view returns(uint256) {\n    require(tierNumber >= 0 && tierNumber <= 2, \"Invalied tierNumber of array\");\n    return NFT_PRICE[tierNumber];\n  }\n\n  function setTierPrice(uint256 price, uint8 tierNumber) external onlyOwner {\n    require(tierNumber >= 0 && tierNumber <= 2, \"Invalied tierNumber of array.\");\n    NFT_PRICE[tierNumber] = price;\n  }\n\n  function getMaxLimit() external view returns(uint256) {\n    return MAX_TOKEN;\n  }\n\n  function setMaxLimit(uint256 limit) external onlyOwner {\n    MAX_TOKEN = limit;\n  }\n\n  function getTierLimit(uint8 tierNumber) external view returns(uint256) {\n    require(tierNumber >= 0 && tierNumber <= 2, \"Invalied tierNumber of array.\");\n\n    uint256 curBlock = block.number;\n    if (curBlock >= EVENT_BLOCK[1]) {\n      return PUBLIC_SALE_TIER_MINT_LIMIT[tierNumber];\n    }\n    if (curBlock >= EVENT_BLOCK[0]) {\n      return PRESALE_TIER_MINT_LIMIT[tierNumber];\n    }\n\n    return 0;\n  }\n\n  function setTierMintLimit(uint256 limit, uint8 tierNumber) external onlyOwner {\n    require(tierNumber >= 0 && tierNumber <= 2, \"Invalied tierNumber of array.\");\n\n    uint256 curBlock = block.number;\n    if (curBlock >= EVENT_BLOCK[1]) {\n      PUBLIC_SALE_TIER_MINT_LIMIT[tierNumber] = limit;\n    }\n    if (curBlock >= EVENT_BLOCK[0]) {\n      PRESALE_TIER_MINT_LIMIT[tierNumber] = limit;\n    }\n  }\n\n  function withDraw() external onlyOwner {\n    address payable tgt = payable(owner());\n    (bool success1, ) = tgt.call{value:address(this).balance}(\"\");\n    require(success1, \"Failed to Withdraw Ether\");\n  }\n\n  function setTokenURI(uint256 number, string memory tokenURI) public onlyOwner {\n    _setTokenURI(number, tokenURI);\n  }\n\n  function mintBatch(uint256 number, uint8 tierNumber) public payable ableMintBatch(number, tierNumber) returns(uint256) {\n    uint256 ethPrice = uint256(getLatestPrice());\n    require(tierNumber >= 0 && tierNumber <= 2, \"Invalied tierNumber of array.\");\n    require(NFT_PRICE[tierNumber] != 0, \"Tier price is not set.\");\n    require(MAX_TOKEN > number + _tokenIds.current() + 1, \"Not enough tokens left to buy.\");\n    require(msg.value >= (((NFT_PRICE[tierNumber] * number) * (10 ** 8)) / ethPrice) * (10**18), \"Amount of ether sent not correct.\");\n\n    address payable tgt = payable(msg.sender);\n    (bool success1, ) = tgt.call{ value: msg.value - (((NFT_PRICE[tierNumber] * number) * (10 ** 8)) / ethPrice) * (10**18) }(\"\");\n    require(success1, \"Failed to refund\");\n\n    uint8 maxBatchable = 2;\n    require(number <= maxBatchable, \"You are not allowed to buy more than 2 tokens at once.\");\n\n    uint256[] storage tierMintLimit = PRESALE_TIER_MINT_LIMIT;\n    mapping(uint8 => uint256) storage tierMintCounter = _preSaleMintCounter;\n    uint256 curBlock = block.number;\n\n    // use public sale variables if the current date is after public sale started\n    if (curBlock >= EVENT_BLOCK[1]) {\n      tierMintLimit = PUBLIC_SALE_TIER_MINT_LIMIT;\n      tierMintCounter = _publicSaleMintCounter;\n    }\n    require(tierMintCounter[tierNumber] + number < tierMintLimit[tierNumber], \"Overflow maximum mint limitation.\");\n\n    tierMintCounter[tierNumber] = tierMintCounter[tierNumber] + number;\n\n    uint256 newItemId = 0;\n    for (uint256 i = 0; i < number; i++) {\n      _tokenIds.increment();\n      newItemId = _tokenIds.current();\n      _mint(msg.sender, newItemId);\n      _tokenToTier[newItemId] = tierNumber;\n    }\n\n    return newItemId;\n  }\n\n  function totalSupply() public view returns(uint256) {\n    return _tokenIds.current();\n  }\n\n  function supportsInterface(bytes4 interfaceId) public view virtual override(ERC721, ERC2981) returns (bool) {\n    return super.supportsInterface(interfaceId);\n  }\n\n  /**\n    * @dev See {ERC721-_burn}. This override additionally clears the royalty information for the token.\n    */\n  function _burn(uint256 tokenId) internal virtual override {\n    super._burn(tokenId);\n    _resetTokenRoyalty(tokenId);\n  }\n\n  function setRoality(address receiver, uint96 feeNumerator) external onlyOwner {\n    _setDefaultRoyalty(receiver, feeNumerator);\n  }\n\n  function getLatestPrice() public view returns (int) {\n    (\n      ,\n      int price,\n      ,\n      ,\n      \n    ) = priceFeed.latestRoundData();\n    return price;\n  }\n}\n",
  "sourcePath": "F:\\www-2022\\fathonclub-work\\app\\contracts\\FathomyachtClub.sol",
  "compiler": {
    "name": "solc",
    "version": "0.8.11+commit.d7f03943.Emscripten.clang"
  },
  "schemaVersion": "3.4.5",
  "updatedAt": "2022-03-14T01:08:02.172Z",
  "devdoc": {
    "kind": "dev",
    "methods": {
      "approve(address,uint256)": {
        "details": "See {IERC721-approve}."
      },
      "balanceOf(address)": {
        "details": "See {IERC721-balanceOf}."
      },
      "getApproved(uint256)": {
        "details": "See {IERC721-getApproved}."
      },
      "isApprovedForAll(address,address)": {
        "details": "See {IERC721-isApprovedForAll}."
      },
      "name()": {
        "details": "See {IERC721Metadata-name}."
      },
      "owner()": {
        "details": "Returns the address of the current owner."
      },
      "ownerOf(uint256)": {
        "details": "See {IERC721-ownerOf}."
      },
      "renounceOwnership()": {
        "details": "Leaves the contract without owner. It will not be possible to call `onlyOwner` functions anymore. Can only be called by the current owner. NOTE: Renouncing ownership will leave the contract without an owner, thereby removing any functionality that is only available to the owner."
      },
      "royaltyInfo(uint256,uint256)": {
        "details": "Returns how much royalty is owed and to whom, based on a sale price that may be denominated in any unit of exchange. The royalty amount is denominated and should be payed in that same unit of exchange."
      },
      "safeTransferFrom(address,address,uint256)": {
        "details": "See {IERC721-safeTransferFrom}."
      },
      "safeTransferFrom(address,address,uint256,bytes)": {
        "details": "See {IERC721-safeTransferFrom}."
      },
      "setApprovalForAll(address,bool)": {
        "details": "See {IERC721-setApprovalForAll}."
      },
      "symbol()": {
        "details": "See {IERC721Metadata-symbol}."
      },
      "tokenURI(uint256)": {
        "details": "See {IERC721Metadata-tokenURI}."
      },
      "transferFrom(address,address,uint256)": {
        "details": "See {IERC721-transferFrom}."
      },
      "transferOwnership(address)": {
        "details": "Transfers ownership of the contract to a new account (`newOwner`). Can only be called by the current owner."
      }
    },
    "version": 1
  },
  "userdoc": {
    "kind": "user",
    "methods": {},
    "version": 1
  }
}