{
  "contractName": "Leasing",
  "abi": [
    {
      "anonymous": false,
      "inputs": [
        {
          "indexed": false,
          "internalType": "uint256",
          "name": "tokenId",
          "type": "uint256"
        }
      ],
      "name": "ApproveLeasing",
      "type": "event"
    },
    {
      "anonymous": false,
      "inputs": [
        {
          "indexed": true,
          "internalType": "address",
          "name": "previousOwner",
          "type": "address"
        },
        {
          "indexed": true,
          "internalType": "address",
          "name": "newOwner",
          "type": "address"
        }
      ],
      "name": "OwnershipTransferred",
      "type": "event"
    },
    {
      "inputs": [],
      "name": "owner",
      "outputs": [
        {
          "internalType": "address",
          "name": "",
          "type": "address"
        }
      ],
      "stateMutability": "view",
      "type": "function"
    },
    {
      "inputs": [],
      "name": "renounceOwnership",
      "outputs": [],
      "stateMutability": "nonpayable",
      "type": "function"
    },
    {
      "inputs": [
        {
          "internalType": "address",
          "name": "newOwner",
          "type": "address"
        }
      ],
      "name": "transferOwnership",
      "outputs": [],
      "stateMutability": "nonpayable",
      "type": "function"
    },
    {
      "inputs": [],
      "name": "getNFTAddress",
      "outputs": [
        {
          "internalType": "address",
          "name": "",
          "type": "address"
        }
      ],
      "stateMutability": "view",
      "type": "function"
    },
    {
      "inputs": [
        {
          "internalType": "address",
          "name": "nft_address",
          "type": "address"
        }
      ],
      "name": "setNFTAddress",
      "outputs": [],
      "stateMutability": "nonpayable",
      "type": "function"
    },
    {
      "inputs": [],
      "name": "withDraw",
      "outputs": [],
      "stateMutability": "nonpayable",
      "type": "function"
    },
    {
      "inputs": [
        {
          "internalType": "uint256",
          "name": "_tokenId",
          "type": "uint256"
        },
        {
          "internalType": "uint256",
          "name": "_salePrice",
          "type": "uint256"
        }
      ],
      "name": "getRoalityInfo",
      "outputs": [
        {
          "internalType": "address",
          "name": "",
          "type": "address"
        },
        {
          "internalType": "uint256",
          "name": "",
          "type": "uint256"
        }
      ],
      "stateMutability": "view",
      "type": "function"
    },
    {
      "inputs": [
        {
          "internalType": "address",
          "name": "receiver",
          "type": "address"
        },
        {
          "internalType": "uint96",
          "name": "feeNumerator",
          "type": "uint96"
        }
      ],
      "name": "setRoality",
      "outputs": [],
      "stateMutability": "nonpayable",
      "type": "function"
    },
    {
      "inputs": [],
      "name": "getRefundFee",
      "outputs": [
        {
          "internalType": "uint8",
          "name": "",
          "type": "uint8"
        }
      ],
      "stateMutability": "view",
      "type": "function"
    },
    {
      "inputs": [
        {
          "internalType": "uint8",
          "name": "fee",
          "type": "uint8"
        }
      ],
      "name": "setRefundFee",
      "outputs": [],
      "stateMutability": "nonpayable",
      "type": "function"
    },
    {
      "inputs": [
        {
          "internalType": "uint256",
          "name": "_tokenId",
          "type": "uint256"
        }
      ],
      "name": "getLeasable",
      "outputs": [
        {
          "internalType": "bool",
          "name": "",
          "type": "bool"
        }
      ],
      "stateMutability": "view",
      "type": "function"
    },
    {
      "inputs": [
        {
          "internalType": "uint256",
          "name": "_tokenId",
          "type": "uint256"
        },
        {
          "internalType": "uint256",
          "name": "_price",
          "type": "uint256"
        }
      ],
      "name": "setLeasable",
      "outputs": [],
      "stateMutability": "nonpayable",
      "type": "function"
    },
    {
      "inputs": [
        {
          "internalType": "uint256",
          "name": "_tokenId",
          "type": "uint256"
        }
      ],
      "name": "getLeasePrice",
      "outputs": [
        {
          "internalType": "uint256",
          "name": "",
          "type": "uint256"
        }
      ],
      "stateMutability": "view",
      "type": "function"
    },
    {
      "inputs": [
        {
          "internalType": "uint256",
          "name": "_tokenId",
          "type": "uint256"
        },
        {
          "internalType": "uint256",
          "name": "_price",
          "type": "uint256"
        }
      ],
      "name": "setLeasePrice",
      "outputs": [],
      "stateMutability": "nonpayable",
      "type": "function"
    },
    {
      "inputs": [
        {
          "internalType": "uint256",
          "name": "_tokenId",
          "type": "uint256"
        }
      ],
      "name": "getLeaseOffers",
      "outputs": [
        {
          "components": [
            {
              "internalType": "address",
              "name": "from",
              "type": "address"
            },
            {
              "internalType": "uint256",
              "name": "price",
              "type": "uint256"
            },
            {
              "internalType": "uint32",
              "name": "expiresIn",
              "type": "uint32"
            }
          ],
          "internalType": "struct Leasing.LeaseOffer[]",
          "name": "",
          "type": "tuple[]"
        }
      ],
      "stateMutability": "view",
      "type": "function"
    },
    {
      "inputs": [
        {
          "internalType": "uint256",
          "name": "_tokenId",
          "type": "uint256"
        },
        {
          "internalType": "address",
          "name": "_from",
          "type": "address"
        }
      ],
      "name": "approveLeaseOffer",
      "outputs": [],
      "stateMutability": "nonpayable",
      "type": "function"
    },
    {
      "inputs": [
        {
          "internalType": "uint256",
          "name": "_tokenId",
          "type": "uint256"
        }
      ],
      "name": "calcenLeaseOffer",
      "outputs": [],
      "stateMutability": "nonpayable",
      "type": "function"
    },
    {
      "inputs": [],
      "name": "getLeasableTokens",
      "outputs": [
        {
          "internalType": "uint256[]",
          "name": "",
          "type": "uint256[]"
        }
      ],
      "stateMutability": "view",
      "type": "function"
    },
    {
      "inputs": [
        {
          "internalType": "uint256",
          "name": "_tokenId",
          "type": "uint256"
        },
        {
          "internalType": "uint32",
          "name": "_expiresIn",
          "type": "uint32"
        }
      ],
      "name": "sendLeaseOffer",
      "outputs": [],
      "stateMutability": "payable",
      "type": "function"
    },
    {
      "inputs": [
        {
          "internalType": "uint256",
          "name": "_tokenId",
          "type": "uint256"
        },
        {
          "internalType": "uint32",
          "name": "_expiresIn",
          "type": "uint32"
        }
      ],
      "name": "lease",
      "outputs": [],
      "stateMutability": "payable",
      "type": "function"
    }
  ],
  "bytecode": "0x60806040526062600160146101000a81548160ff021916908360ff16021790555060006006553480156200003257600080fd5b5062000053620000476200005960201b60201c565b6200006160201b60201c565b62000125565b600033905090565b60008060009054906101000a900473ffffffffffffffffffffffffffffffffffffffff169050816000806101000a81548173ffffffffffffffffffffffffffffffffffffffff021916908373ffffffffffffffffffffffffffffffffffffffff1602179055508173ffffffffffffffffffffffffffffffffffffffff168173ffffffffffffffffffffffffffffffffffffffff167f8be0079c531659141344cd1fd0a4f28419497f9722a3daafe3b4186f6b6457e060405160405180910390a35050565b61376780620001356000396000f3fe60806040526004361061011f5760003560e01c806369d03738116100a05780638da5cb5b116100645780638da5cb5b146103af578063b9618478146103da578063c98100b114610405578063df4c980d1461042e578063f2fde38b1461044a5761011f565b806369d03738146102de5780636da6dfb214610307578063715018a6146103305780637821586c14610347578063836807fc146103845761011f565b806341048e74116100e757806341048e741461021e57806342eb98c1146102475780634815df1d14610263578063501a1c511461028c57806358c7c915146102b55761011f565b80630fdb1c1014610124578063192be5f11461013b5780631eaab32414610178578063298d73f2146101b657806339b6a2c2146101f3575b600080fd5b34801561013057600080fd5b50610139610473565b005b34801561014757600080fd5b50610162600480360381019061015d91906127ad565b6105ab565b60405161016f919061293a565b60405180910390f35b34801561018457600080fd5b5061019f600480360381019061019a919061295c565b6107ae565b6040516101ad9291906129ba565b60405180910390f35b3480156101c257600080fd5b506101dd60048036038101906101d891906127ad565b610864565b6040516101ea91906129fe565b60405180910390f35b3480156101ff57600080fd5b5061020861089f565b6040516102159190612ac8565b60405180910390f35b34801561022a57600080fd5b506102456004803603810190610240919061295c565b610a00565b005b610261600480360381019061025c9190612b16565b610b27565b005b34801561026f57600080fd5b5061028a60048036038101906102859190612bc6565b610fc5565b005b34801561029857600080fd5b506102b360048036038101906102ae9190612c3f565b6110d4565b005b3480156102c157600080fd5b506102dc60048036038101906102d7919061295c565b6111c3565b005b3480156102ea57600080fd5b5061030560048036038101906103009190612c6c565b61132e565b005b34801561031357600080fd5b5061032e600480360381019061032991906127ad565b6113ee565b005b34801561033c57600080fd5b50610345611981565b005b34801561035357600080fd5b5061036e600480360381019061036991906127ad565b611a09565b60405161037b9190612c99565b60405180910390f35b34801561039057600080fd5b50610399611a26565b6040516103a69190612cc3565b60405180910390f35b3480156103bb57600080fd5b506103c4611a3d565b6040516103d19190612cde565b60405180910390f35b3480156103e657600080fd5b506103ef611a66565b6040516103fc9190612cde565b60405180910390f35b34801561041157600080fd5b5061042c60048036038101906104279190612cf9565b611a90565b005b61044860048036038101906104439190612b16565b611fcb565b005b34801561045657600080fd5b50610471600480360381019061046c9190612c6c565b6125ae565b005b61047b6126a6565b73ffffffffffffffffffffffffffffffffffffffff16610499611a3d565b73ffffffffffffffffffffffffffffffffffffffff16146104ef576040517f08c379a00000000000000000000000000000000000000000000000000000000081526004016104e690612d96565b60405180910390fd5b60006104f9611a3d565b905060008173ffffffffffffffffffffffffffffffffffffffff164760405161052190612de7565b60006040518083038185875af1925050503d806000811461055e576040519150601f19603f3d011682016040523d82523d6000602084013e610563565b606091505b50509050806105a7576040517f08c379a000000000000000000000000000000000000000000000000000000000815260040161059e90612e48565b60405180910390fd5b5050565b606081600160009054906101000a900473ffffffffffffffffffffffffffffffffffffffff1673ffffffffffffffffffffffffffffffffffffffff16636352211e826040518263ffffffff1660e01b81526004016106099190612c99565b602060405180830381865afa158015610626573d6000803e3d6000fd5b505050506040513d601f19601f8201168201806040525081019061064a9190612e7d565b73ffffffffffffffffffffffffffffffffffffffff163373ffffffffffffffffffffffffffffffffffffffff16146106b7576040517f08c379a00000000000000000000000000000000000000000000000000000000081526004016106ae90612ef6565b60405180910390fd5b60046000848152602001908152602001600020805480602002602001604051908101604052809291908181526020016000905b828210156107a257838290600052602060002090600302016040518060600160405290816000820160009054906101000a900473ffffffffffffffffffffffffffffffffffffffff1673ffffffffffffffffffffffffffffffffffffffff1673ffffffffffffffffffffffffffffffffffffffff168152602001600182015481526020016002820160009054906101000a900463ffffffff1663ffffffff1663ffffffff1681525050815260200190600101906106ea565b50505050915050919050565b600080600080600160009054906101000a900473ffffffffffffffffffffffffffffffffffffffff1673ffffffffffffffffffffffffffffffffffffffff16632a55205a87876040518363ffffffff1660e01b8152600401610811929190612f16565b6040805180830381865afa15801561082d573d6000803e3d6000fd5b505050506040513d601f19601f820116820180604052508101906108519190612f54565b9150915081819350935050509250929050565b60006005600083815260200190815260200160002060009054906101000a900460ff1615610895576001905061089a565b600090505b919050565b6060600060065467ffffffffffffffff8111156108bf576108be612f94565b5b6040519080825280602002602001820160405280156108ed5781602001602082028036833780820191505090505b509050600080600190505b600160009054906101000a900473ffffffffffffffffffffffffffffffffffffffff1673ffffffffffffffffffffffffffffffffffffffff166318160ddd6040518163ffffffff1660e01b8152600401602060405180830381865afa158015610965573d6000803e3d6000fd5b505050506040513d601f19601f820116820180604052508101906109899190612fc3565b81116109f7576005600082815260200190815260200160002060009054906101000a900460ff16156109e457808383815181106109c9576109c8612ff0565b5b60200260200101818152505081806109e09061304e565b9250505b80806109ef9061304e565b9150506108f8565b50819250505090565b81600160009054906101000a900473ffffffffffffffffffffffffffffffffffffffff1673ffffffffffffffffffffffffffffffffffffffff16636352211e826040518263ffffffff1660e01b8152600401610a5c9190612c99565b602060405180830381865afa158015610a79573d6000803e3d6000fd5b505050506040513d601f19601f82011682018060405250810190610a9d9190612e7d565b73ffffffffffffffffffffffffffffffffffffffff163373ffffffffffffffffffffffffffffffffffffffff1614610b0a576040517f08c379a0000000000000000000000000000000000000000000000000000000008152600401610b0190612ef6565b60405180910390fd5b816007600085815260200190815260200160002081905550505050565b3373ffffffffffffffffffffffffffffffffffffffff16600160009054906101000a900473ffffffffffffffffffffffffffffffffffffffff1673ffffffffffffffffffffffffffffffffffffffff16636352211e846040518263ffffffff1660e01b8152600401610b999190612c99565b602060405180830381865afa158015610bb6573d6000803e3d6000fd5b505050506040513d601f19601f82011682018060405250810190610bda9190612e7d565b73ffffffffffffffffffffffffffffffffffffffff161415610c31576040517f08c379a0000000000000000000000000000000000000000000000000000000008152600401610c28906130e3565b60405180910390fd5b6005600083815260200190815260200160002060009054906101000a900460ff16610c91576040517f08c379a0000000000000000000000000000000000000000000000000000000008152600401610c889061314f565b60405180910390fd5b600073ffffffffffffffffffffffffffffffffffffffff16600160009054906101000a900473ffffffffffffffffffffffffffffffffffffffff1673ffffffffffffffffffffffffffffffffffffffff16636352211e846040518263ffffffff1660e01b8152600401610d049190612c99565b602060405180830381865afa158015610d21573d6000803e3d6000fd5b505050506040513d601f19601f82011682018060405250810190610d459190612e7d565b73ffffffffffffffffffffffffffffffffffffffff161415610d9c576040517f08c379a0000000000000000000000000000000000000000000000000000000008152600401610d93906131e1565b60405180910390fd5b6007600083815260200190815260200160002054341015610df2576040517f08c379a0000000000000000000000000000000000000000000000000000000008152600401610de99061324d565b60405180910390fd5b600080610dff84346107ae565b91509150600082905060008173ffffffffffffffffffffffffffffffffffffffff1683604051610e2e90612de7565b60006040518083038185875af1925050503d8060008114610e6b576040519150601f19603f3d011682016040523d82523d6000602084013e610e70565b606091505b5050905080610eb4576040517f08c379a0000000000000000000000000000000000000000000000000000000008152600401610eab906132b9565b60405180910390fd5b60405180606001604052803373ffffffffffffffffffffffffffffffffffffffff1681526020013481526020018663ffffffff168152506002600088815260200190815260200160002060008201518160000160006101000a81548173ffffffffffffffffffffffffffffffffffffffff021916908373ffffffffffffffffffffffffffffffffffffffff1602179055506020820151816001015560408201518160020160006101000a81548163ffffffff021916908363ffffffff16021790555090505060006005600088815260200190815260200160002060006101000a81548160ff02191690831515021790555060066000815480929190610fb8906132d9565b9190505550505050505050565b610fcd6126a6565b73ffffffffffffffffffffffffffffffffffffffff16610feb611a3d565b73ffffffffffffffffffffffffffffffffffffffff1614611041576040517f08c379a000000000000000000000000000000000000000000000000000000000815260040161103890612d96565b60405180910390fd5b600160009054906101000a900473ffffffffffffffffffffffffffffffffffffffff1673ffffffffffffffffffffffffffffffffffffffff16634815df1d83836040518363ffffffff1660e01b815260040161109e929190613312565b600060405180830381600087803b1580156110b857600080fd5b505af11580156110cc573d6000803e3d6000fd5b505050505050565b6110dc6126a6565b73ffffffffffffffffffffffffffffffffffffffff166110fa611a3d565b73ffffffffffffffffffffffffffffffffffffffff1614611150576040517f08c379a000000000000000000000000000000000000000000000000000000000815260040161114790612d96565b60405180910390fd5b60008160ff16118015611166575060648160ff16105b6111a5576040517f08c379a000000000000000000000000000000000000000000000000000000000815260040161119c90613387565b60405180910390fd5b80600160146101000a81548160ff021916908360ff16021790555050565b81600160009054906101000a900473ffffffffffffffffffffffffffffffffffffffff1673ffffffffffffffffffffffffffffffffffffffff16636352211e826040518263ffffffff1660e01b815260040161121f9190612c99565b602060405180830381865afa15801561123c573d6000803e3d6000fd5b505050506040513d601f19601f820116820180604052508101906112609190612e7d565b73ffffffffffffffffffffffffffffffffffffffff163373ffffffffffffffffffffffffffffffffffffffff16146112cd576040517f08c379a00000000000000000000000000000000000000000000000000000000081526004016112c490612ef6565b60405180910390fd5b60016005600085815260200190815260200160002060006101000a81548160ff021916908315150217905550816007600085815260200190815260200160002081905550600660008154809291906113249061304e565b9190505550505050565b6113366126a6565b73ffffffffffffffffffffffffffffffffffffffff16611354611a3d565b73ffffffffffffffffffffffffffffffffffffffff16146113aa576040517f08c379a00000000000000000000000000000000000000000000000000000000081526004016113a190612d96565b60405180910390fd5b80600160006101000a81548173ffffffffffffffffffffffffffffffffffffffff021916908373ffffffffffffffffffffffffffffffffffffffff16021790555050565b3373ffffffffffffffffffffffffffffffffffffffff16600160009054906101000a900473ffffffffffffffffffffffffffffffffffffffff1673ffffffffffffffffffffffffffffffffffffffff16636352211e836040518263ffffffff1660e01b81526004016114609190612c99565b602060405180830381865afa15801561147d573d6000803e3d6000fd5b505050506040513d601f19601f820116820180604052508101906114a19190612e7d565b73ffffffffffffffffffffffffffffffffffffffff1614156114f8576040517f08c379a00000000000000000000000000000000000000000000000000000000081526004016114ef906130e3565b60405180910390fd5b600073ffffffffffffffffffffffffffffffffffffffff16600160009054906101000a900473ffffffffffffffffffffffffffffffffffffffff1673ffffffffffffffffffffffffffffffffffffffff16636352211e836040518263ffffffff1660e01b815260040161156b9190612c99565b602060405180830381865afa158015611588573d6000803e3d6000fd5b505050506040513d601f19601f820116820180604052508101906115ac9190612e7d565b73ffffffffffffffffffffffffffffffffffffffff161415611603576040517f08c379a00000000000000000000000000000000000000000000000000000000081526004016115fa906131e1565b60405180910390fd5b600060046000838152602001908152602001600020805480602002602001604051908101604052809291908181526020016000905b828210156116f057838290600052602060002090600302016040518060600160405290816000820160009054906101000a900473ffffffffffffffffffffffffffffffffffffffff1673ffffffffffffffffffffffffffffffffffffffff1673ffffffffffffffffffffffffffffffffffffffff168152602001600182015481526020016002820160009054906101000a900463ffffffff1663ffffffff1663ffffffff168152505081526020019060010190611638565b50505050905060005b8151811015611913573373ffffffffffffffffffffffffffffffffffffffff1682828151811061172c5761172b612ff0565b5b60200260200101516000015173ffffffffffffffffffffffffffffffffffffffff1614156119005760003373ffffffffffffffffffffffffffffffffffffffff166064600160149054906101000a900460ff1660ff1685858151811061179557611794612ff0565b5b6020026020010151602001516117ab91906133a7565b6117b59190613430565b6040516117c190612de7565b60006040518083038185875af1925050503d80600081146117fe576040519150601f19603f3d011682016040523d82523d6000602084013e611803565b606091505b5050905080611847576040517f08c379a000000000000000000000000000000000000000000000000000000000815260040161183e906134ad565b60405180910390fd5b60046000858152602001908152602001600020828154811061186c5761186b612ff0565b5b9060005260206000209060030201600080820160006101000a81549073ffffffffffffffffffffffffffffffffffffffff021916905560018201600090556002820160006101000a81549063ffffffff021916905550507f5df43fd1d761a6f554d17dc183de87d3f3567edb7dccd3a5116bf5e3d06d540e846040516118f29190612c99565b60405180910390a150611913565b808061190b9061304e565b9150506116f9565b5060006003600084815260200190815260200160002060003373ffffffffffffffffffffffffffffffffffffffff1673ffffffffffffffffffffffffffffffffffffffff16815260200190815260200160002060006101000a81548160ff0219169083151502179055505050565b6119896126a6565b73ffffffffffffffffffffffffffffffffffffffff166119a7611a3d565b73ffffffffffffffffffffffffffffffffffffffff16146119fd576040517f08c379a00000000000000000000000000000000000000000000000000000000081526004016119f490612d96565b60405180910390fd5b611a0760006126ae565b565b600060076000838152602001908152602001600020549050919050565b6000600160149054906101000a900460ff16905090565b60008060009054906101000a900473ffffffffffffffffffffffffffffffffffffffff16905090565b6000600160009054906101000a900473ffffffffffffffffffffffffffffffffffffffff16905090565b81600160009054906101000a900473ffffffffffffffffffffffffffffffffffffffff1673ffffffffffffffffffffffffffffffffffffffff16636352211e826040518263ffffffff1660e01b8152600401611aec9190612c99565b602060405180830381865afa158015611b09573d6000803e3d6000fd5b505050506040513d601f19601f82011682018060405250810190611b2d9190612e7d565b73ffffffffffffffffffffffffffffffffffffffff163373ffffffffffffffffffffffffffffffffffffffff1614611b9a576040517f08c379a0000000000000000000000000000000000000000000000000000000008152600401611b9190612ef6565b60405180910390fd5b600060046000858152602001908152602001600020805480602002602001604051908101604052809291908181526020016000905b82821015611c8757838290600052602060002090600302016040518060600160405290816000820160009054906101000a900473ffffffffffffffffffffffffffffffffffffffff1673ffffffffffffffffffffffffffffffffffffffff1673ffffffffffffffffffffffffffffffffffffffff168152602001600182015481526020016002820160009054906101000a900463ffffffff1663ffffffff1663ffffffff168152505081526020019060010190611bcf565b50505050905060005b8151811015611f43578373ffffffffffffffffffffffffffffffffffffffff16828281518110611cc357611cc2612ff0565b5b60200260200101516000015173ffffffffffffffffffffffffffffffffffffffff161415611f3057600080611d1687858581518110611d0557611d04612ff0565b5b6020026020010151602001516107ae565b91509150600082905060008173ffffffffffffffffffffffffffffffffffffffff1683604051611d4590612de7565b60006040518083038185875af1925050503d8060008114611d82576040519150601f19603f3d011682016040523d82523d6000602084013e611d87565b606091505b5050905080611dcb576040517f08c379a0000000000000000000000000000000000000000000000000000000008152600401611dc2906132b9565b60405180910390fd5b858581518110611dde57611ddd612ff0565b5b6020026020010151600260008b815260200190815260200160002060008201518160000160006101000a81548173ffffffffffffffffffffffffffffffffffffffff021916908373ffffffffffffffffffffffffffffffffffffffff1602179055506020820151816001015560408201518160020160006101000a81548163ffffffff021916908363ffffffff160217905550905050600460008a81526020019081526020016000208581548110611e9957611e98612ff0565b5b9060005260206000209060030201600080820160006101000a81549073ffffffffffffffffffffffffffffffffffffffff021916905560018201600090556002820160006101000a81549063ffffffff021916905550507f5df43fd1d761a6f554d17dc183de87d3f3567edb7dccd3a5116bf5e3d06d540e89604051611f1f9190612c99565b60405180910390a150505050611f43565b8080611f3b9061304e565b915050611c90565b5060006003600086815260200190815260200160002060008573ffffffffffffffffffffffffffffffffffffffff1673ffffffffffffffffffffffffffffffffffffffff16815260200190815260200160002060006101000a81548160ff02191690831515021790555060066000815480929190611fc0906132d9565b919050555050505050565b3373ffffffffffffffffffffffffffffffffffffffff16600160009054906101000a900473ffffffffffffffffffffffffffffffffffffffff1673ffffffffffffffffffffffffffffffffffffffff16636352211e846040518263ffffffff1660e01b815260040161203d9190612c99565b602060405180830381865afa15801561205a573d6000803e3d6000fd5b505050506040513d601f19601f8201168201806040525081019061207e9190612e7d565b73ffffffffffffffffffffffffffffffffffffffff1614156120d5576040517f08c379a00000000000000000000000000000000000000000000000000000000081526004016120cc906130e3565b60405180910390fd5b600073ffffffffffffffffffffffffffffffffffffffff16600160009054906101000a900473ffffffffffffffffffffffffffffffffffffffff1673ffffffffffffffffffffffffffffffffffffffff16636352211e846040518263ffffffff1660e01b81526004016121489190612c99565b602060405180830381865afa158015612165573d6000803e3d6000fd5b505050506040513d601f19601f820116820180604052508101906121899190612e7d565b73ffffffffffffffffffffffffffffffffffffffff1614156121e0576040517f08c379a00000000000000000000000000000000000000000000000000000000081526004016121d7906131e1565b60405180910390fd5b600a600160009054906101000a900473ffffffffffffffffffffffffffffffffffffffff1673ffffffffffffffffffffffffffffffffffffffff16635586402d600160009054906101000a900473ffffffffffffffffffffffffffffffffffffffff1673ffffffffffffffffffffffffffffffffffffffff1663669aa2a3866040518263ffffffff1660e01b815260040161227b9190612c99565b602060405180830381865afa158015612298573d6000803e3d6000fd5b505050506040513d601f19601f820116820180604052508101906122bc91906134e2565b6040518263ffffffff1660e01b81526004016122d89190612cc3565b602060405180830381865afa1580156122f5573d6000803e3d6000fd5b505050506040513d601f19601f820116820180604052508101906123199190612fc3565b6123239190613430565b341015612365576040517f08c379a000000000000000000000000000000000000000000000000000000000815260040161235c90613581565b60405180910390fd5b601e8163ffffffff1610156123af576040517f08c379a00000000000000000000000000000000000000000000000000000000081526004016123a690613613565b60405180910390fd5b600115156003600084815260200190815260200160002060003373ffffffffffffffffffffffffffffffffffffffff1673ffffffffffffffffffffffffffffffffffffffff16815260200190815260200160002060009054906101000a900460ff1615151415612454576040517f08c379a000000000000000000000000000000000000000000000000000000000815260040161244b9061367f565b60405180910390fd5b6004600083815260200190815260200160002060405180606001604052803373ffffffffffffffffffffffffffffffffffffffff1681526020013481526020018363ffffffff16815250908060018154018082558091505060019003906000526020600020906003020160009091909190915060008201518160000160006101000a81548173ffffffffffffffffffffffffffffffffffffffff021916908373ffffffffffffffffffffffffffffffffffffffff1602179055506020820151816001015560408201518160020160006101000a81548163ffffffff021916908363ffffffff160217905550505060016003600084815260200190815260200160002060003373ffffffffffffffffffffffffffffffffffffffff1673ffffffffffffffffffffffffffffffffffffffff16815260200190815260200160002060006101000a81548160ff0219169083151502179055505050565b6125b66126a6565b73ffffffffffffffffffffffffffffffffffffffff166125d4611a3d565b73ffffffffffffffffffffffffffffffffffffffff161461262a576040517f08c379a000000000000000000000000000000000000000000000000000000000815260040161262190612d96565b60405180910390fd5b600073ffffffffffffffffffffffffffffffffffffffff168173ffffffffffffffffffffffffffffffffffffffff16141561269a576040517f08c379a000000000000000000000000000000000000000000000000000000000815260040161269190613711565b60405180910390fd5b6126a3816126ae565b50565b600033905090565b60008060009054906101000a900473ffffffffffffffffffffffffffffffffffffffff169050816000806101000a81548173ffffffffffffffffffffffffffffffffffffffff021916908373ffffffffffffffffffffffffffffffffffffffff1602179055508173ffffffffffffffffffffffffffffffffffffffff168173ffffffffffffffffffffffffffffffffffffffff167f8be0079c531659141344cd1fd0a4f28419497f9722a3daafe3b4186f6b6457e060405160405180910390a35050565b600080fd5b6000819050919050565b61278a81612777565b811461279557600080fd5b50565b6000813590506127a781612781565b92915050565b6000602082840312156127c3576127c2612772565b5b60006127d184828501612798565b91505092915050565b600081519050919050565b600082825260208201905092915050565b6000819050602082019050919050565b600073ffffffffffffffffffffffffffffffffffffffff82169050919050565b600061283182612806565b9050919050565b61284181612826565b82525050565b61285081612777565b82525050565b600063ffffffff82169050919050565b61286f81612856565b82525050565b60608201600082015161288b6000850182612838565b50602082015161289e6020850182612847565b5060408201516128b16040850182612866565b50505050565b60006128c38383612875565b60608301905092915050565b6000602082019050919050565b60006128e7826127da565b6128f181856127e5565b93506128fc836127f6565b8060005b8381101561292d57815161291488826128b7565b975061291f836128cf565b925050600181019050612900565b5085935050505092915050565b6000602082019050818103600083015261295481846128dc565b905092915050565b6000806040838503121561297357612972612772565b5b600061298185828601612798565b925050602061299285828601612798565b9150509250929050565b6129a581612826565b82525050565b6129b481612777565b82525050565b60006040820190506129cf600083018561299c565b6129dc60208301846129ab565b9392505050565b60008115159050919050565b6129f8816129e3565b82525050565b6000602082019050612a1360008301846129ef565b92915050565b600081519050919050565b600082825260208201905092915050565b6000819050602082019050919050565b6000612a518383612847565b60208301905092915050565b6000602082019050919050565b6000612a7582612a19565b612a7f8185612a24565b9350612a8a83612a35565b8060005b83811015612abb578151612aa28882612a45565b9750612aad83612a5d565b925050600181019050612a8e565b5085935050505092915050565b60006020820190508181036000830152612ae28184612a6a565b905092915050565b612af381612856565b8114612afe57600080fd5b50565b600081359050612b1081612aea565b92915050565b60008060408385031215612b2d57612b2c612772565b5b6000612b3b85828601612798565b9250506020612b4c85828601612b01565b9150509250929050565b612b5f81612826565b8114612b6a57600080fd5b50565b600081359050612b7c81612b56565b92915050565b60006bffffffffffffffffffffffff82169050919050565b612ba381612b82565b8114612bae57600080fd5b50565b600081359050612bc081612b9a565b92915050565b60008060408385031215612bdd57612bdc612772565b5b6000612beb85828601612b6d565b9250506020612bfc85828601612bb1565b9150509250929050565b600060ff82169050919050565b612c1c81612c06565b8114612c2757600080fd5b50565b600081359050612c3981612c13565b92915050565b600060208284031215612c5557612c54612772565b5b6000612c6384828501612c2a565b91505092915050565b600060208284031215612c8257612c81612772565b5b6000612c9084828501612b6d565b91505092915050565b6000602082019050612cae60008301846129ab565b92915050565b612cbd81612c06565b82525050565b6000602082019050612cd86000830184612cb4565b92915050565b6000602082019050612cf3600083018461299c565b92915050565b60008060408385031215612d1057612d0f612772565b5b6000612d1e85828601612798565b9250506020612d2f85828601612b6d565b9150509250929050565b600082825260208201905092915050565b7f4f776e61626c653a2063616c6c6572206973206e6f7420746865206f776e6572600082015250565b6000612d80602083612d39565b9150612d8b82612d4a565b602082019050919050565b60006020820190508181036000830152612daf81612d73565b9050919050565b600081905092915050565b50565b6000612dd1600083612db6565b9150612ddc82612dc1565b600082019050919050565b6000612df282612dc4565b9150819050919050565b7f4661696c656420746f2057697468647261772056455400000000000000000000600082015250565b6000612e32601683612d39565b9150612e3d82612dfc565b602082019050919050565b60006020820190508181036000830152612e6181612e25565b9050919050565b600081519050612e7781612b56565b92915050565b600060208284031215612e9357612e92612772565b5b6000612ea184828501612e68565b91505092915050565b7f63616c6c6572206973206e6f7420746865206f776e6572206f6620746f6b656e600082015250565b6000612ee0602083612d39565b9150612eeb82612eaa565b602082019050919050565b60006020820190508181036000830152612f0f81612ed3565b9050919050565b6000604082019050612f2b60008301856129ab565b612f3860208301846129ab565b9392505050565b600081519050612f4e81612781565b92915050565b60008060408385031215612f6b57612f6a612772565b5b6000612f7985828601612e68565b9250506020612f8a85828601612f3f565b9150509250929050565b7f4e487b7100000000000000000000000000000000000000000000000000000000600052604160045260246000fd5b600060208284031215612fd957612fd8612772565b5b6000612fe784828501612f3f565b91505092915050565b7f4e487b7100000000000000000000000000000000000000000000000000000000600052603260045260246000fd5b7f4e487b7100000000000000000000000000000000000000000000000000000000600052601160045260246000fd5b600061305982612777565b91507fffffffffffffffffffffffffffffffffffffffffffffffffffffffffffffffff82141561308c5761308b61301f565b5b600182019050919050565b7f596f752063616e27742062757920796f7572732e000000000000000000000000600082015250565b60006130cd601483612d39565b91506130d882613097565b602082019050919050565b600060208201905081810360008301526130fc816130c0565b9050919050565b7f546f6b656e206973206e6f74207075626c696300000000000000000000000000600082015250565b6000613139601383612d39565b915061314482613103565b602082019050919050565b600060208201905081810360008301526131688161312c565b9050919050565b7f596f752063616e27742073656e64206f66666572206e6f2d6f776e657220746f60008201527f6b656e0000000000000000000000000000000000000000000000000000000000602082015250565b60006131cb602383612d39565b91506131d68261316f565b604082019050919050565b600060208201905081810360008301526131fa816131be565b9050919050565b7f416d6f756e74206f662065746865722073656e74206e6f7420656e6f7567682e600082015250565b6000613237602083612d39565b915061324282613201565b602082019050919050565b600060208201905081810360008301526132668161322a565b9050919050565b7f4661696c656420746f2050617920526f79616c74792066656500000000000000600082015250565b60006132a3601983612d39565b91506132ae8261326d565b602082019050919050565b600060208201905081810360008301526132d281613296565b9050919050565b60006132e482612777565b915060008214156132f8576132f761301f565b5b600182039050919050565b61330c81612b82565b82525050565b6000604082019050613327600083018561299c565b6133346020830184613303565b9392505050565b7f496e76616c6965642070657263656e746167652076616c756500000000000000600082015250565b6000613371601983612d39565b915061337c8261333b565b602082019050919050565b600060208201905081810360008301526133a081613364565b9050919050565b60006133b282612777565b91506133bd83612777565b9250817fffffffffffffffffffffffffffffffffffffffffffffffffffffffffffffffff04831182151516156133f6576133f561301f565b5b828202905092915050565b7f4e487b7100000000000000000000000000000000000000000000000000000000600052601260045260246000fd5b600061343b82612777565b915061344683612777565b92508261345657613455613401565b5b828204905092915050565b7f4661696c656420746f20726566756e6400000000000000000000000000000000600082015250565b6000613497601083612d39565b91506134a282613461565b602082019050919050565b600060208201905081810360008301526134c68161348a565b9050919050565b6000815190506134dc81612c13565b92915050565b6000602082840312156134f8576134f7612772565b5b6000613506848285016134cd565b91505092915050565b7f416d6f756e74206f662065746865722073656e74206e6f7420636f727265637460008201527f2e00000000000000000000000000000000000000000000000000000000000000602082015250565b600061356b602183612d39565b91506135768261350f565b604082019050919050565b6000602082019050818103600083015261359a8161355e565b9050919050565b7f546865206d696e696d756d20746f206c6561736520746865206d656d6265727360008201527f68697020697320333020646179732e0000000000000000000000000000000000602082015250565b60006135fd602f83612d39565b9150613608826135a1565b604082019050919050565b6000602082019050818103600083015261362c816135f0565b9050919050565b7f596f752063616e27742073656e64206d75746c69206f66666572000000000000600082015250565b6000613669601a83612d39565b915061367482613633565b602082019050919050565b600060208201905081810360008301526136988161365c565b9050919050565b7f4f776e61626c653a206e6577206f776e657220697320746865207a65726f206160008201527f6464726573730000000000000000000000000000000000000000000000000000602082015250565b60006136fb602683612d39565b91506137068261369f565b604082019050919050565b6000602082019050818103600083015261372a816136ee565b905091905056fea2646970667358221220bfd49f3482a30178c5abf038464361ecb5cd3ec41eb03bb220208301a740ec0964736f6c634300080b0033",
  "immutableReferences": {},
  "source": "// SPDX-License-Identifier: MIT\r\npragma solidity >=0.8.9 <0.9.0;\r\nimport \"@openzeppelin/contracts/token/ERC721/IERC721.sol\";\r\nimport \"@openzeppelin/contracts/access/Ownable.sol\";\r\n\r\ninterface IFYC is IERC721 {\r\n    function totalSupply() external view returns(uint256 number);\r\n    function getTierNumberOf(uint256 _tokenId) external view returns(uint8 tierNumber);\r\n    function getTierPrice(uint8 tierNumber) external view returns(uint256 tierPrice);\r\n    function royaltyInfo(uint256 _tokenId, uint256 _salePrice) external view returns (address roalityReceiver, uint256 royaltyAmount);\r\n    function setRoality(address receiver, uint96 feeNumerator) external;\r\n}\r\n\r\ncontract Leasing is Ownable {\r\n    event ApproveLeasing(uint tokenId);\r\n\r\n    IFYC _nft;\r\n    uint8 private _refundPercentFee = 98;\r\n\r\n    struct LeaseOffer {\r\n        address from;\r\n        uint256 price;\r\n        uint32 expiresIn;\r\n    }\r\n    mapping (uint256 => LeaseOffer) private _lease;\r\n    mapping(uint256 => mapping(address => bool)) _offerState;\r\n    mapping (uint256 => LeaseOffer[]) leaseOffers;\r\n    mapping (uint256 => bool) leasable;\r\n    uint256 leasableTokenCount = 0;\r\n    mapping (uint256 => uint256) leasePrices;\r\n    \r\n    modifier onlyOwnerOf(uint256 _tokenId) {\r\n        require(msg.sender == address(_nft.ownerOf(_tokenId)), \"caller is not the owner of token\");\r\n        _;\r\n    }\r\n\r\n    function getNFTAddress() external view returns(address) {\r\n        return address(_nft);\r\n    }\r\n\r\n    function setNFTAddress(address nft_address) external onlyOwner {\r\n        _nft = IFYC(nft_address);\r\n    }\r\n\r\n    function withDraw() external onlyOwner {\r\n        address payable tgt = payable(owner());\r\n        (bool success1, ) = tgt.call{value:address(this).balance}(\"\");\r\n        require(success1, \"Failed to Withdraw VET\");\r\n    }\r\n\r\n    function getRoalityInfo(uint256 _tokenId, uint256 _salePrice) public view returns(address, uint256) {\r\n        (address roalityReceiver, uint256 royaltyAmount) = _nft.royaltyInfo(_tokenId, _salePrice);\r\n\r\n        return (roalityReceiver, royaltyAmount);\r\n    }\r\n\r\n    /**\r\n     * @dev The denominator with which to interpret the fee set in {_setTokenRoyalty} and {_setDefaultRoyalty} as a\r\n     * fraction of the sale price. Defaults to 10000 so fees are expressed in basis points.\r\n     */\r\n    function setRoality(address receiver, uint96 feeNumerator) external onlyOwner {\r\n        _nft.setRoality(receiver, feeNumerator);\r\n    }\r\n\r\n    function getRefundFee() external view returns(uint8) {\r\n        return _refundPercentFee;\r\n    }\r\n\r\n    function setRefundFee(uint8 fee) external onlyOwner {\r\n        require(fee > 0 && fee <100, \"Invalied percentage value\");\r\n        _refundPercentFee = fee;\r\n    }\r\n\r\n    function getLeasable(uint256 _tokenId) external view returns(bool) {\r\n        if(leasable[_tokenId]) return true;\r\n        else return false;\r\n    }\r\n\r\n    function setLeasable(uint256 _tokenId, uint256 _price) external onlyOwnerOf(_tokenId) {\r\n        leasable[_tokenId] = true;\r\n        leasePrices[_tokenId] = _price;\r\n        leasableTokenCount++;\r\n    }\r\n\r\n    function getLeasePrice(uint256 _tokenId) external view returns(uint256) {\r\n        return leasePrices[_tokenId];\r\n    }\r\n\r\n    function setLeasePrice(uint256 _tokenId, uint256 _price) external onlyOwnerOf(_tokenId) {\r\n        leasePrices[_tokenId] = _price;\r\n    }\r\n\r\n    function getLeaseOffers(uint256 _tokenId) external view onlyOwnerOf(_tokenId) returns(LeaseOffer[] memory) {\r\n        return leaseOffers[_tokenId];\r\n    }\r\n\r\n    function approveLeaseOffer(uint256 _tokenId, address _from) external onlyOwnerOf(_tokenId) {\r\n        LeaseOffer[] memory tokenLeaseOffers = leaseOffers[_tokenId];\r\n\r\n        for(uint256 i = 0; i < tokenLeaseOffers.length; i++) {\r\n            if(tokenLeaseOffers[i].from == _from) {\r\n                (address royaltyReceiver, uint256 roaltyAmount) = getRoalityInfo(_tokenId, tokenLeaseOffers[i].price);\r\n                address payable _royaltyReceiver = payable(royaltyReceiver);\r\n                (bool success1, ) = _royaltyReceiver.call{ value: roaltyAmount }(\"\");\r\n                require(success1, \"Failed to Pay Royalty fee\");\r\n                _lease[_tokenId] = tokenLeaseOffers[i];\r\n                delete leaseOffers[_tokenId][i];\r\n\r\n                emit ApproveLeasing(_tokenId);\r\n                break;\r\n            }\r\n        }\r\n        _offerState[_tokenId][_from] = false;\r\n        leasableTokenCount--;\r\n    }\r\n\r\n    function calcenLeaseOffer(uint256 _tokenId) external {\r\n        require(_nft.ownerOf(_tokenId) != msg.sender, \"You can't buy yours.\");\r\n        require(_nft.ownerOf(_tokenId) != address(0), \"You can't send offer no-owner token\");\r\n        LeaseOffer[] memory tokenLeaseOffers = leaseOffers[_tokenId];\r\n\r\n        for(uint256 i = 0; i < tokenLeaseOffers.length; i++) {\r\n            if(tokenLeaseOffers[i].from == msg.sender) {\r\n                (bool success1, ) = msg.sender.call{ value: tokenLeaseOffers[i].price * _refundPercentFee / 100 }(\"\");\r\n                require(success1, \"Failed to refund\");\r\n                delete leaseOffers[_tokenId][i];\r\n\r\n                emit ApproveLeasing(_tokenId);\r\n                break;\r\n            }\r\n        }\r\n\r\n        _offerState[_tokenId][msg.sender] = false;\r\n    }\r\n\r\n    function getLeasableTokens() external view returns(uint256[] memory) {\r\n        uint256[] memory leasableTokenIds = new uint256[](leasableTokenCount);\r\n\r\n        uint256 counter = 0;\r\n        for(uint256 i = 1; i <= _nft.totalSupply(); i++) {\r\n            if (leasable[i]) {\r\n                leasableTokenIds[counter] = i;\r\n                counter++;\r\n            }\r\n        }\r\n\r\n        return leasableTokenIds;\r\n    }\r\n\r\n    function sendLeaseOffer(uint256 _tokenId, uint32 _expiresIn) public payable {\r\n        require(_nft.ownerOf(_tokenId) != msg.sender, \"You can't buy yours.\");\r\n        require(_nft.ownerOf(_tokenId) != address(0), \"You can't send offer no-owner token\");\r\n        require(msg.value >= _nft.getTierPrice(_nft.getTierNumberOf(_tokenId)) / 10, \"Amount of ether sent not correct.\");\r\n        require(_expiresIn >= 30, \"The minimum to lease the membership is 30 days.\");\r\n        require(_offerState[_tokenId][msg.sender] != true, \"You can't send mutli offer\");\r\n        leaseOffers[_tokenId].push(LeaseOffer(msg.sender, msg.value, _expiresIn));\r\n        _offerState[_tokenId][msg.sender] = true;\r\n    }\r\n\r\n    function lease(uint256 _tokenId, uint32 _expiresIn) external payable {\r\n        require(_nft.ownerOf(_tokenId) != msg.sender, \"You can't buy yours.\");\r\n        require(leasable[_tokenId], \"Token is not public\");\r\n        require(_nft.ownerOf(_tokenId) != address(0), \"You can't send offer no-owner token\");\r\n        require(msg.value >= leasePrices[_tokenId], \"Amount of ether sent not enough.\");\r\n\r\n        (address royaltyReceiver, uint256 roaltyAmount) = getRoalityInfo(_tokenId, msg.value);\r\n        address payable _royaltyReceiver = payable(royaltyReceiver);\r\n        (bool success1, ) = _royaltyReceiver.call{ value: roaltyAmount }(\"\");\r\n        require(success1, \"Failed to Pay Royalty fee\");\r\n\r\n        _lease[_tokenId] = LeaseOffer(msg.sender, msg.value, _expiresIn);\r\n        leasable[_tokenId] = false;\r\n        leasableTokenCount--;\r\n    }\r\n}",
  "sourcePath": "F:\\www-2022\\fathonclub-work\\app\\contracts\\Leasing.sol",
  "compiler": {
    "name": "solc",
    "version": "0.8.11+commit.d7f03943.Emscripten.clang"
  },
  "schemaVersion": "3.4.5",
  "updatedAt": "2022-03-15T16:01:26.351Z",
  "devdoc": {
    "kind": "dev",
    "methods": {
      "owner()": {
        "details": "Returns the address of the current owner."
      },
      "renounceOwnership()": {
        "details": "Leaves the contract without owner. It will not be possible to call `onlyOwner` functions anymore. Can only be called by the current owner. NOTE: Renouncing ownership will leave the contract without an owner, thereby removing any functionality that is only available to the owner."
      },
      "setRoality(address,uint96)": {
        "details": "The denominator with which to interpret the fee set in {_setTokenRoyalty} and {_setDefaultRoyalty} as a fraction of the sale price. Defaults to 10000 so fees are expressed in basis points."
      },
      "transferOwnership(address)": {
        "details": "Transfers ownership of the contract to a new account (`newOwner`). Can only be called by the current owner."
      }
    },
    "version": 1
  },
  "userdoc": {
    "kind": "user",
    "methods": {},
    "version": 1
  }
}