{
  "contractName": "Leasing",
  "abi": [
    {
      "anonymous": false,
      "inputs": [
        {
          "indexed": false,
          "internalType": "uint256",
          "name": "tokenId",
          "type": "uint256"
        }
      ],
      "name": "ApproveLeasing",
      "type": "event"
    },
    {
      "anonymous": false,
      "inputs": [
        {
          "indexed": true,
          "internalType": "address",
          "name": "previousOwner",
          "type": "address"
        },
        {
          "indexed": true,
          "internalType": "address",
          "name": "newOwner",
          "type": "address"
        }
      ],
      "name": "OwnershipTransferred",
      "type": "event"
    },
    {
      "inputs": [],
      "name": "owner",
      "outputs": [
        {
          "internalType": "address",
          "name": "",
          "type": "address"
        }
      ],
      "stateMutability": "view",
      "type": "function"
    },
    {
      "inputs": [],
      "name": "renounceOwnership",
      "outputs": [],
      "stateMutability": "nonpayable",
      "type": "function"
    },
    {
      "inputs": [
        {
          "internalType": "address",
          "name": "newOwner",
          "type": "address"
        }
      ],
      "name": "transferOwnership",
      "outputs": [],
      "stateMutability": "nonpayable",
      "type": "function"
    },
    {
      "inputs": [],
      "name": "getNFTAddress",
      "outputs": [
        {
          "internalType": "address",
          "name": "",
          "type": "address"
        }
      ],
      "stateMutability": "view",
      "type": "function"
    },
    {
      "inputs": [
        {
          "internalType": "address",
          "name": "nft_address",
          "type": "address"
        }
      ],
      "name": "setNFTAddress",
      "outputs": [],
      "stateMutability": "nonpayable",
      "type": "function"
    },
    {
      "inputs": [],
      "name": "withDraw",
      "outputs": [],
      "stateMutability": "nonpayable",
      "type": "function"
    },
    {
      "inputs": [
        {
          "internalType": "uint256",
          "name": "_tokenId",
          "type": "uint256"
        },
        {
          "internalType": "uint256",
          "name": "_salePrice",
          "type": "uint256"
        }
      ],
      "name": "getRoalityInfo",
      "outputs": [
        {
          "internalType": "address",
          "name": "",
          "type": "address"
        },
        {
          "internalType": "uint256",
          "name": "",
          "type": "uint256"
        }
      ],
      "stateMutability": "view",
      "type": "function"
    },
    {
      "inputs": [
        {
          "internalType": "address",
          "name": "receiver",
          "type": "address"
        },
        {
          "internalType": "uint96",
          "name": "feeNumerator",
          "type": "uint96"
        }
      ],
      "name": "setRoality",
      "outputs": [],
      "stateMutability": "nonpayable",
      "type": "function"
    },
    {
      "inputs": [],
      "name": "getRefundFee",
      "outputs": [
        {
          "internalType": "uint8",
          "name": "",
          "type": "uint8"
        }
      ],
      "stateMutability": "view",
      "type": "function"
    },
    {
      "inputs": [
        {
          "internalType": "uint8",
          "name": "fee",
          "type": "uint8"
        }
      ],
      "name": "setRefundFee",
      "outputs": [],
      "stateMutability": "nonpayable",
      "type": "function"
    },
    {
      "inputs": [
        {
          "internalType": "uint256",
          "name": "_tokenId",
          "type": "uint256"
        }
      ],
      "name": "getLeasable",
      "outputs": [
        {
          "internalType": "bool",
          "name": "",
          "type": "bool"
        }
      ],
      "stateMutability": "view",
      "type": "function"
    },
    {
      "inputs": [
        {
          "internalType": "uint256",
          "name": "_tokenId",
          "type": "uint256"
        },
        {
          "internalType": "uint256",
          "name": "_price",
          "type": "uint256"
        },
        {
          "internalType": "uint32",
          "name": "_duration",
          "type": "uint32"
        }
      ],
      "name": "setTokenLeasable",
      "outputs": [],
      "stateMutability": "nonpayable",
      "type": "function"
    },
    {
      "inputs": [
        {
          "internalType": "uint256",
          "name": "_tokenId",
          "type": "uint256"
        }
      ],
      "name": "getLeasableToken",
      "outputs": [
        {
          "components": [
            {
              "internalType": "uint256",
              "name": "tokenId",
              "type": "uint256"
            },
            {
              "internalType": "uint256",
              "name": "price",
              "type": "uint256"
            },
            {
              "internalType": "uint32",
              "name": "duration",
              "type": "uint32"
            }
          ],
          "internalType": "struct Leasing.LeasableToken",
          "name": "",
          "type": "tuple"
        }
      ],
      "stateMutability": "view",
      "type": "function"
    },
    {
      "inputs": [
        {
          "internalType": "uint256",
          "name": "_tokenId",
          "type": "uint256"
        },
        {
          "internalType": "uint256",
          "name": "_price",
          "type": "uint256"
        },
        {
          "internalType": "uint32",
          "name": "_duration",
          "type": "uint32"
        }
      ],
      "name": "updateLeasableToken",
      "outputs": [],
      "stateMutability": "nonpayable",
      "type": "function"
    },
    {
      "inputs": [
        {
          "internalType": "uint256",
          "name": "_tokenId",
          "type": "uint256"
        }
      ],
      "name": "cancelTokenLeasable",
      "outputs": [],
      "stateMutability": "nonpayable",
      "type": "function"
    },
    {
      "inputs": [],
      "name": "getLeasableTokens",
      "outputs": [
        {
          "components": [
            {
              "internalType": "uint256",
              "name": "tokenId",
              "type": "uint256"
            },
            {
              "internalType": "uint256",
              "name": "price",
              "type": "uint256"
            },
            {
              "internalType": "uint32",
              "name": "duration",
              "type": "uint32"
            }
          ],
          "internalType": "struct Leasing.LeasableToken[]",
          "name": "",
          "type": "tuple[]"
        }
      ],
      "stateMutability": "view",
      "type": "function"
    },
    {
      "inputs": [
        {
          "internalType": "uint256",
          "name": "_tokenId",
          "type": "uint256"
        }
      ],
      "name": "getLeaseOffers",
      "outputs": [
        {
          "components": [
            {
              "internalType": "address",
              "name": "from",
              "type": "address"
            },
            {
              "internalType": "uint256",
              "name": "price",
              "type": "uint256"
            },
            {
              "internalType": "uint32",
              "name": "expiresIn",
              "type": "uint32"
            }
          ],
          "internalType": "struct Leasing.LeaseOffer[]",
          "name": "",
          "type": "tuple[]"
        }
      ],
      "stateMutability": "view",
      "type": "function"
    },
    {
      "inputs": [
        {
          "internalType": "address",
          "name": "from",
          "type": "address"
        },
        {
          "internalType": "address",
          "name": "to",
          "type": "address"
        },
        {
          "internalType": "uint256",
          "name": "amount",
          "type": "uint256"
        }
      ],
      "name": "trasferWeth",
      "outputs": [
        {
          "internalType": "bool",
          "name": "",
          "type": "bool"
        }
      ],
      "stateMutability": "nonpayable",
      "type": "function"
    },
    {
      "inputs": [
        {
          "internalType": "uint256",
          "name": "_tokenId",
          "type": "uint256"
        },
        {
          "internalType": "address",
          "name": "_from",
          "type": "address"
        }
      ],
      "name": "approveLeaseOffer",
      "outputs": [],
      "stateMutability": "nonpayable",
      "type": "function"
    },
    {
      "inputs": [
        {
          "internalType": "uint256",
          "name": "_tokenId",
          "type": "uint256"
        }
      ],
      "name": "calcenLeaseOffer",
      "outputs": [],
      "stateMutability": "nonpayable",
      "type": "function"
    },
    {
      "inputs": [
        {
          "internalType": "uint256",
          "name": "_tokenId",
          "type": "uint256"
        },
        {
          "internalType": "uint256",
          "name": "_amount",
          "type": "uint256"
        },
        {
          "internalType": "uint32",
          "name": "_expiresIn",
          "type": "uint32"
        }
      ],
      "name": "sendLeaseOffer",
      "outputs": [],
      "stateMutability": "payable",
      "type": "function"
    },
    {
      "inputs": [
        {
          "internalType": "uint256",
          "name": "_tokenId",
          "type": "uint256"
        },
        {
          "internalType": "uint32",
          "name": "_expiresIn",
          "type": "uint32"
        }
      ],
      "name": "lease",
      "outputs": [],
      "stateMutability": "payable",
      "type": "function"
    }
  ],
  "bytecode": "0x608060405273c778417e063141139fce010982780140aa0cd5ab600160006101000a81548173ffffffffffffffffffffffffffffffffffffffff021916908373ffffffffffffffffffffffffffffffffffffffff1602179055506062600260146101000a81548160ff021916908360ff1602179055503480156200008257600080fd5b50620000a362000097620000a960201b60201c565b620000b160201b60201c565b62000175565b600033905090565b60008060009054906101000a900473ffffffffffffffffffffffffffffffffffffffff169050816000806101000a81548173ffffffffffffffffffffffffffffffffffffffff021916908373ffffffffffffffffffffffffffffffffffffffff1602179055508173ffffffffffffffffffffffffffffffffffffffff168173ffffffffffffffffffffffffffffffffffffffff167f8be0079c531659141344cd1fd0a4f28419497f9722a3daafe3b4186f6b6457e060405160405180910390a35050565b6147e280620001856000396000f3fe6080604052600436106101355760003560e01c80636dd15b3e116100ab578063b96184781161006f578063b9618478146103e3578063c98100b11461040e578063d2d3b70514610437578063db7aa09014610460578063f2fde38b1461049d578063f41f098a146104c657610135565b80636dd15b3e1461031d578063715018a61461035a578063836807fc1461037157806388ea92d81461039c5780638da5cb5b146103b857610135565b806339b6a2c2116100fd57806339b6a2c21461023257806342eb98c11461025d5780634815df1d14610279578063501a1c51146102a257806369d03738146102cb5780636da6dfb2146102f457610135565b80630fdb1c101461013a578063192be5f1146101515780631a8e4ef91461018e5780631eaab324146101b7578063298d73f2146101f5575b600080fd5b34801561014657600080fd5b5061014f6104ef565b005b34801561015d57600080fd5b506101786004803603810190610173919061350e565b610627565b604051610185919061369b565b60405180910390f35b34801561019a57600080fd5b506101b560048036038101906101b091906136e9565b61082a565b005b3480156101c357600080fd5b506101de60048036038101906101d9919061373c565b610cc4565b6040516101ec92919061379a565b60405180910390f35b34801561020157600080fd5b5061021c6004803603810190610217919061350e565b610d7a565b60405161022991906137de565b60405180910390f35b34801561023e57600080fd5b50610247610db5565b60405161025491906138ea565b60405180910390f35b6102776004803603810190610272919061390c565b610e4e565b005b34801561028557600080fd5b506102a0600480360381019061029b91906139bc565b6113c9565b005b3480156102ae57600080fd5b506102c960048036038101906102c49190613a35565b6114d8565b005b3480156102d757600080fd5b506102f260048036038101906102ed9190613a62565b6115c7565b005b34801561030057600080fd5b5061031b6004803603810190610316919061350e565b611687565b005b34801561032957600080fd5b50610344600480360381019061033f9190613a8f565b611c1a565b60405161035191906137de565b60405180910390f35b34801561036657600080fd5b5061036f611cc7565b005b34801561037d57600080fd5b50610386611d4f565b6040516103939190613af1565b60405180910390f35b6103b660048036038101906103b191906136e9565b611d66565b005b3480156103c457600080fd5b506103cd6124d9565b6040516103da9190613b0c565b60405180910390f35b3480156103ef57600080fd5b506103f8612502565b6040516104059190613b0c565b60405180910390f35b34801561041a57600080fd5b5061043560048036038101906104309190613b27565b61252c565b005b34801561044357600080fd5b5061045e6004803603810190610459919061350e565b612b0d565b005b34801561046c57600080fd5b506104876004803603810190610482919061350e565b612d66565b6040516104949190613ba9565b60405180910390f35b3480156104a957600080fd5b506104c460048036038101906104bf9190613a62565b612e3e565b005b3480156104d257600080fd5b506104ed60048036038101906104e891906136e9565b612f36565b005b6104f76133e0565b73ffffffffffffffffffffffffffffffffffffffff166105156124d9565b73ffffffffffffffffffffffffffffffffffffffff161461056b576040517f08c379a000000000000000000000000000000000000000000000000000000000815260040161056290613c21565b60405180910390fd5b60006105756124d9565b905060008173ffffffffffffffffffffffffffffffffffffffff164760405161059d90613c72565b60006040518083038185875af1925050503d80600081146105da576040519150601f19603f3d011682016040523d82523d6000602084013e6105df565b606091505b5050905080610623576040517f08c379a000000000000000000000000000000000000000000000000000000000815260040161061a90613cd3565b60405180910390fd5b5050565b606081600260009054906101000a900473ffffffffffffffffffffffffffffffffffffffff1673ffffffffffffffffffffffffffffffffffffffff16636352211e826040518263ffffffff1660e01b81526004016106859190613cf3565b602060405180830381865afa1580156106a2573d6000803e3d6000fd5b505050506040513d601f19601f820116820180604052508101906106c69190613d23565b73ffffffffffffffffffffffffffffffffffffffff163373ffffffffffffffffffffffffffffffffffffffff1614610733576040517f08c379a000000000000000000000000000000000000000000000000000000000815260040161072a90613d9c565b60405180910390fd5b60056000848152602001908152602001600020805480602002602001604051908101604052809291908181526020016000905b8282101561081e57838290600052602060002090600302016040518060600160405290816000820160009054906101000a900473ffffffffffffffffffffffffffffffffffffffff1673ffffffffffffffffffffffffffffffffffffffff1673ffffffffffffffffffffffffffffffffffffffff168152602001600182015481526020016002820160009054906101000a900463ffffffff1663ffffffff1663ffffffff168152505081526020019060010190610766565b50505050915050919050565b82600260009054906101000a900473ffffffffffffffffffffffffffffffffffffffff1673ffffffffffffffffffffffffffffffffffffffff16636352211e826040518263ffffffff1660e01b81526004016108869190613cf3565b602060405180830381865afa1580156108a3573d6000803e3d6000fd5b505050506040513d601f19601f820116820180604052508101906108c79190613d23565b73ffffffffffffffffffffffffffffffffffffffff163373ffffffffffffffffffffffffffffffffffffffff1614610934576040517f08c379a000000000000000000000000000000000000000000000000000000000815260040161092b90613d9c565b60405180910390fd5b600260009054906101000a900473ffffffffffffffffffffffffffffffffffffffff1673ffffffffffffffffffffffffffffffffffffffff16638e15f4736040518163ffffffff1660e01b8152600401602060405180830381865afa1580156109a1573d6000803e3d6000fd5b505050506040513d601f19601f820116820180604052508101906109c59190613df2565b6a52b7d2dcc80cd2e4000000600a600260009054906101000a900473ffffffffffffffffffffffffffffffffffffffff1673ffffffffffffffffffffffffffffffffffffffff16635586402d600260009054906101000a900473ffffffffffffffffffffffffffffffffffffffff1673ffffffffffffffffffffffffffffffffffffffff1663669aa2a38a6040518263ffffffff1660e01b8152600401610a6c9190613cf3565b602060405180830381865afa158015610a89573d6000803e3d6000fd5b505050506040513d601f19601f82011682018060405250810190610aad9190613e34565b6040518263ffffffff1660e01b8152600401610ac99190613af1565b602060405180830381865afa158015610ae6573d6000803e3d6000fd5b505050506040513d601f19601f82011682018060405250810190610b0a9190613e76565b610b149190613f01565b610b1e9190613f32565b610b289190613f01565b831015610b6a576040517f08c379a0000000000000000000000000000000000000000000000000000000008152600401610b6190613ffe565b60405180910390fd5b601e8263ffffffff161015610bb4576040517f08c379a0000000000000000000000000000000000000000000000000000000008152600401610bab90614090565b60405180910390fd5b6000610bbf85612d66565b90506000816000015114610c08576040517f08c379a0000000000000000000000000000000000000000000000000000000008152600401610bff906140fc565b60405180910390fd5b600760405180606001604052808781526020018681526020018563ffffffff168152509080600181540180825580915050600190039060005260206000209060030201600090919091909150600082015181600001556020820151816001015560408201518160020160006101000a81548163ffffffff021916908363ffffffff160217905550505060016006600087815260200190815260200160002060006101000a81548160ff0219169083151502179055505050505050565b600080600080600260009054906101000a900473ffffffffffffffffffffffffffffffffffffffff1673ffffffffffffffffffffffffffffffffffffffff16632a55205a87876040518363ffffffff1660e01b8152600401610d2792919061411c565b6040805180830381865afa158015610d43573d6000803e3d6000fd5b505050506040513d601f19601f82011682018060405250810190610d679190614145565b9150915081819350935050509250929050565b60006006600083815260200190815260200160002060009054906101000a900460ff1615610dab5760019050610db0565b600090505b919050565b60606007805480602002602001604051908101604052809291908181526020016000905b82821015610e45578382906000526020600020906003020160405180606001604052908160008201548152602001600182015481526020016002820160009054906101000a900463ffffffff1663ffffffff1663ffffffff168152505081526020019060010190610dd9565b50505050905090565b3373ffffffffffffffffffffffffffffffffffffffff16600260009054906101000a900473ffffffffffffffffffffffffffffffffffffffff1673ffffffffffffffffffffffffffffffffffffffff16636352211e846040518263ffffffff1660e01b8152600401610ec09190613cf3565b602060405180830381865afa158015610edd573d6000803e3d6000fd5b505050506040513d601f19601f82011682018060405250810190610f019190613d23565b73ffffffffffffffffffffffffffffffffffffffff161415610f58576040517f08c379a0000000000000000000000000000000000000000000000000000000008152600401610f4f906141d1565b60405180910390fd5b6006600083815260200190815260200160002060009054906101000a900460ff16610fb8576040517f08c379a0000000000000000000000000000000000000000000000000000000008152600401610faf9061423d565b60405180910390fd5b600073ffffffffffffffffffffffffffffffffffffffff16600260009054906101000a900473ffffffffffffffffffffffffffffffffffffffff1673ffffffffffffffffffffffffffffffffffffffff16636352211e846040518263ffffffff1660e01b815260040161102b9190613cf3565b602060405180830381865afa158015611048573d6000803e3d6000fd5b505050506040513d601f19601f8201168201806040525081019061106c9190613d23565b73ffffffffffffffffffffffffffffffffffffffff1614156110c3576040517f08c379a00000000000000000000000000000000000000000000000000000000081526004016110ba906142cf565b60405180910390fd5b6000806110d08434610cc4565b91509150600082905060008173ffffffffffffffffffffffffffffffffffffffff16836040516110ff90613c72565b60006040518083038185875af1925050503d806000811461113c576040519150601f19603f3d011682016040523d82523d6000602084013e611141565b606091505b5050905080611185576040517f08c379a000000000000000000000000000000000000000000000000000000000815260040161117c9061433b565b60405180910390fd5b60405180606001604052803373ffffffffffffffffffffffffffffffffffffffff1681526020013481526020018663ffffffff168152506003600088815260200190815260200160002060008201518160000160006101000a81548173ffffffffffffffffffffffffffffffffffffffff021916908373ffffffffffffffffffffffffffffffffffffffff1602179055506020820151816001015560408201518160020160006101000a81548163ffffffff021916908363ffffffff16021790555090505060006006600088815260200190815260200160002060006101000a81548160ff02191690831515021790555060005b6007805490508110156113c057866007828154811061129b5761129a61435b565b5b90600052602060002090600302016000015414156113ad57600760016007805490506112c7919061438a565b815481106112d8576112d761435b565b5b9060005260206000209060030201600782815481106112fa576112f961435b565b5b906000526020600020906003020160008201548160000155600182015481600101556002820160009054906101000a900463ffffffff168160020160006101000a81548163ffffffff021916908363ffffffff1602179055509050506007805480611368576113676143be565b5b600190038181906000526020600020906003020160008082016000905560018201600090556002820160006101000a81549063ffffffff0219169055505090556113c0565b80806113b8906143ed565b915050611279565b50505050505050565b6113d16133e0565b73ffffffffffffffffffffffffffffffffffffffff166113ef6124d9565b73ffffffffffffffffffffffffffffffffffffffff1614611445576040517f08c379a000000000000000000000000000000000000000000000000000000000815260040161143c90613c21565b60405180910390fd5b600260009054906101000a900473ffffffffffffffffffffffffffffffffffffffff1673ffffffffffffffffffffffffffffffffffffffff16634815df1d83836040518363ffffffff1660e01b81526004016114a2929190614445565b600060405180830381600087803b1580156114bc57600080fd5b505af11580156114d0573d6000803e3d6000fd5b505050505050565b6114e06133e0565b73ffffffffffffffffffffffffffffffffffffffff166114fe6124d9565b73ffffffffffffffffffffffffffffffffffffffff1614611554576040517f08c379a000000000000000000000000000000000000000000000000000000000815260040161154b90613c21565b60405180910390fd5b60008160ff1611801561156a575060648160ff16105b6115a9576040517f08c379a00000000000000000000000000000000000000000000000000000000081526004016115a0906144ba565b60405180910390fd5b80600260146101000a81548160ff021916908360ff16021790555050565b6115cf6133e0565b73ffffffffffffffffffffffffffffffffffffffff166115ed6124d9565b73ffffffffffffffffffffffffffffffffffffffff1614611643576040517f08c379a000000000000000000000000000000000000000000000000000000000815260040161163a90613c21565b60405180910390fd5b80600260006101000a81548173ffffffffffffffffffffffffffffffffffffffff021916908373ffffffffffffffffffffffffffffffffffffffff16021790555050565b3373ffffffffffffffffffffffffffffffffffffffff16600260009054906101000a900473ffffffffffffffffffffffffffffffffffffffff1673ffffffffffffffffffffffffffffffffffffffff16636352211e836040518263ffffffff1660e01b81526004016116f99190613cf3565b602060405180830381865afa158015611716573d6000803e3d6000fd5b505050506040513d601f19601f8201168201806040525081019061173a9190613d23565b73ffffffffffffffffffffffffffffffffffffffff161415611791576040517f08c379a0000000000000000000000000000000000000000000000000000000008152600401611788906141d1565b60405180910390fd5b600073ffffffffffffffffffffffffffffffffffffffff16600260009054906101000a900473ffffffffffffffffffffffffffffffffffffffff1673ffffffffffffffffffffffffffffffffffffffff16636352211e836040518263ffffffff1660e01b81526004016118049190613cf3565b602060405180830381865afa158015611821573d6000803e3d6000fd5b505050506040513d601f19601f820116820180604052508101906118459190613d23565b73ffffffffffffffffffffffffffffffffffffffff16141561189c576040517f08c379a0000000000000000000000000000000000000000000000000000000008152600401611893906142cf565b60405180910390fd5b600060056000838152602001908152602001600020805480602002602001604051908101604052809291908181526020016000905b8282101561198957838290600052602060002090600302016040518060600160405290816000820160009054906101000a900473ffffffffffffffffffffffffffffffffffffffff1673ffffffffffffffffffffffffffffffffffffffff1673ffffffffffffffffffffffffffffffffffffffff168152602001600182015481526020016002820160009054906101000a900463ffffffff1663ffffffff1663ffffffff1681525050815260200190600101906118d1565b50505050905060005b8151811015611bac573373ffffffffffffffffffffffffffffffffffffffff168282815181106119c5576119c461435b565b5b60200260200101516000015173ffffffffffffffffffffffffffffffffffffffff161415611b995760003373ffffffffffffffffffffffffffffffffffffffff166064600260149054906101000a900460ff1660ff16858581518110611a2e57611a2d61435b565b5b602002602001015160200151611a449190613f32565b611a4e9190613f01565b604051611a5a90613c72565b60006040518083038185875af1925050503d8060008114611a97576040519150601f19603f3d011682016040523d82523d6000602084013e611a9c565b606091505b5050905080611ae0576040517f08c379a0000000000000000000000000000000000000000000000000000000008152600401611ad790614526565b60405180910390fd5b600560008581526020019081526020016000208281548110611b0557611b0461435b565b5b9060005260206000209060030201600080820160006101000a81549073ffffffffffffffffffffffffffffffffffffffff021916905560018201600090556002820160006101000a81549063ffffffff021916905550507f5df43fd1d761a6f554d17dc183de87d3f3567edb7dccd3a5116bf5e3d06d540e84604051611b8b9190613cf3565b60405180910390a150611bac565b8080611ba4906143ed565b915050611992565b5060006004600084815260200190815260200160002060003373ffffffffffffffffffffffffffffffffffffffff1673ffffffffffffffffffffffffffffffffffffffff16815260200190815260200160002060006101000a81548160ff0219169083151502179055505050565b6000600160009054906101000a900473ffffffffffffffffffffffffffffffffffffffff1673ffffffffffffffffffffffffffffffffffffffff166323b872dd8585856040518463ffffffff1660e01b8152600401611c7b93929190614546565b6020604051808303816000875af1158015611c9a573d6000803e3d6000fd5b505050506040513d601f19601f82011682018060405250810190611cbe91906145a9565b90509392505050565b611ccf6133e0565b73ffffffffffffffffffffffffffffffffffffffff16611ced6124d9565b73ffffffffffffffffffffffffffffffffffffffff1614611d43576040517f08c379a0000000000000000000000000000000000000000000000000000000008152600401611d3a90613c21565b60405180910390fd5b611d4d60006133e8565b565b6000600260149054906101000a900460ff16905090565b3373ffffffffffffffffffffffffffffffffffffffff16600260009054906101000a900473ffffffffffffffffffffffffffffffffffffffff1673ffffffffffffffffffffffffffffffffffffffff16636352211e856040518263ffffffff1660e01b8152600401611dd89190613cf3565b602060405180830381865afa158015611df5573d6000803e3d6000fd5b505050506040513d601f19601f82011682018060405250810190611e199190613d23565b73ffffffffffffffffffffffffffffffffffffffff161415611e70576040517f08c379a0000000000000000000000000000000000000000000000000000000008152600401611e67906141d1565b60405180910390fd5b600073ffffffffffffffffffffffffffffffffffffffff16600260009054906101000a900473ffffffffffffffffffffffffffffffffffffffff1673ffffffffffffffffffffffffffffffffffffffff16636352211e856040518263ffffffff1660e01b8152600401611ee39190613cf3565b602060405180830381865afa158015611f00573d6000803e3d6000fd5b505050506040513d601f19601f82011682018060405250810190611f249190613d23565b73ffffffffffffffffffffffffffffffffffffffff161415611f7b576040517f08c379a0000000000000000000000000000000000000000000000000000000008152600401611f72906142cf565b60405180910390fd5b600260009054906101000a900473ffffffffffffffffffffffffffffffffffffffff1673ffffffffffffffffffffffffffffffffffffffff16638e15f4736040518163ffffffff1660e01b8152600401602060405180830381865afa158015611fe8573d6000803e3d6000fd5b505050506040513d601f19601f8201168201806040525081019061200c9190613df2565b6a52b7d2dcc80cd2e4000000600a600260009054906101000a900473ffffffffffffffffffffffffffffffffffffffff1673ffffffffffffffffffffffffffffffffffffffff16635586402d600260009054906101000a900473ffffffffffffffffffffffffffffffffffffffff1673ffffffffffffffffffffffffffffffffffffffff1663669aa2a3896040518263ffffffff1660e01b81526004016120b39190613cf3565b602060405180830381865afa1580156120d0573d6000803e3d6000fd5b505050506040513d601f19601f820116820180604052508101906120f49190613e34565b6040518263ffffffff1660e01b81526004016121109190613af1565b602060405180830381865afa15801561212d573d6000803e3d6000fd5b505050506040513d601f19601f820116820180604052508101906121519190613e76565b61215b9190613f01565b6121659190613f32565b61216f9190613f01565b8210156121b1576040517f08c379a00000000000000000000000000000000000000000000000000000000081526004016121a890613ffe565b60405180910390fd5b81600160009054906101000a900473ffffffffffffffffffffffffffffffffffffffff1673ffffffffffffffffffffffffffffffffffffffff166370a08231336040518263ffffffff1660e01b815260040161220d9190613b0c565b602060405180830381865afa15801561222a573d6000803e3d6000fd5b505050506040513d601f19601f8201168201806040525081019061224e9190613e76565b101561228f576040517f08c379a000000000000000000000000000000000000000000000000000000000815260040161228690614622565b60405180910390fd5b601e8163ffffffff1610156122d9576040517f08c379a00000000000000000000000000000000000000000000000000000000081526004016122d090614090565b60405180910390fd5b600115156004600085815260200190815260200160002060003373ffffffffffffffffffffffffffffffffffffffff1673ffffffffffffffffffffffffffffffffffffffff16815260200190815260200160002060009054906101000a900460ff161515141561237e576040517f08c379a00000000000000000000000000000000000000000000000000000000081526004016123759061468e565b60405180910390fd5b6005600084815260200190815260200160002060405180606001604052803373ffffffffffffffffffffffffffffffffffffffff1681526020018481526020018363ffffffff16815250908060018154018082558091505060019003906000526020600020906003020160009091909190915060008201518160000160006101000a81548173ffffffffffffffffffffffffffffffffffffffff021916908373ffffffffffffffffffffffffffffffffffffffff1602179055506020820151816001015560408201518160020160006101000a81548163ffffffff021916908363ffffffff160217905550505060016004600085815260200190815260200160002060003373ffffffffffffffffffffffffffffffffffffffff1673ffffffffffffffffffffffffffffffffffffffff16815260200190815260200160002060006101000a81548160ff021916908315150217905550505050565b60008060009054906101000a900473ffffffffffffffffffffffffffffffffffffffff16905090565b6000600260009054906101000a900473ffffffffffffffffffffffffffffffffffffffff16905090565b81600260009054906101000a900473ffffffffffffffffffffffffffffffffffffffff1673ffffffffffffffffffffffffffffffffffffffff16636352211e826040518263ffffffff1660e01b81526004016125889190613cf3565b602060405180830381865afa1580156125a5573d6000803e3d6000fd5b505050506040513d601f19601f820116820180604052508101906125c99190613d23565b73ffffffffffffffffffffffffffffffffffffffff163373ffffffffffffffffffffffffffffffffffffffff1614612636576040517f08c379a000000000000000000000000000000000000000000000000000000000815260040161262d90613d9c565b60405180910390fd5b600060056000858152602001908152602001600020805480602002602001604051908101604052809291908181526020016000905b8282101561272357838290600052602060002090600302016040518060600160405290816000820160009054906101000a900473ffffffffffffffffffffffffffffffffffffffff1673ffffffffffffffffffffffffffffffffffffffff1673ffffffffffffffffffffffffffffffffffffffff168152602001600182015481526020016002820160009054906101000a900463ffffffff1663ffffffff1663ffffffff16815250508152602001906001019061266b565b50505050905060005b8151811015612a9d578373ffffffffffffffffffffffffffffffffffffffff1682828151811061275f5761275e61435b565b5b60200260200101516000015173ffffffffffffffffffffffffffffffffffffffff161415612a8a576000806127b2878585815181106127a1576127a061435b565b5b602002602001015160200151610cc4565b91509150600061289487600260009054906101000a900473ffffffffffffffffffffffffffffffffffffffff1673ffffffffffffffffffffffffffffffffffffffff16636352211e8b6040518263ffffffff1660e01b81526004016128179190613cf3565b602060405180830381865afa158015612834573d6000803e3d6000fd5b505050506040513d601f19601f820116820180604052508101906128589190613d23565b600a600989898151811061286f5761286e61435b565b5b6020026020010151602001516128859190613f32565b61288f9190613f01565b611c1a565b9050806128d6576040517f08c379a00000000000000000000000000000000000000000000000000000000081526004016128cd9061433b565b60405180910390fd5b60006128e3888585611c1a565b905080612925576040517f08c379a000000000000000000000000000000000000000000000000000000000815260040161291c9061433b565b60405180910390fd5b8585815181106129385761293761435b565b5b6020026020010151600360008b815260200190815260200160002060008201518160000160006101000a81548173ffffffffffffffffffffffffffffffffffffffff021916908373ffffffffffffffffffffffffffffffffffffffff1602179055506020820151816001015560408201518160020160006101000a81548163ffffffff021916908363ffffffff160217905550905050600560008a815260200190815260200160002085815481106129f3576129f261435b565b5b9060005260206000209060030201600080820160006101000a81549073ffffffffffffffffffffffffffffffffffffffff021916905560018201600090556002820160006101000a81549063ffffffff021916905550507f5df43fd1d761a6f554d17dc183de87d3f3567edb7dccd3a5116bf5e3d06d540e89604051612a799190613cf3565b60405180910390a150505050612a9d565b8080612a95906143ed565b91505061272c565b5060006004600086815260200190815260200160002060008573ffffffffffffffffffffffffffffffffffffffff1673ffffffffffffffffffffffffffffffffffffffff16815260200190815260200160002060006101000a81548160ff02191690831515021790555050505050565b80600260009054906101000a900473ffffffffffffffffffffffffffffffffffffffff1673ffffffffffffffffffffffffffffffffffffffff16636352211e826040518263ffffffff1660e01b8152600401612b699190613cf3565b602060405180830381865afa158015612b86573d6000803e3d6000fd5b505050506040513d601f19601f82011682018060405250810190612baa9190613d23565b73ffffffffffffffffffffffffffffffffffffffff163373ffffffffffffffffffffffffffffffffffffffff1614612c17576040517f08c379a0000000000000000000000000000000000000000000000000000000008152600401612c0e90613d9c565b60405180910390fd5b60005b600780549050811015612d61578260078281548110612c3c57612c3b61435b565b5b9060005260206000209060030201600001541415612d4e5760076001600780549050612c68919061438a565b81548110612c7957612c7861435b565b5b906000526020600020906003020160078281548110612c9b57612c9a61435b565b5b906000526020600020906003020160008201548160000155600182015481600101556002820160009054906101000a900463ffffffff168160020160006101000a81548163ffffffff021916908363ffffffff1602179055509050506007805480612d0957612d086143be565b5b600190038181906000526020600020906003020160008082016000905560018201600090556002820160006101000a81549063ffffffff021916905550509055612d61565b8080612d59906143ed565b915050612c1a565b505050565b612d6e6134ac565b612d766134ac565b60005b600780549050811015612e34578360078281548110612d9b57612d9a61435b565b5b9060005260206000209060030201600001541415612e215760078181548110612dc757612dc661435b565b5b906000526020600020906003020160405180606001604052908160008201548152602001600182015481526020016002820160009054906101000a900463ffffffff1663ffffffff1663ffffffff16815250509150612e34565b8080612e2c906143ed565b915050612d79565b5080915050919050565b612e466133e0565b73ffffffffffffffffffffffffffffffffffffffff16612e646124d9565b73ffffffffffffffffffffffffffffffffffffffff1614612eba576040517f08c379a0000000000000000000000000000000000000000000000000000000008152600401612eb190613c21565b60405180910390fd5b600073ffffffffffffffffffffffffffffffffffffffff168173ffffffffffffffffffffffffffffffffffffffff161415612f2a576040517f08c379a0000000000000000000000000000000000000000000000000000000008152600401612f2190614720565b60405180910390fd5b612f33816133e8565b50565b82600260009054906101000a900473ffffffffffffffffffffffffffffffffffffffff1673ffffffffffffffffffffffffffffffffffffffff16636352211e826040518263ffffffff1660e01b8152600401612f929190613cf3565b602060405180830381865afa158015612faf573d6000803e3d6000fd5b505050506040513d601f19601f82011682018060405250810190612fd39190613d23565b73ffffffffffffffffffffffffffffffffffffffff163373ffffffffffffffffffffffffffffffffffffffff1614613040576040517f08c379a000000000000000000000000000000000000000000000000000000000815260040161303790613d9c565b60405180910390fd5b600260009054906101000a900473ffffffffffffffffffffffffffffffffffffffff1673ffffffffffffffffffffffffffffffffffffffff16638e15f4736040518163ffffffff1660e01b8152600401602060405180830381865afa1580156130ad573d6000803e3d6000fd5b505050506040513d601f19601f820116820180604052508101906130d19190613df2565b6a52b7d2dcc80cd2e4000000600a600260009054906101000a900473ffffffffffffffffffffffffffffffffffffffff1673ffffffffffffffffffffffffffffffffffffffff16635586402d600260009054906101000a900473ffffffffffffffffffffffffffffffffffffffff1673ffffffffffffffffffffffffffffffffffffffff1663669aa2a38a6040518263ffffffff1660e01b81526004016131789190613cf3565b602060405180830381865afa158015613195573d6000803e3d6000fd5b505050506040513d601f19601f820116820180604052508101906131b99190613e34565b6040518263ffffffff1660e01b81526004016131d59190613af1565b602060405180830381865afa1580156131f2573d6000803e3d6000fd5b505050506040513d601f19601f820116820180604052508101906132169190613e76565b6132209190613f01565b61322a9190613f32565b6132349190613f01565b831015613276576040517f08c379a000000000000000000000000000000000000000000000000000000000815260040161326d90613ffe565b60405180910390fd5b601e8263ffffffff1610156132c0576040517f08c379a00000000000000000000000000000000000000000000000000000000081526004016132b790614090565b60405180910390fd5b60006132cb85612d66565b9050600081600001511415613315576040517f08c379a000000000000000000000000000000000000000000000000000000000815260040161330c9061478c565b60405180910390fd5b60005b6007805490508110156133d857856007828154811061333a5761333961435b565b5b90600052602060002090600302016000015414156133c55784600782815481106133675761336661435b565b5b90600052602060002090600302016001018190555083600782815481106133915761339061435b565b5b906000526020600020906003020160020160006101000a81548163ffffffff021916908363ffffffff1602179055506133d8565b80806133d0906143ed565b915050613318565b505050505050565b600033905090565b60008060009054906101000a900473ffffffffffffffffffffffffffffffffffffffff169050816000806101000a81548173ffffffffffffffffffffffffffffffffffffffff021916908373ffffffffffffffffffffffffffffffffffffffff1602179055508173ffffffffffffffffffffffffffffffffffffffff168173ffffffffffffffffffffffffffffffffffffffff167f8be0079c531659141344cd1fd0a4f28419497f9722a3daafe3b4186f6b6457e060405160405180910390a35050565b60405180606001604052806000815260200160008152602001600063ffffffff1681525090565b600080fd5b6000819050919050565b6134eb816134d8565b81146134f657600080fd5b50565b600081359050613508816134e2565b92915050565b600060208284031215613524576135236134d3565b5b6000613532848285016134f9565b91505092915050565b600081519050919050565b600082825260208201905092915050565b6000819050602082019050919050565b600073ffffffffffffffffffffffffffffffffffffffff82169050919050565b600061359282613567565b9050919050565b6135a281613587565b82525050565b6135b1816134d8565b82525050565b600063ffffffff82169050919050565b6135d0816135b7565b82525050565b6060820160008201516135ec6000850182613599565b5060208201516135ff60208501826135a8565b50604082015161361260408501826135c7565b50505050565b600061362483836135d6565b60608301905092915050565b6000602082019050919050565b60006136488261353b565b6136528185613546565b935061365d83613557565b8060005b8381101561368e5781516136758882613618565b975061368083613630565b925050600181019050613661565b5085935050505092915050565b600060208201905081810360008301526136b5818461363d565b905092915050565b6136c6816135b7565b81146136d157600080fd5b50565b6000813590506136e3816136bd565b92915050565b600080600060608486031215613702576137016134d3565b5b6000613710868287016134f9565b9350506020613721868287016134f9565b9250506040613732868287016136d4565b9150509250925092565b60008060408385031215613753576137526134d3565b5b6000613761858286016134f9565b9250506020613772858286016134f9565b9150509250929050565b61378581613587565b82525050565b613794816134d8565b82525050565b60006040820190506137af600083018561377c565b6137bc602083018461378b565b9392505050565b60008115159050919050565b6137d8816137c3565b82525050565b60006020820190506137f360008301846137cf565b92915050565b600081519050919050565b600082825260208201905092915050565b6000819050602082019050919050565b60608201600082015161383b60008501826135a8565b50602082015161384e60208501826135a8565b50604082015161386160408501826135c7565b50505050565b60006138738383613825565b60608301905092915050565b6000602082019050919050565b6000613897826137f9565b6138a18185613804565b93506138ac83613815565b8060005b838110156138dd5781516138c48882613867565b97506138cf8361387f565b9250506001810190506138b0565b5085935050505092915050565b60006020820190508181036000830152613904818461388c565b905092915050565b60008060408385031215613923576139226134d3565b5b6000613931858286016134f9565b9250506020613942858286016136d4565b9150509250929050565b61395581613587565b811461396057600080fd5b50565b6000813590506139728161394c565b92915050565b60006bffffffffffffffffffffffff82169050919050565b61399981613978565b81146139a457600080fd5b50565b6000813590506139b681613990565b92915050565b600080604083850312156139d3576139d26134d3565b5b60006139e185828601613963565b92505060206139f2858286016139a7565b9150509250929050565b600060ff82169050919050565b613a12816139fc565b8114613a1d57600080fd5b50565b600081359050613a2f81613a09565b92915050565b600060208284031215613a4b57613a4a6134d3565b5b6000613a5984828501613a20565b91505092915050565b600060208284031215613a7857613a776134d3565b5b6000613a8684828501613963565b91505092915050565b600080600060608486031215613aa857613aa76134d3565b5b6000613ab686828701613963565b9350506020613ac786828701613963565b9250506040613ad8868287016134f9565b9150509250925092565b613aeb816139fc565b82525050565b6000602082019050613b066000830184613ae2565b92915050565b6000602082019050613b21600083018461377c565b92915050565b60008060408385031215613b3e57613b3d6134d3565b5b6000613b4c858286016134f9565b9250506020613b5d85828601613963565b9150509250929050565b606082016000820151613b7d60008501826135a8565b506020820151613b9060208501826135a8565b506040820151613ba360408501826135c7565b50505050565b6000606082019050613bbe6000830184613b67565b92915050565b600082825260208201905092915050565b7f4f776e61626c653a2063616c6c6572206973206e6f7420746865206f776e6572600082015250565b6000613c0b602083613bc4565b9150613c1682613bd5565b602082019050919050565b60006020820190508181036000830152613c3a81613bfe565b9050919050565b600081905092915050565b50565b6000613c5c600083613c41565b9150613c6782613c4c565b600082019050919050565b6000613c7d82613c4f565b9150819050919050565b7f4661696c656420746f2057697468647261772056455400000000000000000000600082015250565b6000613cbd601683613bc4565b9150613cc882613c87565b602082019050919050565b60006020820190508181036000830152613cec81613cb0565b9050919050565b6000602082019050613d08600083018461378b565b92915050565b600081519050613d1d8161394c565b92915050565b600060208284031215613d3957613d386134d3565b5b6000613d4784828501613d0e565b91505092915050565b7f63616c6c6572206973206e6f7420746865206f776e6572206f6620746f6b656e600082015250565b6000613d86602083613bc4565b9150613d9182613d50565b602082019050919050565b60006020820190508181036000830152613db581613d79565b9050919050565b6000819050919050565b613dcf81613dbc565b8114613dda57600080fd5b50565b600081519050613dec81613dc6565b92915050565b600060208284031215613e0857613e076134d3565b5b6000613e1684828501613ddd565b91505092915050565b600081519050613e2e81613a09565b92915050565b600060208284031215613e4a57613e496134d3565b5b6000613e5884828501613e1f565b91505092915050565b600081519050613e70816134e2565b92915050565b600060208284031215613e8c57613e8b6134d3565b5b6000613e9a84828501613e61565b91505092915050565b7f4e487b7100000000000000000000000000000000000000000000000000000000600052601260045260246000fd5b7f4e487b7100000000000000000000000000000000000000000000000000000000600052601160045260246000fd5b6000613f0c826134d8565b9150613f17836134d8565b925082613f2757613f26613ea3565b5b828204905092915050565b6000613f3d826134d8565b9150613f48836134d8565b9250817fffffffffffffffffffffffffffffffffffffffffffffffffffffffffffffffff0483118215151615613f8157613f80613ed2565b5b828202905092915050565b7f416d6f756e74206f662065746865722073656e74206973206e6f7420636f727260008201527f6563742e00000000000000000000000000000000000000000000000000000000602082015250565b6000613fe8602483613bc4565b9150613ff382613f8c565b604082019050919050565b6000602082019050818103600083015261401781613fdb565b9050919050565b7f546865206d696e696d756d20746f206c6561736520746865206d656d6265727360008201527f68697020697320333020646179732e0000000000000000000000000000000000602082015250565b600061407a602f83613bc4565b91506140858261401e565b604082019050919050565b600060208201905081810360008301526140a98161406d565b9050919050565b7f546f6b656e20697320616c7265616479206c65617361626c6500000000000000600082015250565b60006140e6601983613bc4565b91506140f1826140b0565b602082019050919050565b60006020820190508181036000830152614115816140d9565b9050919050565b6000604082019050614131600083018561378b565b61413e602083018461378b565b9392505050565b6000806040838503121561415c5761415b6134d3565b5b600061416a85828601613d0e565b925050602061417b85828601613e61565b9150509250929050565b7f596f752063616e27742062757920796f7572732e000000000000000000000000600082015250565b60006141bb601483613bc4565b91506141c682614185565b602082019050919050565b600060208201905081810360008301526141ea816141ae565b9050919050565b7f546f6b656e206973206e6f74207075626c696300000000000000000000000000600082015250565b6000614227601383613bc4565b9150614232826141f1565b602082019050919050565b600060208201905081810360008301526142568161421a565b9050919050565b7f596f752063616e27742073656e64206f66666572206e6f2d6f776e657220746f60008201527f6b656e0000000000000000000000000000000000000000000000000000000000602082015250565b60006142b9602383613bc4565b91506142c48261425d565b604082019050919050565b600060208201905081810360008301526142e8816142ac565b9050919050565b7f4661696c656420746f2050617920526f79616c74792066656500000000000000600082015250565b6000614325601983613bc4565b9150614330826142ef565b602082019050919050565b6000602082019050818103600083015261435481614318565b9050919050565b7f4e487b7100000000000000000000000000000000000000000000000000000000600052603260045260246000fd5b6000614395826134d8565b91506143a0836134d8565b9250828210156143b3576143b2613ed2565b5b828203905092915050565b7f4e487b7100000000000000000000000000000000000000000000000000000000600052603160045260246000fd5b60006143f8826134d8565b91507fffffffffffffffffffffffffffffffffffffffffffffffffffffffffffffffff82141561442b5761442a613ed2565b5b600182019050919050565b61443f81613978565b82525050565b600060408201905061445a600083018561377c565b6144676020830184614436565b9392505050565b7f496e76616c6965642070657263656e746167652076616c756500000000000000600082015250565b60006144a4601983613bc4565b91506144af8261446e565b602082019050919050565b600060208201905081810360008301526144d381614497565b9050919050565b7f4661696c656420746f20726566756e6400000000000000000000000000000000600082015250565b6000614510601083613bc4565b915061451b826144da565b602082019050919050565b6000602082019050818103600083015261453f81614503565b9050919050565b600060608201905061455b600083018661377c565b614568602083018561377c565b614575604083018461378b565b949350505050565b614586816137c3565b811461459157600080fd5b50565b6000815190506145a38161457d565b92915050565b6000602082840312156145bf576145be6134d3565b5b60006145cd84828501614594565b91505092915050565b7f596f7520646f6e2774206861766520656e6f75676820574554482e0000000000600082015250565b600061460c601b83613bc4565b9150614617826145d6565b602082019050919050565b6000602082019050818103600083015261463b816145ff565b9050919050565b7f596f752063616e27742073656e64206d75746c69206f66666572000000000000600082015250565b6000614678601a83613bc4565b915061468382614642565b602082019050919050565b600060208201905081810360008301526146a78161466b565b9050919050565b7f4f776e61626c653a206e6577206f776e657220697320746865207a65726f206160008201527f6464726573730000000000000000000000000000000000000000000000000000602082015250565b600061470a602683613bc4565b9150614715826146ae565b604082019050919050565b60006020820190508181036000830152614739816146fd565b9050919050565b7f546f6b656e206973206e6f74206c65617361626c650000000000000000000000600082015250565b6000614776601583613bc4565b915061478182614740565b602082019050919050565b600060208201905081810360008301526147a581614769565b905091905056fea2646970667358221220cbd212e6de80e0b7813d60cc39ba464fe48f598d18d5baa14113cf5a69d82d0264736f6c634300080b0033",
  "immutableReferences": {},
  "source": "// SPDX-License-Identifier: MIT\r\npragma solidity >=0.8.9 <0.9.0;\r\nimport \"@openzeppelin/contracts/token/ERC721/IERC721.sol\";\r\nimport \"@openzeppelin/contracts/access/Ownable.sol\";\r\nimport \"@openzeppelin/contracts/interfaces/IERC20.sol\";\r\n\r\ninterface IFYC is IERC721 {\r\n    function totalSupply() external view returns(uint256 number);\r\n    function getTierNumberOf(uint256 _tokenId) external view returns(uint8 tierNumber);\r\n    function getTierPrice(uint8 tierNumber) external view returns(uint256 tierPrice);\r\n    function royaltyInfo(uint256 _tokenId, uint256 _salePrice) external view returns (address roalityReceiver, uint256 royaltyAmount);\r\n    function setRoality(address receiver, uint96 feeNumerator) external;\r\n    function getLatestPrice() external view returns (int price);\r\n}\r\n\r\ncontract Leasing is Ownable {\r\n    event ApproveLeasing(uint tokenId);\r\n    \r\n    IERC20 _weth = IERC20(0xc778417E063141139Fce010982780140Aa0cD5Ab);\r\n    IFYC _nft;\r\n    uint8 private _refundPercentFee = 98;\r\n\r\n    struct LeaseOffer {\r\n        address from;\r\n        uint256 price;\r\n        uint32 expiresIn;\r\n    }\r\n\r\n    struct LeasableToken {\r\n        uint256 tokenId;\r\n        uint256 price;\r\n        uint32 duration;\r\n    }\r\n    \r\n    mapping (uint256 => LeaseOffer) private _lease;\r\n    mapping(uint256 => mapping(address => bool)) _offerState;\r\n    mapping (uint256 => LeaseOffer[]) leaseOffers;\r\n    mapping (uint256 => bool) leasable;\r\n    LeasableToken[] private _leasableTokens;\r\n    \r\n    modifier onlyOwnerOf(uint256 _tokenId) {\r\n        require(msg.sender == address(_nft.ownerOf(_tokenId)), \"caller is not the owner of token\");\r\n        _;\r\n    }\r\n\r\n    function getNFTAddress() external view returns(address) {\r\n        return address(_nft);\r\n    }\r\n\r\n    function setNFTAddress(address nft_address) external onlyOwner {\r\n        _nft = IFYC(nft_address);\r\n    }\r\n\r\n    function withDraw() external onlyOwner {\r\n        address payable tgt = payable(owner());\r\n        (bool success1, ) = tgt.call{value:address(this).balance}(\"\");\r\n        require(success1, \"Failed to Withdraw VET\");\r\n    }\r\n\r\n    function getRoalityInfo(uint256 _tokenId, uint256 _salePrice) public view returns(address, uint256) {\r\n        (address roalityReceiver, uint256 royaltyAmount) = _nft.royaltyInfo(_tokenId, _salePrice);\r\n\r\n        return (roalityReceiver, royaltyAmount);\r\n    }\r\n\r\n    /**\r\n     * @dev The denominator with which to interpret the fee set in {_setTokenRoyalty} and {_setDefaultRoyalty} as a\r\n     * fraction of the sale price. Defaults to 10000 so fees are expressed in basis points.\r\n     */\r\n    function setRoality(address receiver, uint96 feeNumerator) external onlyOwner {\r\n        _nft.setRoality(receiver, feeNumerator);\r\n    }\r\n\r\n    function getRefundFee() external view returns(uint8) {\r\n        return _refundPercentFee;\r\n    }\r\n\r\n    function setRefundFee(uint8 fee) external onlyOwner {\r\n        require(fee > 0 && fee <100, \"Invalied percentage value\");\r\n        _refundPercentFee = fee;\r\n    }\r\n\r\n    function getLeasable(uint256 _tokenId) external view returns(bool) {\r\n        if(leasable[_tokenId]) return true;\r\n        else return false;\r\n    }\r\n\r\n    function setTokenLeasable(uint256 _tokenId, uint256 _price, uint32 _duration) external onlyOwnerOf(_tokenId) {\r\n        require(_price >= ((_nft.getTierPrice(_nft.getTierNumberOf(_tokenId)) / 10) * 10**26) / uint256(_nft.getLatestPrice()), \"Amount of ether sent is not correct.\");\r\n        require(_duration >= 30, \"The minimum to lease the membership is 30 days.\");\r\n\r\n        LeasableToken memory leasableToken = getLeasableToken(_tokenId);\r\n        require(leasableToken.tokenId == 0, \"Token is already leasable\");\r\n        _leasableTokens.push(LeasableToken(_tokenId, _price, _duration));\r\n        leasable[_tokenId] = true;\r\n    }\r\n\r\n    function getLeasableToken(uint256 _tokenId) public view returns(LeasableToken memory) {\r\n        LeasableToken memory leasableToken;\r\n        for(uint256 i = 0; i < _leasableTokens.length; i++) {\r\n            if(_leasableTokens[i].tokenId == _tokenId) {\r\n                leasableToken = _leasableTokens[i];\r\n                break;\r\n            }\r\n        }\r\n\r\n        return leasableToken;\r\n    }\r\n\r\n    function updateLeasableToken(uint256 _tokenId, uint256 _price, uint32 _duration) external onlyOwnerOf(_tokenId) {\r\n        require(_price >= ((_nft.getTierPrice(_nft.getTierNumberOf(_tokenId)) / 10) * 10**26) / uint256(_nft.getLatestPrice()), \"Amount of ether sent is not correct.\");\r\n        require(_duration >= 30, \"The minimum to lease the membership is 30 days.\");\r\n        \r\n        LeasableToken memory leasableToken = getLeasableToken(_tokenId);\r\n        require(leasableToken.tokenId != 0, \"Token is not leasable\");\r\n        for(uint256 i = 0; i < _leasableTokens.length; i++) {\r\n            if(_leasableTokens[i].tokenId == _tokenId) {\r\n                _leasableTokens[i].price = _price;\r\n                _leasableTokens[i].duration = _duration;\r\n                break;\r\n            }\r\n        }\r\n    }\r\n\r\n    function cancelTokenLeasable(uint256 _tokenId) external onlyOwnerOf(_tokenId) {\r\n        for(uint256 i = 0; i < _leasableTokens.length; i++) {\r\n            if (_leasableTokens[i].tokenId == _tokenId) {\r\n                _leasableTokens[i] = _leasableTokens[_leasableTokens.length - 1];\r\n                _leasableTokens.pop();\r\n                break;\r\n            }\r\n        }\r\n    }\r\n\r\n    function getLeasableTokens() external view returns(LeasableToken[] memory) {\r\n        return _leasableTokens;\r\n    }\r\n\r\n    function getLeaseOffers(uint256 _tokenId) external view onlyOwnerOf(_tokenId) returns(LeaseOffer[] memory) {\r\n        return leaseOffers[_tokenId];\r\n    }\r\n\r\n    function trasferWeth(address from, address to, uint256 amount) public returns(bool) {\r\n        return _weth.transferFrom(from, to, amount);\r\n    }\r\n\r\n    function approveLeaseOffer(uint256 _tokenId, address _from) external onlyOwnerOf(_tokenId) {\r\n        LeaseOffer[] memory tokenLeaseOffers = leaseOffers[_tokenId];\r\n\r\n        for(uint256 i = 0; i < tokenLeaseOffers.length; i++) {\r\n            if(tokenLeaseOffers[i].from == _from) {\r\n                (address royaltyReceiver, uint256 roaltyAmount) = getRoalityInfo(_tokenId, tokenLeaseOffers[i].price);\r\n\r\n                // transfer WETH from lease offer maker to the owner\r\n                bool success1 = trasferWeth(_from, address(_nft.ownerOf(_tokenId)), (tokenLeaseOffers[i].price * 9) / 10);\r\n                require(success1, \"Failed to Pay Royalty fee\");\r\n                // transfer royalty fee from lease offer maker to royalty receiver\r\n                bool success2 = trasferWeth(_from, royaltyReceiver, roaltyAmount);\r\n                require(success2, \"Failed to Pay Royalty fee\");\r\n                \r\n                _lease[_tokenId] = tokenLeaseOffers[i];\r\n                delete leaseOffers[_tokenId][i];\r\n\r\n                emit ApproveLeasing(_tokenId);\r\n                break;\r\n            }\r\n        }\r\n        _offerState[_tokenId][_from] = false;\r\n    }\r\n\r\n    function calcenLeaseOffer(uint256 _tokenId) external {\r\n        require(_nft.ownerOf(_tokenId) != msg.sender, \"You can't buy yours.\");\r\n        require(_nft.ownerOf(_tokenId) != address(0), \"You can't send offer no-owner token\");\r\n        LeaseOffer[] memory tokenLeaseOffers = leaseOffers[_tokenId];\r\n\r\n        for(uint256 i = 0; i < tokenLeaseOffers.length; i++) {\r\n            if(tokenLeaseOffers[i].from == msg.sender) {\r\n                (bool success1, ) = msg.sender.call{ value: tokenLeaseOffers[i].price * _refundPercentFee / 100 }(\"\");\r\n                require(success1, \"Failed to refund\");\r\n                delete leaseOffers[_tokenId][i];\r\n\r\n                emit ApproveLeasing(_tokenId);\r\n                break;\r\n            }\r\n        }\r\n\r\n        _offerState[_tokenId][msg.sender] = false;\r\n    }\r\n\r\n    function sendLeaseOffer(uint256 _tokenId, uint256 _amount, uint32 _expiresIn) public payable {\r\n        require(_nft.ownerOf(_tokenId) != msg.sender, \"You can't buy yours.\");\r\n        require(_nft.ownerOf(_tokenId) != address(0), \"You can't send offer no-owner token\");\r\n        require(_amount >= ((_nft.getTierPrice(_nft.getTierNumberOf(_tokenId)) / 10) * 10**26) / uint256(_nft.getLatestPrice()), \"Amount of ether sent is not correct.\");\r\n        require(_weth.balanceOf(msg.sender) >= _amount, \"You don't have enough WETH.\");\r\n        require(_expiresIn >= 30, \"The minimum to lease the membership is 30 days.\");\r\n        require(_offerState[_tokenId][msg.sender] != true, \"You can't send mutli offer\");\r\n        leaseOffers[_tokenId].push(LeaseOffer(msg.sender, _amount, _expiresIn));\r\n        _offerState[_tokenId][msg.sender] = true;\r\n    }\r\n\r\n    function lease(uint256 _tokenId, uint32 _expiresIn) external payable {\r\n        require(_nft.ownerOf(_tokenId) != msg.sender, \"You can't buy yours.\");\r\n        require(leasable[_tokenId], \"Token is not public\");\r\n        require(_nft.ownerOf(_tokenId) != address(0), \"You can't send offer no-owner token\");\r\n        // require(msg.value >= leasePrices[_tokenId], \"Amount of ether sent not enough.\");\r\n\r\n        (address royaltyReceiver, uint256 roaltyAmount) = getRoalityInfo(_tokenId, msg.value);\r\n        address payable _royaltyReceiver = payable(royaltyReceiver);\r\n        (bool success1, ) = _royaltyReceiver.call{ value: roaltyAmount }(\"\");\r\n        require(success1, \"Failed to Pay Royalty fee\");\r\n\r\n        _lease[_tokenId] = LeaseOffer(msg.sender, msg.value, _expiresIn);\r\n        leasable[_tokenId] = false;\r\n        \r\n\r\n        for(uint256 i = 0; i < _leasableTokens.length; i++) {\r\n            if (_leasableTokens[i].tokenId == _tokenId) {\r\n                _leasableTokens[i] = _leasableTokens[_leasableTokens.length - 1];\r\n                _leasableTokens.pop();\r\n                break;\r\n            }\r\n        }\r\n    }\r\n\r\n    function uint2str(uint _i) internal pure returns (string memory _uintAsString) {\r\n        if (_i == 0) {\r\n        return \"0\";\r\n        }\r\n        uint j = _i;\r\n        uint len;\r\n        while (j != 0) {\r\n        len++;\r\n        j /= 10;\r\n        }\r\n        bytes memory bstr = new bytes(len);\r\n        uint k = len;\r\n        while (_i != 0) {\r\n        k = k-1;\r\n        uint8 temp = (48 + uint8(_i - _i / 10 * 10));\r\n        bytes1 b1 = bytes1(temp);\r\n        bstr[k] = b1;\r\n        _i /= 10;\r\n        }\r\n        \r\n        return string(bstr);\r\n    }\r\n}",
  "sourcePath": "F:\\www-2022\\fathonclub-work\\app\\contracts\\Leasing.sol",
  "compiler": {
    "name": "solc",
    "version": "0.8.11+commit.d7f03943.Emscripten.clang"
  },
  "schemaVersion": "3.4.5",
  "updatedAt": "2022-03-17T01:57:10.213Z",
  "devdoc": {
    "kind": "dev",
    "methods": {
      "owner()": {
        "details": "Returns the address of the current owner."
      },
      "renounceOwnership()": {
        "details": "Leaves the contract without owner. It will not be possible to call `onlyOwner` functions anymore. Can only be called by the current owner. NOTE: Renouncing ownership will leave the contract without an owner, thereby removing any functionality that is only available to the owner."
      },
      "setRoality(address,uint96)": {
        "details": "The denominator with which to interpret the fee set in {_setTokenRoyalty} and {_setDefaultRoyalty} as a fraction of the sale price. Defaults to 10000 so fees are expressed in basis points."
      },
      "transferOwnership(address)": {
        "details": "Transfers ownership of the contract to a new account (`newOwner`). Can only be called by the current owner."
      }
    },
    "version": 1
  },
  "userdoc": {
    "kind": "user",
    "methods": {},
    "version": 1
  }
}