{
  "contractName": "Leasing",
  "abi": [
    {
      "anonymous": false,
      "inputs": [
        {
          "indexed": false,
          "internalType": "uint256",
          "name": "tokenId",
          "type": "uint256"
        }
      ],
      "name": "ApproveLeasing",
      "type": "event"
    },
    {
      "anonymous": false,
      "inputs": [
        {
          "indexed": true,
          "internalType": "address",
          "name": "previousOwner",
          "type": "address"
        },
        {
          "indexed": true,
          "internalType": "address",
          "name": "newOwner",
          "type": "address"
        }
      ],
      "name": "OwnershipTransferred",
      "type": "event"
    },
    {
      "inputs": [],
      "name": "owner",
      "outputs": [
        {
          "internalType": "address",
          "name": "",
          "type": "address"
        }
      ],
      "stateMutability": "view",
      "type": "function"
    },
    {
      "inputs": [],
      "name": "renounceOwnership",
      "outputs": [],
      "stateMutability": "nonpayable",
      "type": "function"
    },
    {
      "inputs": [
        {
          "internalType": "address",
          "name": "newOwner",
          "type": "address"
        }
      ],
      "name": "transferOwnership",
      "outputs": [],
      "stateMutability": "nonpayable",
      "type": "function"
    },
    {
      "inputs": [],
      "name": "getNFTAddress",
      "outputs": [
        {
          "internalType": "address",
          "name": "",
          "type": "address"
        }
      ],
      "stateMutability": "view",
      "type": "function"
    },
    {
      "inputs": [
        {
          "internalType": "address",
          "name": "nft_address",
          "type": "address"
        }
      ],
      "name": "setNFTAddress",
      "outputs": [],
      "stateMutability": "nonpayable",
      "type": "function"
    },
    {
      "inputs": [],
      "name": "withDraw",
      "outputs": [],
      "stateMutability": "nonpayable",
      "type": "function"
    },
    {
      "inputs": [
        {
          "internalType": "uint256",
          "name": "_tokenId",
          "type": "uint256"
        },
        {
          "internalType": "uint256",
          "name": "_salePrice",
          "type": "uint256"
        }
      ],
      "name": "getRoalityInfo",
      "outputs": [
        {
          "internalType": "address",
          "name": "",
          "type": "address"
        },
        {
          "internalType": "uint256",
          "name": "",
          "type": "uint256"
        }
      ],
      "stateMutability": "view",
      "type": "function"
    },
    {
      "inputs": [
        {
          "internalType": "address",
          "name": "receiver",
          "type": "address"
        },
        {
          "internalType": "uint96",
          "name": "feeNumerator",
          "type": "uint96"
        }
      ],
      "name": "setRoality",
      "outputs": [],
      "stateMutability": "nonpayable",
      "type": "function"
    },
    {
      "inputs": [],
      "name": "getRefundFee",
      "outputs": [
        {
          "internalType": "uint8",
          "name": "",
          "type": "uint8"
        }
      ],
      "stateMutability": "view",
      "type": "function"
    },
    {
      "inputs": [
        {
          "internalType": "uint8",
          "name": "fee",
          "type": "uint8"
        }
      ],
      "name": "setRefundFee",
      "outputs": [],
      "stateMutability": "nonpayable",
      "type": "function"
    },
    {
      "inputs": [
        {
          "internalType": "uint256",
          "name": "_tokenId",
          "type": "uint256"
        }
      ],
      "name": "getLeasable",
      "outputs": [
        {
          "internalType": "bool",
          "name": "",
          "type": "bool"
        }
      ],
      "stateMutability": "view",
      "type": "function"
    },
    {
      "inputs": [
        {
          "internalType": "uint256",
          "name": "_tokenId",
          "type": "uint256"
        },
        {
          "internalType": "uint256",
          "name": "_price",
          "type": "uint256"
        },
        {
          "internalType": "uint32",
          "name": "_duration",
          "type": "uint32"
        }
      ],
      "name": "setTokenLeasable",
      "outputs": [],
      "stateMutability": "nonpayable",
      "type": "function"
    },
    {
      "inputs": [
        {
          "internalType": "uint256",
          "name": "_tokenId",
          "type": "uint256"
        }
      ],
      "name": "getLeasableToken",
      "outputs": [
        {
          "components": [
            {
              "internalType": "uint256",
              "name": "tokenId",
              "type": "uint256"
            },
            {
              "internalType": "uint256",
              "name": "price",
              "type": "uint256"
            },
            {
              "internalType": "uint32",
              "name": "duration",
              "type": "uint32"
            }
          ],
          "internalType": "struct Leasing.LeasableToken",
          "name": "",
          "type": "tuple"
        }
      ],
      "stateMutability": "view",
      "type": "function"
    },
    {
      "inputs": [],
      "name": "getLeasableTokens",
      "outputs": [
        {
          "components": [
            {
              "internalType": "uint256",
              "name": "tokenId",
              "type": "uint256"
            },
            {
              "internalType": "uint256",
              "name": "price",
              "type": "uint256"
            },
            {
              "internalType": "uint32",
              "name": "duration",
              "type": "uint32"
            }
          ],
          "internalType": "struct Leasing.LeasableToken[]",
          "name": "",
          "type": "tuple[]"
        }
      ],
      "stateMutability": "view",
      "type": "function"
    },
    {
      "inputs": [
        {
          "internalType": "uint256",
          "name": "_tokenId",
          "type": "uint256"
        }
      ],
      "name": "getLeaseOffers",
      "outputs": [
        {
          "components": [
            {
              "internalType": "address",
              "name": "from",
              "type": "address"
            },
            {
              "internalType": "uint256",
              "name": "price",
              "type": "uint256"
            },
            {
              "internalType": "uint32",
              "name": "expiresIn",
              "type": "uint32"
            }
          ],
          "internalType": "struct Leasing.LeaseOffer[]",
          "name": "",
          "type": "tuple[]"
        }
      ],
      "stateMutability": "view",
      "type": "function"
    },
    {
      "inputs": [
        {
          "internalType": "address",
          "name": "from",
          "type": "address"
        },
        {
          "internalType": "address",
          "name": "to",
          "type": "address"
        },
        {
          "internalType": "uint256",
          "name": "amount",
          "type": "uint256"
        }
      ],
      "name": "trasferWeth",
      "outputs": [
        {
          "internalType": "bool",
          "name": "",
          "type": "bool"
        }
      ],
      "stateMutability": "nonpayable",
      "type": "function"
    },
    {
      "inputs": [
        {
          "internalType": "uint256",
          "name": "_tokenId",
          "type": "uint256"
        },
        {
          "internalType": "address",
          "name": "_from",
          "type": "address"
        }
      ],
      "name": "approveLeaseOffer",
      "outputs": [],
      "stateMutability": "nonpayable",
      "type": "function"
    },
    {
      "inputs": [
        {
          "internalType": "uint256",
          "name": "_tokenId",
          "type": "uint256"
        }
      ],
      "name": "calcenLeaseOffer",
      "outputs": [],
      "stateMutability": "nonpayable",
      "type": "function"
    },
    {
      "inputs": [
        {
          "internalType": "uint256",
          "name": "_tokenId",
          "type": "uint256"
        },
        {
          "internalType": "uint256",
          "name": "_amount",
          "type": "uint256"
        },
        {
          "internalType": "uint32",
          "name": "_expiresIn",
          "type": "uint32"
        }
      ],
      "name": "sendLeaseOffer",
      "outputs": [],
      "stateMutability": "payable",
      "type": "function"
    },
    {
      "inputs": [
        {
          "internalType": "uint256",
          "name": "_tokenId",
          "type": "uint256"
        },
        {
          "internalType": "uint32",
          "name": "_expiresIn",
          "type": "uint32"
        }
      ],
      "name": "lease",
      "outputs": [],
      "stateMutability": "payable",
      "type": "function"
    }
  ],
  "bytecode": "0x608060405273c778417e063141139fce010982780140aa0cd5ab600160006101000a81548173ffffffffffffffffffffffffffffffffffffffff021916908373ffffffffffffffffffffffffffffffffffffffff1602179055506062600260146101000a81548160ff021916908360ff1602179055503480156200008257600080fd5b50620000a362000097620000a960201b60201c565b620000b160201b60201c565b62000175565b600033905090565b60008060009054906101000a900473ffffffffffffffffffffffffffffffffffffffff169050816000806101000a81548173ffffffffffffffffffffffffffffffffffffffff021916908373ffffffffffffffffffffffffffffffffffffffff1602179055508173ffffffffffffffffffffffffffffffffffffffff168173ffffffffffffffffffffffffffffffffffffffff167f8be0079c531659141344cd1fd0a4f28419497f9722a3daafe3b4186f6b6457e060405160405180910390a35050565b613f4980620001856000396000f3fe60806040526004361061011f5760003560e01c80636da6dfb2116100a05780638da5cb5b116100645780638da5cb5b146103a2578063b9618478146103cd578063c98100b1146103f8578063db7aa09014610421578063f2fde38b1461045e5761011f565b80636da6dfb2146102de5780636dd15b3e14610307578063715018a614610344578063836807fc1461035b57806388ea92d8146103865761011f565b806339b6a2c2116100e757806339b6a2c21461021c57806342eb98c1146102475780634815df1d14610263578063501a1c511461028c57806369d03738146102b55761011f565b80630fdb1c1014610124578063192be5f11461013b5780631a8e4ef9146101785780631eaab324146101a1578063298d73f2146101df575b600080fd5b34801561013057600080fd5b50610139610487565b005b34801561014757600080fd5b50610162600480360381019061015d9190612d4d565b6105bf565b60405161016f9190612eda565b60405180910390f35b34801561018457600080fd5b5061019f600480360381019061019a9190612f28565b6107c2565b005b3480156101ad57600080fd5b506101c860048036038101906101c39190612f7b565b610c07565b6040516101d6929190612fd9565b60405180910390f35b3480156101eb57600080fd5b5061020660048036038101906102019190612d4d565b610cbd565b604051610213919061301d565b60405180910390f35b34801561022857600080fd5b50610231610cf8565b60405161023e9190613129565b60405180910390f35b610261600480360381019061025c919061314b565b610d91565b005b34801561026f57600080fd5b5061028a600480360381019061028591906131fb565b61130c565b005b34801561029857600080fd5b506102b360048036038101906102ae9190613274565b61141b565b005b3480156102c157600080fd5b506102dc60048036038101906102d791906132a1565b61150a565b005b3480156102ea57600080fd5b5061030560048036038101906103009190612d4d565b6115ca565b005b34801561031357600080fd5b5061032e600480360381019061032991906132ce565b611b5d565b60405161033b919061301d565b60405180910390f35b34801561035057600080fd5b50610359611c0a565b005b34801561036757600080fd5b50610370611c92565b60405161037d9190613330565b60405180910390f35b6103a0600480360381019061039b9190612f28565b611ca9565b005b3480156103ae57600080fd5b506103b761241c565b6040516103c4919061334b565b60405180910390f35b3480156103d957600080fd5b506103e2612445565b6040516103ef919061334b565b60405180910390f35b34801561040457600080fd5b5061041f600480360381019061041a9190613366565b61246f565b005b34801561042d57600080fd5b5061044860048036038101906104439190612d4d565b612a50565b60405161045591906133e8565b60405180910390f35b34801561046a57600080fd5b50610485600480360381019061048091906132a1565b612b27565b005b61048f612c1f565b73ffffffffffffffffffffffffffffffffffffffff166104ad61241c565b73ffffffffffffffffffffffffffffffffffffffff1614610503576040517f08c379a00000000000000000000000000000000000000000000000000000000081526004016104fa90613460565b60405180910390fd5b600061050d61241c565b905060008173ffffffffffffffffffffffffffffffffffffffff1647604051610535906134b1565b60006040518083038185875af1925050503d8060008114610572576040519150601f19603f3d011682016040523d82523d6000602084013e610577565b606091505b50509050806105bb576040517f08c379a00000000000000000000000000000000000000000000000000000000081526004016105b290613512565b60405180910390fd5b5050565b606081600260009054906101000a900473ffffffffffffffffffffffffffffffffffffffff1673ffffffffffffffffffffffffffffffffffffffff16636352211e826040518263ffffffff1660e01b815260040161061d9190613532565b602060405180830381865afa15801561063a573d6000803e3d6000fd5b505050506040513d601f19601f8201168201806040525081019061065e9190613562565b73ffffffffffffffffffffffffffffffffffffffff163373ffffffffffffffffffffffffffffffffffffffff16146106cb576040517f08c379a00000000000000000000000000000000000000000000000000000000081526004016106c2906135db565b60405180910390fd5b60056000848152602001908152602001600020805480602002602001604051908101604052809291908181526020016000905b828210156107b657838290600052602060002090600302016040518060600160405290816000820160009054906101000a900473ffffffffffffffffffffffffffffffffffffffff1673ffffffffffffffffffffffffffffffffffffffff1673ffffffffffffffffffffffffffffffffffffffff168152602001600182015481526020016002820160009054906101000a900463ffffffff1663ffffffff1663ffffffff1681525050815260200190600101906106fe565b50505050915050919050565b82600260009054906101000a900473ffffffffffffffffffffffffffffffffffffffff1673ffffffffffffffffffffffffffffffffffffffff16636352211e826040518263ffffffff1660e01b815260040161081e9190613532565b602060405180830381865afa15801561083b573d6000803e3d6000fd5b505050506040513d601f19601f8201168201806040525081019061085f9190613562565b73ffffffffffffffffffffffffffffffffffffffff163373ffffffffffffffffffffffffffffffffffffffff16146108cc576040517f08c379a00000000000000000000000000000000000000000000000000000000081526004016108c3906135db565b60405180910390fd5b600260009054906101000a900473ffffffffffffffffffffffffffffffffffffffff1673ffffffffffffffffffffffffffffffffffffffff16638e15f4736040518163ffffffff1660e01b8152600401602060405180830381865afa158015610939573d6000803e3d6000fd5b505050506040513d601f19601f8201168201806040525081019061095d9190613631565b6a52b7d2dcc80cd2e4000000600a600260009054906101000a900473ffffffffffffffffffffffffffffffffffffffff1673ffffffffffffffffffffffffffffffffffffffff16635586402d600260009054906101000a900473ffffffffffffffffffffffffffffffffffffffff1673ffffffffffffffffffffffffffffffffffffffff1663669aa2a38a6040518263ffffffff1660e01b8152600401610a049190613532565b602060405180830381865afa158015610a21573d6000803e3d6000fd5b505050506040513d601f19601f82011682018060405250810190610a459190613673565b6040518263ffffffff1660e01b8152600401610a619190613330565b602060405180830381865afa158015610a7e573d6000803e3d6000fd5b505050506040513d601f19601f82011682018060405250810190610aa291906136b5565b610aac9190613740565b610ab69190613771565b610ac09190613740565b831015610b02576040517f08c379a0000000000000000000000000000000000000000000000000000000008152600401610af99061383d565b60405180910390fd5b601e8263ffffffff161015610b4c576040517f08c379a0000000000000000000000000000000000000000000000000000000008152600401610b43906138cf565b60405180910390fd5b600760405180606001604052808681526020018581526020018463ffffffff168152509080600181540180825580915050600190039060005260206000209060030201600090919091909150600082015181600001556020820151816001015560408201518160020160006101000a81548163ffffffff021916908363ffffffff160217905550505060016006600086815260200190815260200160002060006101000a81548160ff02191690831515021790555050505050565b600080600080600260009054906101000a900473ffffffffffffffffffffffffffffffffffffffff1673ffffffffffffffffffffffffffffffffffffffff16632a55205a87876040518363ffffffff1660e01b8152600401610c6a9291906138ef565b6040805180830381865afa158015610c86573d6000803e3d6000fd5b505050506040513d601f19601f82011682018060405250810190610caa9190613918565b9150915081819350935050509250929050565b60006006600083815260200190815260200160002060009054906101000a900460ff1615610cee5760019050610cf3565b600090505b919050565b60606007805480602002602001604051908101604052809291908181526020016000905b82821015610d88578382906000526020600020906003020160405180606001604052908160008201548152602001600182015481526020016002820160009054906101000a900463ffffffff1663ffffffff1663ffffffff168152505081526020019060010190610d1c565b50505050905090565b3373ffffffffffffffffffffffffffffffffffffffff16600260009054906101000a900473ffffffffffffffffffffffffffffffffffffffff1673ffffffffffffffffffffffffffffffffffffffff16636352211e846040518263ffffffff1660e01b8152600401610e039190613532565b602060405180830381865afa158015610e20573d6000803e3d6000fd5b505050506040513d601f19601f82011682018060405250810190610e449190613562565b73ffffffffffffffffffffffffffffffffffffffff161415610e9b576040517f08c379a0000000000000000000000000000000000000000000000000000000008152600401610e92906139a4565b60405180910390fd5b6006600083815260200190815260200160002060009054906101000a900460ff16610efb576040517f08c379a0000000000000000000000000000000000000000000000000000000008152600401610ef290613a10565b60405180910390fd5b600073ffffffffffffffffffffffffffffffffffffffff16600260009054906101000a900473ffffffffffffffffffffffffffffffffffffffff1673ffffffffffffffffffffffffffffffffffffffff16636352211e846040518263ffffffff1660e01b8152600401610f6e9190613532565b602060405180830381865afa158015610f8b573d6000803e3d6000fd5b505050506040513d601f19601f82011682018060405250810190610faf9190613562565b73ffffffffffffffffffffffffffffffffffffffff161415611006576040517f08c379a0000000000000000000000000000000000000000000000000000000008152600401610ffd90613aa2565b60405180910390fd5b6000806110138434610c07565b91509150600082905060008173ffffffffffffffffffffffffffffffffffffffff1683604051611042906134b1565b60006040518083038185875af1925050503d806000811461107f576040519150601f19603f3d011682016040523d82523d6000602084013e611084565b606091505b50509050806110c8576040517f08c379a00000000000000000000000000000000000000000000000000000000081526004016110bf90613b0e565b60405180910390fd5b60405180606001604052803373ffffffffffffffffffffffffffffffffffffffff1681526020013481526020018663ffffffff168152506003600088815260200190815260200160002060008201518160000160006101000a81548173ffffffffffffffffffffffffffffffffffffffff021916908373ffffffffffffffffffffffffffffffffffffffff1602179055506020820151816001015560408201518160020160006101000a81548163ffffffff021916908363ffffffff16021790555090505060006006600088815260200190815260200160002060006101000a81548160ff02191690831515021790555060005b6007805490508110156113035786600782815481106111de576111dd613b2e565b5b90600052602060002090600302016000015414156112f0576007600160078054905061120a9190613b5d565b8154811061121b5761121a613b2e565b5b90600052602060002090600302016007828154811061123d5761123c613b2e565b5b906000526020600020906003020160008201548160000155600182015481600101556002820160009054906101000a900463ffffffff168160020160006101000a81548163ffffffff021916908363ffffffff16021790555090505060078054806112ab576112aa613b91565b5b600190038181906000526020600020906003020160008082016000905560018201600090556002820160006101000a81549063ffffffff021916905550509055611303565b80806112fb90613bc0565b9150506111bc565b50505050505050565b611314612c1f565b73ffffffffffffffffffffffffffffffffffffffff1661133261241c565b73ffffffffffffffffffffffffffffffffffffffff1614611388576040517f08c379a000000000000000000000000000000000000000000000000000000000815260040161137f90613460565b60405180910390fd5b600260009054906101000a900473ffffffffffffffffffffffffffffffffffffffff1673ffffffffffffffffffffffffffffffffffffffff16634815df1d83836040518363ffffffff1660e01b81526004016113e5929190613c18565b600060405180830381600087803b1580156113ff57600080fd5b505af1158015611413573d6000803e3d6000fd5b505050505050565b611423612c1f565b73ffffffffffffffffffffffffffffffffffffffff1661144161241c565b73ffffffffffffffffffffffffffffffffffffffff1614611497576040517f08c379a000000000000000000000000000000000000000000000000000000000815260040161148e90613460565b60405180910390fd5b60008160ff161180156114ad575060648160ff16105b6114ec576040517f08c379a00000000000000000000000000000000000000000000000000000000081526004016114e390613c8d565b60405180910390fd5b80600260146101000a81548160ff021916908360ff16021790555050565b611512612c1f565b73ffffffffffffffffffffffffffffffffffffffff1661153061241c565b73ffffffffffffffffffffffffffffffffffffffff1614611586576040517f08c379a000000000000000000000000000000000000000000000000000000000815260040161157d90613460565b60405180910390fd5b80600260006101000a81548173ffffffffffffffffffffffffffffffffffffffff021916908373ffffffffffffffffffffffffffffffffffffffff16021790555050565b3373ffffffffffffffffffffffffffffffffffffffff16600260009054906101000a900473ffffffffffffffffffffffffffffffffffffffff1673ffffffffffffffffffffffffffffffffffffffff16636352211e836040518263ffffffff1660e01b815260040161163c9190613532565b602060405180830381865afa158015611659573d6000803e3d6000fd5b505050506040513d601f19601f8201168201806040525081019061167d9190613562565b73ffffffffffffffffffffffffffffffffffffffff1614156116d4576040517f08c379a00000000000000000000000000000000000000000000000000000000081526004016116cb906139a4565b60405180910390fd5b600073ffffffffffffffffffffffffffffffffffffffff16600260009054906101000a900473ffffffffffffffffffffffffffffffffffffffff1673ffffffffffffffffffffffffffffffffffffffff16636352211e836040518263ffffffff1660e01b81526004016117479190613532565b602060405180830381865afa158015611764573d6000803e3d6000fd5b505050506040513d601f19601f820116820180604052508101906117889190613562565b73ffffffffffffffffffffffffffffffffffffffff1614156117df576040517f08c379a00000000000000000000000000000000000000000000000000000000081526004016117d690613aa2565b60405180910390fd5b600060056000838152602001908152602001600020805480602002602001604051908101604052809291908181526020016000905b828210156118cc57838290600052602060002090600302016040518060600160405290816000820160009054906101000a900473ffffffffffffffffffffffffffffffffffffffff1673ffffffffffffffffffffffffffffffffffffffff1673ffffffffffffffffffffffffffffffffffffffff168152602001600182015481526020016002820160009054906101000a900463ffffffff1663ffffffff1663ffffffff168152505081526020019060010190611814565b50505050905060005b8151811015611aef573373ffffffffffffffffffffffffffffffffffffffff1682828151811061190857611907613b2e565b5b60200260200101516000015173ffffffffffffffffffffffffffffffffffffffff161415611adc5760003373ffffffffffffffffffffffffffffffffffffffff166064600260149054906101000a900460ff1660ff1685858151811061197157611970613b2e565b5b6020026020010151602001516119879190613771565b6119919190613740565b60405161199d906134b1565b60006040518083038185875af1925050503d80600081146119da576040519150601f19603f3d011682016040523d82523d6000602084013e6119df565b606091505b5050905080611a23576040517f08c379a0000000000000000000000000000000000000000000000000000000008152600401611a1a90613cf9565b60405180910390fd5b600560008581526020019081526020016000208281548110611a4857611a47613b2e565b5b9060005260206000209060030201600080820160006101000a81549073ffffffffffffffffffffffffffffffffffffffff021916905560018201600090556002820160006101000a81549063ffffffff021916905550507f5df43fd1d761a6f554d17dc183de87d3f3567edb7dccd3a5116bf5e3d06d540e84604051611ace9190613532565b60405180910390a150611aef565b8080611ae790613bc0565b9150506118d5565b5060006004600084815260200190815260200160002060003373ffffffffffffffffffffffffffffffffffffffff1673ffffffffffffffffffffffffffffffffffffffff16815260200190815260200160002060006101000a81548160ff0219169083151502179055505050565b6000600160009054906101000a900473ffffffffffffffffffffffffffffffffffffffff1673ffffffffffffffffffffffffffffffffffffffff166323b872dd8585856040518463ffffffff1660e01b8152600401611bbe93929190613d19565b6020604051808303816000875af1158015611bdd573d6000803e3d6000fd5b505050506040513d601f19601f82011682018060405250810190611c019190613d7c565b90509392505050565b611c12612c1f565b73ffffffffffffffffffffffffffffffffffffffff16611c3061241c565b73ffffffffffffffffffffffffffffffffffffffff1614611c86576040517f08c379a0000000000000000000000000000000000000000000000000000000008152600401611c7d90613460565b60405180910390fd5b611c906000612c27565b565b6000600260149054906101000a900460ff16905090565b3373ffffffffffffffffffffffffffffffffffffffff16600260009054906101000a900473ffffffffffffffffffffffffffffffffffffffff1673ffffffffffffffffffffffffffffffffffffffff16636352211e856040518263ffffffff1660e01b8152600401611d1b9190613532565b602060405180830381865afa158015611d38573d6000803e3d6000fd5b505050506040513d601f19601f82011682018060405250810190611d5c9190613562565b73ffffffffffffffffffffffffffffffffffffffff161415611db3576040517f08c379a0000000000000000000000000000000000000000000000000000000008152600401611daa906139a4565b60405180910390fd5b600073ffffffffffffffffffffffffffffffffffffffff16600260009054906101000a900473ffffffffffffffffffffffffffffffffffffffff1673ffffffffffffffffffffffffffffffffffffffff16636352211e856040518263ffffffff1660e01b8152600401611e269190613532565b602060405180830381865afa158015611e43573d6000803e3d6000fd5b505050506040513d601f19601f82011682018060405250810190611e679190613562565b73ffffffffffffffffffffffffffffffffffffffff161415611ebe576040517f08c379a0000000000000000000000000000000000000000000000000000000008152600401611eb590613aa2565b60405180910390fd5b600260009054906101000a900473ffffffffffffffffffffffffffffffffffffffff1673ffffffffffffffffffffffffffffffffffffffff16638e15f4736040518163ffffffff1660e01b8152600401602060405180830381865afa158015611f2b573d6000803e3d6000fd5b505050506040513d601f19601f82011682018060405250810190611f4f9190613631565b6a52b7d2dcc80cd2e4000000600a600260009054906101000a900473ffffffffffffffffffffffffffffffffffffffff1673ffffffffffffffffffffffffffffffffffffffff16635586402d600260009054906101000a900473ffffffffffffffffffffffffffffffffffffffff1673ffffffffffffffffffffffffffffffffffffffff1663669aa2a3896040518263ffffffff1660e01b8152600401611ff69190613532565b602060405180830381865afa158015612013573d6000803e3d6000fd5b505050506040513d601f19601f820116820180604052508101906120379190613673565b6040518263ffffffff1660e01b81526004016120539190613330565b602060405180830381865afa158015612070573d6000803e3d6000fd5b505050506040513d601f19601f8201168201806040525081019061209491906136b5565b61209e9190613740565b6120a89190613771565b6120b29190613740565b8210156120f4576040517f08c379a00000000000000000000000000000000000000000000000000000000081526004016120eb9061383d565b60405180910390fd5b81600160009054906101000a900473ffffffffffffffffffffffffffffffffffffffff1673ffffffffffffffffffffffffffffffffffffffff166370a08231336040518263ffffffff1660e01b8152600401612150919061334b565b602060405180830381865afa15801561216d573d6000803e3d6000fd5b505050506040513d601f19601f8201168201806040525081019061219191906136b5565b10156121d2576040517f08c379a00000000000000000000000000000000000000000000000000000000081526004016121c990613df5565b60405180910390fd5b601e8163ffffffff16101561221c576040517f08c379a0000000000000000000000000000000000000000000000000000000008152600401612213906138cf565b60405180910390fd5b600115156004600085815260200190815260200160002060003373ffffffffffffffffffffffffffffffffffffffff1673ffffffffffffffffffffffffffffffffffffffff16815260200190815260200160002060009054906101000a900460ff16151514156122c1576040517f08c379a00000000000000000000000000000000000000000000000000000000081526004016122b890613e61565b60405180910390fd5b6005600084815260200190815260200160002060405180606001604052803373ffffffffffffffffffffffffffffffffffffffff1681526020018481526020018363ffffffff16815250908060018154018082558091505060019003906000526020600020906003020160009091909190915060008201518160000160006101000a81548173ffffffffffffffffffffffffffffffffffffffff021916908373ffffffffffffffffffffffffffffffffffffffff1602179055506020820151816001015560408201518160020160006101000a81548163ffffffff021916908363ffffffff160217905550505060016004600085815260200190815260200160002060003373ffffffffffffffffffffffffffffffffffffffff1673ffffffffffffffffffffffffffffffffffffffff16815260200190815260200160002060006101000a81548160ff021916908315150217905550505050565b60008060009054906101000a900473ffffffffffffffffffffffffffffffffffffffff16905090565b6000600260009054906101000a900473ffffffffffffffffffffffffffffffffffffffff16905090565b81600260009054906101000a900473ffffffffffffffffffffffffffffffffffffffff1673ffffffffffffffffffffffffffffffffffffffff16636352211e826040518263ffffffff1660e01b81526004016124cb9190613532565b602060405180830381865afa1580156124e8573d6000803e3d6000fd5b505050506040513d601f19601f8201168201806040525081019061250c9190613562565b73ffffffffffffffffffffffffffffffffffffffff163373ffffffffffffffffffffffffffffffffffffffff1614612579576040517f08c379a0000000000000000000000000000000000000000000000000000000008152600401612570906135db565b60405180910390fd5b600060056000858152602001908152602001600020805480602002602001604051908101604052809291908181526020016000905b8282101561266657838290600052602060002090600302016040518060600160405290816000820160009054906101000a900473ffffffffffffffffffffffffffffffffffffffff1673ffffffffffffffffffffffffffffffffffffffff1673ffffffffffffffffffffffffffffffffffffffff168152602001600182015481526020016002820160009054906101000a900463ffffffff1663ffffffff1663ffffffff1681525050815260200190600101906125ae565b50505050905060005b81518110156129e0578373ffffffffffffffffffffffffffffffffffffffff168282815181106126a2576126a1613b2e565b5b60200260200101516000015173ffffffffffffffffffffffffffffffffffffffff1614156129cd576000806126f5878585815181106126e4576126e3613b2e565b5b602002602001015160200151610c07565b9150915060006127d787600260009054906101000a900473ffffffffffffffffffffffffffffffffffffffff1673ffffffffffffffffffffffffffffffffffffffff16636352211e8b6040518263ffffffff1660e01b815260040161275a9190613532565b602060405180830381865afa158015612777573d6000803e3d6000fd5b505050506040513d601f19601f8201168201806040525081019061279b9190613562565b600a60098989815181106127b2576127b1613b2e565b5b6020026020010151602001516127c89190613771565b6127d29190613740565b611b5d565b905080612819576040517f08c379a000000000000000000000000000000000000000000000000000000000815260040161281090613b0e565b60405180910390fd5b6000612826888585611b5d565b905080612868576040517f08c379a000000000000000000000000000000000000000000000000000000000815260040161285f90613b0e565b60405180910390fd5b85858151811061287b5761287a613b2e565b5b6020026020010151600360008b815260200190815260200160002060008201518160000160006101000a81548173ffffffffffffffffffffffffffffffffffffffff021916908373ffffffffffffffffffffffffffffffffffffffff1602179055506020820151816001015560408201518160020160006101000a81548163ffffffff021916908363ffffffff160217905550905050600560008a8152602001908152602001600020858154811061293657612935613b2e565b5b9060005260206000209060030201600080820160006101000a81549073ffffffffffffffffffffffffffffffffffffffff021916905560018201600090556002820160006101000a81549063ffffffff021916905550507f5df43fd1d761a6f554d17dc183de87d3f3567edb7dccd3a5116bf5e3d06d540e896040516129bc9190613532565b60405180910390a1505050506129e0565b80806129d890613bc0565b91505061266f565b5060006004600086815260200190815260200160002060008573ffffffffffffffffffffffffffffffffffffffff1673ffffffffffffffffffffffffffffffffffffffff16815260200190815260200160002060006101000a81548160ff02191690831515021790555050505050565b612a58612ceb565b612a60612ceb565b6000600190505b6007805490508111612b1d578360078281548110612a8857612a87613b2e565b5b9060005260206000209060030201600001541415612b0a5760078181548110612ab457612ab3613b2e565b5b906000526020600020906003020160405180606001604052908160008201548152602001600182015481526020016002820160009054906101000a900463ffffffff1663ffffffff1663ffffffff168152505091505b8080612b1590613bc0565b915050612a67565b5080915050919050565b612b2f612c1f565b73ffffffffffffffffffffffffffffffffffffffff16612b4d61241c565b73ffffffffffffffffffffffffffffffffffffffff1614612ba3576040517f08c379a0000000000000000000000000000000000000000000000000000000008152600401612b9a90613460565b60405180910390fd5b600073ffffffffffffffffffffffffffffffffffffffff168173ffffffffffffffffffffffffffffffffffffffff161415612c13576040517f08c379a0000000000000000000000000000000000000000000000000000000008152600401612c0a90613ef3565b60405180910390fd5b612c1c81612c27565b50565b600033905090565b60008060009054906101000a900473ffffffffffffffffffffffffffffffffffffffff169050816000806101000a81548173ffffffffffffffffffffffffffffffffffffffff021916908373ffffffffffffffffffffffffffffffffffffffff1602179055508173ffffffffffffffffffffffffffffffffffffffff168173ffffffffffffffffffffffffffffffffffffffff167f8be0079c531659141344cd1fd0a4f28419497f9722a3daafe3b4186f6b6457e060405160405180910390a35050565b60405180606001604052806000815260200160008152602001600063ffffffff1681525090565b600080fd5b6000819050919050565b612d2a81612d17565b8114612d3557600080fd5b50565b600081359050612d4781612d21565b92915050565b600060208284031215612d6357612d62612d12565b5b6000612d7184828501612d38565b91505092915050565b600081519050919050565b600082825260208201905092915050565b6000819050602082019050919050565b600073ffffffffffffffffffffffffffffffffffffffff82169050919050565b6000612dd182612da6565b9050919050565b612de181612dc6565b82525050565b612df081612d17565b82525050565b600063ffffffff82169050919050565b612e0f81612df6565b82525050565b606082016000820151612e2b6000850182612dd8565b506020820151612e3e6020850182612de7565b506040820151612e516040850182612e06565b50505050565b6000612e638383612e15565b60608301905092915050565b6000602082019050919050565b6000612e8782612d7a565b612e918185612d85565b9350612e9c83612d96565b8060005b83811015612ecd578151612eb48882612e57565b9750612ebf83612e6f565b925050600181019050612ea0565b5085935050505092915050565b60006020820190508181036000830152612ef48184612e7c565b905092915050565b612f0581612df6565b8114612f1057600080fd5b50565b600081359050612f2281612efc565b92915050565b600080600060608486031215612f4157612f40612d12565b5b6000612f4f86828701612d38565b9350506020612f6086828701612d38565b9250506040612f7186828701612f13565b9150509250925092565b60008060408385031215612f9257612f91612d12565b5b6000612fa085828601612d38565b9250506020612fb185828601612d38565b9150509250929050565b612fc481612dc6565b82525050565b612fd381612d17565b82525050565b6000604082019050612fee6000830185612fbb565b612ffb6020830184612fca565b9392505050565b60008115159050919050565b61301781613002565b82525050565b6000602082019050613032600083018461300e565b92915050565b600081519050919050565b600082825260208201905092915050565b6000819050602082019050919050565b60608201600082015161307a6000850182612de7565b50602082015161308d6020850182612de7565b5060408201516130a06040850182612e06565b50505050565b60006130b28383613064565b60608301905092915050565b6000602082019050919050565b60006130d682613038565b6130e08185613043565b93506130eb83613054565b8060005b8381101561311c57815161310388826130a6565b975061310e836130be565b9250506001810190506130ef565b5085935050505092915050565b6000602082019050818103600083015261314381846130cb565b905092915050565b6000806040838503121561316257613161612d12565b5b600061317085828601612d38565b925050602061318185828601612f13565b9150509250929050565b61319481612dc6565b811461319f57600080fd5b50565b6000813590506131b18161318b565b92915050565b60006bffffffffffffffffffffffff82169050919050565b6131d8816131b7565b81146131e357600080fd5b50565b6000813590506131f5816131cf565b92915050565b6000806040838503121561321257613211612d12565b5b6000613220858286016131a2565b9250506020613231858286016131e6565b9150509250929050565b600060ff82169050919050565b6132518161323b565b811461325c57600080fd5b50565b60008135905061326e81613248565b92915050565b60006020828403121561328a57613289612d12565b5b60006132988482850161325f565b91505092915050565b6000602082840312156132b7576132b6612d12565b5b60006132c5848285016131a2565b91505092915050565b6000806000606084860312156132e7576132e6612d12565b5b60006132f5868287016131a2565b9350506020613306868287016131a2565b925050604061331786828701612d38565b9150509250925092565b61332a8161323b565b82525050565b60006020820190506133456000830184613321565b92915050565b60006020820190506133606000830184612fbb565b92915050565b6000806040838503121561337d5761337c612d12565b5b600061338b85828601612d38565b925050602061339c858286016131a2565b9150509250929050565b6060820160008201516133bc6000850182612de7565b5060208201516133cf6020850182612de7565b5060408201516133e26040850182612e06565b50505050565b60006060820190506133fd60008301846133a6565b92915050565b600082825260208201905092915050565b7f4f776e61626c653a2063616c6c6572206973206e6f7420746865206f776e6572600082015250565b600061344a602083613403565b915061345582613414565b602082019050919050565b600060208201905081810360008301526134798161343d565b9050919050565b600081905092915050565b50565b600061349b600083613480565b91506134a68261348b565b600082019050919050565b60006134bc8261348e565b9150819050919050565b7f4661696c656420746f2057697468647261772056455400000000000000000000600082015250565b60006134fc601683613403565b9150613507826134c6565b602082019050919050565b6000602082019050818103600083015261352b816134ef565b9050919050565b60006020820190506135476000830184612fca565b92915050565b60008151905061355c8161318b565b92915050565b60006020828403121561357857613577612d12565b5b60006135868482850161354d565b91505092915050565b7f63616c6c6572206973206e6f7420746865206f776e6572206f6620746f6b656e600082015250565b60006135c5602083613403565b91506135d08261358f565b602082019050919050565b600060208201905081810360008301526135f4816135b8565b9050919050565b6000819050919050565b61360e816135fb565b811461361957600080fd5b50565b60008151905061362b81613605565b92915050565b60006020828403121561364757613646612d12565b5b60006136558482850161361c565b91505092915050565b60008151905061366d81613248565b92915050565b60006020828403121561368957613688612d12565b5b60006136978482850161365e565b91505092915050565b6000815190506136af81612d21565b92915050565b6000602082840312156136cb576136ca612d12565b5b60006136d9848285016136a0565b91505092915050565b7f4e487b7100000000000000000000000000000000000000000000000000000000600052601260045260246000fd5b7f4e487b7100000000000000000000000000000000000000000000000000000000600052601160045260246000fd5b600061374b82612d17565b915061375683612d17565b925082613766576137656136e2565b5b828204905092915050565b600061377c82612d17565b915061378783612d17565b9250817fffffffffffffffffffffffffffffffffffffffffffffffffffffffffffffffff04831182151516156137c0576137bf613711565b5b828202905092915050565b7f416d6f756e74206f662065746865722073656e74206973206e6f7420636f727260008201527f6563742e00000000000000000000000000000000000000000000000000000000602082015250565b6000613827602483613403565b9150613832826137cb565b604082019050919050565b600060208201905081810360008301526138568161381a565b9050919050565b7f546865206d696e696d756d20746f206c6561736520746865206d656d6265727360008201527f68697020697320333020646179732e0000000000000000000000000000000000602082015250565b60006138b9602f83613403565b91506138c48261385d565b604082019050919050565b600060208201905081810360008301526138e8816138ac565b9050919050565b60006040820190506139046000830185612fca565b6139116020830184612fca565b9392505050565b6000806040838503121561392f5761392e612d12565b5b600061393d8582860161354d565b925050602061394e858286016136a0565b9150509250929050565b7f596f752063616e27742062757920796f7572732e000000000000000000000000600082015250565b600061398e601483613403565b915061399982613958565b602082019050919050565b600060208201905081810360008301526139bd81613981565b9050919050565b7f546f6b656e206973206e6f74207075626c696300000000000000000000000000600082015250565b60006139fa601383613403565b9150613a05826139c4565b602082019050919050565b60006020820190508181036000830152613a29816139ed565b9050919050565b7f596f752063616e27742073656e64206f66666572206e6f2d6f776e657220746f60008201527f6b656e0000000000000000000000000000000000000000000000000000000000602082015250565b6000613a8c602383613403565b9150613a9782613a30565b604082019050919050565b60006020820190508181036000830152613abb81613a7f565b9050919050565b7f4661696c656420746f2050617920526f79616c74792066656500000000000000600082015250565b6000613af8601983613403565b9150613b0382613ac2565b602082019050919050565b60006020820190508181036000830152613b2781613aeb565b9050919050565b7f4e487b7100000000000000000000000000000000000000000000000000000000600052603260045260246000fd5b6000613b6882612d17565b9150613b7383612d17565b925082821015613b8657613b85613711565b5b828203905092915050565b7f4e487b7100000000000000000000000000000000000000000000000000000000600052603160045260246000fd5b6000613bcb82612d17565b91507fffffffffffffffffffffffffffffffffffffffffffffffffffffffffffffffff821415613bfe57613bfd613711565b5b600182019050919050565b613c12816131b7565b82525050565b6000604082019050613c2d6000830185612fbb565b613c3a6020830184613c09565b9392505050565b7f496e76616c6965642070657263656e746167652076616c756500000000000000600082015250565b6000613c77601983613403565b9150613c8282613c41565b602082019050919050565b60006020820190508181036000830152613ca681613c6a565b9050919050565b7f4661696c656420746f20726566756e6400000000000000000000000000000000600082015250565b6000613ce3601083613403565b9150613cee82613cad565b602082019050919050565b60006020820190508181036000830152613d1281613cd6565b9050919050565b6000606082019050613d2e6000830186612fbb565b613d3b6020830185612fbb565b613d486040830184612fca565b949350505050565b613d5981613002565b8114613d6457600080fd5b50565b600081519050613d7681613d50565b92915050565b600060208284031215613d9257613d91612d12565b5b6000613da084828501613d67565b91505092915050565b7f596f7520646f6e2774206861766520656e6f75676820574554482e0000000000600082015250565b6000613ddf601b83613403565b9150613dea82613da9565b602082019050919050565b60006020820190508181036000830152613e0e81613dd2565b9050919050565b7f596f752063616e27742073656e64206d75746c69206f66666572000000000000600082015250565b6000613e4b601a83613403565b9150613e5682613e15565b602082019050919050565b60006020820190508181036000830152613e7a81613e3e565b9050919050565b7f4f776e61626c653a206e6577206f776e657220697320746865207a65726f206160008201527f6464726573730000000000000000000000000000000000000000000000000000602082015250565b6000613edd602683613403565b9150613ee882613e81565b604082019050919050565b60006020820190508181036000830152613f0c81613ed0565b905091905056fea264697066735822122072cc3b36e0cd00cb8b3266cf5f26b9ee39512d214628ed55e179e2251614210a64736f6c634300080b0033",
  "immutableReferences": {},
  "source": "// SPDX-License-Identifier: MIT\r\npragma solidity >=0.8.9 <0.9.0;\r\nimport \"@openzeppelin/contracts/token/ERC721/IERC721.sol\";\r\nimport \"@openzeppelin/contracts/access/Ownable.sol\";\r\nimport \"@openzeppelin/contracts/interfaces/IERC20.sol\";\r\n\r\ninterface IFYC is IERC721 {\r\n    function totalSupply() external view returns(uint256 number);\r\n    function getTierNumberOf(uint256 _tokenId) external view returns(uint8 tierNumber);\r\n    function getTierPrice(uint8 tierNumber) external view returns(uint256 tierPrice);\r\n    function royaltyInfo(uint256 _tokenId, uint256 _salePrice) external view returns (address roalityReceiver, uint256 royaltyAmount);\r\n    function setRoality(address receiver, uint96 feeNumerator) external;\r\n    function getLatestPrice() external view returns (int price);\r\n}\r\n\r\ncontract Leasing is Ownable {\r\n    event ApproveLeasing(uint tokenId);\r\n    \r\n    IERC20 _weth = IERC20(0xc778417E063141139Fce010982780140Aa0cD5Ab);\r\n    IFYC _nft;\r\n    uint8 private _refundPercentFee = 98;\r\n\r\n    struct LeaseOffer {\r\n        address from;\r\n        uint256 price;\r\n        uint32 expiresIn;\r\n    }\r\n\r\n    struct LeasableToken {\r\n        uint256 tokenId;\r\n        uint256 price;\r\n        uint32 duration;\r\n    }\r\n    \r\n    mapping (uint256 => LeaseOffer) private _lease;\r\n    mapping(uint256 => mapping(address => bool)) _offerState;\r\n    mapping (uint256 => LeaseOffer[]) leaseOffers;\r\n    mapping (uint256 => bool) leasable;\r\n    LeasableToken[] private _leasableTokens;\r\n    \r\n    modifier onlyOwnerOf(uint256 _tokenId) {\r\n        require(msg.sender == address(_nft.ownerOf(_tokenId)), \"caller is not the owner of token\");\r\n        _;\r\n    }\r\n\r\n    function getNFTAddress() external view returns(address) {\r\n        return address(_nft);\r\n    }\r\n\r\n    function setNFTAddress(address nft_address) external onlyOwner {\r\n        _nft = IFYC(nft_address);\r\n    }\r\n\r\n    function withDraw() external onlyOwner {\r\n        address payable tgt = payable(owner());\r\n        (bool success1, ) = tgt.call{value:address(this).balance}(\"\");\r\n        require(success1, \"Failed to Withdraw VET\");\r\n    }\r\n\r\n    function getRoalityInfo(uint256 _tokenId, uint256 _salePrice) public view returns(address, uint256) {\r\n        (address roalityReceiver, uint256 royaltyAmount) = _nft.royaltyInfo(_tokenId, _salePrice);\r\n\r\n        return (roalityReceiver, royaltyAmount);\r\n    }\r\n\r\n    /**\r\n     * @dev The denominator with which to interpret the fee set in {_setTokenRoyalty} and {_setDefaultRoyalty} as a\r\n     * fraction of the sale price. Defaults to 10000 so fees are expressed in basis points.\r\n     */\r\n    function setRoality(address receiver, uint96 feeNumerator) external onlyOwner {\r\n        _nft.setRoality(receiver, feeNumerator);\r\n    }\r\n\r\n    function getRefundFee() external view returns(uint8) {\r\n        return _refundPercentFee;\r\n    }\r\n\r\n    function setRefundFee(uint8 fee) external onlyOwner {\r\n        require(fee > 0 && fee <100, \"Invalied percentage value\");\r\n        _refundPercentFee = fee;\r\n    }\r\n\r\n    function getLeasable(uint256 _tokenId) external view returns(bool) {\r\n        if(leasable[_tokenId]) return true;\r\n        else return false;\r\n    }\r\n\r\n    function setTokenLeasable(uint256 _tokenId, uint256 _price, uint32 _duration) external onlyOwnerOf(_tokenId) {\r\n        require(_price >= ((_nft.getTierPrice(_nft.getTierNumberOf(_tokenId)) / 10) * 10**26) / uint256(_nft.getLatestPrice()), \"Amount of ether sent is not correct.\");\r\n        require(_duration >= 30, \"The minimum to lease the membership is 30 days.\");\r\n        _leasableTokens.push(LeasableToken(_tokenId, _price, _duration));\r\n        leasable[_tokenId] = true;\r\n    }\r\n\r\n    function getLeasableToken(uint256 _tokenId) external view returns(LeasableToken memory) {\r\n        LeasableToken memory leasableToken;\r\n        for(uint256 i = 1; i <= _leasableTokens.length; i++) {\r\n            if(_leasableTokens[i].tokenId == _tokenId) {\r\n                leasableToken = _leasableTokens[i];\r\n            }\r\n        }\r\n\r\n        return leasableToken;\r\n    }\r\n\r\n    function getLeasableTokens() external view returns(LeasableToken[] memory) {\r\n        return _leasableTokens;\r\n    }\r\n\r\n    function getLeaseOffers(uint256 _tokenId) external view onlyOwnerOf(_tokenId) returns(LeaseOffer[] memory) {\r\n        return leaseOffers[_tokenId];\r\n    }\r\n\r\n    function trasferWeth(address from, address to, uint256 amount) public returns(bool) {\r\n        return _weth.transferFrom(from, to, amount);\r\n    }\r\n\r\n    function approveLeaseOffer(uint256 _tokenId, address _from) external onlyOwnerOf(_tokenId) {\r\n        LeaseOffer[] memory tokenLeaseOffers = leaseOffers[_tokenId];\r\n\r\n        for(uint256 i = 0; i < tokenLeaseOffers.length; i++) {\r\n            if(tokenLeaseOffers[i].from == _from) {\r\n                (address royaltyReceiver, uint256 roaltyAmount) = getRoalityInfo(_tokenId, tokenLeaseOffers[i].price);\r\n\r\n                // transfer WETH from lease offer maker to the owner\r\n                bool success1 = trasferWeth(_from, address(_nft.ownerOf(_tokenId)), (tokenLeaseOffers[i].price * 9) / 10);\r\n                require(success1, \"Failed to Pay Royalty fee\");\r\n                // transfer royalty fee from lease offer maker to royalty receiver\r\n                bool success2 = trasferWeth(_from, royaltyReceiver, roaltyAmount);\r\n                require(success2, \"Failed to Pay Royalty fee\");\r\n                \r\n                _lease[_tokenId] = tokenLeaseOffers[i];\r\n                delete leaseOffers[_tokenId][i];\r\n\r\n                emit ApproveLeasing(_tokenId);\r\n                break;\r\n            }\r\n        }\r\n        _offerState[_tokenId][_from] = false;\r\n    }\r\n\r\n    function calcenLeaseOffer(uint256 _tokenId) external {\r\n        require(_nft.ownerOf(_tokenId) != msg.sender, \"You can't buy yours.\");\r\n        require(_nft.ownerOf(_tokenId) != address(0), \"You can't send offer no-owner token\");\r\n        LeaseOffer[] memory tokenLeaseOffers = leaseOffers[_tokenId];\r\n\r\n        for(uint256 i = 0; i < tokenLeaseOffers.length; i++) {\r\n            if(tokenLeaseOffers[i].from == msg.sender) {\r\n                (bool success1, ) = msg.sender.call{ value: tokenLeaseOffers[i].price * _refundPercentFee / 100 }(\"\");\r\n                require(success1, \"Failed to refund\");\r\n                delete leaseOffers[_tokenId][i];\r\n\r\n                emit ApproveLeasing(_tokenId);\r\n                break;\r\n            }\r\n        }\r\n\r\n        _offerState[_tokenId][msg.sender] = false;\r\n    }\r\n\r\n    function sendLeaseOffer(uint256 _tokenId, uint256 _amount, uint32 _expiresIn) public payable {\r\n        require(_nft.ownerOf(_tokenId) != msg.sender, \"You can't buy yours.\");\r\n        require(_nft.ownerOf(_tokenId) != address(0), \"You can't send offer no-owner token\");\r\n        require(_amount >= ((_nft.getTierPrice(_nft.getTierNumberOf(_tokenId)) / 10) * 10**26) / uint256(_nft.getLatestPrice()), \"Amount of ether sent is not correct.\");\r\n        require(_weth.balanceOf(msg.sender) >= _amount, \"You don't have enough WETH.\");\r\n        require(_expiresIn >= 30, \"The minimum to lease the membership is 30 days.\");\r\n        require(_offerState[_tokenId][msg.sender] != true, \"You can't send mutli offer\");\r\n        leaseOffers[_tokenId].push(LeaseOffer(msg.sender, _amount, _expiresIn));\r\n        _offerState[_tokenId][msg.sender] = true;\r\n    }\r\n\r\n    function lease(uint256 _tokenId, uint32 _expiresIn) external payable {\r\n        require(_nft.ownerOf(_tokenId) != msg.sender, \"You can't buy yours.\");\r\n        require(leasable[_tokenId], \"Token is not public\");\r\n        require(_nft.ownerOf(_tokenId) != address(0), \"You can't send offer no-owner token\");\r\n        // require(msg.value >= leasePrices[_tokenId], \"Amount of ether sent not enough.\");\r\n\r\n        (address royaltyReceiver, uint256 roaltyAmount) = getRoalityInfo(_tokenId, msg.value);\r\n        address payable _royaltyReceiver = payable(royaltyReceiver);\r\n        (bool success1, ) = _royaltyReceiver.call{ value: roaltyAmount }(\"\");\r\n        require(success1, \"Failed to Pay Royalty fee\");\r\n\r\n        _lease[_tokenId] = LeaseOffer(msg.sender, msg.value, _expiresIn);\r\n        leasable[_tokenId] = false;\r\n        \r\n\r\n        for(uint256 i = 0; i < _leasableTokens.length; i++) {\r\n            if (_leasableTokens[i].tokenId == _tokenId) {\r\n                _leasableTokens[i] = _leasableTokens[_leasableTokens.length - 1];\r\n                _leasableTokens.pop();\r\n                break;\r\n            }\r\n        }\r\n    }\r\n}",
  "sourcePath": "F:\\www-2022\\fathonclub-work\\app\\contracts\\Leasing.sol",
  "compiler": {
    "name": "solc",
    "version": "0.8.11+commit.d7f03943.Emscripten.clang"
  },
  "schemaVersion": "3.4.5",
  "updatedAt": "2022-03-16T19:32:28.652Z",
  "devdoc": {
    "kind": "dev",
    "methods": {
      "owner()": {
        "details": "Returns the address of the current owner."
      },
      "renounceOwnership()": {
        "details": "Leaves the contract without owner. It will not be possible to call `onlyOwner` functions anymore. Can only be called by the current owner. NOTE: Renouncing ownership will leave the contract without an owner, thereby removing any functionality that is only available to the owner."
      },
      "setRoality(address,uint96)": {
        "details": "The denominator with which to interpret the fee set in {_setTokenRoyalty} and {_setDefaultRoyalty} as a fraction of the sale price. Defaults to 10000 so fees are expressed in basis points."
      },
      "transferOwnership(address)": {
        "details": "Transfers ownership of the contract to a new account (`newOwner`). Can only be called by the current owner."
      }
    },
    "version": 1
  },
  "userdoc": {
    "kind": "user",
    "methods": {},
    "version": 1
  }
}