{
  "contractName": "Leasing",
  "abi": [
    {
      "anonymous": false,
      "inputs": [
        {
          "indexed": false,
          "internalType": "uint256",
          "name": "tokenId",
          "type": "uint256"
        }
      ],
      "name": "ApproveLeasing",
      "type": "event"
    },
    {
      "anonymous": false,
      "inputs": [
        {
          "indexed": true,
          "internalType": "address",
          "name": "previousOwner",
          "type": "address"
        },
        {
          "indexed": true,
          "internalType": "address",
          "name": "newOwner",
          "type": "address"
        }
      ],
      "name": "OwnershipTransferred",
      "type": "event"
    },
    {
      "inputs": [],
      "name": "owner",
      "outputs": [
        {
          "internalType": "address",
          "name": "",
          "type": "address"
        }
      ],
      "stateMutability": "view",
      "type": "function"
    },
    {
      "inputs": [],
      "name": "renounceOwnership",
      "outputs": [],
      "stateMutability": "nonpayable",
      "type": "function"
    },
    {
      "inputs": [
        {
          "internalType": "address",
          "name": "newOwner",
          "type": "address"
        }
      ],
      "name": "transferOwnership",
      "outputs": [],
      "stateMutability": "nonpayable",
      "type": "function"
    },
    {
      "inputs": [],
      "name": "getNFTAddress",
      "outputs": [
        {
          "internalType": "address",
          "name": "",
          "type": "address"
        }
      ],
      "stateMutability": "view",
      "type": "function"
    },
    {
      "inputs": [
        {
          "internalType": "address",
          "name": "nft_address",
          "type": "address"
        }
      ],
      "name": "setNFTAddress",
      "outputs": [],
      "stateMutability": "nonpayable",
      "type": "function"
    },
    {
      "inputs": [],
      "name": "withDraw",
      "outputs": [],
      "stateMutability": "nonpayable",
      "type": "function"
    },
    {
      "inputs": [
        {
          "internalType": "uint256",
          "name": "_tokenId",
          "type": "uint256"
        },
        {
          "internalType": "uint256",
          "name": "_salePrice",
          "type": "uint256"
        }
      ],
      "name": "getRoalityInfo",
      "outputs": [
        {
          "internalType": "address",
          "name": "",
          "type": "address"
        },
        {
          "internalType": "uint256",
          "name": "",
          "type": "uint256"
        }
      ],
      "stateMutability": "view",
      "type": "function"
    },
    {
      "inputs": [
        {
          "internalType": "address",
          "name": "receiver",
          "type": "address"
        },
        {
          "internalType": "uint96",
          "name": "feeNumerator",
          "type": "uint96"
        }
      ],
      "name": "setRoality",
      "outputs": [],
      "stateMutability": "nonpayable",
      "type": "function"
    },
    {
      "inputs": [],
      "name": "getRefundFee",
      "outputs": [
        {
          "internalType": "uint8",
          "name": "",
          "type": "uint8"
        }
      ],
      "stateMutability": "view",
      "type": "function"
    },
    {
      "inputs": [
        {
          "internalType": "uint8",
          "name": "fee",
          "type": "uint8"
        }
      ],
      "name": "setRefundFee",
      "outputs": [],
      "stateMutability": "nonpayable",
      "type": "function"
    },
    {
      "inputs": [
        {
          "internalType": "uint256",
          "name": "_tokenId",
          "type": "uint256"
        }
      ],
      "name": "getLeasable",
      "outputs": [
        {
          "internalType": "bool",
          "name": "",
          "type": "bool"
        }
      ],
      "stateMutability": "view",
      "type": "function"
    },
    {
      "inputs": [
        {
          "internalType": "uint256",
          "name": "_tokenId",
          "type": "uint256"
        },
        {
          "internalType": "uint256",
          "name": "_price",
          "type": "uint256"
        }
      ],
      "name": "setLeasable",
      "outputs": [],
      "stateMutability": "nonpayable",
      "type": "function"
    },
    {
      "inputs": [
        {
          "internalType": "uint256",
          "name": "_tokenId",
          "type": "uint256"
        }
      ],
      "name": "getLeasePrice",
      "outputs": [
        {
          "internalType": "uint256",
          "name": "",
          "type": "uint256"
        }
      ],
      "stateMutability": "view",
      "type": "function"
    },
    {
      "inputs": [
        {
          "internalType": "uint256",
          "name": "_tokenId",
          "type": "uint256"
        },
        {
          "internalType": "uint256",
          "name": "_price",
          "type": "uint256"
        }
      ],
      "name": "setLeasePrice",
      "outputs": [],
      "stateMutability": "nonpayable",
      "type": "function"
    },
    {
      "inputs": [
        {
          "internalType": "uint256",
          "name": "_tokenId",
          "type": "uint256"
        }
      ],
      "name": "getLeaseOffers",
      "outputs": [
        {
          "components": [
            {
              "internalType": "address",
              "name": "from",
              "type": "address"
            },
            {
              "internalType": "uint256",
              "name": "price",
              "type": "uint256"
            },
            {
              "internalType": "uint32",
              "name": "expiresIn",
              "type": "uint32"
            }
          ],
          "internalType": "struct Leasing.LeaseOffer[]",
          "name": "",
          "type": "tuple[]"
        }
      ],
      "stateMutability": "view",
      "type": "function"
    },
    {
      "inputs": [
        {
          "internalType": "address",
          "name": "from",
          "type": "address"
        },
        {
          "internalType": "address",
          "name": "to",
          "type": "address"
        },
        {
          "internalType": "uint256",
          "name": "amount",
          "type": "uint256"
        }
      ],
      "name": "trasferWeth",
      "outputs": [
        {
          "internalType": "bool",
          "name": "",
          "type": "bool"
        }
      ],
      "stateMutability": "nonpayable",
      "type": "function"
    },
    {
      "inputs": [
        {
          "internalType": "uint256",
          "name": "_tokenId",
          "type": "uint256"
        },
        {
          "internalType": "address",
          "name": "_from",
          "type": "address"
        }
      ],
      "name": "approveLeaseOffer",
      "outputs": [],
      "stateMutability": "nonpayable",
      "type": "function"
    },
    {
      "inputs": [
        {
          "internalType": "uint256",
          "name": "_tokenId",
          "type": "uint256"
        }
      ],
      "name": "calcenLeaseOffer",
      "outputs": [],
      "stateMutability": "nonpayable",
      "type": "function"
    },
    {
      "inputs": [],
      "name": "getLeasableTokens",
      "outputs": [
        {
          "internalType": "uint256[]",
          "name": "",
          "type": "uint256[]"
        }
      ],
      "stateMutability": "view",
      "type": "function"
    },
    {
      "inputs": [
        {
          "internalType": "uint256",
          "name": "_tokenId",
          "type": "uint256"
        },
        {
          "internalType": "uint256",
          "name": "amount",
          "type": "uint256"
        },
        {
          "internalType": "uint32",
          "name": "_expiresIn",
          "type": "uint32"
        }
      ],
      "name": "sendLeaseOffer",
      "outputs": [],
      "stateMutability": "payable",
      "type": "function"
    },
    {
      "inputs": [
        {
          "internalType": "uint256",
          "name": "_tokenId",
          "type": "uint256"
        },
        {
          "internalType": "uint32",
          "name": "_expiresIn",
          "type": "uint32"
        }
      ],
      "name": "lease",
      "outputs": [],
      "stateMutability": "payable",
      "type": "function"
    }
  ],
  "bytecode": "0x608060405273c778417e063141139fce010982780140aa0cd5ab600160006101000a81548173ffffffffffffffffffffffffffffffffffffffff021916908373ffffffffffffffffffffffffffffffffffffffff1602179055506062600260146101000a81548160ff021916908360ff16021790555060006007553480156200008757600080fd5b50620000a86200009c620000ae60201b60201c565b620000b660201b60201c565b6200017a565b600033905090565b60008060009054906101000a900473ffffffffffffffffffffffffffffffffffffffff169050816000806101000a81548173ffffffffffffffffffffffffffffffffffffffff021916908373ffffffffffffffffffffffffffffffffffffffff1602179055508173ffffffffffffffffffffffffffffffffffffffff168173ffffffffffffffffffffffffffffffffffffffff167f8be0079c531659141344cd1fd0a4f28419497f9722a3daafe3b4186f6b6457e060405160405180910390a35050565b613b9b806200018a6000396000f3fe60806040526004361061012a5760003560e01c806369d03738116100ab578063836807fc1161006f578063836807fc146103cc57806388ea92d8146103f75780638da5cb5b14610413578063b96184781461043e578063c98100b114610469578063f2fde38b146104925761012a565b806369d03738146102e95780636da6dfb2146103125780636dd15b3e1461033b578063715018a6146103785780637821586c1461038f5761012a565b806341048e74116100f257806341048e741461022957806342eb98c1146102525780634815df1d1461026e578063501a1c511461029757806358c7c915146102c05761012a565b80630fdb1c101461012f578063192be5f1146101465780631eaab32414610183578063298d73f2146101c157806339b6a2c2146101fe575b600080fd5b34801561013b57600080fd5b506101446104bb565b005b34801561015257600080fd5b5061016d60048036038101906101689190612a3f565b6105f3565b60405161017a9190612bcc565b60405180910390f35b34801561018f57600080fd5b506101aa60048036038101906101a59190612bee565b6107f6565b6040516101b8929190612c4c565b60405180910390f35b3480156101cd57600080fd5b506101e860048036038101906101e39190612a3f565b6108ac565b6040516101f59190612c90565b60405180910390f35b34801561020a57600080fd5b506102136108e7565b6040516102209190612d5a565b60405180910390f35b34801561023557600080fd5b50610250600480360381019061024b9190612bee565b610a48565b005b61026c60048036038101906102679190612da8565b610b6f565b005b34801561027a57600080fd5b5061029560048036038101906102909190612e58565b61100d565b005b3480156102a357600080fd5b506102be60048036038101906102b99190612ed1565b61111c565b005b3480156102cc57600080fd5b506102e760048036038101906102e29190612bee565b61120b565b005b3480156102f557600080fd5b50610310600480360381019061030b9190612efe565b611376565b005b34801561031e57600080fd5b5061033960048036038101906103349190612a3f565b611436565b005b34801561034757600080fd5b50610362600480360381019061035d9190612f2b565b6119c9565b60405161036f9190612c90565b60405180910390f35b34801561038457600080fd5b5061038d611a76565b005b34801561039b57600080fd5b506103b660048036038101906103b19190612a3f565b611afe565b6040516103c39190612f7e565b60405180910390f35b3480156103d857600080fd5b506103e1611b1b565b6040516103ee9190612fa8565b60405180910390f35b610411600480360381019061040c9190612fc3565b611b32565b005b34801561041f57600080fd5b506104286121f4565b6040516104359190613016565b60405180910390f35b34801561044a57600080fd5b5061045361221d565b6040516104609190613016565b60405180910390f35b34801561047557600080fd5b50610490600480360381019061048b9190613031565b612247565b005b34801561049e57600080fd5b506104b960048036038101906104b49190612efe565b612840565b005b6104c3612938565b73ffffffffffffffffffffffffffffffffffffffff166104e16121f4565b73ffffffffffffffffffffffffffffffffffffffff1614610537576040517f08c379a000000000000000000000000000000000000000000000000000000000815260040161052e906130ce565b60405180910390fd5b60006105416121f4565b905060008173ffffffffffffffffffffffffffffffffffffffff16476040516105699061311f565b60006040518083038185875af1925050503d80600081146105a6576040519150601f19603f3d011682016040523d82523d6000602084013e6105ab565b606091505b50509050806105ef576040517f08c379a00000000000000000000000000000000000000000000000000000000081526004016105e690613180565b60405180910390fd5b5050565b606081600260009054906101000a900473ffffffffffffffffffffffffffffffffffffffff1673ffffffffffffffffffffffffffffffffffffffff16636352211e826040518263ffffffff1660e01b81526004016106519190612f7e565b602060405180830381865afa15801561066e573d6000803e3d6000fd5b505050506040513d601f19601f8201168201806040525081019061069291906131b5565b73ffffffffffffffffffffffffffffffffffffffff163373ffffffffffffffffffffffffffffffffffffffff16146106ff576040517f08c379a00000000000000000000000000000000000000000000000000000000081526004016106f69061322e565b60405180910390fd5b60056000848152602001908152602001600020805480602002602001604051908101604052809291908181526020016000905b828210156107ea57838290600052602060002090600302016040518060600160405290816000820160009054906101000a900473ffffffffffffffffffffffffffffffffffffffff1673ffffffffffffffffffffffffffffffffffffffff1673ffffffffffffffffffffffffffffffffffffffff168152602001600182015481526020016002820160009054906101000a900463ffffffff1663ffffffff1663ffffffff168152505081526020019060010190610732565b50505050915050919050565b600080600080600260009054906101000a900473ffffffffffffffffffffffffffffffffffffffff1673ffffffffffffffffffffffffffffffffffffffff16632a55205a87876040518363ffffffff1660e01b815260040161085992919061324e565b6040805180830381865afa158015610875573d6000803e3d6000fd5b505050506040513d601f19601f82011682018060405250810190610899919061328c565b9150915081819350935050509250929050565b60006006600083815260200190815260200160002060009054906101000a900460ff16156108dd57600190506108e2565b600090505b919050565b6060600060075467ffffffffffffffff811115610907576109066132cc565b5b6040519080825280602002602001820160405280156109355781602001602082028036833780820191505090505b509050600080600190505b600260009054906101000a900473ffffffffffffffffffffffffffffffffffffffff1673ffffffffffffffffffffffffffffffffffffffff166318160ddd6040518163ffffffff1660e01b8152600401602060405180830381865afa1580156109ad573d6000803e3d6000fd5b505050506040513d601f19601f820116820180604052508101906109d191906132fb565b8111610a3f576006600082815260200190815260200160002060009054906101000a900460ff1615610a2c5780838381518110610a1157610a10613328565b5b6020026020010181815250508180610a2890613386565b9250505b8080610a3790613386565b915050610940565b50819250505090565b81600260009054906101000a900473ffffffffffffffffffffffffffffffffffffffff1673ffffffffffffffffffffffffffffffffffffffff16636352211e826040518263ffffffff1660e01b8152600401610aa49190612f7e565b602060405180830381865afa158015610ac1573d6000803e3d6000fd5b505050506040513d601f19601f82011682018060405250810190610ae591906131b5565b73ffffffffffffffffffffffffffffffffffffffff163373ffffffffffffffffffffffffffffffffffffffff1614610b52576040517f08c379a0000000000000000000000000000000000000000000000000000000008152600401610b499061322e565b60405180910390fd5b816008600085815260200190815260200160002081905550505050565b3373ffffffffffffffffffffffffffffffffffffffff16600260009054906101000a900473ffffffffffffffffffffffffffffffffffffffff1673ffffffffffffffffffffffffffffffffffffffff16636352211e846040518263ffffffff1660e01b8152600401610be19190612f7e565b602060405180830381865afa158015610bfe573d6000803e3d6000fd5b505050506040513d601f19601f82011682018060405250810190610c2291906131b5565b73ffffffffffffffffffffffffffffffffffffffff161415610c79576040517f08c379a0000000000000000000000000000000000000000000000000000000008152600401610c709061341b565b60405180910390fd5b6006600083815260200190815260200160002060009054906101000a900460ff16610cd9576040517f08c379a0000000000000000000000000000000000000000000000000000000008152600401610cd090613487565b60405180910390fd5b600073ffffffffffffffffffffffffffffffffffffffff16600260009054906101000a900473ffffffffffffffffffffffffffffffffffffffff1673ffffffffffffffffffffffffffffffffffffffff16636352211e846040518263ffffffff1660e01b8152600401610d4c9190612f7e565b602060405180830381865afa158015610d69573d6000803e3d6000fd5b505050506040513d601f19601f82011682018060405250810190610d8d91906131b5565b73ffffffffffffffffffffffffffffffffffffffff161415610de4576040517f08c379a0000000000000000000000000000000000000000000000000000000008152600401610ddb90613519565b60405180910390fd5b6008600083815260200190815260200160002054341015610e3a576040517f08c379a0000000000000000000000000000000000000000000000000000000008152600401610e3190613585565b60405180910390fd5b600080610e4784346107f6565b91509150600082905060008173ffffffffffffffffffffffffffffffffffffffff1683604051610e769061311f565b60006040518083038185875af1925050503d8060008114610eb3576040519150601f19603f3d011682016040523d82523d6000602084013e610eb8565b606091505b5050905080610efc576040517f08c379a0000000000000000000000000000000000000000000000000000000008152600401610ef3906135f1565b60405180910390fd5b60405180606001604052803373ffffffffffffffffffffffffffffffffffffffff1681526020013481526020018663ffffffff168152506003600088815260200190815260200160002060008201518160000160006101000a81548173ffffffffffffffffffffffffffffffffffffffff021916908373ffffffffffffffffffffffffffffffffffffffff1602179055506020820151816001015560408201518160020160006101000a81548163ffffffff021916908363ffffffff16021790555090505060006006600088815260200190815260200160002060006101000a81548160ff0219169083151502179055506007600081548092919061100090613611565b9190505550505050505050565b611015612938565b73ffffffffffffffffffffffffffffffffffffffff166110336121f4565b73ffffffffffffffffffffffffffffffffffffffff1614611089576040517f08c379a0000000000000000000000000000000000000000000000000000000008152600401611080906130ce565b60405180910390fd5b600260009054906101000a900473ffffffffffffffffffffffffffffffffffffffff1673ffffffffffffffffffffffffffffffffffffffff16634815df1d83836040518363ffffffff1660e01b81526004016110e692919061364a565b600060405180830381600087803b15801561110057600080fd5b505af1158015611114573d6000803e3d6000fd5b505050505050565b611124612938565b73ffffffffffffffffffffffffffffffffffffffff166111426121f4565b73ffffffffffffffffffffffffffffffffffffffff1614611198576040517f08c379a000000000000000000000000000000000000000000000000000000000815260040161118f906130ce565b60405180910390fd5b60008160ff161180156111ae575060648160ff16105b6111ed576040517f08c379a00000000000000000000000000000000000000000000000000000000081526004016111e4906136bf565b60405180910390fd5b80600260146101000a81548160ff021916908360ff16021790555050565b81600260009054906101000a900473ffffffffffffffffffffffffffffffffffffffff1673ffffffffffffffffffffffffffffffffffffffff16636352211e826040518263ffffffff1660e01b81526004016112679190612f7e565b602060405180830381865afa158015611284573d6000803e3d6000fd5b505050506040513d601f19601f820116820180604052508101906112a891906131b5565b73ffffffffffffffffffffffffffffffffffffffff163373ffffffffffffffffffffffffffffffffffffffff1614611315576040517f08c379a000000000000000000000000000000000000000000000000000000000815260040161130c9061322e565b60405180910390fd5b60016006600085815260200190815260200160002060006101000a81548160ff0219169083151502179055508160086000858152602001908152602001600020819055506007600081548092919061136c90613386565b9190505550505050565b61137e612938565b73ffffffffffffffffffffffffffffffffffffffff1661139c6121f4565b73ffffffffffffffffffffffffffffffffffffffff16146113f2576040517f08c379a00000000000000000000000000000000000000000000000000000000081526004016113e9906130ce565b60405180910390fd5b80600260006101000a81548173ffffffffffffffffffffffffffffffffffffffff021916908373ffffffffffffffffffffffffffffffffffffffff16021790555050565b3373ffffffffffffffffffffffffffffffffffffffff16600260009054906101000a900473ffffffffffffffffffffffffffffffffffffffff1673ffffffffffffffffffffffffffffffffffffffff16636352211e836040518263ffffffff1660e01b81526004016114a89190612f7e565b602060405180830381865afa1580156114c5573d6000803e3d6000fd5b505050506040513d601f19601f820116820180604052508101906114e991906131b5565b73ffffffffffffffffffffffffffffffffffffffff161415611540576040517f08c379a00000000000000000000000000000000000000000000000000000000081526004016115379061341b565b60405180910390fd5b600073ffffffffffffffffffffffffffffffffffffffff16600260009054906101000a900473ffffffffffffffffffffffffffffffffffffffff1673ffffffffffffffffffffffffffffffffffffffff16636352211e836040518263ffffffff1660e01b81526004016115b39190612f7e565b602060405180830381865afa1580156115d0573d6000803e3d6000fd5b505050506040513d601f19601f820116820180604052508101906115f491906131b5565b73ffffffffffffffffffffffffffffffffffffffff16141561164b576040517f08c379a000000000000000000000000000000000000000000000000000000000815260040161164290613519565b60405180910390fd5b600060056000838152602001908152602001600020805480602002602001604051908101604052809291908181526020016000905b8282101561173857838290600052602060002090600302016040518060600160405290816000820160009054906101000a900473ffffffffffffffffffffffffffffffffffffffff1673ffffffffffffffffffffffffffffffffffffffff1673ffffffffffffffffffffffffffffffffffffffff168152602001600182015481526020016002820160009054906101000a900463ffffffff1663ffffffff1663ffffffff168152505081526020019060010190611680565b50505050905060005b815181101561195b573373ffffffffffffffffffffffffffffffffffffffff1682828151811061177457611773613328565b5b60200260200101516000015173ffffffffffffffffffffffffffffffffffffffff1614156119485760003373ffffffffffffffffffffffffffffffffffffffff166064600260149054906101000a900460ff1660ff168585815181106117dd576117dc613328565b5b6020026020010151602001516117f391906136df565b6117fd9190613768565b6040516118099061311f565b60006040518083038185875af1925050503d8060008114611846576040519150601f19603f3d011682016040523d82523d6000602084013e61184b565b606091505b505090508061188f576040517f08c379a0000000000000000000000000000000000000000000000000000000008152600401611886906137e5565b60405180910390fd5b6005600085815260200190815260200160002082815481106118b4576118b3613328565b5b9060005260206000209060030201600080820160006101000a81549073ffffffffffffffffffffffffffffffffffffffff021916905560018201600090556002820160006101000a81549063ffffffff021916905550507f5df43fd1d761a6f554d17dc183de87d3f3567edb7dccd3a5116bf5e3d06d540e8460405161193a9190612f7e565b60405180910390a15061195b565b808061195390613386565b915050611741565b5060006004600084815260200190815260200160002060003373ffffffffffffffffffffffffffffffffffffffff1673ffffffffffffffffffffffffffffffffffffffff16815260200190815260200160002060006101000a81548160ff0219169083151502179055505050565b6000600160009054906101000a900473ffffffffffffffffffffffffffffffffffffffff1673ffffffffffffffffffffffffffffffffffffffff166323b872dd8585856040518463ffffffff1660e01b8152600401611a2a93929190613805565b6020604051808303816000875af1158015611a49573d6000803e3d6000fd5b505050506040513d601f19601f82011682018060405250810190611a6d9190613868565b90509392505050565b611a7e612938565b73ffffffffffffffffffffffffffffffffffffffff16611a9c6121f4565b73ffffffffffffffffffffffffffffffffffffffff1614611af2576040517f08c379a0000000000000000000000000000000000000000000000000000000008152600401611ae9906130ce565b60405180910390fd5b611afc6000612940565b565b600060086000838152602001908152602001600020549050919050565b6000600260149054906101000a900460ff16905090565b3373ffffffffffffffffffffffffffffffffffffffff16600260009054906101000a900473ffffffffffffffffffffffffffffffffffffffff1673ffffffffffffffffffffffffffffffffffffffff16636352211e856040518263ffffffff1660e01b8152600401611ba49190612f7e565b602060405180830381865afa158015611bc1573d6000803e3d6000fd5b505050506040513d601f19601f82011682018060405250810190611be591906131b5565b73ffffffffffffffffffffffffffffffffffffffff161415611c3c576040517f08c379a0000000000000000000000000000000000000000000000000000000008152600401611c339061341b565b60405180910390fd5b600073ffffffffffffffffffffffffffffffffffffffff16600260009054906101000a900473ffffffffffffffffffffffffffffffffffffffff1673ffffffffffffffffffffffffffffffffffffffff16636352211e856040518263ffffffff1660e01b8152600401611caf9190612f7e565b602060405180830381865afa158015611ccc573d6000803e3d6000fd5b505050506040513d601f19601f82011682018060405250810190611cf091906131b5565b73ffffffffffffffffffffffffffffffffffffffff161415611d47576040517f08c379a0000000000000000000000000000000000000000000000000000000008152600401611d3e90613519565b60405180910390fd5b600a600260009054906101000a900473ffffffffffffffffffffffffffffffffffffffff1673ffffffffffffffffffffffffffffffffffffffff16635586402d600260009054906101000a900473ffffffffffffffffffffffffffffffffffffffff1673ffffffffffffffffffffffffffffffffffffffff1663669aa2a3876040518263ffffffff1660e01b8152600401611de29190612f7e565b602060405180830381865afa158015611dff573d6000803e3d6000fd5b505050506040513d601f19601f82011682018060405250810190611e2391906138aa565b6040518263ffffffff1660e01b8152600401611e3f9190612fa8565b602060405180830381865afa158015611e5c573d6000803e3d6000fd5b505050506040513d601f19601f82011682018060405250810190611e8091906132fb565b611e8a9190613768565b821015611ecc576040517f08c379a0000000000000000000000000000000000000000000000000000000008152600401611ec390613949565b60405180910390fd5b81600160009054906101000a900473ffffffffffffffffffffffffffffffffffffffff1673ffffffffffffffffffffffffffffffffffffffff166370a08231336040518263ffffffff1660e01b8152600401611f289190613016565b602060405180830381865afa158015611f45573d6000803e3d6000fd5b505050506040513d601f19601f82011682018060405250810190611f6991906132fb565b1015611faa576040517f08c379a0000000000000000000000000000000000000000000000000000000008152600401611fa1906139b5565b60405180910390fd5b601e8163ffffffff161015611ff4576040517f08c379a0000000000000000000000000000000000000000000000000000000008152600401611feb90613a47565b60405180910390fd5b600115156004600085815260200190815260200160002060003373ffffffffffffffffffffffffffffffffffffffff1673ffffffffffffffffffffffffffffffffffffffff16815260200190815260200160002060009054906101000a900460ff1615151415612099576040517f08c379a000000000000000000000000000000000000000000000000000000000815260040161209090613ab3565b60405180910390fd5b6005600084815260200190815260200160002060405180606001604052803373ffffffffffffffffffffffffffffffffffffffff1681526020018481526020018363ffffffff16815250908060018154018082558091505060019003906000526020600020906003020160009091909190915060008201518160000160006101000a81548173ffffffffffffffffffffffffffffffffffffffff021916908373ffffffffffffffffffffffffffffffffffffffff1602179055506020820151816001015560408201518160020160006101000a81548163ffffffff021916908363ffffffff160217905550505060016004600085815260200190815260200160002060003373ffffffffffffffffffffffffffffffffffffffff1673ffffffffffffffffffffffffffffffffffffffff16815260200190815260200160002060006101000a81548160ff021916908315150217905550505050565b60008060009054906101000a900473ffffffffffffffffffffffffffffffffffffffff16905090565b6000600260009054906101000a900473ffffffffffffffffffffffffffffffffffffffff16905090565b81600260009054906101000a900473ffffffffffffffffffffffffffffffffffffffff1673ffffffffffffffffffffffffffffffffffffffff16636352211e826040518263ffffffff1660e01b81526004016122a39190612f7e565b602060405180830381865afa1580156122c0573d6000803e3d6000fd5b505050506040513d601f19601f820116820180604052508101906122e491906131b5565b73ffffffffffffffffffffffffffffffffffffffff163373ffffffffffffffffffffffffffffffffffffffff1614612351576040517f08c379a00000000000000000000000000000000000000000000000000000000081526004016123489061322e565b60405180910390fd5b600060056000858152602001908152602001600020805480602002602001604051908101604052809291908181526020016000905b8282101561243e57838290600052602060002090600302016040518060600160405290816000820160009054906101000a900473ffffffffffffffffffffffffffffffffffffffff1673ffffffffffffffffffffffffffffffffffffffff1673ffffffffffffffffffffffffffffffffffffffff168152602001600182015481526020016002820160009054906101000a900463ffffffff1663ffffffff1663ffffffff168152505081526020019060010190612386565b50505050905060005b81518110156127b8578373ffffffffffffffffffffffffffffffffffffffff1682828151811061247a57612479613328565b5b60200260200101516000015173ffffffffffffffffffffffffffffffffffffffff1614156127a5576000806124cd878585815181106124bc576124bb613328565b5b6020026020010151602001516107f6565b9150915060006125af87600260009054906101000a900473ffffffffffffffffffffffffffffffffffffffff1673ffffffffffffffffffffffffffffffffffffffff16636352211e8b6040518263ffffffff1660e01b81526004016125329190612f7e565b602060405180830381865afa15801561254f573d6000803e3d6000fd5b505050506040513d601f19601f8201168201806040525081019061257391906131b5565b600a600989898151811061258a57612589613328565b5b6020026020010151602001516125a091906136df565b6125aa9190613768565b6119c9565b9050806125f1576040517f08c379a00000000000000000000000000000000000000000000000000000000081526004016125e8906135f1565b60405180910390fd5b60006125fe8885856119c9565b905080612640576040517f08c379a0000000000000000000000000000000000000000000000000000000008152600401612637906135f1565b60405180910390fd5b85858151811061265357612652613328565b5b6020026020010151600360008b815260200190815260200160002060008201518160000160006101000a81548173ffffffffffffffffffffffffffffffffffffffff021916908373ffffffffffffffffffffffffffffffffffffffff1602179055506020820151816001015560408201518160020160006101000a81548163ffffffff021916908363ffffffff160217905550905050600560008a8152602001908152602001600020858154811061270e5761270d613328565b5b9060005260206000209060030201600080820160006101000a81549073ffffffffffffffffffffffffffffffffffffffff021916905560018201600090556002820160006101000a81549063ffffffff021916905550507f5df43fd1d761a6f554d17dc183de87d3f3567edb7dccd3a5116bf5e3d06d540e896040516127949190612f7e565b60405180910390a1505050506127b8565b80806127b090613386565b915050612447565b5060006004600086815260200190815260200160002060008573ffffffffffffffffffffffffffffffffffffffff1673ffffffffffffffffffffffffffffffffffffffff16815260200190815260200160002060006101000a81548160ff0219169083151502179055506007600081548092919061283590613611565b919050555050505050565b612848612938565b73ffffffffffffffffffffffffffffffffffffffff166128666121f4565b73ffffffffffffffffffffffffffffffffffffffff16146128bc576040517f08c379a00000000000000000000000000000000000000000000000000000000081526004016128b3906130ce565b60405180910390fd5b600073ffffffffffffffffffffffffffffffffffffffff168173ffffffffffffffffffffffffffffffffffffffff16141561292c576040517f08c379a000000000000000000000000000000000000000000000000000000000815260040161292390613b45565b60405180910390fd5b61293581612940565b50565b600033905090565b60008060009054906101000a900473ffffffffffffffffffffffffffffffffffffffff169050816000806101000a81548173ffffffffffffffffffffffffffffffffffffffff021916908373ffffffffffffffffffffffffffffffffffffffff1602179055508173ffffffffffffffffffffffffffffffffffffffff168173ffffffffffffffffffffffffffffffffffffffff167f8be0079c531659141344cd1fd0a4f28419497f9722a3daafe3b4186f6b6457e060405160405180910390a35050565b600080fd5b6000819050919050565b612a1c81612a09565b8114612a2757600080fd5b50565b600081359050612a3981612a13565b92915050565b600060208284031215612a5557612a54612a04565b5b6000612a6384828501612a2a565b91505092915050565b600081519050919050565b600082825260208201905092915050565b6000819050602082019050919050565b600073ffffffffffffffffffffffffffffffffffffffff82169050919050565b6000612ac382612a98565b9050919050565b612ad381612ab8565b82525050565b612ae281612a09565b82525050565b600063ffffffff82169050919050565b612b0181612ae8565b82525050565b606082016000820151612b1d6000850182612aca565b506020820151612b306020850182612ad9565b506040820151612b436040850182612af8565b50505050565b6000612b558383612b07565b60608301905092915050565b6000602082019050919050565b6000612b7982612a6c565b612b838185612a77565b9350612b8e83612a88565b8060005b83811015612bbf578151612ba68882612b49565b9750612bb183612b61565b925050600181019050612b92565b5085935050505092915050565b60006020820190508181036000830152612be68184612b6e565b905092915050565b60008060408385031215612c0557612c04612a04565b5b6000612c1385828601612a2a565b9250506020612c2485828601612a2a565b9150509250929050565b612c3781612ab8565b82525050565b612c4681612a09565b82525050565b6000604082019050612c616000830185612c2e565b612c6e6020830184612c3d565b9392505050565b60008115159050919050565b612c8a81612c75565b82525050565b6000602082019050612ca56000830184612c81565b92915050565b600081519050919050565b600082825260208201905092915050565b6000819050602082019050919050565b6000612ce38383612ad9565b60208301905092915050565b6000602082019050919050565b6000612d0782612cab565b612d118185612cb6565b9350612d1c83612cc7565b8060005b83811015612d4d578151612d348882612cd7565b9750612d3f83612cef565b925050600181019050612d20565b5085935050505092915050565b60006020820190508181036000830152612d748184612cfc565b905092915050565b612d8581612ae8565b8114612d9057600080fd5b50565b600081359050612da281612d7c565b92915050565b60008060408385031215612dbf57612dbe612a04565b5b6000612dcd85828601612a2a565b9250506020612dde85828601612d93565b9150509250929050565b612df181612ab8565b8114612dfc57600080fd5b50565b600081359050612e0e81612de8565b92915050565b60006bffffffffffffffffffffffff82169050919050565b612e3581612e14565b8114612e4057600080fd5b50565b600081359050612e5281612e2c565b92915050565b60008060408385031215612e6f57612e6e612a04565b5b6000612e7d85828601612dff565b9250506020612e8e85828601612e43565b9150509250929050565b600060ff82169050919050565b612eae81612e98565b8114612eb957600080fd5b50565b600081359050612ecb81612ea5565b92915050565b600060208284031215612ee757612ee6612a04565b5b6000612ef584828501612ebc565b91505092915050565b600060208284031215612f1457612f13612a04565b5b6000612f2284828501612dff565b91505092915050565b600080600060608486031215612f4457612f43612a04565b5b6000612f5286828701612dff565b9350506020612f6386828701612dff565b9250506040612f7486828701612a2a565b9150509250925092565b6000602082019050612f936000830184612c3d565b92915050565b612fa281612e98565b82525050565b6000602082019050612fbd6000830184612f99565b92915050565b600080600060608486031215612fdc57612fdb612a04565b5b6000612fea86828701612a2a565b9350506020612ffb86828701612a2a565b925050604061300c86828701612d93565b9150509250925092565b600060208201905061302b6000830184612c2e565b92915050565b6000806040838503121561304857613047612a04565b5b600061305685828601612a2a565b925050602061306785828601612dff565b9150509250929050565b600082825260208201905092915050565b7f4f776e61626c653a2063616c6c6572206973206e6f7420746865206f776e6572600082015250565b60006130b8602083613071565b91506130c382613082565b602082019050919050565b600060208201905081810360008301526130e7816130ab565b9050919050565b600081905092915050565b50565b60006131096000836130ee565b9150613114826130f9565b600082019050919050565b600061312a826130fc565b9150819050919050565b7f4661696c656420746f2057697468647261772056455400000000000000000000600082015250565b600061316a601683613071565b915061317582613134565b602082019050919050565b600060208201905081810360008301526131998161315d565b9050919050565b6000815190506131af81612de8565b92915050565b6000602082840312156131cb576131ca612a04565b5b60006131d9848285016131a0565b91505092915050565b7f63616c6c6572206973206e6f7420746865206f776e6572206f6620746f6b656e600082015250565b6000613218602083613071565b9150613223826131e2565b602082019050919050565b600060208201905081810360008301526132478161320b565b9050919050565b60006040820190506132636000830185612c3d565b6132706020830184612c3d565b9392505050565b60008151905061328681612a13565b92915050565b600080604083850312156132a3576132a2612a04565b5b60006132b1858286016131a0565b92505060206132c285828601613277565b9150509250929050565b7f4e487b7100000000000000000000000000000000000000000000000000000000600052604160045260246000fd5b60006020828403121561331157613310612a04565b5b600061331f84828501613277565b91505092915050565b7f4e487b7100000000000000000000000000000000000000000000000000000000600052603260045260246000fd5b7f4e487b7100000000000000000000000000000000000000000000000000000000600052601160045260246000fd5b600061339182612a09565b91507fffffffffffffffffffffffffffffffffffffffffffffffffffffffffffffffff8214156133c4576133c3613357565b5b600182019050919050565b7f596f752063616e27742062757920796f7572732e000000000000000000000000600082015250565b6000613405601483613071565b9150613410826133cf565b602082019050919050565b60006020820190508181036000830152613434816133f8565b9050919050565b7f546f6b656e206973206e6f74207075626c696300000000000000000000000000600082015250565b6000613471601383613071565b915061347c8261343b565b602082019050919050565b600060208201905081810360008301526134a081613464565b9050919050565b7f596f752063616e27742073656e64206f66666572206e6f2d6f776e657220746f60008201527f6b656e0000000000000000000000000000000000000000000000000000000000602082015250565b6000613503602383613071565b915061350e826134a7565b604082019050919050565b60006020820190508181036000830152613532816134f6565b9050919050565b7f416d6f756e74206f662065746865722073656e74206e6f7420656e6f7567682e600082015250565b600061356f602083613071565b915061357a82613539565b602082019050919050565b6000602082019050818103600083015261359e81613562565b9050919050565b7f4661696c656420746f2050617920526f79616c74792066656500000000000000600082015250565b60006135db601983613071565b91506135e6826135a5565b602082019050919050565b6000602082019050818103600083015261360a816135ce565b9050919050565b600061361c82612a09565b915060008214156136305761362f613357565b5b600182039050919050565b61364481612e14565b82525050565b600060408201905061365f6000830185612c2e565b61366c602083018461363b565b9392505050565b7f496e76616c6965642070657263656e746167652076616c756500000000000000600082015250565b60006136a9601983613071565b91506136b482613673565b602082019050919050565b600060208201905081810360008301526136d88161369c565b9050919050565b60006136ea82612a09565b91506136f583612a09565b9250817fffffffffffffffffffffffffffffffffffffffffffffffffffffffffffffffff048311821515161561372e5761372d613357565b5b828202905092915050565b7f4e487b7100000000000000000000000000000000000000000000000000000000600052601260045260246000fd5b600061377382612a09565b915061377e83612a09565b92508261378e5761378d613739565b5b828204905092915050565b7f4661696c656420746f20726566756e6400000000000000000000000000000000600082015250565b60006137cf601083613071565b91506137da82613799565b602082019050919050565b600060208201905081810360008301526137fe816137c2565b9050919050565b600060608201905061381a6000830186612c2e565b6138276020830185612c2e565b6138346040830184612c3d565b949350505050565b61384581612c75565b811461385057600080fd5b50565b6000815190506138628161383c565b92915050565b60006020828403121561387e5761387d612a04565b5b600061388c84828501613853565b91505092915050565b6000815190506138a481612ea5565b92915050565b6000602082840312156138c0576138bf612a04565b5b60006138ce84828501613895565b91505092915050565b7f416d6f756e74206f662065746865722073656e74206e6f7420636f727265637460008201527f2e00000000000000000000000000000000000000000000000000000000000000602082015250565b6000613933602183613071565b915061393e826138d7565b604082019050919050565b6000602082019050818103600083015261396281613926565b9050919050565b7f596f7520646f6e2774206861766520656e6f75676820574554482e0000000000600082015250565b600061399f601b83613071565b91506139aa82613969565b602082019050919050565b600060208201905081810360008301526139ce81613992565b9050919050565b7f546865206d696e696d756d20746f206c6561736520746865206d656d6265727360008201527f68697020697320333020646179732e0000000000000000000000000000000000602082015250565b6000613a31602f83613071565b9150613a3c826139d5565b604082019050919050565b60006020820190508181036000830152613a6081613a24565b9050919050565b7f596f752063616e27742073656e64206d75746c69206f66666572000000000000600082015250565b6000613a9d601a83613071565b9150613aa882613a67565b602082019050919050565b60006020820190508181036000830152613acc81613a90565b9050919050565b7f4f776e61626c653a206e6577206f776e657220697320746865207a65726f206160008201527f6464726573730000000000000000000000000000000000000000000000000000602082015250565b6000613b2f602683613071565b9150613b3a82613ad3565b604082019050919050565b60006020820190508181036000830152613b5e81613b22565b905091905056fea2646970667358221220ca63a3421dc99eedd6e2765914649e7d1e501932de6e7af5a1bfd1b4a2915fb164736f6c634300080b0033",
  "immutableReferences": {},
  "source": "// SPDX-License-Identifier: MIT\r\npragma solidity >=0.8.9 <0.9.0;\r\nimport \"@openzeppelin/contracts/token/ERC721/IERC721.sol\";\r\nimport \"@openzeppelin/contracts/access/Ownable.sol\";\r\nimport \"@openzeppelin/contracts/interfaces/IERC20.sol\";\r\n\r\ninterface IFYC is IERC721 {\r\n    function totalSupply() external view returns(uint256 number);\r\n    function getTierNumberOf(uint256 _tokenId) external view returns(uint8 tierNumber);\r\n    function getTierPrice(uint8 tierNumber) external view returns(uint256 tierPrice);\r\n    function royaltyInfo(uint256 _tokenId, uint256 _salePrice) external view returns (address roalityReceiver, uint256 royaltyAmount);\r\n    function setRoality(address receiver, uint96 feeNumerator) external;\r\n}\r\n\r\ncontract Leasing is Ownable {\r\n    event ApproveLeasing(uint tokenId);\r\n    \r\n    IERC20 _weth = IERC20(0xc778417E063141139Fce010982780140Aa0cD5Ab);\r\n    IFYC _nft;\r\n    uint8 private _refundPercentFee = 98;\r\n\r\n    struct LeaseOffer {\r\n        address from;\r\n        uint256 price;\r\n        uint32 expiresIn;\r\n    }\r\n    mapping (uint256 => LeaseOffer) private _lease;\r\n    mapping(uint256 => mapping(address => bool)) _offerState;\r\n    mapping (uint256 => LeaseOffer[]) leaseOffers;\r\n    mapping (uint256 => bool) leasable;\r\n    uint256 leasableTokenCount = 0;\r\n    mapping (uint256 => uint256) leasePrices;\r\n    \r\n    modifier onlyOwnerOf(uint256 _tokenId) {\r\n        require(msg.sender == address(_nft.ownerOf(_tokenId)), \"caller is not the owner of token\");\r\n        _;\r\n    }\r\n\r\n    function getNFTAddress() external view returns(address) {\r\n        return address(_nft);\r\n    }\r\n\r\n    function setNFTAddress(address nft_address) external onlyOwner {\r\n        _nft = IFYC(nft_address);\r\n    }\r\n\r\n    function withDraw() external onlyOwner {\r\n        address payable tgt = payable(owner());\r\n        (bool success1, ) = tgt.call{value:address(this).balance}(\"\");\r\n        require(success1, \"Failed to Withdraw VET\");\r\n    }\r\n\r\n    function getRoalityInfo(uint256 _tokenId, uint256 _salePrice) public view returns(address, uint256) {\r\n        (address roalityReceiver, uint256 royaltyAmount) = _nft.royaltyInfo(_tokenId, _salePrice);\r\n\r\n        return (roalityReceiver, royaltyAmount);\r\n    }\r\n\r\n    /**\r\n     * @dev The denominator with which to interpret the fee set in {_setTokenRoyalty} and {_setDefaultRoyalty} as a\r\n     * fraction of the sale price. Defaults to 10000 so fees are expressed in basis points.\r\n     */\r\n    function setRoality(address receiver, uint96 feeNumerator) external onlyOwner {\r\n        _nft.setRoality(receiver, feeNumerator);\r\n    }\r\n\r\n    function getRefundFee() external view returns(uint8) {\r\n        return _refundPercentFee;\r\n    }\r\n\r\n    function setRefundFee(uint8 fee) external onlyOwner {\r\n        require(fee > 0 && fee <100, \"Invalied percentage value\");\r\n        _refundPercentFee = fee;\r\n    }\r\n\r\n    function getLeasable(uint256 _tokenId) external view returns(bool) {\r\n        if(leasable[_tokenId]) return true;\r\n        else return false;\r\n    }\r\n\r\n    function setLeasable(uint256 _tokenId, uint256 _price) external onlyOwnerOf(_tokenId) {\r\n        leasable[_tokenId] = true;\r\n        leasePrices[_tokenId] = _price;\r\n        leasableTokenCount++;\r\n    }\r\n\r\n    function getLeasePrice(uint256 _tokenId) external view returns(uint256) {\r\n        return leasePrices[_tokenId];\r\n    }\r\n\r\n    function setLeasePrice(uint256 _tokenId, uint256 _price) external onlyOwnerOf(_tokenId) {\r\n        leasePrices[_tokenId] = _price;\r\n    }\r\n\r\n    function getLeaseOffers(uint256 _tokenId) external view onlyOwnerOf(_tokenId) returns(LeaseOffer[] memory) {\r\n        return leaseOffers[_tokenId];\r\n    }\r\n\r\n    function trasferWeth(address from, address to, uint256 amount) public returns(bool) {\r\n        return _weth.transferFrom(from, to, amount);\r\n    }\r\n\r\n    function approveLeaseOffer(uint256 _tokenId, address _from) external onlyOwnerOf(_tokenId) {\r\n        LeaseOffer[] memory tokenLeaseOffers = leaseOffers[_tokenId];\r\n\r\n        for(uint256 i = 0; i < tokenLeaseOffers.length; i++) {\r\n            if(tokenLeaseOffers[i].from == _from) {\r\n                (address royaltyReceiver, uint256 roaltyAmount) = getRoalityInfo(_tokenId, tokenLeaseOffers[i].price);\r\n\r\n                // transfer WETH from lease offer maker to the owner\r\n                bool success1 = trasferWeth(_from, address(_nft.ownerOf(_tokenId)), (tokenLeaseOffers[i].price * 9) / 10);\r\n                require(success1, \"Failed to Pay Royalty fee\");\r\n                // transfer royalty fee from lease offer maker to royalty receiver\r\n                bool success2 = trasferWeth(_from, royaltyReceiver, roaltyAmount);\r\n                require(success2, \"Failed to Pay Royalty fee\");\r\n                \r\n                _lease[_tokenId] = tokenLeaseOffers[i];\r\n                delete leaseOffers[_tokenId][i];\r\n\r\n                emit ApproveLeasing(_tokenId);\r\n                break;\r\n            }\r\n        }\r\n        _offerState[_tokenId][_from] = false;\r\n        leasableTokenCount--;\r\n    }\r\n\r\n    function calcenLeaseOffer(uint256 _tokenId) external {\r\n        require(_nft.ownerOf(_tokenId) != msg.sender, \"You can't buy yours.\");\r\n        require(_nft.ownerOf(_tokenId) != address(0), \"You can't send offer no-owner token\");\r\n        LeaseOffer[] memory tokenLeaseOffers = leaseOffers[_tokenId];\r\n\r\n        for(uint256 i = 0; i < tokenLeaseOffers.length; i++) {\r\n            if(tokenLeaseOffers[i].from == msg.sender) {\r\n                (bool success1, ) = msg.sender.call{ value: tokenLeaseOffers[i].price * _refundPercentFee / 100 }(\"\");\r\n                require(success1, \"Failed to refund\");\r\n                delete leaseOffers[_tokenId][i];\r\n\r\n                emit ApproveLeasing(_tokenId);\r\n                break;\r\n            }\r\n        }\r\n\r\n        _offerState[_tokenId][msg.sender] = false;\r\n    }\r\n\r\n    function getLeasableTokens() external view returns(uint256[] memory) {\r\n        uint256[] memory leasableTokenIds = new uint256[](leasableTokenCount);\r\n\r\n        uint256 counter = 0;\r\n        for(uint256 i = 1; i <= _nft.totalSupply(); i++) {\r\n            if (leasable[i]) {\r\n                leasableTokenIds[counter] = i;\r\n                counter++;\r\n            }\r\n        }\r\n\r\n        return leasableTokenIds;\r\n    }\r\n\r\n    function sendLeaseOffer(uint256 _tokenId, uint256 amount, uint32 _expiresIn) public payable {\r\n        require(_nft.ownerOf(_tokenId) != msg.sender, \"You can't buy yours.\");\r\n        require(_nft.ownerOf(_tokenId) != address(0), \"You can't send offer no-owner token\");\r\n        require(amount >= _nft.getTierPrice(_nft.getTierNumberOf(_tokenId)) / 10, \"Amount of ether sent not correct.\");\r\n        require(_weth.balanceOf(msg.sender) >= amount, \"You don't have enough WETH.\");\r\n        require(_expiresIn >= 30, \"The minimum to lease the membership is 30 days.\");\r\n        require(_offerState[_tokenId][msg.sender] != true, \"You can't send mutli offer\");\r\n        leaseOffers[_tokenId].push(LeaseOffer(msg.sender, amount, _expiresIn));\r\n        _offerState[_tokenId][msg.sender] = true;\r\n    }\r\n\r\n    function lease(uint256 _tokenId, uint32 _expiresIn) external payable {\r\n        require(_nft.ownerOf(_tokenId) != msg.sender, \"You can't buy yours.\");\r\n        require(leasable[_tokenId], \"Token is not public\");\r\n        require(_nft.ownerOf(_tokenId) != address(0), \"You can't send offer no-owner token\");\r\n        require(msg.value >= leasePrices[_tokenId], \"Amount of ether sent not enough.\");\r\n\r\n        (address royaltyReceiver, uint256 roaltyAmount) = getRoalityInfo(_tokenId, msg.value);\r\n        address payable _royaltyReceiver = payable(royaltyReceiver);\r\n        (bool success1, ) = _royaltyReceiver.call{ value: roaltyAmount }(\"\");\r\n        require(success1, \"Failed to Pay Royalty fee\");\r\n\r\n        _lease[_tokenId] = LeaseOffer(msg.sender, msg.value, _expiresIn);\r\n        leasable[_tokenId] = false;\r\n        leasableTokenCount--;\r\n    }\r\n}",
  "sourcePath": "F:\\www-2022\\fathonclub-work\\app\\contracts\\Leasing.sol",
  "compiler": {
    "name": "solc",
    "version": "0.8.11+commit.d7f03943.Emscripten.clang"
  },
  "schemaVersion": "3.4.5",
  "updatedAt": "2022-03-16T17:59:34.568Z",
  "devdoc": {
    "kind": "dev",
    "methods": {
      "owner()": {
        "details": "Returns the address of the current owner."
      },
      "renounceOwnership()": {
        "details": "Leaves the contract without owner. It will not be possible to call `onlyOwner` functions anymore. Can only be called by the current owner. NOTE: Renouncing ownership will leave the contract without an owner, thereby removing any functionality that is only available to the owner."
      },
      "setRoality(address,uint96)": {
        "details": "The denominator with which to interpret the fee set in {_setTokenRoyalty} and {_setDefaultRoyalty} as a fraction of the sale price. Defaults to 10000 so fees are expressed in basis points."
      },
      "transferOwnership(address)": {
        "details": "Transfers ownership of the contract to a new account (`newOwner`). Can only be called by the current owner."
      }
    },
    "version": 1
  },
  "userdoc": {
    "kind": "user",
    "methods": {},
    "version": 1
  }
}